:020000040800F2
:1000000000800120B1210008ED1F0008F51F000845
:10001000FD1F0008052000080D200008000000005A
:10002000000000000000000000000000D13A0008BD
:100030001520000800000000513D0008B93D0008EF
:10004000000000000122000801220008012200082F
:1000500001220008012200080122000801220008F4
:1000600001220008012200080122000801220008E4
:1000700001220008012200080122000801220008D4
:1000800001220008012200080122000800000000EF
:100090000000000000000000000000000122000835
:1000A00001220008012200080122000801220008A4
:1000B0000122000801220008012200080122000894
:1000C0000122000801220008012200080122000884
:1000D000012200080122000801220008000000009F
:1000E000012200080122000801220008000000008F
:1000F00000000000000000000000000001220008D5
:10010000000000000122000801220008012200086E
:1001100000000000000000000000000000000000DF
:100120000122000801220008012200080122000823
:100130000122000800000000000000000000000094
:100140000000000000000000000000000122000884
:1001500001220008012200080122000801220008F3
:100160000122000801220008000000000000000039
:10017000000000000000000000000000000000007F
:10018000000000000000000000000000000000006F
:040190000122000840
:1001A00010B5054C237833B9044B13B10448AFF3B1
:1001B00000800123237010BDE0010020000000003A
:1001C0001C6C000808B5034B1BB103490348AFF38F
:1001D000008008BD00000000E40100201C6C000845
:1001E00001F0FF01102A2BDB10F0070F08D010F8E8
:1001F000013B013A8B422DD010F0070F42B3F6D1EC
:10020000F0B441EA012141EA014122F007047FF004
:1002100000070023F0E80256083C85EA010586EA5B
:10022000010685FA47F5A3FA87F586FA47F6A5FA97
:1002300087F68EB9EED1F0BC01F0FF0102F00702A3
:1002400032B110F8013B013A83EA010313B1F8D14E
:100250000020704701387047002D06BF354603382F
:10026000073815F0010F07D1013015F4807F02BF68
:10027000013015F4C03F0130F0BC0138704700BFB9
:10028000034613F8012B002AFBD1181A01387047D6
:1002900081F0004102E000BF83F0004330B54FEA37
:1002A00041044FEA430594EA050F08BF90EA020FA4
:1002B0001FBF54EA000C55EA020C7FEA645C7FEA37
:1002C000655C00F0E2804FEA5454D4EB5555B8BF5A
:1002D0006D420CDD2C4480EA020281EA030382EACB
:1002E000000083EA010180EA020281EA0303362D5D
:1002F00088BF30BD11F0004F4FEA01314FF4801C30
:100300004CEA113102D0404261EB410113F0004F41
:100310004FEA03334CEA133302D0524263EB4303F8
:1003200094EA050F00F0A780A4F10104D5F1200E96
:100330000DDB02FA0EFC22FA05F2801841F10001F1
:1003400003FA0EF2801843FA05F359410EE0A5F1C5
:1003500020050EF1200E012A03FA0EFC28BF4CF0F6
:10036000020C43FA05F3C01851EBE37101F00045AC
:1003700007D54FF0000EDCF1000C7EEB00006EEBB9
:100380000101B1F5801F1BD3B1F5001F0CD3490843
:100390005FEA30004FEA3C0C04F101044FEA44529A
:1003A00012F5800F80F09A80BCF1004F08BF5FEA21
:1003B000500C50F1000041EB045141EA050130BD01
:1003C0005FEA4C0C404141EB0101013C28BFB1F513
:1003D000801FE9D291F0000F04BF01460020B1FA5E
:1003E00081F308BF2033A3F10B03B3F120020CDA31
:1003F0000C3208DD02F1140CC2F10C0201FA0CF00F
:1004000021FA02F10CE002F11402D8BFC2F1200C73
:1004100001FA02F120FA0CFCDCBF41EA0C01904029
:10042000E41AA2BF01EB0451294330BD6FEA040472
:100430001F3C1CDA0C340EDC04F11404C4F120025D
:1004400020FA04F001FA02F340EA030021FA04F36F
:1004500045EA030130BDC4F10C04C4F1200220FAC6
:1004600002F001FA04F340EA0300294630BD21FA04
:1004700004F0294630BD94F0000F83F4801306BFCA
:1004800081F480110134013D4EE77FEA645C18BFBE
:100490007FEA655C29D094EA050F08BF90EA020F55
:1004A00005D054EA000C04BF1946104630BD91EA4D
:1004B000030F1EBF0021002030BD5FEA545C05D150
:1004C0004000494128BF41F0004130BD14F580048F
:1004D0003CBF01F5801130BD01F0004545F0FE4103
:1004E00041F470014FF0000030BD7FEA645C1ABF38
:1004F000194610467FEA655C1CBF0B46024650EA6F
:10050000013406BF52EA033591EA030F41F400219A
:1005100030BD00BF90F0000F04BF0021704730B520
:100520004FF4806404F132044FF000054FF00001F5
:1005300050E700BF90F0000F04BF0021704730B5B6
:100540004FF4806404F1320410F0004548BF40428B
:100550004FF000013EE700BF42004FEAE2014FEAE0
:1005600031014FEA02701FBF12F07F4393F07F4FBB
:1005700081F06051704732F07F4208BF704793F0BE
:100580007F4F04BF41F40021704730B54FF46074D1
:1005900001F0004521F000411CE700BF50EA0102D4
:1005A00008BF704730B54FF000050AE050EA01027D
:1005B00008BF704730B511F0004502D5404261EBED
:1005C00041014FF4806404F132045FEA915C3FF42E
:1005D000D8AE4FF003025FEADC0C18BF03325FEACB
:1005E000DC0C18BF033202EBDC02C2F1200300FA7C
:1005F00003FC20FA02F001FA03FE40EA0E0021FAA1
:1006000002F11444BDE600BF70B54FF0FF0C4CF48E
:10061000E06C1CEA11541DBF1CEA135594EA0C0F40
:1006200095EA0C0F00F0DEF82C4481EA030621EA7B
:100630004C5123EA4C5350EA013518BF52EA0335B6
:1006400041F4801143F4801338D0A0FB02CE4FF068
:100650000005E1FB02E506F00042E0FB03E54FF098
:100660000006E1FB03569CF0000F18BF4EF0010E90
:10067000A4F1FF04B6F5007F64F5407404D25FEA8C
:100680004E0E6D4146EB060642EAC62141EA55513F
:100690004FEAC52040EA5E504FEACE2EB4F1FD0C81
:1006A00088BFBCF5E06F1ED8BEF1004F08BF5FEAFF
:1006B000500E50F1000041EB045170BD06F00046B1
:1006C00046EA010140EA020081EA0301B4EB5C045E
:1006D000C2BFD4EB0C0541EA045170BD41F4801156
:1006E0004FF0000E013C00F3AB8014F1360FDEBF7B
:1006F000002001F0004170BDC4F10004203C35DA57
:100700000C341BDC04F11404C4F1200500FA05F3D9
:1007100020FA04F001FA05F240EA020001F000427A
:1007200021F0004110EBD37021FA04F642EB0601F0
:100730005EEA430E08BF20EAD37070BDC4F10C041A
:10074000C4F1200500FA04F320FA05F001FA04F2DE
:1007500040EA020001F0004110EBD37041F10001CA
:100760005EEA430E08BF20EAD37070BDC4F12005D5
:1007700000FA05F24EEA020E20FA04F301FA05F23D
:1007800043EA020321FA04F001F0004121FA04F2E5
:1007900020EA020000EBD3705EEA430E08BF20EAB5
:1007A000D37070BD94F0000F0FD101F000464000EF
:1007B00041EB010111F4801F08BF013CF7D041EA71
:1007C000060195F0000F18BF704703F00046520075
:1007D00043EB030313F4801F08BF013DF7D043EA46
:1007E0000603704794EA0C0F0CEA135518BF95EAFC
:1007F0000C0F0CD050EA410618BF52EA4306D1D183
:1008000081EA030101F000414FF0000070BD50EAA1
:10081000410606BF1046194652EA430619D094EA2B
:100820000C0F02D150EA013613D195EA0C0F05D115
:1008300052EA03361CBF104619460AD181EA030169
:1008400001F0004141F0FE4141F470014FF0000021
:1008500070BD41F0FE4141F4780170BD70B54FF0BC
:10086000FF0C4CF4E06C1CEA11541DBF1CEA13553C
:1008700094EA0C0F95EA0C0F00F0A7F8A4EB05041E
:1008800081EA030E52EA03354FEA013100F0888015
:100890004FEA03334FF0805545EA131343EA1263DE
:1008A0004FEA022245EA111545EA10654FEA002693
:1008B0000EF000419D4208BF964244F1FD0404F54C
:1008C000407402D25B084FEA3202B61A65EB0305A8
:1008D0005B084FEA32024FF480104FF4002CB6EB65
:1008E000020E75EB030E22BFB61A754640EA0C00E5
:1008F0005B084FEA3202B6EB020E75EB030E22BF25
:10090000B61A754640EA5C005B084FEA3202B6EB65
:10091000020E75EB030E22BFB61A754640EA9C0024
:100920005B084FEA3202B6EB020E75EB030E22BFF4
:10093000B61A754640EADC0055EA060E18D04FEAB2
:10094000051545EA16754FEA06164FEAC30343EA52
:1009500052734FEAC2025FEA1C1CC0D111F4801F1F
:100960000BD141EA00014FF000004FF0004CB6E718
:1009700011F4801F04BF01430020B4F1FD0C88BFB7
:10098000BCF5E06F3FF6AFAEB5EB030C04BFB6EBC2
:10099000020C5FEA500C50F1000041EB045170BDB5
:1009A0000EF0004E4EEA113114EB5C04C2BFD4EBE2
:1009B0000C0541EA045170BD41F480114FF0000E66
:1009C000013C90E645EA060E8DE60CEA135594EAE2
:1009D0000C0F08BF95EA0C0F3FF43BAF94EA0C0FE5
:1009E0000AD150EA01347FF434AF95EA0C0F7FF45A
:1009F00025AF104619462CE795EA0C0F06D152EAAE
:100A000003353FF4FDAE1046194622E750EA410691
:100A100018BF52EA43067FF4C5AE50EA41047FF4A2
:100A20000DAF52EA43057FF4EBAE12E74FF0FF3C07
:100A300006E000BF4FF0010C02E000BF4FF0010CD8
:100A40004DF804CD4FEA410C7FEA6C5C4FEA430C51
:100A500018BF7FEA6C5C1BD001B050EA410C0CBFA0
:100A600052EA430C91EA030F02BF90EA020F002002
:100A7000704710F1000F91EA030F58BF994208BF69
:100A800090422CBFD8176FEAE37040F00100704726
:100A90004FEA410C7FEA6C5C02D150EA013C07D17D
:100AA0004FEA430C7FEA6C5CD6D152EA033CD3D0C8
:100AB0005DF8040B704700BF8446104662468C46C2
:100AC0001946634600E000BF01B5FFF7B7FF0028F5
:100AD00048BF10F1000F01BD4DF808EDFFF7F4FF1E
:100AE0000CBF012000205DF808FB00BF4DF808EDA9
:100AF000FFF7EAFF34BF012000205DF808FB00BFCC
:100B00004DF808EDFFF7E0FF94BF012000205DF8ED
:100B100008FB00BF4DF808EDFFF7CEFF94BF0120A2
:100B200000205DF808FB00BF4DF808EDFFF7C4FF9B
:100B300034BF012000205DF808FB00BF4FEA410CE4
:100B40007FEA6C5C02D150EA013C0AD14FEA430CC7
:100B50007FEA6C5C02D152EA033C02D14FF0000004
:100B600070474FF0010070474FEA410212F5001242
:100B700015D211D56FF47873B3EB625212D94FEAE4
:100B8000C12343F0004343EA505311F0004F23FACE
:100B900002F018BF404270474FF00000704750EA23
:100BA000013005D111F0004008BF6FF000407047E0
:100BB0004FF00000704700BF4A0011D212F500123A
:100BC00011D20DD56FF47873B3EB62520ED44FEAA5
:100BD000C12343F0004343EA505323FA02F0704725
:100BE0004FF00000704750EA013002D14FF0FF3063
:100BF00070474FF00000704753B94AB9002908BF49
:100C000000281CBF4FF0FF314FF0FF3000F088B9D3
:100C1000ADF1080C6DE904CE00F006F8DDF804E053
:100C2000DDE9022304B070472DE9F047089D0F4627
:100C300004468C46002B48D18A42164661D9B2FA46
:100C400082F34BB1C3F1200201FA03FC20FA02F255
:100C50009E4042EA0C0C9C404FEA164EB7B2BCFBD9
:100C6000FEF1220C0EFB11CC42EA0C4201FB07F014
:100C7000904209D9B21801F1FF3C80F0EE80904219
:100C800040F2EB8002393244121AA4B2B2FBFEF0F9
:100C90000EFB102244EA024400FB07F7A74209D9E1
:100CA000341900F1FF3280F0DA80A74240F2D78099
:100CB0003444023840EA0140E41B00211DB1DC400D
:100CC0000023C5E90043BDE8F0878B4206D90DB18A
:100CD000C5E9000100210846BDE8F087B3FA83F1B9
:100CE000002948D1BB4202D3824200F20781841A14
:100CF00067EB030201209446002DE4D0C5E9004CC7
:100D0000E1E7002A00F09280B2FA82F3002B40F073
:100D1000A8808A1A4FEA164E1FFA86FC0121200C81
:100D2000B2FBFEF70EFB172240EA02420CFB07F073
:100D3000904207D9B21807F1FF3802D2904200F270
:100D4000E2804746121AA4B2B2FBFEF00EFB10225C
:100D500044EA02440CFB00FCA44507D9341900F115
:100D6000FF3202D2A44500F2CB801046A4EB0C0463
:100D700040EA0740A2E7C1F120068B4022FA06FCB8
:100D80004CEA030C07FA01F420FA06F3F7404FEAA5
:100D90001C49234300FA01F81FFA8CFEB7FBF9F057
:100DA0001C0C09FB107744EA074400FB0EF7A7422E
:100DB00002FA01F20AD91CEB040400F1FF3A80F0B8
:100DC0009B80A74240F2988002386444E41B9FB2A3
:100DD000B4FBF9F309FB134447EA044403FB0EFE9A
:100DE000A64509D91CEB040403F1FF3780F082808B
:100DF000A6457FD9023B644443EA0040A4EB0E04BD
:100E0000A0FB02E7BC427346B94663D360D05DB134
:100E1000B8EB030264EB090404FA06F622FA01F3C4
:100E20001E43CC40C5E9006400214CE76208480835
:100E300042EAC1710B0C43EA00438AB242EA034220
:100E4000B3FBF6F1E407B4463746B6461F23B0FBC2
:100E5000F6F0D21B41EA004161E7614614E7104613
:100E600028E7C3F1200120FA01F29E4027FA01F1A0
:100E70009F403A434FEA164E1FFA86FCB1FBFEF73D
:100E80000EFB1710110C41EA004107FB0CF88845D6
:100E900004FA03F43AD9711807F1FF3001D28845FA
:100EA0001FD8A1EB0801B1FBFEF808FB0CF70EFB05
:100EB000181192B242EA0142BA422FD2B21808F196
:100EC000FF31C6D2BA42C4D2A8F102013244C0E70F
:100ED000F0459CD2BEEB020367EB0C070138B94624
:100EE00095E7A6EB08084144B81EB1FBFEF808FBE5
:100EF0000CF7DCE73B467FE7504667E70846FBE632
:100F00003444023832E7023F32441BE7A1EB0801C8
:100F10003846B1FBFEF808FB0CF7C8E7414698E7F6
:100F2000704700BF80B400AF064BD3F88830054A45
:100F300043F47003C2F8883000BFBD465DF8047BFF
:100F4000704700BF00ED00E080B483B000AF0346FF
:100F5000FB7197F90730002B0BDBFB7903F01F02C5
:100F6000074997F907305B09012000FA02F241F8BE
:100F7000232000BF0C37BD465DF8047B704700BFDF
:100F800000E100E080B483B000AF0346FB7197F945
:100F90000730002B0CDBFB7903F01F02074997F9A0
:100FA00007305B09012000FA02F2603341F8232088
:100FB00000BF0C37BD465DF8047B704700E100E0E0
:100FC00080B483B000AF03463960FB7197F90730F6
:100FD000002B0ADB3B68DAB20C4997F907301201A3
:100FE000D2B20B4483F800230AE03B68DAB2084926
:100FF000FB7903F00F03043B1201D2B20B441A76C3
:1010000000BF0C37BD465DF8047B704700E100E08F
:1010100000ED00E080B584B000AFF8607B600B4667
:10102000FB721346BB72FB68464A934206D1464B9D
:101030001B6B454A43F00103136335E0FB68434AE9
:10104000934206D1404B1B6B3F4A43F002031363AC
:101050002AE0FB683E4A934206D13B4B1B6B3A4A5F
:1010600043F0040313631FE0FB683A4A934206D13E
:10107000354B1B6B344A43F00803136314E0FB68E1
:10108000354A934206D1304B1B6B2F4A43F0100375
:10109000136309E0FB68314A934205D12A4B1B6B6D
:1010A000294A43F080031363FB681A68FB7A5B00EC
:1010B000032101FA03F3DB431A40FB681A60FB6863
:1010C0001A68FB681A60FB68DA68FB7A5B00032128
:1010D00001FA03F3DB431A40FB68DA60BB7A022BA8
:1010E00012D0022B1CDC002B1CD0012B00D017E0EF
:1010F000FB68DA68FB7A5B00012101FA03F3DB434A
:101100001A40FB68DA600EE0FB68DA68FB7A5B0085
:10111000022101FA03F3DB431A40FB68DA6002E0C4
:1011200000BF00E000BF7B681B78002B06D07B6807
:10113000FA7A5A707968F86800F02AF900BF103717
:10114000BD4680BD0000024000380240000402405D
:1011500000080240000C024000100240001C024047
:1011600080B485B000AF78600B467B800023FB73B2
:101170007B681A687B885B0022FA03F303F00303A1
:10118000002B0CBF01230023DBB2BB73BB7B002B06
:101190000DD07B681B697A88012101FA02F21340A5
:1011A000002B02D00123FB7301E00023FB73FB7BC8
:1011B00018461437BD465DF8047B704780B483B091
:1011C00000AF7860084611461A460346FB700B468E
:1011D000BB7013467B707B684B4A934206D14B4BE6
:1011E0001B6B4A4A43F00103136335E07B68484AAE
:1011F000934206D1454B1B6B444A43F002031363F1
:101200002AE07B68434A934206D1404B1B6B3F4A1E
:1012100043F0040313631FE07B683F4A934206D107
:101220003A4B1B6B394A43F00803136314E07B68A5
:101230003A4A934206D1354B1B6B344A43F01003B4
:10124000136309E07B68364A934205D12F4B1B6B31
:101250002E4A43F0800313637B681A68FB785B00B7
:10126000032101FA03F3DB431A407B681A607B68B1
:101270001A68FB785B00012101FA03F31A437B68CB
:101280001A607B68DA68FB785B00032101FA03F3DC
:10129000DB431A407B68DA607B68DB68B978FA78F0
:1012A000520001FA02F21A437B68DA607B689A689E
:1012B000FB785B00032101FA03F3DB431A407B68F0
:1012C0009A607B689B687978FA78520001FA02F29A
:1012D0001A437B689A607B685A68FB78032101FA9D
:1012E00003F3DB431A407B685A607B685B68397C98
:1012F000FA7801FA02F21A437B685A6000BF0C3791
:10130000BD465DF8047B7047000002400038024093
:101310000004024000080240000C0240001002409D
:10132000001C024080B485B000AF78600B46FB70B3
:101330001346BB707B681A68FB785B0022FA03F3E4
:1013400003F00303012B0CBF01230023DBB2FB736B
:10135000FB7B002B16D0BB78002B09D07B689B69E8
:10136000FA78012101FA02F21A437B689A6109E0D6
:101370007B689B69FA781032012101FA02F21A4364
:101380007B689A6100BF1437BD465DF8047B7047E7
:1013900080B584B000AF786039603B685B781846F0
:1013A000FFF7C8F84FF000029D4BFFF757FA0246CF
:1013B0000B4610461946FFF7FFFB0346FB733B68DD
:1013C0005B7803F00303DBB29B00BB73954B5B6C54
:1013D000944A43F480435364934B1B683A685278B1
:1013E000114601228A4011468F4A0B4313608F4AEF
:1013F000FB7B023352F823203B685B785B000F21B4
:1014000001FA03F3DB4318468849FB7B02400233B1
:1014100041F823207B68864A93420AD18348FA7BAD
:101420008249FB7B023250F82220023341F823200C
:1014300067E07B687F4A934210D17C4AFB7B023392
:1014400052F82320BB7B012101FA03F318467749A8
:10145000FB7B0243023341F8232052E07B68764A4B
:10146000934210D1714AFB7B023352F82320BB7B9D
:10147000022101FA03F318466C49FB7B0243023355
:1014800041F823203DE07B686C4A934210D1674AC3
:10149000FB7B023352F82320BB7B032101FA03F3C9
:1014A00018466249FB7B0243023341F8232028E0BF
:1014B0007B68634A934210D15C4AFB7B023352F84B
:1014C0002320BB7B042101FA03F318465749FB7B19
:1014D0000243023341F8232013E07B68594A9342C8
:1014E0000FD1524AFB7B023352F82320BB7B0721EA
:1014F00001FA03F318464D49FB7B0243023341F8DE
:1015000023203B689B78022B1ED0022B33DC002B60
:1015100002D0012B0CD02EE0434B9B683A685278E6
:10152000114601228A4011463F4A0B43936023E053
:101530003D4BDB683A685278114601228A401146D9
:10154000394A0B43D36017E0374BDB683A6852786F
:10155000114601228A401146334A0B43D360324B75
:101560009B683A685278114601228A4011462E4AF9
:101570000B43936000E000BF3B685B78002B17D102
:101580003B68DB7819460620FFF71AFD0620FFF7B7
:10159000DBFC254B5B693A685278114601228A4090
:1015A0001146214A0B4353610620FFF7EBFCC2E0D2
:1015B0003B685B78012B17D13B68DB781946072025
:1015C000FFF7FEFC0720FFF7BFFC174B5B693A688B
:1015D0005278114601228A401146134A0B43536147
:1015E0000720FFF7CFFCA6E03B685B78022B2BD1EE
:1015F0003B68DB7819460820FFF7E2FC0820FFF77C
:10160000A3FC094B5B693A685278114601228A4073
:101610001146054A0B4353610820FFF7B3FC8AE0EB
:101620000000104000380240003C014000380140FA
:10163000000002400004024000080240000C02408A
:1016400000100240001C02403B685B78032B17D15E
:101650003B68DB7819460920FFF7B2FC0920FFF749
:1016600073FC374B5B693A685278114601228A4015
:101670001146334A0B4353610920FFF783FC5AE0BC
:101680003B685B78042B17D13B68DB7819460A204E
:10169000FFF796FC0A20FFF757FC294B5B693A6875
:1016A0005278114601228A401146254A0B43536164
:1016B0000A20FFF767FC3EE03B685B78042B1BD9F0
:1016C0003B685B78092B17D83B68DB7819461720F5
:1016D000FFF776FC1720FFF737FC194B5B693A6878
:1016E0005278114601228A401146154A0B43536134
:1016F0001720FFF747FC1EE03B685B78092B1AD9DF
:101700003B685B780F2B16D83B68DB78194628209E
:10171000FFF756FC2820FFF717FC094B5B693A6876
:101720005278114601228A401146054A0B43536103
:101730002820FFF727FC00BF1037BD4680BD00BF43
:10174000003C014080B400AF1D4B1B6B1C4A43F0B2
:10175000010313631B4B1B681A4A23F470131360B5
:10176000184B1B68174A43F420131360154B9B68F2
:10177000144A23F470139360124B9B68114A43F48C
:10178000701393600F4BDB680E4A23F47013D36021
:101790000C4BDB680B4A43F4A013D360094B5B6A24
:1017A000084A23F47F635362064B5B6A054A43F49D
:1017B000EE63536200BFBD465DF8047B704700BF17
:1017C000003802400000024080B400AF264B1B6B83
:1017D000254A43F001031363234B1B6B224A43F05A
:1017E00001031363214B1B6823F030031F4A43F0AE
:1017F000200313601D4B1B6823F0C0031B4A43F0FA
:1018000080031360194B1B6A23F47063174A43F477
:10181000E0631362154B1B6A23F47043134A43F4CD
:10182000E0431362114B9B68104A43F0300393600E
:101830000E4B9B680D4A43F0C00393600B4BDB6873
:1018400023F03003094A43F01003D360074BDB68F1
:1018500023F0C003054A43F04003D36000BFBD46F8
:101860005DF8047B704700BF003802400000024072
:1018700080B400AF074B1B68074A9268920A02F0D7
:10188000070206498A5CD3401846BD465DF8047BD2
:10189000704700BF0000002000380240BC6C000808
:1018A00080B400AF074B1B68074A9268520B02F0E6
:1018B000070206498A5CD3401846BD465DF8047BA2
:1018C000704700BF0000002000380240BC6C0008D8
:1018D0002DE9B04FC0B000AFC7F8F400D7F8F4302E
:1018E0005B68C7F8F830D7F8F4301A68A14B9A4211
:1018F0000CD1A14B5B6CA04A43F010035364FFF77B
:1019000021FFFFF7CDFFC7F8FC0011E0D7F8F43056
:101910001A689A4B9A420BD1974B1B6C964A43F428
:1019200000331364FFF750FFFFF7A2FFC7F8FC0076
:10193000D7F8F4301B7A002B09D0D7F8F4301B68A5
:10194000D968D7F8F4301A6841F48053D360D7F8D7
:10195000F4305B7A002B00F01581D7F8F4301B6867
:10196000D968D7F8F4301A6841F40043D360D7F847
:10197000FC300022C7F8E830C7F8EC20D7E93A4538
:1019800022462B469118B9655B41FB65D7E91623C2
:10199000214612EB0108294643EB01094FF00002F2
:1019A0004FF000034FEAC90343EA58734FEAC802F5
:1019B00090469946234618EB0303C7F8E0302B46C0
:1019C00049EB0303C7F8E430D7F8F8300022C7F832
:1019D000D830C7F8DC20D7E936120B46DB183B6558
:1019E000134642EB03037B65D7E91423D7E938019B
:1019F000FFF702F902460B46614BA3FB02235B098A
:101A00001C01D7F8FC300022C7F8D030C7F8D4202A
:101A1000D7E9348942464B469118B9645B41FB646F
:101A2000D7E91223414612EB010A494643EB010B69
:101A30004FF000024FF000034FEACB0343EA5A7322
:101A40004FEACA0292469B4643461AEB0303C7F885
:101A5000C8304B464BEB0303C7F8CC30D7F8F8300F
:101A60000022C7F8C030C7F8C420D7E930120B46AF
:101A7000DB183B64134642EB03037B64D7E9102376
:101A8000D7E93201FFF7B8F802460B4611463C4B46
:101A9000A3FB01235B09642202FB03F3CB1ADB00E7
:101AA00003F13202364BA3FB02235B095B0003F414
:101AB000F8731C44D7F8FC300022C7F8B830C7F8D8
:101AC000BC20D7E92E8942464B469118B9635B4149
:101AD000FB63D7E90E2341465118396349464B4110
:101AE0007B634FF000024FF00003D7E90CAB59467F
:101AF000CB00514643EA51735146CA00104619467D
:101B0000034642469B18C7F8B0304B460A4642EBA4
:101B10000303C7F8B430D7F8F8300022C7F8A8306C
:101B2000C7F8AC20D7E92A120B46DB18BB62134674
:101B300042EB0303FB62D7E90A23D7E92C01FFF745
:101B40005BF802460B460E4BA3FB02135B096421B4
:101B500001FB03F3D31ADB003233094AA2FB032350
:101B60005B0903F00702D7F8F4301B6822449A603F
:101B70000FE100BF00100140003802400044004067
:101B80001F85EB51D7F8F4301B68D968D7F8F430CB
:101B90001A6821F40043D360D7F8FC300022C7F85C
:101BA000A030C7F8A420D7E9288942464B469118AF
:101BB00039625B417B62D7E90823414654184946A4
:101BC00043EB01054FF000024FF00003EB0043EA46
:101BD0005473E20014461D464346E318C7F8983094
:101BE0004B4645EB0303C7F89C30D7F8F83000228A
:101BF000C7F89030C7F894204FF000024FF0000370
:101C0000D7E9244529468B00214643EA91732146B2
:101C10008A00D7E92601FEF7EFFF02460B468E4BFE
:101C2000A3FB02235B091C01D7F8FC300022C7F894
:101C30008830C7F88C20D7E9228942464B46911854
:101C4000B9615B41FB61D7E906234146511839610F
:101C500049464B417B614FF000024FF00003D7E94A
:101C600004AB5946CB00514643EA51735146CA0072
:101C700010461946034642469B18C7F880304B462B
:101C80000A4642EB0303C7F88430D7F8F830002245
:101C9000BB67FA674FF000024FF00003D7E91E89D7
:101CA00049468B00414643EA917341468A00D7E991
:101CB0002001FEF7A1FF02460B461146664BA3FB2F
:101CC00001235B09642202FB03F3CB1A1B013233AD
:101CD000614AA2FB03235B0903F0F0031C44D7F81D
:101CE000FC3000223B677A67D7E91C8942464B46A5
:101CF0009118B9605B41FB60D7E902234146511856
:101D0000396049464B417B604FF000024FF00003C1
:101D1000D7E900AB5946CB00514643EA51735146CF
:101D2000CA0010461946034642469B18BB664B46FE
:101D30000A4642EB0303FB66D7F8F83000223B6605
:101D40007A664FF000024FF00003D7E91889494640
:101D50008B00414643EA917341468A00D7E91A0154
:101D6000FEF74AFF02460B463B4BA3FB02135B09FF
:101D7000642101FB03F3D31A1B013233364AA2FB61
:101D800003235B0903F00F02D7F8F4301B682244E9
:101D90009A60D7F8F4309B7A002B0AD1D7F8F43048
:101DA0001B681A69D7F8F4301B6822F440521A6194
:101DB00019E0D7F8F4309B7A012B0AD1D7F8F43028
:101DC0001B681A69D7F8F4301B6842F480521A6114
:101DD00009E0D7F8F4301B681A69D7F8F4301B68AB
:101DE00042F400521A61D7F8F430DB7A002B18D095
:101DF000D7F8F4301B681A69D7F8F4301B6842F43E
:101E000080621A61D7F8F4301B7B002B09D0D7F819
:101E1000F4301B68DA68D7F8F4301B6842F40072BB
:101E2000DA60D7F8F4301B68DA68D7F8F4301B684A
:101E300042F00C02DA60D7F8F4301B68DA68D7F8A1
:101E4000F4301B6842F40052DA6000BF07F5807777
:101E5000BD46BDE8B08F00BF1F85EB5180B584B093
:101E600002AF00237B601848FFF732FD174802F0ED
:101E700057FF174B01930223009300234FF4806216
:101E80001449154800F072FE78607B68012B01D080
:101E900000BFFDE70021114800F0D2F90346104AC7
:101EA00013600F4B1B68002B01D100BFFDE703221D
:101EB0000021012000F01EFB03460A4A136000F0D7
:101EC000B8F900BFFDE700BF04000020446C000823
:101ED000FC010020586C0008E91E0008C46C0008D2
:101EE000000200200802002080B584B002AF7860B4
:101EF000002300930023002205211548FFF75EF917
:101F0000002205211248FFF70DFA124802F008FFDF
:101F1000114B1B684FF4FA61184600F02FFC034682
:101F2000002B08D0012205210948FFF7FBF90B48D7
:101F300002F0F6FE07E0002205210548FFF7F2F95E
:101F4000074802F0EDFE012000F050FFE0E700BF7F
:101F500000000240646C000808020020746C000855
:101F6000886C000880B582B000AF78600E4B00220C
:101F70000D210E48FFF74EF80D4802F0D1FE0D215D
:101F80000A48FFF7EDF80346002B09D1642000F062
:101F90007EF9084B186800230022002100F004FBA2
:101FA000012000F074F9EAE7040200200008024072
:101FB000A06C00080802002080B485B000AF7860F3
:101FC0007B68FB7300BF084B1B6803F08003002B8A
:101FD000F9D0054AFB7B53607B6818461437BD4631
:101FE0005DF8047B704700BF0044004080B400AF40
:101FF00000BFFDE780B400AF00BFFDE780B400AFD5
:1020000000BFFDE780B400AF00BFFDE780B400AFC4
:1020100000BFFDE780B400AF00BFBD465DF8047BA4
:10202000704780B400AF01231846BD465DF8047BBD
:10203000704780B582B000AF7860396002F0A0FFD1
:10204000034616221A604FF0FF3318460837BD4684
:1020500080BD80B582B000AF78604FF0FF31786806
:10206000FFF7E7FF00BFFDE780B586B000AFF8607F
:10207000B9607A6000237B610AE0AFF3008001461B
:10208000BB685A1CBA60CAB21A707B6901337B61A3
:102090007A697B689A42F0DB7B6818461837BD4640
:1020A00080BD80B586B000AFF860B9607A6000236B
:1020B0007B6109E0BB685A1CBA601B781846FFF7C1
:1020C0007BFF7B6901337B617A697B689A42F1DB34
:1020D0007B6818461837BD4680BD80B483B000AF1A
:1020E00078604FF0FF3318460C37BD465DF8047B2F
:1020F000704780B483B000AF786039603B684FF4BC
:1021000000525A60002318460C37BD465DF8047B28
:10211000704780B483B000AF7860012318460C3755
:10212000BD465DF8047B704780B485B000AFF860B1
:10213000B9607A60002318461437BD465DF8047B09
:102140007047000080B586B000AF7860144A154B28
:10215000D31A7B617B693B61134B1B68002B02D157
:10216000114B124A1A60104B1A687B6813443A6983
:102170009A4207D202F004FF03460C221A604FF085
:10218000FF3309E0084B1B68FB60074B1A687B684C
:102190001344054A1360FB6818461837BD4680BDD6
:1021A00000800120000400000C020020882C002088
:1021B0000D488546FEF7B6FE0C480D490D4A002332
:1021C00002E0D458C4500433C4188C42F9D30A4AEC
:1021D0000A4C002301E013600432A242FBD302F058
:1021E000D5FEFFF73BFEFEE7008001200000002047
:1021F000E00100205C700008E0010020882C002035
:10220000FEE780B485B000AF0346FB800023FB608F
:10221000B7F90630842B05D0B7F90620FB681344C4
:102220000333FB60FB6818461437BD465DF8047B3A
:10223000704780B500AF00F00FFE0023184680BD48
:10224000F0B587B002AF786039607B685C687B6806
:102250001D687B681B699EB27B68B3F9083018461D
:10226000FFF7CFFF024607F10C03019300923B6892
:1022700032462946204600F079FC0346012B01D066
:10228000002300E0FB6818461437BD46F0BD80B55A
:1022900084B000AF78607B68FB60FB68002B01D0E6
:1022A000FB6800E00123184600F0A0FD002318465B
:1022B0001037BD4680BD80B483B000AF78607B68C6
:1022C00003F108027B685A607B684FF0FF329A6026
:1022D0007B6803F108027B68DA607B6803F108021F
:1022E0007B681A617B6800221A6000BF0C37BD460C
:1022F0005DF8047B704780B483B000AF78607B6882
:1023000000221A6100BF0C37BD465DF8047B7047A0
:1023100080B485B000AF786039607B685B68FB6033
:102320003B68FA685A60FB689A683B689A60FB6889
:102330009B683A685A60FB683A689A603B687A68BA
:102340001A617B681B685A1C7B681A6000BF1437CF
:10235000BD465DF8047B704780B485B000AF7860FF
:1023600039603B681B68BB60BB68B3F1FF3F03D1BA
:102370007B681B69FB600CE07B680833FB6002E054
:10238000FB685B68FB60FB685B681B68BA689A4225
:10239000F6D2FB685A683B685A603B685B683A68EB
:1023A0009A603B68FA689A60FB683A685A603B68D2
:1023B0007A681A617B681B685A1C7B681A6000BFC8
:1023C0001437BD465DF8047B704780B485B000AF1C
:1023D00078607B681B69FB607B685B687A689268E1
:1023E0009A607B689B687A6852685A60FB685B6891
:1023F0007A689A4203D17B689A68FB685A607B6866
:1024000000221A61FB681B685A1EFB681A60FB6891
:102410001B6818461437BD465DF8047B7047000002
:1024200080B584B000AF786039607B68FB60FB6882
:10243000002B0BD14FF0500383F31188BFF36F8F44
:10244000BFF34F8FBB6000BF00BFFDE701F01EFC74
:10245000FB681A68FB68DB6BF968096C01FB03F326
:102460001A44FB689A60FB6800229A63FB681A684A
:10247000FB685A60FB681A68FB68DB6B013BF96814
:10248000096C01FB03F31A44FB68DA60FB68FF2266
:1024900083F84420FB68FF2283F845203B68002B2B
:1024A00014D1FB681B69002B1AD0FB681033184647
:1024B00000F002FF0346002B12D00D4B4FF080526C
:1024C0001A60BFF34F8FBFF36F8F09E0FB681033C3
:1024D0001846FFF7F0FEFB6824331846FFF7EBFEC3
:1024E00001F006FC012318461037BD4680BD00BF31
:1024F00004ED00E080B58AB002AFF860B960134621
:10250000FB71FB68002B0BD14FF0500383F3118854
:10251000BFF36F8FBFF34F8F3B6100BF00BFFDE77D
:10252000FB68BA6802FB03F3FB61FB695033184692
:1025300001F092FCB861BB69002B0DD0BB697B61D7
:102540007B6950337B61FA79BB69009313467A69E2
:10255000B968F86800F005F8BB6918462037BD4631
:1025600080BD80B584B000AFF860B9607A60FB7060
:10257000BB68002B03D1BB69BA691A6002E0BB6972
:102580007A681A60BB69FA68DA63BB69BA681A6468
:102590000121B869FFF744FFBB69FA7883F84C2042
:1025A00000BF1037BD4680BD80B58CB000AFF8606D
:1025B000B9607A603B600023FB62FB68BB62BB6A68
:1025C000002B0BD14FF0500383F31188BFF36F8FB3
:1025D000BFF34F8F3B6200BF00BFFDE7BB68002B1E
:1025E00003D1BB6A1B6C002B01D1012300E0002347
:1025F000002B0BD14FF0500383F31188BFF36F8F83
:10260000BFF34F8FFB6100BF00BFFDE73B68022BAC
:1026100003D1BB6ADB6B012B01D1012300E0002356
:10262000002B0BD14FF0500383F31188BFF36F8F52
:10263000BFF34F8FBB6100BF00BFFDE701F026FB7A
:10264000BB6A9A6BBB6ADB6B9A4202D33B68022B74
:1026500029D13A68B968B86A00F09EF97862BB6A15
:102660005B6A002B10D0BB6A2433184600F024FEAE
:102670000346002B13D0404B4FF080521A60BFF33B
:102680004F8FBFF36F8F0AE07B6A002B07D03A4B66
:102690004FF080521A60BFF34F8FBFF36F8F01F07E
:1026A00027FB012363E07B68002B03D101F020FBB3
:1026B00000235CE0FB6A002B06D107F110031846EB
:1026C00000F05EFE0123FB6201F012FB00F00CFC47
:1026D00001F0DCFABB6A93F844305BB2B3F1FF3F20
:1026E00003D1BB6A002283F84420BB6A93F84530CB
:1026F0005BB2B3F1FF3F03D1BB6A002283F84520F0
:1027000001F0F6FA3A1D07F110031146184600F0E1
:102710004DFE0346002B24D1B86A00F00FFA0346A1
:10272000002B18D0BB6A10337A681146184600F0A7
:102730009DFDB86A00F09AF900F0E4FB0346002B17
:102740007FF47CAF0C4B4FF080521A60BFF34F8F79
:10275000BFF36F8F72E7B86A00F088F900F0D2FB20
:102760006CE7B86A00F082F900F0CCFB0023184651
:102770003037BD4680BD00BF04ED00E080B58CB0B1
:1027800000AF786039600023FB627B687B620023C6
:10279000BB627B6A002B0BD14FF0500383F311888F
:1027A000BFF36F8FBFF34F8FBB6100BF00BFFDE76B
:1027B0007B6A1B6C002B0BD04FF0500383F3118806
:1027C000BFF36F8FBFF34F8F7B6100BF00BFFDE78B
:1027D00001F05CFA7B6A9B6B3B623B6A002B24D066
:1027E0003B6A5A1E7B6A9A637B6A1B68002B04D182
:1027F00001F090F802467B6A9A607B6A1B69002BA5
:102800000FD07B6A1033184600F056FD0346002BAC
:1028100007D0544B4FF080521A60BFF34F8FBFF375
:102820006F8F01F065FA012398E03B68002B12D10D
:10283000BB6A002B0BD04FF0500383F31188BFF31A
:102840006F8FBFF34F8F3B6100BF00BFFDE701F00B
:102850004FFA002382E0FB6A002B06D107F1080340
:10286000184600F08DFD0123FB6201F041FA00F0F3
:102870003BFB01F00BFA7B6A93F844305BB2B3F197
:10288000FF3F03D17B6A002283F844207B6A93F8E0
:1028900045305BB2B3F1FF3F03D17B6A002283F87E
:1028A000452001F025FA3A4607F10803114618467B
:1028B00000F07CFD0346002B32D1786A00F028F945
:1028C0000346002B26D07B6A1B68002B09D101F040
:1028D000DDF97B6A9B68184600F08EFEB86201F055
:1028E00007FA7B6A24333A681146184600F0BEFCAA
:1028F000786A00F0BBF800F005FB0346002B7FF47C
:1029000067AF184B4FF080521A60BFF34F8FBFF381
:102910006F8F5DE7786A00F0A9F800F0F3FA57E7E7
:10292000786A00F0A3F800F0EDFA786A00F0F0F8A9
:102930000346002B3FF44CAFBB6A002B0DD001F0D7
:10294000A5F9786A00F010F8F8617B6A9B68F9696C
:10295000184600F04FFF01F0CBF90023184630373E
:10296000BD4680BD04ED00E080B485B000AF786066
:102970007B685B6A002B06D07B681B6B1B68C3F10E
:102980000503FB6001E00023FB60FB681846143779
:10299000BD465DF8047B704780B586B000AFF86037
:1029A000B9607A6000237B61FB689B6B3B61FB68CD
:1029B0001B6C002B0DD1FB681B68002B4DD1FB68F5
:1029C0009B68184600F08EFE7861FB6800229A60D2
:1029D00043E07B68002B19D1FB685868FB681B6CCF
:1029E0001A46B96802F0F9FAFB685A68FB681B6C72
:1029F0001A44FB685A60FB685A68FB689B689A42F5
:102A00002BD3FB681A68FB685A6026E0FB68D8681D
:102A1000FB681B6C1A46B96802F0DFFAFB68DA68DB
:102A2000FB681B6C5B421A44FB68DA60FB68DA687F
:102A3000FB681B689A4207D2FB689A68FB681B6CAC
:102A40005B421A44FB68DA607B68022B05D13B6964
:102A5000002B02D03B69013B3B613B695A1CFB6880
:102A60009A637B6918461837BD4680BD80B584B02F
:102A700000AF786001F00AF97B6893F84530FB738A
:102A800011E07B685B6A002B12D07B682433184608
:102A900000F012FC0346002B01D000F0EBFCFB7BA6
:102AA000013BDBB2FB7397F90F30002BE9DC00E050
:102AB00000BF7B68FF2283F8452001F019F901F07F
:102AC000E5F87B6893F84430BB7311E07B681B69C1
:102AD000002B12D07B681033184600F0EDFB034644
:102AE000002B01D000F0C6FCBB7B013BDBB2BB730B
:102AF00097F90E30002BE9DC00E000BF7B68FF2275
:102B000083F8442001F0F4F800BF1037BD4680BDC3
:102B100080B584B000AF786001F0B8F87B689B6B3B
:102B2000002B02D10123FB6001E00023FB6001F0D8
:102B3000DFF8FB6818461037BD4680BD80B584B00D
:102B400000AF786001F0A2F87B689A6B7B68DB6B62
:102B50009A4202D10123FB6001E00023FB6001F0F7
:102B6000C7F8FB6818461037BD4680BD80B58CB0ED
:102B700004AFF860B9603B601346FB80FB889B00A4
:102B8000184601F069F978617B69002B0ED0582056
:102B900001F062F9F861FB69002B03D0FB697A69E7
:102BA0001A6305E0786901F025FA01E00023FB6172
:102BB000FB69002B13D0FA8800230393FB6902936F
:102BC000FB6A0193BB6A00933B68B968F86800F040
:102BD0000EF8F86900F09CF80123BB6102E04FF0A9
:102BE000FF33BB61BB6918462037BD4680BD80B549
:102BF00088B000AFF860B9607A603B603B6B186BDF
:102C00007B689B001A46A52102F068F93B6B1A6BA2
:102C10007B6803F18043013B9B001344BB61BB69AC
:102C200023F00703BB61BB6903F00703002B0BD044
:102C30004FF0500383F31188BFF36F8FBFF34F8FB3
:102C40007B6100BF00BFFDE7BB68002B1FD00023E6
:102C5000FB6112E0BA68FB69134419783A6BFB69AF
:102C6000134434330A461A70BA68FB6913441B785C
:102C7000002B06D0FB690133FB61FB69092BE9D905
:102C800000E000BF3B6B002283F83D2003E03B6B7C
:102C9000002283F83420BB6A042B01D90423BB62D1
:102CA0003B6BBA6ADA623B6BBA6A9A643B6B00228E
:102CB000DA643B6B04331846FFF71DFB3B6B18339C
:102CC0001846FFF718FB3B6B3A6B1A61BB6AC3F1FE
:102CD00005023B6B9A613B6B3A6B5A623B6B00227D
:102CE0001A653B6B002283F854203A68F968B8698A
:102CF00000F08AFE02463B6B1A60FB6A002B02D092
:102D0000FB6A3A6B1A6000BF2037BD4680BD0000E9
:102D100080B582B000AF786000F0B8FF2C4B1B6824
:102D200001332B4A13602B4B1B68002B09D1294A16
:102D30007B681360264B1B68012B10D100F0BEFB93
:102D40000DE0254B1B68002B09D1224B1B68DA6A6A
:102D50007B68DB6A9A4202D81E4A7B6813601F4B6D
:102D60001B6801331D4A13601C4B1A687B681A6488
:102D70007B68DB6A01229A40194B1B681343184A8F
:102D800013607B68DA6A13469B0013449B00154A64
:102D90001A447B68043319461046FFF7B9FA00F06D
:102DA000A7FF0D4B1B68002B0ED00A4B1B68DA6A7D
:102DB0007B68DB6A9A4207D20B4B4FF080521A6055
:102DC000BFF34F8FBFF36F8F00BF0837BD4680BD85
:102DD000E802002010020020F4020020040300207A
:102DE000F00200201402002004ED00E080B584B061
:102DF00000AF78600023FB607B68002B18D0144B79
:102E00001B68002B0BD04FF0500383F31188BFF3E6
:102E10006F8FBFF34F8FBB6000BF00BFFDE700F0B7
:102E200063F80021786800F089FD00F06BF8F86025
:102E3000FB68002B07D1074B4FF080521A60BFF39D
:102E40004F8FBFF36F8F00BF1037BD4680BD00BFEF
:102E50001003002004ED00E080B586B002AF1C4BEB
:102E6000019300230093002382221A491A48FFF796
:102E70007DFEF860FB68012B16D14FF0500383F301
:102E80001188BFF36F8FBFF34F8FBB6000BF134B31
:102E90004FF0FF321A60124B01221A60114B0022D0
:102EA0001A6000F03DFE0FE0FB68B3F1FF3F0BD16D
:102EB0004FF0500383F31188BFF36F8FBFF34F8F31
:102EC0007B6000BF00BFFDE700BF1037BD4680BD7F
:102ED0000C030020B46C00088D34000808030020A7
:102EE000F4020020EC02002080B400AF044B1B6809
:102EF0000133034A136000BFBD465DF8047B704791
:102F00001003002080B584B000AF0023FB600023D5
:102F1000BB60424B1B68002B0BD14FF0500383F377
:102F20001188BFF36F8FBFF34F8F3B6000BF00BFAF
:102F3000FDE700F0ABFE394B1B68013B374A1360DD
:102F4000364B1B68002B61D1354B1B68002B5DD0C5
:102F50002EE0344BDB68DB68FB60FB6818331846F7
:102F6000FFF733FAFB6804331846FFF72EFAFB68C5
:102F7000DB6A01229A402C4B1B6813432A4A1360D8
:102F8000FB68DA6A13469B0013449B00274A1A44E5
:102F9000FB68043319461046FFF7BAF9FB68DA6A92
:102FA000234B1B68DB6A9A4202D3224B01221A6030
:102FB0001C4B1B68002BCCD1FB68002B01D000F010
:102FC000FBFA1D4B1B687B607B68002B10D000F068
:102FD00037F80346002B02D0164B01221A607B689B
:102FE000013B7B607B68002BF1D1134B00221A6000
:102FF000104B1B68002B09D00123BB600F4B4FF017
:1030000080521A60BFF34F8FBFF36F8F00F070FED6
:10301000BB6818461037BD4680BD00BF10030020B6
:10302000E8020020A8020020F00200201402002084
:1030300010020020FC020020F802002004ED00E055
:1030400080B586B000AF00237B614F4B1B68002B1F
:1030500040F08F804D4B1B6801333B614B4A3B690D
:1030600013603B69002B21D1494B1B681B68002B67
:103070000BD04FF0500383F31188BFF36F8FBFF372
:103080004F8F3B6000BF00BFFDE7414B1B68FB60FB
:10309000404B1B683E4A13603E4AFB6813603E4B40
:1030A0001B6801333C4A136000F086FA3B4B1B68F7
:1030B0003A699A4248D3364B1B681B68002B04D1EF
:1030C000364B4FF0FF321A603EE0314B1B68DB6835
:1030D000DB68BB60BB685B687B603A697B689A426F
:1030E00003D22E4A7B6813602EE0BB680433184677
:1030F000FFF76BF9BB689B6A002B04D0BB681833E1
:103100001846FFF762F9BB68DB6A01229A40244B3C
:103110001B681343224A1360BB68DA6A13469B009C
:1031200013449B001F4A1A44BB68043319461046D7
:10313000FFF7EEF8BB68DA6A1B4B1B68DB6A9A4242
:10314000B9D301237B61B6E7174B1B68DA6A1549CF
:1031500013469B0013449B000B441B68012B01D9B1
:1031600001237B61114B1B68002B07D001237B617E
:1031700004E00F4B1B6801330D4A13607B6918464E
:103180001837BD4680BD00BF10030020EC020020B0
:10319000A0020020A4020020000300200803002059
:1031A000F00200201402002010020020FC02002087
:1031B000F802002080B487B000AF274B1B68002BBB
:1031C00003D0264B01221A6040E0244B00221A60F3
:1031D000234B1B68FB60FB68B3FA83F3FB72FB7A3B
:1031E000C3F11F037B611F497A6913469B00134497
:1031F0009B000B441B68002B0BD14FF0500383F353
:103200001188BFF36F8FBFF34F8F7B6000BF00BF8C
:10321000FDE77A6913469B0013449B00114A13444F
:103220003B613B695B685A683B695A603B695A6815
:103230003B6908339A4204D13B695B685A683B6931
:103240005A603B695B68DB68074A136000BF1C3744
:10325000BD465DF8047B704710030020FC0200208F
:10326000F0020020140200201002002080B584B07B
:1032700000AF786039607B68002B0BD14FF05003B2
:1032800083F31188BFF36F8FBFF34F8FFB6000BFD5
:1032900000BFFDE7074B1B68183319467868FFF736
:1032A0005BF80121386800F049FB00BF1037BD46CC
:1032B00080BD00BF1002002080B586B000AF7860EE
:1032C0007B68DB68DB683B613B69002B0BD14FF00F
:1032D000500383F31188BFF36F8FBFF34F8FFB60F1
:1032E00000BF00BFFDE73B6918331846FFF76DF8D4
:1032F0001D4B1B68002B1CD13B6904331846FFF79C
:1033000064F83B69DB6A01229A40184B1B6813433F
:10331000164A13603B69DA6A13469B0013449B000C
:10332000134A1A443B69043319461046FEF7F0FF6E
:1033300005E03B69183319460E48FEF7E9FF3B6983
:10334000DA6A0D4B1B68DB6A9A4205D901237B615F
:103350000A4B01221A6001E000237B617B69184659
:103360001837BD4680BD00BF10030020F0020020CA
:1033700014020020A802002010020020FC020020FD
:1033800080B483B000AF7860064B1A687B681A601F
:10339000054B1A687B685A6000BF0C37BD465DF864
:1033A000047B704700030020EC02002080B588B049
:1033B00000AF786039607B68002B0BD14FF0500371
:1033C00083F31188BFF36F8FBFF34F8F3B6100BF53
:1033D00000BFFDE73B68002B0BD14FF0500383F398
:1033E0001188BFF36F8FBFF34F8FFB6000BF00BF2B
:1033F000FDE700F04BFC1D4B1B68BB617B685B6805
:10340000BA69D31A7B613B681B68B3F1FF3F02D1F5
:103410000023FB6123E07B681A68154B1B689A4206
:1034200007D07B685B68BA699A4202D30123FB61CB
:1034300015E03B681B687A699A420BD23B681A68B0
:103440007B69D21A3B681A607868FFF799FF0023FE
:10345000FB6104E03B6800221A600123FB6100F07D
:1034600047FCFB6918462037BD4680BDEC020020B2
:103470000003002080B400AF034B01221A6000BF9C
:10348000BD465DF8047B7047FC02002080B582B029
:1034900000AF786000F052F8064B1B68012BF9D999
:1034A000054B4FF080521A60BFF34F8FBFF36F8F01
:1034B000F0E700BF1402002004ED00E080B582B008
:1034C00000AF00237B600CE07A6813469B00134436
:1034D0009B00124A13441846FEF7EDFE7B68013349
:1034E0007B607B68042BEFD90D48FEF7E4FE0D48A6
:1034F000FEF7E1FE0C48FEF7DEFE0C48FEF7DBFEB1
:103500000B48FEF7D8FE0B4B054A1A600A4B054ADA
:103510001A6000BF0837BD4680BD00BF14020020FE
:10352000780200208C020020A8020020BC020020AB
:10353000D4020020A0020020A402002080B582B0A6
:1035400000AF19E000F0A2FB104BDB68DB687B608A
:103550007B6804331846FEF738FF0D4B1B68013BB0
:103560000B4A13600B4B1B68013B0A4A136000F0C7
:10357000BFFB786800F010F8064B1B68002BE1D108
:1035800000BF00BF0837BD4680BD00BFBC020020A1
:10359000E8020020D002002080B582B000AF786041
:1035A0007B681B6B184600F025FD786800F022FD53
:1035B00000BF0837BD4680BD80B483B000AF0C4B60
:1035C0001B681B68002B04D10A4B4FF0FF321A60B6
:1035D00008E0074B1B68DB68DB687B607B685B6827
:1035E000044A136000BF0C37BD465DF8047B70478A
:1035F000A00200200803002080B584B000AF7860EE
:103600007B68BB600023FB607B68002B5ED0BB68DF
:10361000DA6A314B1B68DB6A9A424ED2BB689B69FF
:10362000002B06DB2C4B1B68DB6AC3F10502BB6871
:103630009A61BB685969BB68DA6A13469B001344F8
:103640009B00264A134499422FD1BB680433184685
:10365000FEF7BBFE0346002B0AD1BB68DB6A0122E2
:1036600002FA03F3DA431E4B1B6813401C4A136033
:10367000194B1B68DA6ABB68DA62BB68DB6A012235
:103680009A40174B1B681343154A1360BB68DA6AEC
:1036900013469B0013449B00104A1A44BB68043332
:1036A00019461046FEF734FE04E00B4B1B68DA6A3D
:1036B000BB68DA620123FB6008E0BB689A6C064BCA
:1036C0001B68DB6A9A4201D20123FB60FB68184643
:1036D0001037BD4680BD00BF10020020140200203C
:1036E000F002002080B586B000AF78607B683B6157
:1036F00000237B617B68002B70D03B4B1B683A69D1
:103700009A420BD04FF0500383F31188BFF36F8FB1
:10371000BFF34F8FFB6000BF00BFFDE73B69DB6C71
:10372000002B0BD14FF0500383F31188BFF36F8F41
:10373000BFF34F8FBB6000BF00BFFDE73B69DB6C91
:103740005A1E3B69DA643B69DA6A3B699B6C9A42B0
:1037500044D03B69DB6C002B40D13B6904331846F5
:10376000FEF733FE0346002B15D13B69DA6A1F4989
:1037700013469B0013449B000B441B68002B0AD18B
:103780003B69DB6A012202FA03F3DA43184B1B6838
:103790001340174A13603B699A6C3B69DA623B69D4
:1037A000DB6AC3F105023B699A613B69DB6A01226E
:1037B0009A400F4B1B6813430D4A13603B69DA6A4A
:1037C00013469B0013449B00084A1A443B69043388
:1037D00019461046FEF79CFD01237B617B69184664
:1037E0001837BD4680BD00BF100200201402002023
:1037F000F002002080B588B000AF786039607B6847
:10380000BB6101237B617B68002B79D0BB69DB6CDA
:10381000002B0BD14FF0500383F31188BFF36F8F50
:10382000BFF34F8FFB6000BF00BFFDE7BB699B6C20
:103830003A689A4202D93B68FB6102E0BB699B6C23
:10384000FB61BB69DB6AFA699A4259D0BB69DB6CE0
:103850007A699A4254D12C4B1B68BA699A420BD1AF
:103860004FF0500383F31188BFF36F8FBFF34F8F77
:10387000BB6000BF00BFFDE7BB69DB6A3B61BB69A2
:10388000FA69DA62BB699B69002B04DBFB69C3F14F
:103890000502BB699A61BB6959693A6913469B0085
:1038A00013449B00194A1344994229D1BB6904333C
:1038B0001846FEF78AFD0346002B0AD1BB69DB6A76
:1038C000012202FA03F3DA43114B1B681340104A3A
:1038D0001360BB69DB6A01229A400D4B1B681343DE
:1038E0000B4A1360BB69DA6A13469B0013449B00C2
:1038F000064A1A44BB69043319461046FEF708FD10
:1039000000BF2037BD4680BD1002002014020020F9
:10391000F002002080B400AF074B1B68002B04D0DE
:10392000054B1B68DA6C0132DA64034B1B681846DE
:10393000BD465DF8047B70471002002080B584B05E
:1039400000AF78603960294B1B68FB60284B1B680F
:1039500004331846FEF739FD0346002B0BD1244BE8
:103960001B68DB6A012202FA03F3DA43214B1B686E
:103970001340204A13607B68B3F1FF3F0AD13B68D4
:10398000002B07D01A4B1B68043319461A48FEF760
:10399000BFFC26E0FA687B681344BB60144B1B68CD
:1039A000BA685A60BA68FB689A4209D2134B1A681F
:1039B0000F4B1B68043319461046FEF7CDFC10E090
:1039C0000F4B1A680A4B1B68043319461046FEF762
:1039D000C3FC0C4B1B68BA689A4202D2094ABB6806
:1039E000136000BF1037BD4680BD00BFEC02002051
:1039F00010020020F0020020D4020020A4020020C7
:103A0000A00200200803002080B485B000AFF86059
:103A1000B9607A60FB68043BFB60FB684FF0807222
:103A20001A60FB68043BFB60BB6823F00102FB6883
:103A30001A60FB68043BFB600C4AFB681A60FB6879
:103A4000143BFB607A68FB681A60FB68043BFB6010
:103A5000FB686FF002021A60FB68203BFB60FB68AA
:103A600018461437BD465DF8047B7047713A00086C
:103A700080B485B000AF00237B60134B1B68B3F1AB
:103A8000FF3F0BD04FF0500383F31188BFF36F8FCC
:103A9000BFF34F8FFB6000BF00BFFDE74FF0500347
:103AA00083F31188BFF36F8FBFF34F8FBB6000BFED
:103AB00000BF7B68002BFCD000BF00BF1437BD46A1
:103AC0005DF8047B704700BF140000200000000078
:103AD000074B19680868B0E8F04F80F30988BFF316
:103AE0006F8F4FF0000080F311887047AFF30080B4
:103AF0001002002000BF00BF08480068006880F383
:103B000008884FF0000080F3148862B661B6BFF3F6
:103B10004F8FBFF36F8F00DF00BF00BF08ED00E0E5
:103B200080B588B000AF504B1B68504A93420BD110
:103B30004FF0500383F31188BFF36F8FBFF34F8FA4
:103B40007B6100BF00BFFDE7474B1B68484A9342BB
:103B50000BD14FF0500383F31188BFF36F8FBFF386
:103B60004F8FBB6100BF00BFFDE7424BFB61FB69AC
:103B70001B78DBB2BB60FB69FF221A70FB691B7804
:103B8000DBB2FB71FB79DBB203F05003DAB23A4BE4
:103B90001A703A4B07221A6009E0384B1B68013B48
:103BA000364A1360FB79DBB25B00DBB2FB71FB7959
:103BB000DBB203F08003802BEFD0304B1B68C3F1E6
:103BC0000703042B0BD04FF0500383F31188BFF38E
:103BD0006F8FBFF34F8F3B6100BF00BFFDE7274BE7
:103BE0001B68C3F10703042B0BD04FF0500383F382
:103BF0001188BFF36F8FBFF34F8FFB6000BF00BF13
:103C0000FDE71E4B1B681B021C4A13601B4B1B6805
:103C100003F4E063194A1360BB68DAB2FB691A70F7
:103C2000174B1B68164A43F470031360144B1B6850
:103C3000134A43F07043136000F0E0F8114B002288
:103C40001A6000F0FFF8104B1B680F4A43F0404326
:103C50001360FFF751FFFFF7ADFAFFF709FF0023ED
:103C600018462037BD4680BD00ED00E071C20F410F
:103C700070C20F4100E400E014030020180300208C
:103C800020ED00E01400002034EF00E080B483B0A9
:103C900000AF4FF0500383F31188BFF36F8FBFF372
:103CA0004F8F7B6000BF104B1B6801330E4A1360BF
:103CB0000D4B1B68012B10D10C4B1B68DBB2002B8A
:103CC0000BD04FF0500383F31188BFF36F8FBFF316
:103CD0004F8F3B6000BF00BFFDE700BF0C37BD4604
:103CE0005DF8047B704700BF1400002004ED00E085
:103CF00080B483B000AF124B1B68002B0BD14FF088
:103D0000500383F31188BFF36F8FBFF34F8F7B6036
:103D100000BF00BFFDE70A4B1B68013B084A136068
:103D2000074B1B68002B05D100233B603B6883F3E6
:103D3000118800BF00BF0C37BD465DF8047B70479B
:103D4000140000200000000000000000000000003F
:103D5000EFF30980BFF36F8F154B1A681EF0100F39
:103D600008BF20ED108A20E9F04F106009B44FF031
:103D7000500080F31188BFF34F8FBFF36F8FFFF7B1
:103D800019FA4FF0000080F3118809BC196808681F
:103D9000B0E8F04F1EF0100F08BFB0EC108A80F3AF
:103DA0000988BFF36F8F7047AFF30080AFF30080D7
:103DB0001002002000BF00BF80B582B000AF4FF0FE
:103DC000500383F31188BFF36F8FBFF34F8F7B6076
:103DD00000BFFFF735F90346002B03D0064B4FF029
:103DE00080521A6000233B603B6883F3118800BF58
:103DF00000BF0837BD4680BD04ED00E080B400AFD1
:103E00000B4B00221A600B4B00221A600A4B1B68F6
:103E10000A4AA2FB03239B09094A013B1360044B96
:103E200007221A6000BFBD465DF8047B704700BFE3
:103E300010E000E018E000E000000020D34D621028
:103E400014E000E0DFF80C00016841F4700101604B
:103E5000704700BF88ED00E080B58AB000AF7860A1
:103E60000023FB61FFF740F85C4B1B68002B01D17E
:103E700000F024F95A4B1A687B681340002B40F07D
:103E800095807B68002B1ED008227B6813447B60E2
:103E90007B6803F00703002B15D07B6823F0070332
:103EA00008337B607B6803F00703002B0BD04FF0D7
:103EB000500383F31188BFF36F8FBFF34F8F7B6184
:103EC00000BF00BFFDE77B68002B6FD0454B1B6830
:103ED0007A689A426AD8444B3B62434B1B687B62C8
:103EE00004E07B6A3B627B6A1B687B627B6A5B687F
:103EF0007A689A4203D97B6A1B68002BF1D1374B51
:103F00001B687A6A9A4251D03B6A1B6808221344A4
:103F1000FB617B6A1A683B6A1A607B6A5A687B6835
:103F2000D21A08235B009A4220D97A6A7B6813442C
:103F3000BB61BB6903F00703002B0BD04FF05003AC
:103F400083F31188BFF36F8FBFF34F8F3B6100BFC7
:103F500000BFFDE77B6A5A687B68D21ABB695A606A
:103F60007B6A7A685A60B86900F00AF91D4B1A68D2
:103F70007B6A5B68D31A1B4A13601A4B1A681B4B87
:103F80001B689A4203D2174B1B68184A13607B6A5E
:103F90005A68134B1B681A437B6A5A607B6A00227B
:103FA0001A60134B1B680133114A1360FEF7AAFF16
:103FB000FB6903F00703002B0BD04FF0500383F392
:103FC0001188BFF36F8FBFF34F8FFB6000BF00BF3F
:103FD000FDE7FB6918462837BD4680BD242B00202D
:103FE000382B0020282B00201C2B00202C2B0020FD
:103FF000302B002080B586B000AF78607B687B6195
:104000007B68002B4FD008235B427A6913447B61A5
:104010007B693B613B695A68254B1B681340002B49
:104020000BD14FF0500383F31188BFF36F8FBFF3B1
:104030004F8FFB6000BF00BFFDE73B691B68002B93
:104040000BD04FF0500383F31188BFF36F8FBFF392
:104050004F8FBB6000BF00BFFDE73B695A68144B40
:104060001B681340002B1ED03B691B68002B1AD124
:104070003B695A680E4B1B68DB431A403B695A6028
:10408000FEF732FF3B695A680A4B1B681344094A22
:104090001360386900F074F8074B1B680133064A57
:1040A0001360FEF72FFF00BF1837BD4680BD00BF6D
:1040B000382B0020282B0020342B002080B485B022
:1040C00000AF4FF42053BB60274BFB60FB6803F04D
:1040D0000703002B0CD0FB680733FB60FB6823F061
:1040E0000703FB60BA68FB68D31A1F4A1344BB601E
:1040F000FB687B601D4A7B6813601C4B00225A6082
:104100007B68BA681344FB600822FB689B1AFB605B
:10411000FB6823F00703FB60FB68154A1360144B30
:104120001B6800225A60124B1B6800221A607B68D1
:104130003B603B68FA68D21A3B685A600C4B1A68BD
:104140003B681A603B685B680A4A13603B685B68BF
:10415000094A1360094B4FF000421A6000BF143740
:10416000BD465DF8047B70471C0300201C2B00201B
:10417000242B00202C2B0020282B0020382B002063
:1041800080B485B000AF7860284BFB6002E0FB682C
:104190001B68FB60FB681B687A689A42F7D8FB686B
:1041A000BB60FB685B68BA6813447A689A4208D1BE
:1041B000FB685A687B685B681A44FB685A60FB6856
:1041C0007B607B68BB607B685B68BA681A44FB688D
:1041D0001B689A4218D1FB681A68154B1B689A42F3
:1041E0000DD07B685A68FB681B685B681A447B6863
:1041F0005A60FB681B681A687B681A6008E00C4B01
:104200001A687B681A6003E0FB681A687B681A60AA
:10421000FA687B689A4202D0FB687A681A6000BF2D
:104220001437BD465DF8047B704700BF1C2B00208F
:10423000242B00202DE9FF4757EC106B002F0C4674
:1042400019463B46BBBF07F100431F4600232D2301
:104250000B700D9BDDF830A0914623F02008BCBF09
:1042600032461646B8F1460F05D0B8F1450F00D1D9
:104270000134022100E0032103AB019302AB009360
:1042800047EC106B5346224600F03EFFB8F1470F53
:10429000054619D119F0010F0ED000EB04090022D8
:1042A000002330463946FCF717FC08B1CDF80C90D6
:1042B0003022039B4B451ED3039B0E9A5B1B284663
:1042C000136004B0BDE8F087B8F1460F00EB0409B5
:1042D000E5D10378302B0AD100220023304639463D
:1042E000FCF7FAFB18B9C4F10104CAF80040DAF887
:1042F00000309944D3E7591C03911A70D9E7F7B5F8
:104300000029BABF49422D232B230929027043708B
:1043100029DD0DF1070425460A272246B1FBF7F6F1
:1043200007FB1613303302F8013C0B46632B04F1F4
:10433000FF343146F1DC3031931E04F8011C411C7E
:104340001C46AB420AD30DF109039B1AA54238BFA4
:104350000023821C1344181A03B0F0BD13F8016B3C
:1043600001F8016FEDE7302330318370C170031D18
:10437000F1E700002DE9F04F8DB00C46DDF85880D4
:1043800016461F46054600F0B1FD03680693184621
:10439000FBF776FF00230A93D8F8003094F818A0B2
:1043A000D4F800B00790073323F00703B3EC027B87
:1043B0008DED047BC8F80030DDE9048323F000496B
:1043C00084ED127B9C4B4FF0FF3240464946FCF790
:1043D000B5FB70BB984B4FF0FF3240464946FCF7A7
:1043E0008FFB30BBDDE9040100220023FCF77EFBDC
:1043F00010B12D2384F84330904A914BBAF1470F06
:104400008CBF90469846032323612BF0040323605E
:104410004FF00009009733460BAA2146284600F0CA
:10442000D1F9013040F08C804FF0FF300DB0BDE885
:10443000F08FDDE9042310461946FCF77FFB40B1FD
:10444000059B804A002BBCBF2D2384F843307E4B54
:10445000D4E763685A1C0AF0DF093BD10623636086
:104460004BF480620023226003930AABCDE901A3E1
:1044700009AB009361689DED040B0DF12303284601
:10448000FFF7D8FEB9F1470F0999804629D1C81C1A
:1044900002DB63688B4241DAAAF1020A5FFA8AFA08
:1044A0000139524604F150000991FFF728FF0A9A9A
:1044B0001318012A8146236102DC2268D20701D544
:1044C000013323619DF82330002BA3D02D2384F8E2
:1044D00043309FE7B9F1470FC2D1002BC0D1012370
:1044E000BDE7BAF1650FDBD9BAF1660F18D1002923
:1044F00063680BDD216113B92268D00702D501334F
:104500000B442361A1654FF00009DBE713B9226872
:10451000D20701D50233F4E70123F2E74FF0670A2F
:104520000A9B8B4205DC23682161D807EAD54B1C26
:10453000E7E70029D4BFC1F1020201221344E0E7FA
:1045400023685A0507D42369424631462846B847AE
:1045500001302BD168E7BAF1650F40F2DD80D4E974
:10456000120100220023FCF7B7FA002833D0374AA3
:10457000012331462846B84701303FF455AFDDE905
:104580000938434502DB2368D8070FD5DDE9062348
:1045900031462846B84701303FF446AF4FF0000996
:1045A00008F1FF3804F11A0AC84509DC23689B07A3
:1045B00000F10381E0680B9B9842B8BF184635E7CD
:1045C0000123524631462846B84701303FF42CAF0C
:1045D00009F10109E8E7099B002B39DC1B4A01239B
:1045E00031462846B84701303FF41EAFDDE90939AE
:1045F00059EA030302D12368D907D7D5DDE9062399
:1046000031462846B84701303FF40EAF4FF0000A5C
:1046100004F11A0B099B5B42534501DC4B4693E7BF
:1046200001235A4631462846B84701303FF4FCAED4
:104630000AF1010AEEE700BFFFFFEF7FDC6C000824
:10464000D86C0008E46C0008E06C0008E86C000816
:10465000A36DDDF828A05345A8BF5346002B99460B
:1046600036DC4FF0000B29EAE97904F11A02A36D58
:104670000493A3EB09035B4531DC099B9A453ADCC3
:104680002368DA0737D4099BAAEB0309049BAAEB3A
:1046900003039945A8BF9946B9F1000F33DC4FF0E9
:1046A000000829EAE97904F11A0B099BAAEB030334
:1046B000A3EB090343457FF779AF01235A463146FF
:1046C0002846B84701303FF4AFAE08F10108ECE7E7
:1046D000424631462846B8470130C2D1A4E60123FC
:1046E000314628460492B84701303FF49DAE049A03
:1046F0000BF1010BBBE7DDE9062331462846B8473D
:104700000130C0D190E6049A4B46424431462846D7
:10471000B8470130C3D187E6DDF828A0BAF1010F10
:1047200001DCDB0736D50123424631462846B8472F
:1047300001303FF479AEDDE9062331462846B8471B
:1047400001303FF471AED4E91201002200230AF1D6
:10475000FF3AFCF7C1F9C0B9534608F101023146EE
:104760002846B84701300CD15EE601235A4631464F
:104770002846B84701303FF457AE08F10108D0454C
:10478000F3DB4B4604F15002DFE64FF0000804F182
:104790001A0BF4E701234246E1E701234A4631467A
:1047A0002846B84701303FF43FAE08F10108E368FE
:1047B0000B995B1A4345F0DCFCE64FF0000804F16E
:1047C0001909F4E72DE9F047164698468A680B69FF
:1047D000DDF820909342B8BF1346336091F8432030
:1047E00007460C460AB1013333602368990642BF7D
:1047F000336802333360256815F0060506D104F1ED
:10480000190AE36832689B1AAB4226DC94F84330FD
:104810002268003B18BF012392062BD404F1430207
:1048200041463846C84701301ED02368226903F04C
:104830000603042B02BFE5683368ED1AA3680CBFBA
:1048400025EAE57500259342C4BF9B1AED180026A2
:104850001A34B5421AD1002008E0012352464146DD
:104860003846C847013003D14FF0FF30BDE8F0872C
:104870000135C6E7E1185A1C302081F84300224474
:1048800094F8451082F843100233C7E7012322460B
:1048900041463846C8470130E6D00136D9E7000026
:1048A0002DE9F0430D7E85B0782D90460C9E07468D
:1048B0000C46994601F1430207D8622D0AD8002D13
:1048C00000F0D780582D00F0BC8004F1420684F837
:1048D00042503BE0A5F16303152BF6D801A151F836
:1048E00023F000BF3D49000851490008CB480008AB
:1048F000CB480008CB480008CB48000851490008C5
:10490000CB480008CB480008CB480008CB4800083B
:10491000594A00087B4900080B4A0008CB480008A8
:10492000CB4800087B4A0008CB4800087B490008B8
:10493000CB480008CB480008134A000833681A1D0A
:104940001B68326004F1420684F842300123A1E082
:1049500033682068191D3160060601D51D6803E023
:104960004506FBD5B3F90050002D03DA2D236D4227
:1049700084F843305B480A2311E021683368080655
:1049800053F8045B02D4490648BFADB23360237EBE
:1049900054486F2B5CD10823002184F843106668CB
:1049A000A660002E05DB21682E4321F00401216062
:1049B00050D01646B5FBF3F103FB115C10F80CC0A8
:1049C00006F801CDAC4663450D46F3D9082B0BD153
:1049D0002368DB0708D5236961689942DEBF30236D
:1049E00006F8013C06F1FF36921B2261CDF80090DB
:1049F000434603AA21463846FFF7E4FE01304ED174
:104A00004FF0FF3005B0BDE8F083236843F020038A
:104A100023603548782584F845502368316813F0C1
:104A2000800F51F8045B03D113F0400F18BFADB2F3
:104A30003160D90744BF43F0200323601DB1102328
:104A4000AAE72848E7E7236823F020032360F6E776
:104A50000A23A1E71646B9E7336825686169181D7E
:104A600030602E061B6801D5196002E06806FBD590
:104A70001980002323611646B8E733681A1D326097
:104A80001E68626800213046FBF7AAFB08B1801B54
:104A9000606063682361002384F84330A6E72369DC
:104AA000324641463846C8470130A9D023689B07A3
:104AB00013D4E068039B9842B8BF1846A2E70123CD
:104AC000324641463846C847013099D00135E3683F
:104AD00003995B1AAB42F2DCEBE7002504F11906FF
:104AE000F5E700BFEA6C0008FB6C0008002310B576
:104AF0000446C0E90033C0E9043383608181436622
:104B0000C2818361194608225C3000F0E7F90D4B41
:104B100063620D4BA3620D4BE3620D4B23630D4BA0
:104B200024629C4206D003F16802944202D0D03342
:104B30009C4205D104F15800BDE8104000F04ABA8B
:104B400010BD00BF314D0008534D00088B4D0008CB
:104B5000B14D00083C2B0020024A0349034800F0F5
:104B60006BB800BF18000020D566000828000020A0
:104B700041680C4B994210B5044601D001F0AAFDE2
:104B8000A168094B994202D0204601F0A3FDE168DB
:104B9000064B994204D02046BDE8104001F09ABD72
:104BA00010BD00BF3C2B0020A42B00200C2C0020AB
:104BB0000C4B0D4A0D4810B504211A600022FFF776
:104BC00095FF0A4B01221C46092103F16800FFF7FB
:104BD0008DFF04F1D0000222BDE810401221FFF742
:104BE00085BF00BF742C0020594B00083C2B0020CF
:104BF000014800F0F0B900BF7D2C0020014800F012
:104C0000EBB900BF7D2C002010B50446FFF7F0FF84
:104C1000236A1BB1BDE81040FFF7F0BF044B2362CD
:104C2000044B1B68002BF5D1FFF7C2FFF2E700BF72
:104C3000714B0008742C00202DE9F8430746884684
:104C400014460026D4E90195B9F1010905D5246877
:104C5000002CF7D13046BDE8F883AB89012B07D98A
:104C6000B5F90E30013303D029463846C047064314
:104C70006835E9E7036A70B5846805460E460BB9E6
:104C8000FFF7C2FF636EDB0705D4A389980502D442
:104C9000A06D00F0A0F9A389190702D52369002BA4
:104CA00035D12146284600F0C5F880B34FF0FF35D6
:104CB000636EDA0705D4A3899B0502D4A06D00F0CA
:104CC0008BF9284670BD002B04DAA269934217DBEA
:104CD0000A2915D023685A1C22601970A36816F897
:104CE000011F013BA3600029EDD1002B11DA224600
:104CF0000A21284600F060F80130D7D00A25D7E70E
:104D00002246284600F058F80130E7D1CEE7013EB0
:104D1000E4E723685A1C22600A221A70EEE70000BA
:104D2000024B01461868FFF7A5BF00BF2400002012
:104D300010B50C46B1F90E1000F0FEF80028ABBF1C
:104D4000636DA3891B1823F48053ACBF6365A381F3
:104D500010BD2DE9F0411F468B89DB0505460C4649
:104D6000164605D5B1F90E100223002200F0D2F844
:104D7000A389B4F90E1023F48053A38132463B4635
:104D80002846BDE8F04100F0E9B810B50C46B1F98D
:104D90000E1000F0BFF8B4F90C30421C0BBF23F426
:104DA000805343F48053A381A38118BF606510BD75
:104DB000B1F90E1000F09EB8F8B50E46144605463F
:104DC00018B1036A0BB9FFF71FFFA369A360A3899A
:104DD0001A0701D5236943B92146284600F02AF86D
:104DE00018B14FF0FF373846F8BD23682269981A8A
:104DF0006369F6B28342374605DC2146284601F056
:104E000069FC0028EDD1A368013BA36023685A1C0C
:104E100022601E706269431C9A4204D0A389DB079A
:104E2000E1D50A2EDFD12146284601F053FC0028A7
:104E3000D9D0D6E738B5284B054618680C4618B1C6
:104E4000036A0BB9FFF7E0FEB4F90C301A0721D45E
:104E5000D80607D409222A6043F04003A3814FF00B
:104E6000FF3030E0590712D5616B41B104F14403C2
:104E7000994202D0284600F023FF002363630022FA
:104E8000B4F90C3062602269226023F0240343F0FD
:104E90000803A38122693AB99A0501D5180603D5FA
:104EA0002146284601F062FCB4F90C3013F00102EF
:104EB0000AD00022A26062695242A261226942B90C
:104EC00013F08000C8D138BD990758BF6269A2604D
:104ED000F4E70020F7E700BF240000200244034667
:104EE000934200D1704703F8011BF9E7004870476F
:104EF0006401002038B5064D0023044608462B60A7
:104F0000FDF7EBF8431C02D12B6803B1236038BDD9
:104F1000782C002038B5074D04460846114600227B
:104F20002A601A46FDF700F9431C02D12B6803B131
:104F3000236038BD782C002038B5074D044608465C
:104F4000114600222A601A46FDF78EF8431C02D152
:104F50002B6803B1236038BD782C002038B5074D8D
:104F600004460846114600222A601A46FDF799F8C1
:104F7000431C02D12B6803B1236038BD782C00207C
:104F8000014B1868704700BF2400002070B50D4B1E
:104F90000D4D5B1B9C100026A64209D101F03EFE80
:104FA0000A4D0B4B5B1B9C100026A64205D170BD21
:104FB00055F8043B98470136EEE755F8043B98470F
:104FC0000136F2E75470000854700008547000086D
:104FD000587000087047704770470A44914200F1CA
:104FE000FF3300D1704710B511F8014B03F8014FA2
:104FF0009142F9D110BD2DE9F74F03690C69A34225
:1050000007467EDB013C01F11408A30000F1140502
:10501000009305EB8403019358F8243055F82420BD
:1050200001339A4208EB8409B2FBF3F62ED34FF01A
:10503000000AC446AE46D3465CF8043B98B206FB71
:1050400000A0020C1B0C06FB0323DEF8002080B23C
:1050500092B2121A5A44DEF800004FEA134A9BB289
:10506000C3EB224303EB104392B242EA0342E14511
:105070004EF8042B4FEA234BDED2009BEB582BB9A2
:10508000019B043B9D421A462FD33C61384601F0F8
:1050900093F9002825DB2946002058F8042BD1F885
:1050A00000C01FFA82FE1FFA8CF3A3EB0E03034429
:1050B000120CC2EB234202EB1C429BB243EA0243B6
:1050C000C14541F8043B4FEA2240E6D255F824207E
:1050D00005EB840322B9043B9D421A460BD33C6185
:1050E0000136304603B0BDE8F08F1268043B002A59
:1050F000CBD1013CC6E71268043B002AEFD1013C4A
:10510000EAE70020EEE700002DE9F04F99B08DEDC1
:105110000E0B0C92C269229C0A9157EC106B8146CF
:10512000139382B9102000F015FE0246C9F81C0046
:1051300020B9AB4BEF21AB4801F084FB0023C0E961
:1051400001330360C360116859B152684A6001239A
:1051500093408B60484600F0F1FED9F81C300022E5
:105160001A60B7F10008B5BF012300232360236054
:105170009D4BBCBF28F00048CDF83C8033EA0803C3
:105180001AD1139AC8F3130842F20F7358EA0608AB
:10519000136000F06885239B53B9944B21E0944B36
:1051A00000930833239A1360009819B0BDE8F08F7C
:1051B0008E4B00930333F5E79DED0E7B002251ECFF
:1051C000170B00238DED067BFBF786FC824650B162
:1051D000139A01231360239B13B1239A854B136009
:1051E000854B0093E0E79DED060B16AA17A94846EC
:1051F00001F096F95FEA1854169D019079D0079B4B
:10520000CDF850A0C3F31303DDE9060143F07F534B
:1052100043F44013A4F2FF3419460022774BFBF706
:105220003BF869A3D3E90023FBF7EEF968A3D3E9C0
:105230000023FBF733F8064620460F46FBF77AF9C2
:1052400065A3D3E90023FBF7DFF902460B4630469E
:105250003946FBF723F806460F46FBF785FC00228C
:105260008046002330463946FBF740FC48B14046B3
:10527000FBF760F932463B46FBF72EFC08B908F114
:10528000FF38B8F1160F51D85D4B03EBC803D3E9D3
:105290000023DDE90601FBF729FC002848D008F1CE
:1052A000FF38002312932D1B6B1E089343BF00236E
:1052B000C5F1010708930027B8F1000F3ADB089BFE
:1052C000CDF8348043440893002309930A9B092BAB
:1052D00062D8052BC4BF043B0A930A9BA3F10203C7
:1052E000CCBF00240124032B62D8DFE803F0515324
:1052F000362B179C2C4404F23243202BC1BFC3F140
:10530000400308FA03F804F2124326FA03F3D6BF67
:10531000C3F1200348EA030006FA03F0FBF7FAF8AA
:105320000122A1F1F873013C149275E70123B9E75A
:105330001290B8E7C8F1000309930023A7EB080710
:105340000D93C3E701230B930C9B43440593013357
:10535000012B0493B8BF012306E001230B930C9BA0
:10536000002B28DDCDE90433D9F81C0000210422EC
:1053700002F114059D4223D94160484600F0A0FD8A
:105380000090002840D11F4B024640F2AF11D2E6F8
:105390000023E3E70023D6E701240023CDE90A3404
:1053A0004FF0FF33CDE90433002212230C92DBE7E8
:1053B00001230B93F4E70123CDE904331A46F5E703
:1053C00001315200D4E700BF61436F63A787D23F2A
:1053D000B3C8608B288AC63FFB799F501344D33FE4
:1053E000196D0008306D00080000F07F156D000891
:1053F0000C6D0008E96C0008E86C00080000F83F3C
:10540000806E0008886D0008D9F81C30009A1A6078
:10541000049B0E2B00F2A180002C00F09E80B8F1BE
:10542000000F36DD9E4B08F00F0203EBC20318F4A9
:10543000807FD3E900AB4FEA281516D0994BDDE900
:105440000601D3E90823FBF709FACDE9020105F0CB
:105450000F050324934E75B9DDE9020152465B4600
:10546000FBF7FCF982468B462DE09DED067B02247E
:105470008DED027BEEE7E90708D550465946D6E99F
:105480000023FBF7C1F8013482468B466D100836C5
:10549000E1E700F0AD80C8F10005814B814E05F0D9
:1054A0000F0203EBC203D3E90023DDE90601FBF79A
:1054B000ABF82D1182468B4600230224002D40F0CC
:1054C0008C80002BCED1129B002B00F09580764B68
:1054D000002250465946FBF709FB002800F08C805B
:1054E000049B002B00F08880059B002B35DD08F124
:1054F000FF330293504659466C4B0022FBF784F869
:10550000059E82468B4601342046FBF713F852462F
:105510005B46FBF779F8664B0022FAF7BFFE0446BC
:10552000A1F15075CDE91045002E69D1614B0022E3
:1055300050465946FAF7B0FE22462B4682468B4625
:10554000FBF7F2FA002840F09482224605F100436E
:1055500050465946FBF7CAFA20BB179B002BC0F2F6
:105560006081B8F10E0F00F35C814D4B03EBC80373
:10557000D3E900AB0C9B002B80F2EE80049B002B48
:1055800000F3EA800ED14B4B002250465946FBF700
:105590003BF802460B46DDE90601FBF7B1FA0028AD
:1055A00000F06A8200252C460C9B009EDB43029390
:1055B000274600242946484600F0C0FC002F00F092
:1055C000C1802CB1BC4203D02146484600F0B6FC55
:1055D0003946484600F0B2FCB4E0EA0705D5D6E902
:1055E0000023FBF711F8013401236D10083665E73D
:1055F000DDE906AB022466E7049ECDF8088083E768
:10560000274B03EBC60353E902010B9B002B55D03C
:1056100002460B4600202849FBF720F9DDE910235C
:10562000FAF73AFE009BCDE910019D191E46594636
:105630005046FBF799FA0446FAF77CFF02460B4600
:1056400050465946FAF728FE3034DDE9102306F8B3
:10565000014B82468B46FBF749FA002872D152462D
:105660005B4611490020FAF717FEDDE91023FBF72E
:105670003DFA002840F0B680AE423FF46EAFDDE95F
:1056800010010A4B0022FAF7BFFF084BCDE91001C9
:10569000002250465946FAF7B7FF82468B46C6E7C6
:1056A000806E0008586E00080000F03F00002440A3
:1056B00000001C40000014400000E03FDDE9102322
:1056C000FAF7A2FF009B009DCDE91001334415932A
:1056D00059465046FBF748FA0446FAF72BFF303498
:1056E0000B46024659465046FAF7D6FD05F8014BDF
:1056F000159B9D4282468B4627D1009B0022DDE907
:1057000010011E44B34BFAF7C9FD02460B46504642
:105710005946FBF709FA002864D1DDE91023AD49A9
:105720000020FAF7B9FD02460B4650465946FBF7F2
:10573000DDF900283FF411AF334616F8012D302A69
:10574000FAD01E46DDF808803AE0A34B0022FAF7B3
:105750005BFF82468B46BBE7009E52465B46DDE917
:105760000601FBF77BF8FBF7FFF90746FAF7E2FEC5
:1057700052465B46FAF748FF02460B46DDE9060152
:10578000FAF78AFD07F1300C009C06F801CBA6EB76
:10579000040C049C644502460B4633D1FAF77EFDA7
:1057A00052465B4604460D46FBF7BEF9C0B9524669
:1057B0005B4620462946FBF78FF908B1FB070FD45B
:1057C0000199484600F0BAFB0023139A337008F1A0
:1057D00001031360239B002B3FF4E6AC1E60E3E45F
:1057E000CDF8088033461E4613F8012D392A06D11C
:1057F000009A9A42F7D1029A013202923022013283
:105800001A709FE7744B0022FAF7FEFE02460B4621
:10581000CDE9062300220023FBF75EF900289CD087
:10582000CEE70B9A002A00F0E3800A9A012A00F3DF
:10583000C280149A002A00F0BA8003F23343099D13
:105840003E46089A01211A4448461F44089200F037
:1058500029FC044656B1089B002B07DDB342089A89
:10586000A8BF3346FF1AF61AD31A0893099B0BB345
:105870000B9B002B00F0C380002D00F0BD80214663
:105880002A46484600F0CEFC019A014604464846A6
:1058900000F01EFC01998246484600F04FFB099B30
:1058A0005B1B099300F0AE80099A5146484600F010
:1058B000B9FC01900121484600F0F4FB0D9B054620
:1058C000002B00F0D7811A460146484600F0AAFC9A
:1058D0000A9B012B054600F39D800E9B002B40F098
:1058E00094800F9BC3F31303002B40F08E800F9B1B
:1058F00023F000431B0D1B05002B00F08980089B43
:105900000133013708934FF0010A0D9B002B00F083
:10591000B7812B6905EB8303186900F077FBC0F1B1
:105920002000089B184410F01F007ED0C0F1200317
:10593000042B72DD089BC0F11C000344074406449D
:105940000893002F05DD01993A46484600F0C6FC51
:105950000190089B002B05DD29461A46484600F0B9
:10596000BDFC0546129B002B61D00198294600F032
:1059700023FD00285BDA08F1FF330293019900232D
:105980000A22484600F0FCFA0B9B0190002B00F025
:105990007981002321460A22484600F0F1FA059B4E
:1059A000002B044672DC0A9B022B49DC6EE0169B3E
:1059B000C3F1360343E7049B5D1E099BAB420DDB3D
:1059C0005D1B049B002BBFF63BAF049BFE1A00231C
:1059D00037E700BF0000E03F00002440099B0D9A1C
:1059E0000995EB1A1A440D92049B3E46002528E7C0
:1059F000099D0B9C3E462DE7DDF804A054E7099A6B
:105A0000019953E7CDF804A054E74FF0000A7CE772
:105A10009A467AE74FF0000A7BE792D0089A1C3347
:105A20001A441F441E4408928BE70346F6E7049B82
:105A3000CDF80880002B23DC05930A9B022B21DD87
:105A4000059B002B7FF4B0AD29460522484600F0A7
:105A500097FA01460546019800F0AEFC00287FF752
:105A6000A3AD009E312306F8013B029B0133029354
:105A70009EE535462C46F4E7049DCDF80880F9E70D
:105A8000049B05930B9B002B00F00081002E05DD8D
:105A900021463246484600F021FC0446BAF1000F88
:105AA0005AD06168484600F00BFA064628B9824B86
:105AB000024640F2EF21FFF73EBB2269023292001C
:105AC00004F10C010C30FFF788FA012231464846F8
:105AD00000F004FC0746009B009A03F1010B059BB4
