:020000040800F2
:1000000000800120790D0008090D0008110D00087D
:10001000190D0008210D0008290D0008000000003E
:10002000000000000000000000000000310D00088A
:100030003F0D0008000000004D0D00085D0D000898
:1000400000000000C90D0008C90D0008C90D000816
:10005000C90D0008C90D0008C90D0008C90D000828
:10006000C90D0008C90D0008C90D0008C90D000818
:10007000C90D0008C90D0008C90D0008C90D000808
:10008000C90D0008C90D0008C90D000800000000D6
:10009000000000000000000000000000C90D000882
:1000A000C90D0008C90D0008C90D0008C90D0008D8
:1000B000C90D0008C90D0008C90D0008C90D0008C8
:1000C000C90D0008C90D0008C90D0008C90D0008B8
:1000D000C90D0008C90D0008C90D00080000000086
:1000E000C90D0008C90D0008C90D00080000000076
:1000F000000000000000000000000000C90D000822
:1001000000000000C90D0008C90D0008C90D000855
:1001100000000000000000000000000000000000DF
:10012000C90D0008C90D0008C90D0008C90D000857
:10013000C90D0008000000000000000000000000E1
:10014000000000000000000000000000C90D0008D1
:10015000C90D0008C90D0008C90D0008C90D000827
:10016000C90D0008C90D00080000000000000000D3
:10017000000000000000000000000000000000007F
:10018000000000000000000000000000000000006F
:04019000C90D00088D
:1001940010B5054C237833B9044B13B10448AFF3BD
:1001A40000800123237010BD040000200000000023
:1001B400140E000808B5034B1BB103490348AFF301
:1001C400008008BD0000000008000020140E000894
:1001D40080B400AF064BD3F88830054A43F470036B
:1001E400C2F8883000BFBD465DF8047B704700BF8D
:1001F40000ED00E080B487B000AF00233B61002332
:100204007B610223FB600023BB6002237B60344BD1
:100214009B6803F00C033B613B69082B11D03B69DD
:10022400082B44D83B69002B03D03B69042B04D032
:100234003DE02C4B2C4A1A603DE02A4B2B4A1A60B5
:1002440039E0274B5B689B0D03F00103BB60244B33
:100254005B6803F03F037B60BB68002B0CD0234A30
:100264007B68B2FBF3F31E4A52689209C2F3080298
:1002740002FB03F37B610BE01B4A7B68B2FBF3F3E5
:10028400174A52689209C2F3080202FB03F37B6126
:10029400134B5B681B0C03F0030301335B00FB602F
:1002A4007A69FB68B2FBF3F30E4A136003E00D4B6B
:1002B4000D4A1A6000BF0A4B9B681B0903F00F0329
:1002C4000B4AD35C3B61074B1A683B6922FA03F380
:1002D400044A136000BF1C37BD465DF8047B7047B9
:1002E40000380240000000200024F40000127A00CC
:1002F4002C0E000880B483B000AF03463960FB7154
:1003040097F90730002B0ADB3B68DAB20C4997F9FE
:1003140007301201D2B20B4483F800230AE03B6891
:10032400DAB20849FB7903F00F03043B1201D2B29D
:100334000B441A7600BF0C37BD465DF8047B70474A
:1003440000E100E000ED00E080B400AF034B1B6867
:100354001846BD465DF8047B704700BF20000020AE
:1003640080B582B000AF7860124B1B68114A23F04D
:10037400010313600F4A7B68013B53600D4B1B68FC
:100384000C4A43F00403136007214FF0FF30FFF7DA
:10039400B1FF084B1B68074A43F002031360054B87
:1003A4001B68044A43F00103136000BF0837BD46CD
:1003B40080BD00BF10E000E080B584B000AF78607D
:1003C400FFF7C2FF0346FB607B68BB6000BFFFF71B
:1003D400BBFF0246FB68D31ABA689A42F7D800BF3B
:1003E40000BF1037BD4680BD80B483B000AF7860D5
:1003F400084611461A460346FB700B46BB7013466B
:100404007B707B684B4A934206D14B4B1B6B4A4A29
:1004140043F00103136335E07B68484A934206D1F5
:10042400454B1B6B444A43F0020313632AE07B6889
:10043400434A934206D1404B1B6B3F4A43F00403AB
:1004440013631FE07B683F4A934206D13A4B1B6B10
:10045400394A43F00803136314E07B683A4A934231
:1004640006D1354B1B6B344A43F01003136309E088
:100474007B68364A934205D12F4B1B6B2E4A43F0BF
:10048400800313637B681A68FB785B00032101FA1D
:1004940003F3DB431A407B681A607B681A68FB78B5
:1004A4005B00012101FA03F31A437B681A607B683D
:1004B400DA68FB785B00032101FA03F3DB431A409B
:1004C4007B68DA607B68DB68B978FA78520001FAF5
:1004D40002F21A437B68DA607B689A68FB785B00F7
:1004E400032101FA03F3DB431A407B689A607B68BB
:1004F4009B687978FA78520001FA02F21A437B6811
:100504009A607B685A68FB78032101FA03F3DB43A2
:100514001A407B685A607B685B68397CFA7801FA18
:1005240002F21A437B685A6000BF0C37BD465DF87F
:10053400047B70470000024000380240000402407F
:1005440000080240000C024000100240001C02405F
:1005540080B485B000AF78600B46FB707B681A6886
:10056400FB785B0022FA03F303F00303012B0CBFB7
:1005740001230023DBB2FB737B685A69FB780121FA
:1005840001FA03F31340002B14BF01230023DBB251
:10059400BB73FB7B002B12D0BB7B002B08D0FB78FA
:1005A4001033012202FA03F31A467B689A6106E0CB
:1005B400FB78012202FA03F31A467B689A6100BFB2
:1005C4001437BD465DF8047B7047000080B483B0E7
:1005D40000AF7860084611461A460346FB700B4686
:1005E400BB7013467B707B684B4A934206D14B4BDE
:1005F4001B6B4A4A43F00103136335E07B68484AA6
:10060400934206D1454B1B6B444A43F002031363E8
:100614002AE07B68434A934206D1404B1B6B3F4A16
:1006240043F0040313631FE07B683F4A934206D1FF
:100634003A4B1B6B394A43F00803136314E07B689D
:100644003A4A934206D1354B1B6B344A43F01003AC
:10065400136309E07B68364A934205D12F4B1B6B29
:100664002E4A43F0800313637B681A68FB785B00AF
:10067400032101FA03F3DB431A407B681A607B68A9
:100684001A68FB785B00022101FA03F31A437B68C2
:100694001A607B68DA68FB785B00032101FA03F3D4
:1006A400DB431A407B68DA607B68DB68B978FA78E8
:1006B400520001FA02F21A437B68DA607B689A6896
:1006C400FB785B00032101FA03F3DB431A407B68E8
:1006D4009A607B689B687978FA78520001FA02F292
:1006E4001A437B689A607B685A68FB78032101FA95
:1006F40003F3DB431A407B685A607B685B68397C90
:10070400FA7801FA02F21A437B685A6000BF0C3788
:10071400BD465DF8047B704700000240003802408B
:100724000004024000080240000C02400010024095
:10073400001C024080B400AF114B1B68104A43F404
:10074400007313600E4B1B680D4A43F480631360FF
:100754000B4B1B680A4A43F480731360094B5B6CB0
:10076400084A43F480435364064B1B6C054A43F028
:100774008053136400BFBD465DF8047B704700BF1F
:10078400003C02400038024080B500AF0B4B1B68B0
:100794000A4A43F00103136000BF084B1B6803F0CF
:1007A4000203002BF9D0054B9B68044A23F0030392
:1007B4009360FFF71FFD00BF80BD00BF00380240FB
:1007C40080B500AF0B4B1B680A4A43F4A0231360A7
:1007D40000BF084B1B6803F40033002BF9D0054B12
:1007E4009B68044A23F003039360FFF703FD00BFF3
:1007F40080BD00BF0038024080B582B000AF034620
:10080400FB71584B1B68574A23F080731360FB79C4
:10081400002B30D0012B5BD1FFF7D2FF514B5B682B
:10082400504A43F4800353604E4B5B684D4A23F0B7
:100834003F0353604B4B5B684A4A43F004035360E5
:10084400484B5B68474A23F4FF4323F0400353605B
:10085400444B5B68434A43F428535360414B5B6801
:10086400404A23F4403353603E4B5B683D4A43F4B3
:10087400803353602DE0FFF787FF3A4B394A5B68BA
:100884005360384B5B68374A23F03F035360354B62
:100894005B68344A43F008035360324B5B68314A67
:1008A40023F4FF4323F0400353602E4B5B682D4A2F
:1008B40043F4285353602B4B5B682A4A23F4403398
:1008C4005360284B5B68274A43F48033536000E04D
:1008D40000BF244B1B68234A43F08073136000BF9E
:1008E400204B1B6803F00073002BF9D01D4B9B6851
:1008F4001C4A23F4604393601A4B1A4A9B68936022
:10090400184B9B68174A23F4E0539360154B9B687C
:10091400144A43F480539360134B1B68124A23F028
:1009240007031360104B1B680F4A43F00203136064
:100934000C4B9B680B4A23F003039360094B9B68A1
:10094400084A43F00203936000BF064B9B6803F020
:100954000803002BF9D0FFF74DFC00BF0837BD4654
:1009640080BD00BF00380240003C024080B487B024
:1009740000AFF8607B600B46FB7213463B8100BFFF
:10098400FB689B6903F00203002BF9D1FB681B6829
:1009940043F48072FB681A6000BFFB685B6903F074
:1009A4000103002BF9D097F90B305B005BB203F025
:1009B4000E035BB263F05F035BB2FB72FB7A23F05E
:1009C4000103FB72FA7AFB681A6100BFFB685B697A
:1009D40003F00203002BF9D0FB685B697B61FB68C1
:1009E4009B697B617B6900BFFB685B6903F08003E3
:1009F400002BF9D03B891B0A9BB2DAB2FB681A615F
:100A040000BFFB685B6903F08003002BF9D03B89CE
:100A1400DAB2FB681A6100BFFB685B6903F0040388
:100A2400002BF9D0FB681B6843F48072FB681A60E2
:100A340000BFFB685B6903F00103002BF9D0FB7A6C
:100A440043F00103FB72FA7AFB681A6197F82030CD
:100A5400012B26D1FB681B6823F48062FB681A60B3
:100A640000BFFB685B6903F00203002BF9D0FB684D
:100A74005B697B61FB689B697B617B69FB681B68C5
:100A840043F40072FB681A6000BFFB685B6903F003
:100A94004003002BF9D0FB681B69DAB27B681A703B
:100AA4004EE0FB681B6843F48062FB681A6000BF79
:100AB400FB685B6903F00203002BF9D0FB685B69F8
:100AC4007B61FB689B697B617B6935E097F820302B
:100AD400012B1DD1FB681B6823F48062FB681A603C
:100AE400FB681B6843F40072FB681A6000BFFB6874
:100AF4005B6903F04003002BF9D0FB681B69DAB291
:100B04007B681A7097F82030013B87F8203013E097
:100B140000BFFB685B6903F04003002BF9D0FB685E
:100B24001B69DAB27B681A707B6801337B6097F8C3
:100B34002030013B87F8203097F82030002BC5D1B6
:100B4400002318461C37BD465DF8047B704700003F
:100B540080B582B002AF0123009303230122082150
:100B64001248FFF733FD114B5B6A104A23F00F0361
:100B740053620E4B5B6A0D4A43F004035362012334
:100B840000930323012209210848FFF71FFD074BA7
:100B94005B6A064A23F0F0035362044B5B6A034A20
:100BA40043F04003536200BFBD4680BD00040240D1
:100BB40080B584B000AF78602B4B1B685B08FB608A
:100BC400FB682A4AA2FB03239B0C7B81FFF7C0FF2F
:100BD400274B1B6C264A43F4001313647B681B6881
:100BE40043F400427B681A607B681B6823F400426C
:100BF4007B681A607B685B6823F03F027B685A60FD
:100C04007B685A687B891A437B685A607B689B6857
:100C140023F400427B689A607B689B6843F48042BB
:100C24007B689A607B689B6843F01E027B689A60CD
:100C34007B68DB6943F0D2027B68DA617B681B6AFC
:100C440043F02B027B681A627B681B6823F4807272
:100C54007B681A607B681B6843F001027B681A603A
:100C640000BF1037BD4680BD0000002083DE1B435B
:100C74000038024080B584B002AFFFF75BFD00206E
:100C8400FFF7BAFD1A4B1B681A4AA2FB03239B0900
:100C94001846FFF765FB002300930123002205217A
:100CA4001548FFF7A1FB1548FFF782FF4FF4FA70D0
:100CB400FFF782FB0123FB710DE0FB790093104BDE
:100CC400002200210D48FFF751FE0A20FFF774FBB4
:100CD400FB790133FB71FB79082BEED9052106481A
:100CE400FFF736FC4FF4FA70FFF766FB00BFF5E739
:100CF40000000020D34D6210000002400054004068
:100D04002400002080B400AF00BFFDE780B400AF32
:100D140000BFFDE780B400AF00BFFDE780B400AFC3
:100D240000BFFDE780B400AF00BFFDE780B400AFB3
:100D340000BFBD465DF8047B704780B400AF00BFC0
:100D4400BD465DF8047B704780B400AF00BFBD466C
:100D54005DF8047B7047000080B400AF044B1B684F
:100D64000133034A136000BFBD465DF8047B70473E
:100D7400200000200D488546FFF72AFA0C480D494B
:100D84000D4A002302E0D458C4500433C4188C42E2
:100D9400F9D30A4A0A4C002301E013600432A24248
:100DA400FBD300F011F8FFF765FFFEE70080012098
:100DB4000000002004000020440E0008040000206D
:100DC4002C000020FEE7000070B50D4D0D4C641B97
:100DD400A4100026A64209D10B4D0C4C00F018F8C3
:100DE400641BA4100026A64205D170BD55F8043B2F
:100DF40098470136EEE755F8043B98470136F2E789
:100E04003C0E00083C0E00083C0E0008400E000892
:100E1400F8B500BFF8BC08BC9E467047F8B500BFE3
:080E2400F8BC08BC9E467047B3
:100E2C00000000000000000001020304060708098E
:040E3C00B9010008F0
:040E40009501000810
:040E44000024F40092
:0400000508000D7969
:00000001FF
