:020000040800F2
:1000000000800120C5120008571200085F12000886
:10001000671200086F120008771200080000000045
:100020000000000000000000000000007F12000837
:100030008D120008000000009B120008A9120008A1
:100040000000000015130008151300081513000820
:1000500015130008151300081513000815130008E0
:1000600015130008151300081513000815130008D0
:1000700015130008151300081513000815130008C0
:1000800015130008151300081513000800000000E0
:100090000000000000000000000000001513000830
:1000A0001513000815130008151300081513000890
:1000B0001513000815130008151300081513000880
:1000C0001513000815130008151300081513000870
:1000D0001513000815130008151300080000000090
:1000E0001513000815130008151300080000000080
:1000F00000000000000000000000000015130008D0
:10010000000000001513000815130008151300085F
:1001100000000000000000000000000000000000DF
:10012000151300081513000815130008151300080F
:10013000151300080000000000000000000000008F
:10014000000000000000000000000000151300087F
:1001500015130008151300081513000815130008DF
:10016000151300081513000800000000000000002F
:10017000000000000000000000000000000000007F
:10018000000000000000000000000000000000006F
:04019000151300083B
:1001940010B5054C237833B9044B13B10448AFF3BD
:1001A40000800123237010BD040000200000000023
:1001B4007013000808B5034B1BB103490348AFF3A0
:1001C400008008BD00000000080000207013000833
:1001D40080B400AF064BD3F88830054A43F470036B
:1001E400C2F8883000BFBD465DF8047B704700BF8D
:1001F40000ED00E080B487B000AF00233B61002332
:100204007B610223FB600023BB6002237B60344BD1
:100214009B6803F00C033B613B69082B11D03B69DD
:10022400082B44D83B69002B03D03B69042B04D032
:100234003DE02C4B2C4A1A603DE02A4B2B4A1A60B5
:1002440039E0274B5B689B0D03F00103BB60244B33
:100254005B6803F03F037B60BB68002B0CD0234A30
:100264007B68B2FBF3F31E4A52689209C2F3080298
:1002740002FB03F37B610BE01B4A7B68B2FBF3F3E5
:10028400174A52689209C2F3080202FB03F37B6126
:10029400134B5B681B0C03F0030301335B00FB602F
:1002A4007A69FB68B2FBF3F30E4A136003E00D4B6B
:1002B4000D4A1A6000BF0A4B9B681B0903F00F0329
:1002C4000B4AD35C3B61074B1A683B6922FA03F380
:1002D400044A136000BF1C37BD465DF8047B7047B9
:1002E40000380240000000200024F40000127A00CC
:1002F400C813000880B483B000AF03463960FB71B3
:1003040097F90730002B0ADB3B68DAB20C4997F9FE
:1003140007301201D2B20B4483F800230AE03B6891
:10032400DAB20849FB7903F00F03043B1201D2B29D
:100334000B441A7600BF0C37BD465DF8047B70474A
:1003440000E100E000ED00E080B400AF034B1B6867
:100354001846BD465DF8047B704700BF20000020AE
:1003640080B582B000AF7860124B1B68114A23F04D
:10037400010313600F4A7B68013B53600D4B1B68FC
:100384000C4A43F00403136007214FF0FF30FFF7DA
:10039400B1FF084B1B68074A43F002031360054B87
:1003A4001B68044A43F00103136000BF0837BD46CD
:1003B40080BD00BF10E000E080B584B000AF78607D
:1003C400FFF7C2FF0346FB607B68BB6000BFFFF71B
:1003D400BBFF0246FB68D31ABA689A42F7D800BF3B
:1003E40000BF1037BD4680BD80B483B000AF7860D5
:1003F400084611461A460346FB700B46BB7013466B
:100404007B707B684B4A934206D14B4B1B6B4A4A29
:1004140043F00103136335E07B68484A934206D1F5
:10042400454B1B6B444A43F0020313632AE07B6889
:10043400434A934206D1404B1B6B3F4A43F00403AB
:1004440013631FE07B683F4A934206D13A4B1B6B10
:10045400394A43F00803136314E07B683A4A934231
:1004640006D1354B1B6B344A43F01003136309E088
:100474007B68364A934205D12F4B1B6B2E4A43F0BF
:10048400800313637B681A68FB785B00032101FA1D
:1004940003F3DB431A407B681A607B681A68FB78B5
:1004A4005B00012101FA03F31A437B681A607B683D
:1004B400DA68FB785B00032101FA03F3DB431A409B
:1004C4007B68DA607B68DB68B978FA78520001FAF5
:1004D40002F21A437B68DA607B689A68FB785B00F7
:1004E400032101FA03F3DB431A407B689A607B68BB
:1004F4009B687978FA78520001FA02F21A437B6811
:100504009A607B685A68FB78032101FA03F3DB43A2
:100514001A407B685A607B685B68397CFA7801FA18
:1005240002F21A437B685A6000BF0C37BD465DF87F
:10053400047B70470000024000380240000402407F
:1005440000080240000C024000100240001C02405F
:1005540080B485B000AF78600B46FB701346BB7067
:100564007B681A68FB785B0022FA03F303F0030349
:10057400012B0CBF01230023DBB2FB73FB7B002B9D
:1005840016D0BB78002B09D07B689B69FA780121CF
:1005940001FA02F21A437B689A6109E07B689B695D
:1005A400FA781032012101FA02F21A437B689A6147
:1005B40000BF1437BD465DF8047B704780B485B036
:1005C40000AF78600B46FB707B681A68FB785B00B1
:1005D40022FA03F303F00303012B0CBF01230023CE
:1005E400DBB2FB737B685A69FB78012101FA03F3E0
:1005F4001340002B14BF01230023DBB2BB73FB7B2E
:10060400002B12D0BB7B002B08D0FB7810330122C7
:1006140002FA03F31A467B689A6106E0FB7801222A
:1006240002FA03F31A467B689A6100BF1437BD4689
:100634005DF8047B7047000080B483B000AF78603D
:10064400084611461A460346FB700B46BB70134618
:100654007B707B684B4A934206D14B4B1B6B4A4AD7
:1006640043F00103136335E07B68484A934206D1A3
:10067400454B1B6B444A43F0020313632AE07B6837
:10068400434A934206D1404B1B6B3F4A43F0040359
:1006940013631FE07B683F4A934206D13A4B1B6BBE
:1006A400394A43F00803136314E07B683A4A9342DF
:1006B40006D1354B1B6B344A43F01003136309E036
:1006C4007B68364A934205D12F4B1B6B2E4A43F06D
:1006D400800313637B681A68FB785B00032101FACB
:1006E40003F3DB431A407B681A607B681A68FB7863
:1006F4005B00022101FA03F31A437B681A607B68EA
:10070400DA68FB785B00032101FA03F3DB431A4048
:100714007B68DA607B68DB68B978FA78520001FAA2
:1007240002F21A437B68DA607B689A68FB785B00A4
:10073400032101FA03F3DB431A407B689A607B6868
:100744009B687978FA78520001FA02F21A437B68BE
:100754009A607B685A68FB78032101FA03F3DB4350
:100764001A407B685A607B685B68397CFA7801FAC6
:1007740002F21A437B685A6000BF0C37BD465DF82D
:10078400047B70470000024000380240000402402D
:1007940000080240000C024000100240001C02400D
:1007A40080B400AF114B1B68104A43F4007313600C
:1007B4000E4B1B680D4A43F4806313600B4B1B689C
:1007C4000A4A43F480731360094B5B6C084A43F490
:1007D40080435364064B1B6C054A43F080531364F7
:1007E40000BFBD465DF8047B704700BF003C02407B
:1007F4000038024080B500AF0B4B1B680A4A43F037
:100804000103136000BF084B1B6803F00203002BB5
:10081400F9D0054B9B68044A23F003039360FFF768
:10082400E9FC00BF80BD00BF0038024080B500AFC6
:100834000B4B1B680A4A43F4A023136000BF084B08
:100844001B6803F40033002BF9D0054B9B68044A62
:1008540023F003039360FFF7CDFC00BF80BD00BF0E
:100864000038024080B582B000AF0346FB71584B9C
:100874001B68574A23F080731360FB79002B30D038
:10088400012B5BD1FFF7D2FF514B5B68504A43F415
:10089400800353604E4B5B684D4A23F03F03536023
:1008A4004B4B5B684A4A43F004035360484B5B6814
:1008B400474A23F4FF4323F040035360444B5B68EF
:1008C400434A43F428535360414B5B68404A23F442
:1008D400403353603E4B5B683D4A43F4803353607E
:1008E4002DE0FFF787FF3A4B394A5B685360384B7A
:1008F4005B68374A23F03F035360354B5B68344AE7
:1009040043F008035360324B5B68314A23F4FF43DE
:1009140023F0400353602E4B5B682D4A43F4285365
:1009240053602B4B5B682A4A23F440335360284BB3
:100934005B68274A43F48033536000E000BF244BD4
:100944001B68234A43F08073136000BF204B1B686D
:1009540003F00073002BF9D01D4B9B681C4A23F451
:10096400604393601A4B1A4A9B689360184B9B68C8
:10097400174A23F4E0539360154B9B68144A43F4DD
:1009840080539360134B1B68124A23F007031360D0
:10099400104B1B680F4A43F0020313600C4B9B6817
:1009A4000B4A23F003039360094B9B68084A43F006
:1009B4000203936000BF064B9B6803F00803002BFF
:1009C400F9D0FFF717FC00BF0837BD4680BD00BF54
:1009D40000380240003C024090B585B000AF0446A8
:1009E400084611461A462346FB710346BB710B4663
:1009F4007B7113463B7100233B730023FB7300237D
:100A04007B737B79203B3B7397F90730002B04DA27
:100A14000023FB71BB790233BB713B79102B47D1A7
:100A24000023FB7340E097F82030002B07D03B7B7A
:100A34001A01FB7B1344484AD35CBB7307E03B7B3E
:100A44001A01FB7B1344444AD35CDB43BB7300238E
:100A54007B7323E0BA7B7B7B802141FA03F3134051
:100A6400002B0CD0FA797B7B1344D8B2BA79FB7B88
:100A74001344DBB20122194600F0A8FA0BE0FA791C
:100A84007B7B1344D8B2BA79FB7B1344DBB20022DC
:100A9400194600F09BFA7B7B01337B737B7B072B2E
:100AA400D8D9FB7B0133FB73FB7B0F2BBBD94BE00A
:100AB4003B79082B4BD10023FB7342E097F820309D
:100AC400002B08D03A7BFB7B2449D2000A44134410
:100AD4001B78BB7308E03A7BFB7B2049D2000A44B5
:100AE40013441B78DB43BB7300237B7323E0BA7B83
:100AF4007B7B802141FA03F31340002B0CD0FA795D
:100B04007B7B1344D8B2BA79FB7B1344DBB201225A
:100B1400194600F05BFA0BE0FA797B7B1344D8B2F8
:100B2400BA79FB7B1344DBB20022194600F04EFA7B
:100B34007B7B01337B737B7B072BD8D9FB7B013316
:100B4400FB73FB7B072BB9D900F08CFA00E000BFE4
:100B54001437BD4690BD00BFBC170008C41400087C
:100B640090B587B002AF3A601A460346FB710B4654
:100B7400BB7113467B710023FB737B79102B03D16C
:100B84007B795B08BB7325E07B79082B29D17B79C2
:100B94005B08DBB20233BB731CE0FB7B3A68134493
:100BA4001A787C79B979F87997F82030009323463C
:100BB400FFF712FFFA79BB7B1344FB71FB79782BA7
:100BC40005D90023FB71BA797B791344BB71FB7B94
:100BD4000133FB73FB7B3A6813441B78002BDCD195
:100BE40000E000BF1437BD4690BD90B585B000AF9E
:100BF4000446084611461A462346FB710346BB7158
:100C04000B467B7113463B710023FB736BE000239F
:100C1400BB735CE097F82430002B10D0FA7B7B790F
:100C24000733002B00DA0733DB1003FB02F2BB7B34
:100C340013441A463B6A13441B783B7310E0FA7B57
:100C44007B790733002B00DA0733DB1003FB02F256
:100C5400BB7B13441A463B6A13441B78DB433B7348
:100C640000237B732DE03A7B7B7B802141FA03F3E5
:100C74001340002B11D0BB7BDB00DAB2FB791344A9
:100C8400DAB27B7B1344D8B2BA79FB7B1344DBB270
:100C94000122194600F09AF910E0BB7BDB00DAB2BE
:100CA400FB791344DAB27B7B1344D8B2BA79FB7B69
:100CB4001344DBB20022194600F088F97B7B013330
:100CC4007B737B7B072BCED9BB7B0133BB73BA7B96
:100CD4007B790733002B00DA0733DB109A4299DB68
:100CE400FB7B0133FB73FA7B3B799A428FD300F091
:100CF400B9F900BF1437BD4690BD000080B582B07D
:100D040002AFFFF74DFD0020FFF7ACFD334B1B682E
:100D1400334AA2FB03239B091846FFF721FB314802
:100D240000F0C4F800230093012300220A212E4876
:100D3400FFF75AFB012204212B48FFF709FC00F0BE
:100D440019FA002000F0C4F9012300931023274A64
:100D540000211C20FFF704FF012300931023244AE1
:100D640010210C20FFF7FCFE012300931023214ADD
:100D740020212820FFF7F4FE0123009310231E4AAC
:100D840030210420FFF7ECFE4FF4FA70FFF714FB58
:100D9400002000F09DF9012300931023174A02213B
:100DA4001C20FFF7DDFE164B9B88DAB2144BDB8860
:100DB400D9B2134B1B680120019000930B461921F3
:100DC4002820FFF712FF0A210748FFF7F7FB4FF42B
:100DD400FA70FFF7F1FA00BFF5E700BF000000204A
:100DE400D34D621000300140000002408813000817
:100DF40094130008A4130008AC130008BC130008E3
:100E0400B814000880B582B002AF264B1B6B254A8C
:100E140043F0010313630023009301230022042100
:100E24002148FFF7E1FA0023009303230022052160
:100E34001D48FFF701FC1C4B1B6A1B4A23F470037B
:100E44001362194B1B6A184A43F4A003136200236C
:100E540000930323002206211348FFF7EDFB124BF6
:100E64001B6A114A23F0706313620F4B1B6A0E4A0C
:100E740043F0A0631362002300930323002207219D
:100E84000948FFF7D9FB084B1B6A074A23F0704354
:100E94001362054B1B6A044A43F0A043136200BF6C
:100EA400BD4680BD003802400000024080B582B0DB
:100EB40000AF7860204B5B6C1F4A43F4805353644B
:100EC400FFF7A0FF7B681B6823F038027B681A6079
:100ED4007B681B6843F030027B681A607B681B6880
:100EE40023F003027B681A607B681B6823F40062AA
:100EF4007B681A607B681B6823F080027B681A6039
:100F04007B681B6843F400727B681A607B681B680B
:100F140043F480727B681A607B681B6843F00402A8
:100F24007B681A607B681B6843F040027B681A6028
:100F340000BF0837BD4680BD0038024080B485B08C
:100F440000AF78600B46FB7000BF7B689B6803F0C2
:100F54000203002BF9D07B680C33FA781A7000BFB7
:100F64007B689B6803F00103002BF9D07B68DB6886
:100F7400FB73FB7B18461437BD465DF8047B704752
:100F840080B582B000AF786039603B68002B03D035
:100F94000B4B01221A6002E0094B00221A60094B34
:100FA40000221A607B68DBB219460748FFF7C6FFC8
:100FB400044B01221A6000BF0837BD4680BD00BF44
:100FC40088024042900240420030014080B483B025
:100FD40000AF0346FB710B46BB7113467B717B79F3
:100FE400002B1AD0BB79DB08D8B20346DA01FB79AF
:100FF40013441B4AD35C5AB2BB7903F007030121A3
:1010040001FA03F35BB2134359B20346DA01FB79E5
:101014001344C9B2124AD1541BE0BB79DB08D8B2DD
:101024000346DA01FB7913440D4AD35C5AB2BB7907
:1010340003F00703012101FA03F35BB2DB435BB264
:10104400134059B20346DA01FB791344C9B2044A86
:10105400D15400BF0C37BD465DF8047B704700BF18
:101064002400002080B582B000AF0023FB7124E08F
:10107400FB79B03300211846FFF782FF00210020DE
:10108400FFF77EFF00211020FFF77AFF0023BB71DA
:101094000CE0FB79DA01BB7913440C4AD35C0121DF
:1010A4001846FFF76DFFBB790133BB7197F9063022
:1010B400002BEEDAFB790133FB71FB79072BD7D9CF
:1010C40000BF00BF0837BD4680BD00BF240000201C
:1010D40080B582B000AF78607B68002B06D04FF4F7
:1010E4008062FF21074800F014F905E04FF48062A4
:1010F4000021044800F00DF9FFF7B4FF00BF0837E2
:10110400BD4680BD2400002080B500AF084B0122FD
:101114001A606420FFF750F9054B00221A6064201E
:10112400FFF74AF9024B01221A6000BF80BD00BFDD
:101134008C02404280B582B002AF002300930323A7
:10114400002202210A48FFF74FF9002300930323EA
:10115400002204210648FFF747F9002300930323E4
:10116400002203210248FFF73FF900BFBD4680BDBE
:101174000000024080B500AFFFF7DCFFC820FFF796
:101184001BF9FFF7C1FF0021AE20FFF7F9FE002194
:101194000020FFF7F5FE00211020FFF7F1FE0021EB
:1011A4004020FFF7EDFE0021B020FFF7E9FE00210B
:1011B4008120FFF7E5FE0021FF20FFF7E1FE00217B
:1011C400A120FFF7DDFE0021A620FFF7D9FE0021B4
:1011D400A820FFF7D5FE00213F20FFF7D1FE002114
:1011E400C820FFF7CDFE0021D320FFF7C9FE002160
:1011F4000020FFF7C5FE0021D520FFF7C1FE002126
:101204008020FFF7BDFE0021D920FFF7B9FE0021A1
:10121400F120FFF7B5FE0021DA20FFF7B1FE00212F
:101224001220FFF7ADFE0021DB20FFF7A9FE00210D
:101234003020FFF7A5FE00218D20FFF7A1FE00213D
:101244001420FFF79DFE0021AF20FFF799FE00BF99
:1012540080BD80B400AF00BFFDE780B400AF00BF25
:10126400FDE780B400AF00BFFDE780B400AF00BF6E
:10127400FDE780B400AF00BFFDE780B400AF00BF5E
:10128400BD465DF8047B704780B400AF00BFBD4627
:101294005DF8047B704780B400AF00BFBD465DF8C5
:1012A400047B704780B400AF044B1B680133034ACE
:1012B400136000BFBD465DF8047B7047200000202A
:1012C4000D488546FEF784FF0C480D490D4A00235E
:1012D40002E0D458C4500433C4188C42F9D30A4AE7
:1012E4000A4C002301E013600432A242FBD300F055
:1012F40019F8FFF703FDFEE700800120000000203D
:1013040004000020B41D0008040000202404002070
:10131400FEE702440346934200D1704703F8011BE1
:10132400F9E7000070B50D4D0D4C641BA4100026A8
:10133400A64209D10B4D0C4C00F018F8641BA41004
:101344000026A64205D170BD55F8043B98470136E6
:10135400EEE755F8043B98470136F2E7AC1D000868
:10136400AC1D0008AC1D0008B01D0008F8B500BF96
:10137400F8BC08BC9E467047F8B500BFF8BC08BC72
:041384009E467047CA
:101388004F4C45442054657374000000302E3936A4
:10139800222053534431333036000000363458315C
:1013A800323800007777772E6C636477696B692E23
:1013B800636F6D0044616E69656C6974610000005B
:1013C80000000000000000000102030406070809ED
:1013D800FFFFFFFFFFFFC0FFFFFFFFFFFFC0FF0092
:1013E8003FFF003FC0FC0007F8000FC0F00003F00B
:1013F8000003C0E00000C00001C0C0000000000001
:10140800C080000000000040800000000000400094
:1014180000000000000000000000000000000000C4
:101428000000000000000000000000800000000034
:10143800004080000000000040C00000000000C024
:10144800C00000000000C0E00000000001C0F8007B
:1014580000000007C0FC000000000FC0FE000000F4
:10146800001FC0FF800000007FC0FFE0000001FFF8
:10147800C0FFF0000003FFC0FFFC00000FFFC0FF2B
:10148800FF00003FFFC0FFFFC000FFFFC0FFFFF0ED
:1014980003FFFFC0FFFFF807FFFFC0FFFFFE1FFFAE
:1014A800FFC0FFFFFFFFFFFFC0FFFFFFFFFFFFC001
:1014B800D8130008320020000800000000000000D7
:1014C800000000001010101000100000282828004C
:1014D8000000000028287C287C282800103C503870
:1014E80014781000004C2C10086060003048502020
:1014F800544834003010200000000000081020205C
:101508002010080020100808081020000010543887
:10151800541000000010107C1010000000000000A3
:1015280000180810000000007C0000000000000007
:1015380000303000000408102040000038444C54AB
:101548006444380010301010101038003844040873
:1015580010207C007C08100804443800081828482B
:101568007C0808007C40780404443800182040783F
:10157800444438007C0408102020200038444438B3
:10158800444438003844443C0408300000303000FB
:1015980030300000003030003010200008102040AB
:1015A8002010080000007C007C00000020100804C7
:1015B800081020003844040810001000384404348F
:1015C8005C443800102844447C44440078444478FF
:1015D800444478003844404040443800704844440B
:1015E800444870007C40407840407C007C40407813
:1015F800404040003844405C44443C004444447CFF
:101608004444440038101010101038001C08080812
:10161800084830004448506050484400404040402A
:1016280040407C00446C5454444444004444645452
:101638004C44440038444444444438007844447892
:101648004040400038444444544834007844447886
:10165800504844003C404038040478007C10101086
:101668001010100044444444444438004444444462
:101678004428100044444454545428004444281036
:101688002844440044444428101010007C040810E6
:1016980020407C00382020202020380000402010E6
:1016A8000804000038080808080838001028440012
:1016B800000000000000000000007C00201008006E
:1016C80000000000000038043C443C0040405864DE
:1016D8004444780000003840404438000404344C46
:1016E80044443C00000038447C40380038242070D2
:1016F8002020200000003C44443C0438404058640A
:101708004444440010003010101038000800180835
:1017180008084830404048506050480030101010C9
:101728001010380000006854544444000000586405
:1017380044444400000038444444380000005864DD
:10174800645840400000344C4C3404040000586491
:101758004040400000003C403804780020207020C1
:101768002024180000004444444C34000000444441
:101778004428100000004444545428000000442821
:101788001028440000004444443C043800007C080D
:1017980010207C0010202040202010000010101085
:1017A8001010100020101008101020000000002059
:1017B80054080000000000000000000000000000C5
:1017C8000000000000000018181818181818000069
:1017D800181800000012362448000000000000001D
:1017E80000000000000000242424FE484848FE4869
:1017F8004848000000001038545450301C14145449
:101808005438101000000044A4A8A8A8541A2A2A82
:101818002A44000000000030484848506EA49488CC
:101828008976000000606020C00000000000000011
:101838000000000000020408081010101010100822
:1018480008040200004020101008080808080810C2
:1018580010204000000000001010D63838D61010B4
:10186800000000000000000010101010FE10101002
:101878001000000000000000000000000000000050
:10188800606020C000000000000000007F00000031
:101898000000000000000000000000000000000040
:1018A8006060000000000102020404080810102013
:1018B8002040400000000018244242424242424276
:1018C80024180000000000107010101010101010E4
:1018D800107C00000000003C424242040408102032
:1018E800427E00000000003C42420418040202420A
:1018F80044380000000000040C14242444447E04EE
:10190800041E00000000007E40404058640202426D
:10191800443800000000001C244040586442424201
:10192800241800000000007E42440808101010101F
:10193800101000000000003C424242241824424299
:10194800423C00000000001824424242261A0202CB
:1019580024380000000000000000181800000000F3
:1019680018180000000000000000181800000018F7
:101978001808300000000002040810204020100859
:1019880004020000000000000000FE000000FE004D
:1019980000000000000000402010080402040810A5
:1019A800204000000000003C424262020408080097
:1019B8001818000000000038445AAAAAAAAAB4427B
:1019C800443800000000001010182828243C444225
:1019D80042E70000000000F8444444784442424290
:1019E80044F800000000003E42428080808080422F
:1019F80044380000000000F8444242424242424259
:101A080044F80000000000FE424848784848404238
:101A180042FE0000000000FE424848784848404026
:101A280040E000000000003C44448080808E8444F4
:101A380044380000000000E7424242427E424242EF
:101A480042E700000000007C101010101010101069
:101A5800107C00000000003E080808080808080874
:101A6800080888F0000000EE444850705048484488
:101A780044EE0000000000E040404040404040404C
:101A880042FE0000000000EE6C6C6C6C5454545420
:101A980054D60000000000C7626252524A4A4A46C1
:101AA80046E20000000000384482828282828282FC
:101AB80044380000000000FC424242427C40404062
:101AC80040E0000000000038448282828282B2CA6C
:101AD8004C380600000000F8444444784848444420
:101AE80042E300000000003E424240201804024247
:101AF800427C0000000000FE921010101010101020
:101B080010380000000000E742424242424242428E
:101B1800423C0000000000E74242442424282818E0
:101B280010100000000000D692929292AAAA6C446B
:101B380044440000000000E7422424181818242414
:101B480042E70000000000EE44442828101010105E
:101B5800103800000000007E84040808102020428D
:101B680042FC0000001E1010101010101010101071
:101B780010101E000000404020201010080404022D
:101B8800020201010078080808080808080808087F
:101B98000808780000081422000000000000000077
:101BA800000000000000000000000000000000002D
:101BB800000000FF006010000000000000000000AE
:101BC80000000000000000000000003C421E22420D
:101BD800423F0000000000C040404058644242427A
:101BE80064580000000000000000001C2240404033
:101BF800221C0000000000060202021E224242428D
:101C0800261B0000000000000000003C427E40400F
:101C1800423C00000000000F1110107E1010101040
:101C2800107C0000000000000000003E44443840E2
:101C38003C42423C000000C04040405C624242429C
:101C480042E7000000000030300000701010101053
:101C5800107C00000000000C0C00001C04040404AC
:101C680004044478000000C04040404E4850684892
:101C780044EE00000000007010101010101010103A
:101C8800107C000000000000000000F649494949A6
:101C980049ED000000000000000000DC6242424202
:101CA80042E70000000000000000003C42424242BF
:101CB800423C000000000000000000D8644242429C
:101CC800645840E0000000000000001E224242422A
:101CD800261A020700000000000000EE3220202033
:101CE80020F80000000000000000003E42403C02D6
:101CF800427C0000000000000010107C1010101042
:101D0800100C000000000000000000C642424242E1
:101D1800463B000000000000000000E742242428A1
:101D28001010000000000000000000D79292AAAA3C
:101D380044440000000000000000006E2418181839
:101D48002476000000000000000000E74224242858
:101D5800181010E0000000000000007E4408101079
:101D6800227E00000003040404040408040404049C
:101D780004040300080808080808080808080808F0
:101D88000808080800601010101010081010101033
:101D98001010600000000000000020520C0000003D
:041DA8000000000037
:041DAC00B901000871
:041DB0009501000891
:041DB4000024F40013
:04000005080012C518
:00000001FF
