:020000040800F2
:1000000000800120491D00084F1B0008571B0008F5
:100010005F1B0008671B00086F1B00080000000042
:10002000000000000000000000000000771B000836
:10003000851B000800000000931B0008A11B00089E
:1000400000000000991D0008991D0008991D000876
:10005000991D0008991D0008991D0008991D0008A8
:10006000991D0008991D0008991D0008991D000898
:10007000991D0008991D0008991D0008991D000888
:10008000991D0008991D0008991D00080000000036
:10009000000000000000000000000000991D0008A2
:1000A000991D0008991D0008991D0008991D000858
:1000B000991D0008991D0008991D0008991D000848
:1000C000991D0008991D0008991D0008991D000838
:1000D000991D0008991D0008991D000800000000E6
:1000E000991D0008991D0008991D000800000000D6
:1000F000000000000000000000000000991D000842
:1001000000000000991D0008991D0008991D0008B5
:1001100000000000000000000000000000000000DF
:10012000991D0008991D0008991D0008991D0008D7
:10013000991D000800000000000000000000000001
:10014000000000000000000000000000991D0008F1
:10015000991D0008991D0008991D0008991D0008A7
:10016000991D0008991D0008000000000000000013
:10017000000000000000000000000000000000007F
:10018000000000000000000000000000000000006F
:04019000991D0008AD
:1001A00010B5054C237833B9044B13B10448AFF3B1
:1001B00000800123237010BDD0010020000000004A
:1001C000044A000808B5034B1BB103490348AFF3C9
:1001D000008008BD00000000D4010020044A00088F
:1001E00001F0FF01102A2BDB10F0070F08D010F8E8
:1001F000013B013A8B422DD010F0070F42B3F6D1EC
:10020000F0B441EA012141EA014122F007047FF004
:1002100000070023F0E80256083C85EA010586EA5B
:10022000010685FA47F5A3FA87F586FA47F6A5FA97
:1002300087F68EB9EED1F0BC01F0FF0102F00702A3
:1002400032B110F8013B013A83EA010313B1F8D14E
:100250000020704701387047002D06BF354603382F
:10026000073815F0010F07D1013015F4807F02BF68
:10027000013015F4C03F0130F0BC0138704700BFB9
:10028000034613F8012B002AFBD1181A01387047D6
:1002900081F0004102E000BF83F0004330B54FEA37
:1002A00041044FEA430594EA050F08BF90EA020FA4
:1002B0001FBF54EA000C55EA020C7FEA645C7FEA37
:1002C000655C00F0E2804FEA5454D4EB5555B8BF5A
:1002D0006D420CDD2C4480EA020281EA030382EACB
:1002E000000083EA010180EA020281EA0303362D5D
:1002F00088BF30BD11F0004F4FEA01314FF4801C30
:100300004CEA113102D0404261EB410113F0004F41
:100310004FEA03334CEA133302D0524263EB4303F8
:1003200094EA050F00F0A780A4F10104D5F1200E96
:100330000DDB02FA0EFC22FA05F2801841F10001F1
:1003400003FA0EF2801843FA05F359410EE0A5F1C5
:1003500020050EF1200E012A03FA0EFC28BF4CF0F6
:10036000020C43FA05F3C01851EBE37101F00045AC
:1003700007D54FF0000EDCF1000C7EEB00006EEBB9
:100380000101B1F5801F1BD3B1F5001F0CD3490843
:100390005FEA30004FEA3C0C04F101044FEA44529A
:1003A00012F5800F80F09A80BCF1004F08BF5FEA21
:1003B000500C50F1000041EB045141EA050130BD01
:1003C0005FEA4C0C404141EB0101013C28BFB1F513
:1003D000801FE9D291F0000F04BF01460020B1FA5E
:1003E00081F308BF2033A3F10B03B3F120020CDA31
:1003F0000C3208DD02F1140CC2F10C0201FA0CF00F
:1004000021FA02F10CE002F11402D8BFC2F1200C73
:1004100001FA02F120FA0CFCDCBF41EA0C01904029
:10042000E41AA2BF01EB0451294330BD6FEA040472
:100430001F3C1CDA0C340EDC04F11404C4F120025D
:1004400020FA04F001FA02F340EA030021FA04F36F
:1004500045EA030130BDC4F10C04C4F1200220FAC6
:1004600002F001FA04F340EA0300294630BD21FA04
:1004700004F0294630BD94F0000F83F4801306BFCA
:1004800081F480110134013D4EE77FEA645C18BFBE
:100490007FEA655C29D094EA050F08BF90EA020F55
:1004A00005D054EA000C04BF1946104630BD91EA4D
:1004B000030F1EBF0021002030BD5FEA545C05D150
:1004C0004000494128BF41F0004130BD14F580048F
:1004D0003CBF01F5801130BD01F0004545F0FE4103
:1004E00041F470014FF0000030BD7FEA645C1ABF38
:1004F000194610467FEA655C1CBF0B46024650EA6F
:10050000013406BF52EA033591EA030F41F400219A
:1005100030BD00BF90F0000F04BF0021704730B520
:100520004FF4806404F132044FF000054FF00001F5
:1005300050E700BF90F0000F04BF0021704730B5B6
:100540004FF4806404F1320410F0004548BF40428B
:100550004FF000013EE700BF42004FEAE2014FEAE0
:1005600031014FEA02701FBF12F07F4393F07F4FBB
:1005700081F06051704732F07F4208BF704793F0BE
:100580007F4F04BF41F40021704730B54FF46074D1
:1005900001F0004521F000411CE700BF50EA0102D4
:1005A00008BF704730B54FF000050AE050EA01027D
:1005B00008BF704730B511F0004502D5404261EBED
:1005C00041014FF4806404F132045FEA915C3FF42E
:1005D000D8AE4FF003025FEADC0C18BF03325FEACB
:1005E000DC0C18BF033202EBDC02C2F1200300FA7C
:1005F00003FC20FA02F001FA03FE40EA0E0021FAA1
:1006000002F11444BDE600BF70B54FF0FF0C4CF48E
:10061000E06C1CEA11541DBF1CEA135594EA0C0F40
:1006200095EA0C0F00F0DEF82C4481EA030621EA7B
:100630004C5123EA4C5350EA013518BF52EA0335B6
:1006400041F4801143F4801338D0A0FB02CE4FF068
:100650000005E1FB02E506F00042E0FB03E54FF098
:100660000006E1FB03569CF0000F18BF4EF0010E90
:10067000A4F1FF04B6F5007F64F5407404D25FEA8C
:100680004E0E6D4146EB060642EAC62141EA55513F
:100690004FEAC52040EA5E504FEACE2EB4F1FD0C81
:1006A00088BFBCF5E06F1ED8BEF1004F08BF5FEAFF
:1006B000500E50F1000041EB045170BD06F00046B1
:1006C00046EA010140EA020081EA0301B4EB5C045E
:1006D000C2BFD4EB0C0541EA045170BD41F4801156
:1006E0004FF0000E013C00F3AB8014F1360FDEBF7B
:1006F000002001F0004170BDC4F10004203C35DA57
:100700000C341BDC04F11404C4F1200500FA05F3D9
:1007100020FA04F001FA05F240EA020001F000427A
:1007200021F0004110EBD37021FA04F642EB0601F0
:100730005EEA430E08BF20EAD37070BDC4F10C041A
:10074000C4F1200500FA04F320FA05F001FA04F2DE
:1007500040EA020001F0004110EBD37041F10001CA
:100760005EEA430E08BF20EAD37070BDC4F12005D5
:1007700000FA05F24EEA020E20FA04F301FA05F23D
:1007800043EA020321FA04F001F0004121FA04F2E5
:1007900020EA020000EBD3705EEA430E08BF20EAB5
:1007A000D37070BD94F0000F0FD101F000464000EF
:1007B00041EB010111F4801F08BF013CF7D041EA71
:1007C000060195F0000F18BF704703F00046520075
:1007D00043EB030313F4801F08BF013DF7D043EA46
:1007E0000603704794EA0C0F0CEA135518BF95EAFC
:1007F0000C0F0CD050EA410618BF52EA4306D1D183
:1008000081EA030101F000414FF0000070BD50EAA1
:10081000410606BF1046194652EA430619D094EA2B
:100820000C0F02D150EA013613D195EA0C0F05D115
:1008300052EA03361CBF104619460AD181EA030169
:1008400001F0004141F0FE4141F470014FF0000021
:1008500070BD41F0FE4141F4780170BD70B54FF0BC
:10086000FF0C4CF4E06C1CEA11541DBF1CEA13553C
:1008700094EA0C0F95EA0C0F00F0A7F8A4EB05041E
:1008800081EA030E52EA03354FEA013100F0888015
:100890004FEA03334FF0805545EA131343EA1263DE
:1008A0004FEA022245EA111545EA10654FEA002693
:1008B0000EF000419D4208BF964244F1FD0404F54C
:1008C000407402D25B084FEA3202B61A65EB0305A8
:1008D0005B084FEA32024FF480104FF4002CB6EB65
:1008E000020E75EB030E22BFB61A754640EA0C00E5
:1008F0005B084FEA3202B6EB020E75EB030E22BF25
:10090000B61A754640EA5C005B084FEA3202B6EB65
:10091000020E75EB030E22BFB61A754640EA9C0024
:100920005B084FEA3202B6EB020E75EB030E22BFF4
:10093000B61A754640EADC0055EA060E18D04FEAB2
:10094000051545EA16754FEA06164FEAC30343EA52
:1009500052734FEAC2025FEA1C1CC0D111F4801F1F
:100960000BD141EA00014FF000004FF0004CB6E718
:1009700011F4801F04BF01430020B4F1FD0C88BFB7
:10098000BCF5E06F3FF6AFAEB5EB030C04BFB6EBC2
:10099000020C5FEA500C50F1000041EB045170BDB5
:1009A0000EF0004E4EEA113114EB5C04C2BFD4EBE2
:1009B0000C0541EA045170BD41F480114FF0000E66
:1009C000013C90E645EA060E8DE60CEA135594EAE2
:1009D0000C0F08BF95EA0C0F3FF43BAF94EA0C0FE5
:1009E0000AD150EA01347FF434AF95EA0C0F7FF45A
:1009F00025AF104619462CE795EA0C0F06D152EAAE
:100A000003353FF4FDAE1046194622E750EA410691
:100A100018BF52EA43067FF4C5AE50EA41047FF4A2
:100A20000DAF52EA43057FF4EBAE12E74FF0FF3C07
:100A300006E000BF4FF0010C02E000BF4FF0010CD8
:100A40004DF804CD4FEA410C7FEA6C5C4FEA430C51
:100A500018BF7FEA6C5C1BD001B050EA410C0CBFA0
:100A600052EA430C91EA030F02BF90EA020F002002
:100A7000704710F1000F91EA030F58BF994208BF69
:100A800090422CBFD8176FEAE37040F00100704726
:100A90004FEA410C7FEA6C5C02D150EA013C07D17D
:100AA0004FEA430C7FEA6C5CD6D152EA033CD3D0C8
:100AB0005DF8040B704700BF8446104662468C46C2
:100AC0001946634600E000BF01B5FFF7B7FF0028F5
:100AD00048BF10F1000F01BD4DF808EDFFF7F4FF1E
:100AE0000CBF012000205DF808FB00BF4DF808EDA9
:100AF000FFF7EAFF34BF012000205DF808FB00BFCC
:100B00004DF808EDFFF7E0FF94BF012000205DF8ED
:100B100008FB00BF4DF808EDFFF7CEFF94BF0120A2
:100B200000205DF808FB00BF4DF808EDFFF7C4FF9B
:100B300034BF012000205DF808FB00BF4FEA410CE4
:100B40007FEA6C5C02D150EA013C0AD14FEA430CC7
:100B50007FEA6C5C02D152EA033C02D14FF0000004
:100B600070474FF0010070474FEA410212F5001242
:100B700015D211D56FF47873B3EB625212D94FEAE4
:100B8000C12343F0004343EA505311F0004F23FACE
:100B900002F018BF404270474FF00000704750EA23
:100BA000013005D111F0004008BF6FF000407047E0
:100BB0004FF00000704700BF80B400AF064BD3F881
:100BC0008830054A43F47003C2F8883000BFBD4640
:100BD0005DF8047B704700BF00ED00E080B487B093
:100BE00000AF00233B6100237B610223FB600023F5
:100BF000BB6002237B60344B9B6803F00C033B61BA
:100C00003B69082B11D03B69082B44D83B69002B6A
:100C100003D03B69042B04D03DE02C4B2C4A1A60D6
:100C20003DE02A4B2B4A1A6039E0274B5B689B0D4D
:100C300003F00103BB60244B5B6803F03F037B6060
:100C4000BB68002B0CD0234A7B68B2FBF3F31E4A2F
:100C500052689209C2F3080202FB03F37B610BE0C6
:100C60001B4A7B68B2FBF3F3174A52689209C2F33E
:100C7000080202FB03F37B61134B5B681B0C03F060
:100C8000030301335B00FB607A69FB68B2FBF3F39B
:100C90000E4A136003E00D4B0D4A1A6000BF0A4B69
:100CA0009B681B0903F00F030B4AD35C3B61074BA6
:100CB0001A683B6922FA03F3044A136000BF1C3729
:100CC000BD465DF8047B70470038024000000020FC
:100CD0000024F40000127A006C4A000880B483B04B
:100CE00000AF03463960FB7197F90730002B0ADB30
:100CF0003B68DAB20C4997F907301201D2B20B44C3
:100D000083F800230AE03B68DAB20849FB7903F074
:100D10000F03043B1201D2B20B441A7600BF0C370A
:100D2000BD465DF8047B704700E100E000ED00E0A7
:100D300080B400AF034B1B681846BD465DF8047BCA
:100D4000704700BFEC01002080B582B000AF786032
:100D5000124B1B68114A23F0010313600F4A7B6892
:100D6000013B53600D4B1B680C4A43F004031360B6
:100D700007214FF0FF30FFF7B1FF084B1B68074A10
:100D800043F002031360054B1B68044A43F0010360
:100D9000136000BF0837BD4680BD00BF10E000E013
:100DA00080B584B000AF7860FFF7C2FF0346FB60F8
:100DB0007B68BB6000BFFFF7BBFF0246FB68D31A2E
:100DC000BA689A42F7D800BF00BF1037BD4680BD51
:100DD00080B483B000AF7860084611461A460346D7
:100DE000FB700B46BB7013467B707B684B4A93428B
:100DF00006D14B4B1B6B4A4A43F00103136335E0AA
:100E00007B68484A934206D1454B1B6B444A43F0EA
:100E1000020313632AE07B68434A934206D1404BA6
:100E20001B6B3F4A43F0040313631FE07B683F4A98
:100E3000934206D13A4B1B6B394A43F008031363C4
:100E400014E07B683A4A934206D1354B1B6B344A17
:100E500043F01003136309E07B68364A934205D1DF
:100E60002F4B1B6B2E4A43F0800313637B681A6879
:100E7000FB785B00032101FA03F3DB431A407B6834
:100E80001A607B681A68FB785B00012101FA03F3A2
:100E90001A437B681A607B68DA68FB785B00032181
:100EA00001FA03F3DB431A407B68DA607B68DB6896
:100EB000B978FA78520001FA02F21A437B68DA60D4
:100EC0007B689A68FB785B00032101FA03F3DB433C
:100ED0001A407B689A607B689B687978FA78520040
:100EE00001FA02F21A437B689A607B685A68FB78C1
:100EF000032101FA03F3DB431A407B685A607B68E5
:100F00005B68397CFA7801FA02F21A437B685A600E
:100F100000BF0C37BD465DF8047B704700000240FF
:100F2000003802400004024000080240000C024069
:100F300000100240001C024080B485B000AF786011
:100F40000B46FB707B681A68FB785B0022FA03F3A0
:100F500003F00303012B0CBF01230023DBB2FB735F
:100F60007B685A69FB78012101FA03F31340002BD7
:100F700014BF01230023DBB2BB73FB7B002B12D019
:100F8000BB7B002B08D0FB781033012202FA03F35D
:100F90001A467B689A6106E0FB78012202FA03F3A5
:100FA0001A467B689A6100BF1437BD465DF8047B22
:100FB0007047000080B483B000AF786008461146E7
:100FC0001A460346FB700B46BB7013467B707B686A
:100FD0004B4A934206D14B4B1B6B4A4A43F00103E9
:100FE000136335E07B68484A934206D1454B1B6B3F
:100FF000444A43F0020313632AE07B68434A934266
:1010000006D1404B1B6B3F4A43F0040313631FE0C0
:101010007B683F4A934206D13A4B1B6B394A43F0F7
:101020000803136314E07B683A4A934206D1354BB8
:101030001B6B344A43F01003136309E07B68364AA4
:10104000934205D12F4B1B6B2E4A43F08003136351
:101050007B681A68FB785B00032101FA03F3DB432A
:101060001A407B681A607B681A68FB785B00022173
:1010700001FA03F31A437B681A607B68DA68FB782D
:101080005B00032101FA03F3DB431A407B68DA605B
:101090007B68DB68B978FA78520001FA02F21A43E9
:1010A0007B68DA607B689A68FB785B00032101FA51
:1010B00003F3DB431A407B689A607B689B6879780E
:1010C000FA78520001FA02F21A437B689A607B6850
:1010D0005A68FB78032101FA03F3DB431A407B686B
:1010E0005A607B685B68397CFA7801FA02F21A432D
:1010F0007B685A6000BF0C37BD465DF8047B7047C3
:101100000000024000380240000402400008024093
:10111000000C024000100240001C024080B400AFEE
:10112000114B1B68104A43F4007313600E4B1B688D
:101130000D4A43F4806313600B4B1B680A4A43F467
:1011400080731360094B5B6C084A43F4804353641B
:10115000064B1B6C054A43F08053136400BFBD4629
:101160005DF8047B704700BF003C0240003802403D
:1011700080B500AF0B4B1B680A4A43F001031360B4
:1011800000BF084B1B6803F00203002BF9D0054B8E
:101190009B68044A23F003039360FFF71FFD00BF21
:1011A00080BD00BF0038024080B500AF0B4B1B680C
:1011B0000A4A43F4A023136000BF084B1B6803F4E2
:1011C0000033002BF9D0054B9B68044A23F003033E
:1011D0009360FFF703FD00BF80BD00BF00380240F1
:1011E00080B582B000AF0346FB71584B1B68574A6D
:1011F00023F080731360FB79002B30D0012B5BD17F
:10120000FFF7D2FF514B5B68504A43F480035360B1
:101210004E4B5B684D4A23F03F0353604B4B5B687A
:101220004A4A43F004035360484B5B68474A23F43F
:10123000FF4323F040035360444B5B68434A43F44D
:1012400028535360414B5B68404A23F4403353605A
:101250003E4B5B683D4A43F4803353602DE0FFF71B
:1012600087FF3A4B394A5B685360384B5B68374AB3
:1012700023F03F035360354B5B68344A43F0080367
:101280005360324B5B68314A23F4FF4323F0400341
:1012900053602E4B5B682D4A43F4285353602B4B0D
:1012A0005B682A4A23F440335360284B5B68274A23
:1012B00043F48033536000E000BF244B1B68234A93
:1012C00043F08073136000BF204B1B6803F0007372
:1012D000002BF9D01D4B9B681C4A23F4604393609C
:1012E0001A4B1A4A9B689360184B9B68174A23F461
:1012F000E0539360154B9B68144A43F4805393600A
:10130000134B1B68124A23F007031360104B1B6832
:101310000F4A43F0020313600C4B9B680B4A23F007
:1013200003039360094B9B68084A43F002039360F0
:1013300000BF064B9B6803F00803002BF9D0FFF7B2
:101340004DFC00BF0837BD4680BD00BF00380240DD
:10135000003C024080B582B002AF0123009303231A
:10136000002208211248FFF725FE114B5B6A104A44
:1013700023F00F0353620E4B5B6A0D4A43F00403E4
:101380005362012300930323002209210848FFF739
:1013900011FE074B5B6A064A23F0F0035362044BCD
:1013A0005B6A034A43F04003536200BFBD4680BD01
:1013B0000004024080B584B000AF78602B4B1B68FE
:1013C0005B08FB60FB682A4AA2FB03239B0C7B8122
:1013D000FFF7C0FF274B1B6C264A43F4001313642E
:1013E0007B681B6843F400427B681A607B681B685B
:1013F00023F400427B681A607B685B6823F03F023D
:101400007B685A607B685A687B891A437B685A609C
:101410007B689B6823F400427B689A607B689B68CA
:1014200043F480427B689A607B689B6843F01E02AD
:101430007B689A607B68DB6943F0D2027B68DA6183
:101440007B681B6A43F02B027B681A627B681B680F
:1014500023F480727B681A607B681B6843F001028A
:101460007B681A6000BF1037BD4680BD00000020B9
:1014700083DE1B430038024080B487B000AFF860C1
:101480007A603B600B467B813B68002B02D07B6817
:10149000002B01D101236AE000BFFB689B6903F0C8
:1014A0000203002BF9D1FB681B6843F48072FB68D0
:1014B0001A6000BFFB685B6903F00103002BF9D0E1
:1014C0007B895B007B817B8923F001037B817A89A7
:1014D000FB681A6113E0FB685B6903F48063002B0F
:1014E0000DD0FB681B6843F40072FB681A60FB6850
:1014F0005B6923F48062FB685A61012337E0FB6873
:101500005B6903F00203002BE5D0FB685B697B613C
:10151000FB689B697B617B6911E000BFFB685B69CD
:1015200003F08003002BF9D07B681B781A46FB6818
:101530001A617B6801337B603B68013B3B603B6821
:10154000002BEAD100BFFB685B6903F08003002B2E
:10155000F9D000BFFB685B6903F00403002BF9D0EE
:10156000FB681B6843F40072FB681A60002318468E
:101570001C37BD465DF8047B704780B485B000AF72
:101580007860084611461A460346FB700B463B80BE
:101590001346BB7000BF7B689B6903F00203002BFE
:1015A000F9D17B681B6843F480727B681A6000BFC6
:1015B0007B685B6903F00103002BF9D0FB785B00CB
:1015C000FB70FB7823F00103FB70FA787B681A61EB
:1015D00000BF7B685B6903F00203002BF9D07B68D6
:1015E0005B69FB607B689B69FB60FB68BB78002BD9
:1015F0000BD100BF7B685B6903F08003002BF9D03F
:101600003B88DAB27B681A611DE0BB78012B18D1E8
:1016100000BF7B685B6903F08003002BF9D03B8837
:101620001B0A9BB2DAB27B681A6100BF7B685B69F8
:1016300003F08003002BF9D03B88DAB27B681A6193
:1016400001E001238EE000BF7B685B6903F00403C7
:10165000002BF9D07B681B6843F480727B681A60AA
:1016600000BF7B685B6903F00103002BF9D0FB78B6
:1016700043F00103FB70FA787B681A613B7F012B12
:1016800026D17B681B6823F480627B681A6000BFE8
:101690007B685B6903F00203002BF9D07B685B6910
:1016A000FB607B689B69FB60FB687B681B6843F49D
:1016B00000727B681A6000BF7B685B6903F04003BF
:1016C000002BF9D07B681B69DAB2BB691A7048E05D
:1016D0007B681B6843F480627B681A6000BF7B688C
:1016E0005B6903F00203002BF9D07B685B69FB6048
:1016F0007B689B69FB60FB6830E03B7F012B1BD163
:101700007B681B6823F480627B681A607B681B68B7
:1017100043F400727B681A6000BF7B685B6903F06A
:101720004003002BF9D07B681B69DAB2BB691A70E1
:101730003B7F013B3B7711E000BF7B685B6903F0B7
:101740004003002BF9D07B681B69DAB2BB691A70C1
:10175000BB690133BB613B7F013B3B773B7F002B88
:10176000CBD1002318461437BD465DF8047B704783
:1017700080B483B000AF78604FF06043D3F8803E10
:1017800003F00103002B13D04FF06043D3F8003E69
:1017900003F00103002B0BD000E000BF4FF06043CB
:1017A0001B68002BF9D04FF060437A68D2B21A70F0
:1017B0007B6818460C37BD465DF8047B7047000017
:1017C000B0B582B002AFFFF7A9FC0020FFF708FD1B
:1017D000304B1B68304AA2FB03239B091846FFF7D6
:1017E000B3FA2C4B1B6819462C4800F0EDFF002380
:1017F00000930123002205212948FFF7E9FA29482F
:10180000FFF7D8FD00BF01230193274B009300236E
:10181000752268212348FFF7B0FE0346002BF2D162
:10182000214B00221A700223204A68211D48FFF72D
:1018300023FE012301931C4B009300236B2268219C
:101840001848FFF79AFE1A4800F0FAF8184800F016
:1018500033F8174800F0A8F8154BDB691846FEF777
:101860007BFE04460D46124B9B691846FEF774FE3C
:1018700002460B46CDE9002322462B460D4800F0D8
:10188000A3FF05210648FFF757FB6420FFF788FAFE
:1018900000BFDBE700000020D34D6210204A0008A3
:1018A0000000024000540040F0010020040000202D
:1018B000F4010020504A000880B588B002AF78607B
:1018C0000623019307F10C03009300233B226821B8
:1018D0003348FFF752FE3B7B1BB21B021AB27B7BE5
:1018E0001BB21343FB82BB7B1BB21B021AB2FB7BF6
:1018F0001BB21343BB823B7C1BB21B021AB27B7C24
:101900001BB213437B82FA8A7B68B3F900309BB227
:10191000D31A9BB21AB27B68DA80BA8A7B68B3F9B1
:1019200002309BB2D31A9BB21AB27B681A817A8AB0
:101930007B68B3F904309BB2D31A9BB21AB27B68AE
:101940005A817B68B3F9063007EE903AB8EEE77A31
:10195000DFED146AC7EE267A7B68C3ED037A7B68F5
:10196000B3F9083007EE903AB8EEE77ADFED0D6A8A
:10197000C7EE267A7B68C3ED047A7B68B3F90A3038
:1019800007EE903AB8EEE77ADFED066AC7EE267A00
:101990007B68C3ED057A00BF1837BD4680BD00BF28
:1019A000005400400000804680B584B000AF7860ED
:1019B0007B68D3ED047A7B6893ED057AF0EE470AF5
:1019C000B0EE670A02F07EFEF0EE407A9FED1B7AE1
:1019D00067EE877A7B68C3ED067A7B6893ED047ABD
:1019E0007B68D3ED047A27EE277A7B68D3ED056A0E
:1019F0007B68D3ED057A66EEA77A77EE277AB0EEAC
:101A0000670A02F061FE87ED030A7B68D3ED037A73
:101A1000F1EE677AD7ED030AB0EE670A02F052FEE4
:101A2000F0EE407A9FED057A67EE877A7B68C3ED2A
:101A3000077A00BF1037BD4680BD00BFE12E65426A
:101A400080B58CB002AF786007F10C0300221A60F9
:101A50009A8000237B6200233B620023FB6100230A
:101A60007B8337E00623019307F10C0300930023E7
:101A70003B2268212C48FFF780FD3B7B1BB21B02F9
:101A80001AB27B7B1BB213433B83BB7B1BB21B0293
:101A90001AB2FB7B1BB21343FB823B7C1BB21B02C3
:101AA0001AB27B7C1BB21343BB82B7F918307A6A37
:101AB00013447B62B7F916303A6A13443B62B7F9B4
:101AC0001430FA691344FB610A20FFF769F97B8B34
:101AD00001337B837B8B632BC4D97B6A134A82FBE4
:101AE00003125211DB17D31A1AB27B681A803B6AB1
:101AF0000E4A82FB03125211DB17D31A1AB27B680B
:101B00005A80FB69094A82FB03125211DB17D31A70
:101B10009BB2A3F57F533F3B9BB21AB27B689A807E
:101B200000BF2837BD4680BD005400401F85EB51E3
:101B300080B584B000AF78607B68FB73FB7B184690
:101B4000FFF716FE7B6818461037BD4680BD80B48F
:101B500000AF00BFFDE780B400AF00BFFDE780B479
:101B600000AF00BFFDE780B400AF00BFFDE780B469
:101B700000AF00BFFDE780B400AF00BFBD465DF819
:101B8000047B704780B400AF00BFBD465DF8047BA6
:101B9000704780B400AF00BFBD465DF8047B70475E
:101BA00080B400AF044B1B680133034A136000BFCD
:101BB000BD465DF8047B7047EC01002080B400AFA7
:101BC00001231846BD465DF8047B704780B582B09E
:101BD00000AF7860396000F09FFE034616221A605D
:101BE0004FF0FF3318460837BD4680BD80B582B040
:101BF00000AF78604FF0FF317868FFF7E7FF00BF74
:101C0000FDE780B586B000AFF860B9607A60002368
:101C10007B610AE0AFF300800146BB685A1CBA60E2
:101C2000CAB21A707B6901337B617A697B689A4218
:101C3000F0DB7B6818461837BD4680BD80B586B09E
:101C400000AFF860B9607A6000237B6109E0BB688F
:101C50005A1CBA601B781846FFF76AFF7B6901338C
:101C60007B617A697B689A42F1DB7B68184618379A
:101C7000BD4680BD80B483B000AF78604FF0FF33C5
:101C800018460C37BD465DF8047B704780B483B0BE
:101C900000AF786039603B684FF400525A6000230F
:101CA00018460C37BD465DF8047B704780B483B09E
:101CB00000AF7860012318460C37BD465DF8047B01
:101CC000704780B485B000AFF860B9607A600023D7
:101CD00018461437BD465DF8047B704780B586B062
:101CE00000AF7860144A154BD31A7B617B693B6166
:101CF000134B1B68002B02D1114B124A1A60104B78
:101D00001A687B6813443A699A4207D200F004FECD
:101D100003460C221A604FF0FF3309E0084B1B68A2
:101D2000FB60074B1A687B681344054A1360FB6825
:101D300018461837BD4680BD008001200004000011
:101D400014020020680300200D488546FEF734FF8A
:101D50000C480D490D4A002302E0D458C450043306
:101D6000C4188C42F9D30A4A0A4C002301E01360DC
:101D70000432A242FBD300F0D5FDFFF721FDFEE7C0
:101D80000080012000000020D00100203C4E00080F
:101D9000D001002064030020FEE72DE9FF4757EC47
:101DA000106B002F0C4619463B46BBBF07F10043A2
:101DB0001F4600232D230B700D9BDDF830A09146AC
:101DC00023F02008BCBF32461646B8F1460F05D0B6
:101DD000B8F1450F00D10134022100E0032103AB2B
:101DE000019302AB009347EC106B5346224600F080
:101DF0004BFEB8F1470F054619D119F0010F0ED06F
:101E000000EB04090022002330463946FEF764FE49
:101E100008B1CDF80C903022039B4B451ED3039B99
:101E20000E9A5B1B2846136004B0BDE8F087B8F13A
:101E3000460F00EB0409E5D10378302B0AD10022CC
:101E4000002330463946FEF747FE18B9C4F10104B5
:101E5000CAF80040DAF800309944D3E7591C0391DE
:101E60001A70D9E7F7B50029BABF49422D232B23B1
:101E700009290270437029DD0DF107031D460A2769
:101E80001A46B1FBF7F607FB1614303402F8014C82
:101E90000C46632C03F1FF333146F1DC3031941EE4
:101EA00003F8011C411C2346AB420AD30DF1090380
:101EB0009B1AAC4288BF002302330344181A03B0B4
:101EC000F0BD13F8016B01F8016FEDE730233031FD
:101ED0008370C170031DF1E72DE9F04F8DB00C4602
:101EE000DDF8588016461F46054600F0CBFC036817
:101EF00004931846FEF7C4F900230A93D8F800307B
:101F00000590073323F0070303F1080294F818A0A3
:101F1000D4F800B0C8F80020D3E9008929F00043C4
:101F20000793CDF81880C4E91289DDE906019C4BBE
:101F30004FF0FF32FEF702FE70BBDDE90601984B61
:101F40004FF0FF32FEF7DCFD30BB0022002340469D
:101F50004946FEF7CBFD10B12D2384F84330914A5A
:101F6000914BBAF1470F8CBF9046984603232361EB
:101F70002BF0040323604FF00009009733460BAAAF
:101F80002146284600F0D2F9013040F08D804FF014
:101F9000FF300DB0BDE8F08F42464B464046494603
:101FA000FEF7CCFD40B14B46002BBCBF2D2384F87F
:101FB00043307E4A7E4BD4E763680AF0DF02069224
:101FC0005A1C3BD1062363604BF4806200232260DD
:101FD00003930AABCDE901A309AB0093616849EC17
:101FE000108B0DF123032846FFF7D7FE069B0999B6
:101FF000472B804629D1C81C02DB6368994241DD2A
:10200000AAF1020A5FFA8AFA0139524604F1500035
:102010000991FFF727FF0A9A1318012A81462361C5
:1020200002DC2268D20701D5013323619DF82330F9
:10203000002BA2D02D2384F843309EE7069A472A2E
:10204000C2D1002BC0D10123BDE7BAF1650FDBD9A6
:10205000BAF1660F18D1002963680BDD216113B94D
:102060002268D00702D501330B442361A1654FF0EC
:102070000009DBE713B92268D20701D50233F4E780
:102080000123F2E74FF0670A0A9B994205DB2368B8
:102090002161D807EAD54B1CE7E70029D4BFC1F17D
:1020A000020201221344E0E723685A0507D423699A
:1020B000424631462846B84701302BD167E7BAF18E
:1020C000650F40F2DD80D4E9120100220023FEF703
:1020D00003FD002833D0374A012331462846B8474C
:1020E00001303FF454AFDDE90938434502DB236892
:1020F000D8070FD5DDE9042331462846B84701301B
:102100003FF445AF4FF0000908F1FF3804F11A0A17
:10211000C84509DC23689B0700F10381E0680B9B3D
:102120009842B8BF184634E7012352463146284644
:10213000B84701303FF42BAF09F10109E8E7099BEB
:10214000002B39DC1B4A012331462846B8470130B1
:102150003FF41DAFDDE9093959EA030302D12368D1
:10216000D907D7D5DDE9042331462846B8470130E1
:102170003FF40DAF4FF0000A04F11A0B099B5B42CC
:10218000534501DC4B4693E701235A463146284626
:10219000B84701303FF4FBAE0AF1010AEEE700BF99
:1021A000FFFFEF7F804A00087C4A0008884A000849
:1021B000844A00088C4A0008A36DDDF828A0534526
:1021C000A8BF5346002B994636DC4FF0000B29EA96
:1021D000E97904F11A02A36D0693A3EB09035B45A9
:1021E00031DC099B9A453ADC2368DA0737D4099B2E
:1021F000AAEB0309069BAAEB03039945A8BF9946DE
:10220000B9F1000F33DC4FF0000829EAE97904F155
:102210001A0B099BAAEB0303A3EB090343457FF7C2
:1022200079AF01235A4631462846B84701303FF47A
:10223000AEAE08F10108ECE7424631462846B84701
:102240000130C2D1A3E60123314628460692B847A1
:1022500001303FF49CAE069A0BF1010BBBE7DDE9C0
:10226000042331462846B8470130C0D18FE6069A8C
:102270004B46424431462846B8470130C3D186E632
:10228000DDF828A0BAF1010F01DCDB0736D5012308
:10229000424631462846B84701303FF478AEDDE982
:1022A000042331462846B84701303FF470AED4E9E4
:1022B0001201002200230AF1FF3AFEF70DFCC0B91B
:1022C000534608F1010231462846B84701300CD187
:1022D0005DE601235A4631462846B84701303FF4AF
:1022E00056AE08F10108D045F3DB4B4604F150022D
:1022F000DFE64FF0000804F11A0BF4E70123424631
:10230000E1E701234A4631462846B84701303FF409
:102310003EAE08F10108E3680B995B1A4345F0DC17
:10232000FCE64FF0000804F11909F4E72DE9F04745
:10233000164698468A680B69DDF820909342B8BF2C
:102340001346336091F8432007460C460AB1013327
:1023500033602368990642BF3368023333602568CF
:1023600015F0060506D104F1190AE36832689B1AD4
:10237000AB4226DC94F843302268003B18BF0123AF
:1023800092062BD404F1430241463846C847013037
:102390001ED02368226903F00603042B02BFE56800
:1023A0003368ED1AA3680CBF25EAE5750025934252
:1023B000C4BF9B1AED1800261A34B5421AD100206A
:1023C00008E00123524641463846C847013003D150
:1023D0004FF0FF30BDE8F0870135C6E7E1185A1C21
:1023E000302081F84300224494F8451082F84310CD
:1023F0000233C7E70123224641463846C847013029
:10240000E6D00136D9E700002DE9FF470F7E0C9E8C
:10241000782F914680460C469A4601F1430207D830
:10242000622F0AD8002F00F0D180582F00F0B8801A
:1024300004F1420684F842703AE0A7F16303152BD9
:10244000F6D801A151F823F0A1240008B524000812
:102450003124000831240008312400083124000808
:10246000B524000831240008312400083124000874
:1024700031240008B3250008DF2400086D2500087A
:102480003124000831240008D52500083124000833
:10249000DF240008312400083124000875250008D5
:1024A00033681A1D1B68326004F1420684F842301A
:1024B00001239CE033682068191D3160060601D5B0
:1024C0001D6803E04506FBD5B3F90050002D03DA83
:1024D0002D236D4284F8433058480A2311E02168C7
:1024E0003368080653F8045B02D4490648BFADB20E
:1024F0006F2F5248336014BF0A230823002184F849
:1025000043106668A660002E05DB21682E4321F08B
:10251000040121604BD01646B5FBF3F103FB1157C4
:10252000C75D06F8017D2F46BB420D46F4D9082B46
:102530000BD12368DF0708D5236961689942DEBFA4
:10254000302306F8013C06F1FF36921B2261CDF8DC
:1025500000A04B4603AA21464046FFF7E7FE0130A4
:102560004AD14FF0FF3004B0BDE8F087236843F054
:10257000200323603248782784F845702368316847
:102580001F0651F8045B02D45F0648BFADB231604C
:10259000D90744BF43F0200323601DB11023ADE7EA
:1025A0002648E9E7236823F020032360F6E7164670
:1025B000BDE7336825686169181D30602E061B6809
:1025C00001D5196002E06806FBD51980002323615C
:1025D0001646BCE733681A1D32601E686268002127
:1025E0003046FDF7FDFD08B1801B60606368236124
:1025F000002384F84330AAE723693246494640461F
:10260000D0470130ADD023689B0713D4E068039B0B
:102610009842B8BF1846A6E70123324649464046CD
:10262000D04701309DD00135E36803995B1AAB4276
:10263000F2DCEBE7002504F11906F5E78E4A000805
:102640009F4A0008002310B50446C0E90033C0E9E2
:102650000433836081814366C28183611946082205
:102660005C3000F006F90D4B63620D4BA3620D4B1D
:10267000E3620D4B23630D4B24629C4206D003F1B1
:102680006802944202D0D0339C4205D104F1580034
:10269000BDE8104000F06AB910BD00BFED2700088A
:1026A0000F280008472800086B280008180200209F
:1026B000024A0349034800F069B800BF080000203F
:1026C000A94200081800002041680C4B994210B53F
:1026D000044601D001F0E8FDA168094B994202D0FF
:1026E000204601F0E1FDE168064B994204D0204606
:1026F000BDE8104001F0D8BD10BD00BF1802002099
:1027000080020020E802002010B50B4B0B4C0C4A55
:102710001A60204600220421FFF794FF04F16800AC
:1027200001220921FFF78EFF04F1D0000222BDE84B
:1027300010401221FFF786BF50030020180200202E
:10274000B1260008014800F012B900BF590300206B
:10275000014800F00DB900BF5903002010B5044630
:10276000FFF7F0FF236A1BB1BDE81040FFF7F0BF91
:10277000044B2362044B1B68002BF5D1FFF7C4FF09
:10278000F2E700BFC9260008500300202DE9F843F6
:102790000746884614460026D4E90195B9F1010997
:1027A00005D52468002CF7D13046BDE8F883AB8905
:1027B000012B07D9B5F90E30013303D0294638462D
:1027C000C04706436835E9E70FB407B5064904ABCF
:1027D000086853F8042B8168019301F0C9FB03B02A
:1027E0005DF804EB04B070471400002010B50C46EF
:1027F000B1F90E1000F06CF80028ABBF636DA3892F
:102800001B1823F48053ACBF6365A38110BD2DE971
:10281000F0411F468B89DB0505460C46164605D55B
:10282000B1F90E100223002200F040F8A389B4F998
:102830000E1023F48053A38132463B462846BDE860
:10284000F04100F057B810B50C46B1F90E1000F089
:102850002DF8431CA38915BF606523F4805343F40E
:102860008053A38118BFA38110BDB1F90E1000F0F1
:102870000DB802440346934200D1704703F8011B90
:10288000F9E70000004870475401002038B5064DB4
:102890000023044608462B60FFF7ECF9431C02D1E5
:1028A0002B6803B1236038BD5403002038B5074DB1
:1028B00004460846114600222A601A46FFF701FA2C
:1028C000431C02D12B6803B1236038BD54030020A0
:1028D00038B5074D04460846114600222A601A46BC
:1028E000FFF78FF9431C02D12B6803B1236038BD79
:1028F0005403002038B5074D04460846114600220F
:102900002A601A46FFF79AF9431C02D12B6803B1DB
:10291000236038BD54030020014B1868704700BF86
:102920001400002070B50D4D0D4C641BA410002642
:10293000A64209D10B4D0C4C02F064F8641BA410A4
:102940000026A64205D170BD55F8043B98470136D4
:10295000EEE755F8043B98470136F2E7344E00089D
:10296000344E0008344E0008384E00087047704757
:1029700070472DE9F74F03690C69A34207467EDBD8
:10298000013C01F11408A30000F11405009305EBCC
:102990008403019358F8243055F8242001339A42D7
:1029A00008EB8409B2FBF3F62ED34FF0000AC446BD
:1029B000AE46D3465CF8043B98B206FB00A0020C7E
:1029C0001B0C06FB0323DEF8002080B292B2121A21
:1029D0005A44DEF800004FEA134A9BB2C3EB22438D
:1029E00003EB104392B242EA0342E1454EF8042B56
:1029F0004FEA234BDED2009BEB582BB9019B043BE3
:102A00009D421A462FD33C61384601F07FF90028D9
:102A100025DB2946002058F8042BD1F800C01FFA06
:102A200082FE1FFA8CF3A3EB0E030344120CC2EBDD
:102A3000234202EB1C429BB243EA0243C14541F8E8
:102A4000043B4FEA2240E6D255F8242005EB8403EC
:102A500022B9043B9D421A460BD33C6101363046F5
:102A600003B0BDE8F08F1268043B002ACBD1013CD3
:102A7000C6E71268043B002AEFD1013CEAE70020D8
:102A8000EEE70000000000002DE9F04FC76997B0A5
:102A90008DED040B55EC104B209E079181460C9256
:102AA00011937FB9102000F009FE0246C9F81C00FE
:102AB00020B9A94BEF21A94801F0D0FCC0E901776A
:102AC0000760C760D9F81C30196859B15A684A6064
:102AD000012393408B60484600F0E6FED9F81C3095
:102AE00000221A602B1EB9BF23F000430593002378
:102AF0003360059F9A4BBCBF01223260BB4312D1A9
:102B0000119A42F20F731360C7F31303234300F0CB
:102B10005A85219BDFF85CA2002B00F05C850AF14E
:102B2000030300F056BD9DED047B002251EC170B12
:102B300000238DED0A7BFDF7CFFF804658B1119A37
:102B400001231360219B13B1219A864B1360DFF898
:102B500028A200F040BD9DED0A0B14AA15A9484615
:102B600001F084F9C7F30A560290002E78D00B9B2F
:102B7000CDF84880C3F31303DDE90A0143F07F5326
:102B800043F44013A6F2FF3619460022764BFDF7B8
:102B900083FB6BA3D3E90023FDF736FD6AA3D3E9DA
:102BA0000023FDF77BFB044630460D46FDF7C2FCD3
:102BB00067A3D3E90023FDF727FD02460B46204615
:102BC0002946FDF76BFB04460D46FDF7CDFF0022BD
:102BD0000746002320462946FDF788FF40B13846C6
:102BE000FDF7A8FC22462B46FDF776FF00B9013F12
:102BF000162F52D85D4B03EBC703D3E90023DDE961
:102C00000A01FDF773FF002849D0013F002310930C
:102C1000149B9B1B5A1E45BFC3F101030093002365
:102C20000023069254BF00930693002F39DB069BC6
:102C30000D973B44069300230893079B092B63D809
:102C4000052BC4BF043B0793079BA3F10203CCBF32
:102C500000240124032B63D8DFE803F05254372B00
:102C6000DDE914631E4406F23243202BC1BFC3F1D9
:102C700040039F4006F2124324FA03F3D6BFC3F188
:102C8000200347EA030004FA03F0FDF743FC0122A6
:102C9000A1F1F873013E129276E70123B7E7109095
:102CA000B6E7009BDB1B00937B42089300230D9348
:102CB000C3E7012309930C9B07EB030B0BF1010303
:102CC000012B0393B8BF012306E0012309930C9B5A
:102CD000002B28DD9B460393D9F81C000021042219
:102CE00002F114059D4226D94160484600F09CFD42
:102CF0008246002842D11E4B024640F2AF11DAE66E
:102D00000023E3E70023D5E7012400230793099478
:102D10004FF0FF3B0022CDF80CB012230C92DBE702
:102D200001230993F4E74FF0010BCDF80CB05B469B
:102D3000CDF830B0D0E701315200D1E7AFF30080D9
:102D400061436F63A787D23FB3C8608B288AC63FB1
:102D5000FB799F501344D33FBD4A0008D44A000872
:102D60000000F07F8D4A00080000F83F284C000862
:102D70002C4B0008B94A00088C4A0008D9F81C30CE
:102D80001860039B0E2B00F2A180002C00F09E80A7
:102D9000002F33DD9C4B07F00F0203EBC20393EDD2
:102DA000007BF8058DED0E7B4FEA271416D5974B67
:102DB000DDE90A01D3E90823FDF750FDCDE904015F
:102DC00004F00F040326914D54B9DDE90E23DDE92B
:102DD0000401FDF743FDCDE9040128E00226F2E7F6
:102DE000E10708D5DDE90E01D5E90023FDF70CFC6C
:102DF000CDE90E01013664100835E5E700F0AF803B
:102E00007C42814B814D04F00F0203EBC203D3E9F6
:102E10000023DDE90A01FDF7F7FBCDE904012411E8
:102E200000230226002C40F08F80002BD3D1109B72
:102E3000DDE90445002B00F09480754B002220460C
:102E40002946FDF753FE002800F08B80039B002BE2
:102E500000F08780BBF1000F34DD20466D4B00226F
:102E60002946FDF7D1FBCDE9040107F1FF38013612
:102E70005C463046FDF75EFBDDE90423FDF7C4FB4D
:102E8000654B0022FDF70AFA0546A1F15076002CA9
:102E90006AD1DDE90401614B0022FDF7FDF902462C
:102EA0000B46CDE904232A463346FDF73DFE0028B4
:102EB00040F09882DDE904012A4606F10043FDF75F
:102EC00015FE38BBDDE90A34CDE90434159B002B2F
:102ED000C0F257810E2F00F354814B4B03EBC70315
:102EE00093ED007B0C9B002B8DED007B80F2E58049
:102EF000039B002B00F3E1800CD1484B002251ECE6
:102F0000170BFDF781FBDDE90423FDF703FE002825
:102F100000F06682002425460C9B56466FEA0308A3
:102F200000272146484600F0BFFC002D00F0BD8080
:102F30002FB1AF4203D03946484600F0B5FC2946D0
:102F4000484600F0B1FCB0E0E20705D5D5E9002322
:102F5000FDF75AFB013601236410083562E70226AB
:102F600065E7039CB84684E7274B099903EBC40344
:102F700053E902235444002954D029490020FDF785
:102F80006DFC33462A46FDF787F9CDE90E0156461A
:102F9000DDE90401FDF7E8FD0546FDF7CBFA024641
:102FA0000B46DDE90401FDF777F9303502460B46A3
:102FB000CDE9042306F8015BDDE90E23FDF796FD5C
:102FC000002872D1DDE9042311490020FDF764F9DE
:102FD000DDE90E23FDF78AFD002840F0B480A6420B
:102FE0003FF470AFDDE90E010A4B0022FDF70CFB48
:102FF000084BCDE90E010022DDE90401FDF704FBD9
:10300000CDE90401C4E700BF284C0008004C0008CB
:103010000000F03F0000244000001C40000014406D
:103020000000E03F31462846FDF7EEFACDE90E01FB
:1030300013945646DDE90401FDF796FD0546FDF7BC
:1030400079FA02460B46DDE90401FDF725F9303532
:1030500006F8015B02460B46A642CDE904234FF079
:10306000000224D1AF4BDDE90E01FDF717F902464E
:103070000B46DDE90401FDF757FD002863D1DDE9CA
:103080000E23A8490020FDF707F902460B46DDE9AB
:103090000401FDF72BFD00283FF414AF139E731EAF
:1030A000139316F8013C302BF8D047463BE09E4B7B
:1030B000FDF7AAFACDE90401BCE7DDE9044556466F
:1030C000DDE9002320462946FDF7C8FBFDF74CFD4E
:1030D0008046FDF72FFADDE90023FDF795FA024659
:1030E0000B462046294608F13004FDF7D5F806F8CE
:1030F000014B039DA6EB0A04A54202460B4633D1C1
:10310000FDF7CCF8DDE9002304460D46FDF70CFD84
:10311000C0B9DDE9002320462946FDF7DDFC10B1EA
:1031200018F0010F0ED10299484600F0BDFB0023B4
:103130003370119B01371F60219B002B00F04B82E5
:103140001E6048E2B84633461E4613F8012D392A60
:1031500006D19A45F8D1302208F101088AF80020FA
:103160001A7801321A70A0E76F4B0022FDF74CFA73
:103170000022002304460D46FDF7AEFC00289FD038
:10318000D1E7099A002A00F0EA80079A012A00F3A1
:10319000CD80129A002A00F0C18003F23343089CCC
:1031A000009E009A1A440092069A01211A44484649
:1031B000069200F02DFC054666B1069B002B09DD4A
:1031C000B342009AA8BF3346D21A0092069AF61A62
:1031D000D31A0693089B0BB3099B002B00F0C68003
:1031E000002C00F0C08029462246484600F0C8FC6A
:1031F000029A01460546484600F020FC02998046A6
:10320000484600F051FB089B1B1B089300F0B1805F
:10321000089A4146484600F0B3FC02900121484616
:1032200000F0F6FB0D9B0446002B00F0D8811A46F7
:103230000146484600F0A4FC079B012B044600F31E
:103240009F80049B002B40F09780059BC3F31303E2
:10325000002B40F09380059B23F000431B0D1B05C2
:1032600033B1009B01330093069B01330693012386
:1032700008930D9B002B00F0B881236904EB8303B6
:10328000186900F079FBC0F12000069B184410F08B
:103290001F0000F08280C0F12003042B73DD009B2F
:1032A000C0F11C0003440093069B034406440693AC
:1032B000009B002B05DD02991A46484600F0BAFC37
:1032C0000290069B002B05DD21461A46484600F079
:1032D000B1FC0446109B002B61D00298214600F0FF
:1032E00015FD00285BDA002302990A22484600F007
:1032F000FDFA099B029007F1FF38002B00F077815F
:10330000294600230A22484600F0F0FABBF1000FDC
:1033100005466FDC079B022B49DC6BE0149BC3F175
:1033200036033CE70000E03F00002440039B5C1EA6
:10333000089BA34209DB1C1B039B002BBFF630AF8D
:10334000009B039A9E1A00232BE7089B0D9A089472
:10335000E31A1A44009E039B0D92002421E7089C67
:10336000009E099D28E7DDF8088051E7089A029938
:1033700050E7CDF8088051E7002379E7049B77E711
:103380000023089379E793D0009A1C331A440092E3
:10339000069A1A441E4406928AE70346F4E7039B02
:1033A000002BB84620DC9B46079B022B1EDDBBF1A1
:1033B000000F7FF4B1AD21465B460522484600F080
:1033C00095FA01460446029800F0A0FC00287FF719
:1033D000A3AD5646312306F8013B08F101089FE5ED
:1033E000039CB8462546F4E7DDF80CB0099B002B9A
:1033F00000F00181002E05DD29463246484600F0E6
:1034000019FC0546089B002B5CD06968484600F013
:103410000BFA064628B9824B024640F2EF21FFF72D
:103420004ABB2A690232920005F10C010C3001F00E
:1034300007F801223146484600F0FCFB0AF101037F
:1034400000930AEB0B030893049B03F001032F4640
:1034500006930546009B0298214603F1FF3BFFF7C8
:1034600088FA03463033039039460298099300F0F6
:103470004DFC2A4604902146484600F063FCC26891
:10348000099B064602BB0146029800F03FFC099BDF
:103490000246314648460C92099300F005FA079B14
:1034A0000C9A009E42EA0301069B1943099B0DD129
:1034B000392B27D0049A002A01DD039B31338BF886
:1034C00000302EE52846B9E70122E2E704990029F9
:1034D00004DB079801430698014320D1002AEEDD62
:1034E000029900930122484600F0A4FB2146029075
:1034F00000F00CFC0028009B02DCE0D1DA07DED5EE
:10350000392BDAD139238BF8003033461E46013B84
:1035100016F8012C392A4ED001321A7001E5002A22
:1035200003DD392BEED00133C9E7009A089902F880
:10353000013C8A4228D0029900230A22484600F022
:10354000D5F9AF4202904FF000034FF00A0239461E
:10355000484607D100F0CAF907460546009B0133EB
:10356000009377E700F0C2F92946074600230A22B4
:10357000484600F0BBF90546F0E7BBF1000FCCBFB1
:103580005E460126564400270299009301224846D0
:1035900000F050FB2146029000F0B8FB0028B4DC9C
:1035A00002D1009BDB07B0D433461E4613F8012D31
:1035B000302AFAD0B5E49A45A8D1312308F10108A0
:1035C0008AF80030ADE4219BDFF858A01BB10AF166
:1035D0000803219A1360504617B0BDE8F08F079B8F
:1035E000012B7FF72EAE0D9B089301204DE6BBF11A
:1035F000000F7FF7D9AE564602982146FFF7B9F97A
:1036000000F1300306F8013BA6EB0A029345B4DD56
:10361000029900230A22484600F068F90290EBE77D
:103620002C4B0008B04A000838B50546002941D0A7
:1036300051F8043C0C1F002BB8BFE41800F0E8F868
:103640001D4A136833B9636014602846BDE83840EA
:1036500000F0E4B8A34208D9206821188B4201BFCA
:1036600019685B6809182160EDE71A465B680BB1C1
:10367000A342FAD911685018A0420BD12068014426
:10368000501883421160E0D118685B6853600844A9
:103690001060DAE702D90C232B60D6E720682118E6
:1036A0008B4204BF19685B68636004BF091821601E
:1036B0005460CAE738BD00BF60030020024B0146DA
:1036C000186800F025B800BF1400002070B50F4E38
:1036D0000C463168054611B900F0A2FE3060214663
:1036E000284600F09DFE431C03D14FF0FF342046D6
:1036F00070BDC41C24F00304A042F8D0211A28464F
:1037000000F08EFE0130F2D1EFE700BF5C03002035
:103710002DE9F843CD1C25F0030508350C2D38BFE5
:103720000C25002D064601DBA94204D90C23336089
:103730000020BDE8F883DFF8D48000F069F8D8F8FD
:1037400000301C4644BB29463046FFF7BFFF431CF0
:10375000044658D1D8F800402746002F43D1002C0A
:103760004BD023683946304604EB030900F058FE7D
:10377000814542D121686D1A29463046FFF7A6FFE0
:1037800001303AD023682B442360D8F800305A68BF
:1037900062BBC8F800700FE02268521B20D40B2ACD
:1037A00017D96119A342256018BF5960636808BF23
:1037B000C8F8001062514B60304600F02FF804F159
:1037C0000B00231D20F00700C21A1CBF1B1AA350B8
:1037D000AFE76268A3420CBFC8F800205A60EBE76D
:1037E00023466468AEE73C467F68B6E71A465B68E6
:1037F000A342FBD100235360DEE70C233360304645
:1038000000F00CF894E70560D6E700BF60030020E5
:103810000148FFF7ACB800BF580300200148FFF78C
:10382000A7B800BF5803002070B5C66904460D460E
:1038300076B91020FFF742FF0246E06120B9184B2D
:1038400018486B2100F00AFEC0E901660660C660F8
:10385000E669F36883B1E369DB6853F82500B8B91A
:10386000012101FA05F6721D9200204600F014FEB7
:1038700060B1C0E901560EE021220421204600F08B
:103880000BFEE369F060DB68002BE4D1002070BD23
:10389000026843F825200023C0E90333F7E700BF9F
:1038A000BD4A00083D4B000870B5C66905460C4688
:1038B00076B91020FFF702FF0246E86120B9094BF4
:1038C00009488F2100F0CAFDC0E901660660C660A4
:1038D0003CB1EB696268DB6853F82210216043F861
:1038E000224070BDBD4A00083D4B00082DE9F04163
:1038F0000D6907460C461E4601F1140C0020DCF849
:10390000003099B202FB01611E0C0B0C02FB063366
:1039100089B2013001EB034185424CF8041B4FEAA8
:103920001346ECDC0EB3A368AB4219DC6168384681
:103930000131FFF779FF804628B902460C4B0D484C
:10394000BA2100F08BFD2269023204F10C019200D1
:103950000C3000F075FD21463846FFF7A5FF4446C0
:1039600004EB850301355E6125612046BDE8F081E9
:103970002C4B00083D4B0008B0F5803F034636BF96
:10398000030400201020B3F1807F3CBF1B020830ED
:10399000B3F1805F3CBF1B010430B3F1804F3CBFEB
:1039A0009B000230002B05DB13F0804F00F101007B
:1039B00008BF202070470368024613F007000BD0B1
:1039C000D90721D4980749BF5B089B0801201360E1
:1039D0005CBF13600220704799B209B91B0C10201C
:1039E000D9B209B908301B0A190704BF1B090430F2
:1039F000990704BF9B080230D90703D45B0800F184
:103A0000010003D0136070470020704720207047EA
:103A100010B50C460121FFF707FF024628B9054BF8
:103A2000054840F2451100F019FD0123446103618E
:103A300010BD00BF2C4B00083D4B00082DE9F04F96
:103A400017460A693B699A42A8BF3B468946A4BF0C
:103A50000F4699463D69D9F810A0BB68796805EB17
:103A60000A06B34285B0B8BF0131FFF7DDFE30B9B9
:103A70000246414B41484FF4B17100F0EFFC00F1B8
:103A8000140404EB860E23460022734520D307F16D
:103A9000140809F1140108EB850501EB8A03029370
:103AA000EB1B153B23F0030304331537BD4238BF2E
:103AB00004230193029B03918B420CD8002E03DD5B
:103AC0005EF8043D002B55D0066105B0BDE8F08FCF
:103AD00043F8042BD9E7B1F800A0BAF1000F1FD0CA
:103AE000C446A14600275CF8042BD9F800301FFA21
:103AF00082FB9BB20AFB0B333B44D9F80070120CDB
:103B00003F0C0AFB027202EB13429BB243EA0243F0
:103B1000654549F8043B4FEA1247E4D8019BE7505A
:103B2000039BB3F802900431B9F1000F20D0236851
:103B30004746A4464FF0000AB7F800B0BCF8022090
:103B400009FB0B2252449BB243EA02434CF8043B6C
:103B500057F8043B4FEA134ABCF8003009FB0A331C
:103B600003EB1243BD424FEA134AE5D8019AA35032
:103B700004349FE7013EA1E72C4B00083D4B0008B1
:103B80002DE9F843154612F0030207460E4607D00A
:103B9000254C013A002354F82220FFF7A7FE0646E1
:103BA000AD103DD0FC697CB91020FFF787FD0246BF
:103BB000F86128B91D4B1E4840F2B31100F04EFCCD
:103BC000C0E901440460C460D7F81C80D8F80840FC
:103BD0004CB940F271213846FFF71AFF0023C8F8AC
:103BE0000800044603604FF00009EB070AD5314690
:103BF00022463846FFF722FF314680463846FFF717
:103C000053FE46466D100BD0206838B92246214637
:103C10003846FFF713FF2060C0F800900446E4E741
:103C20003046BDE8F88300BFF04B0008BD4A0008ED
:103C30003D4B00082DE9F0470C464968236903EB2A
:103C40006218A368074691464FEA621A08F1010616
:103C5000B3420BDB3846FFF7E7FD054648B902469D
:103C6000284B29484FF4EF7100F0F8FB01315B005D
:103C7000EEE7002300F1140100F11002184653454D
:103C800033DB20692AEAEA7A04F1140319F01F09E8
:103C900001EB8A0103EB800C2BD0C9F1200E8A4680
:103CA0000022186800FA09F010434AF8040B53F890
:103CB000042B9C4522FA0EF2F3D8ACEB0403153B1F
:103CC00023F00303043304F11500604588BF042387
:103CD000CA500AB108F10206013E38462E6121465B
:103CE000FFF7E2FD2846BDE8F08742F8040F0133F4
:103CF000C5E7043953F8042B41F8042F9C45F9D843
:103D0000EAE700BF2C4B00083D4B00080A69034658
:103D10000069801A30B50ED11433143103EB8204DC
:103D200001EB820154F8045D51F8042D954203D053
:103D300005D24FF0FF3030BDA342F3D3FBE70120A3
:103D4000F9E700002DE9F74F894606461146484637
:103D50001446FFF7DBFF051E12D129463046FFF758
:103D600063FD024628B93F4B40F237213E4800F040
:103D700075FB0123C0E90435104603B0BDE8F08FA0
:103D8000BCBF4B46A1463046D9F80410BABF1C460A
:103D900001250025FFF748FD024618B9314B40F2D6
:103DA0004521E3E7D9F810702669C56009F11003D1
:103DB00009F1140504F1140E00F1140B05EB87084A
:103DC0000EEB86060193D9464FF0000C019B5EF87E
:103DD000040B53F804AF01931FFA8AF3194683B218
:103DE000CB1A000C6344C0EB1A4000EB23409BB29B
:103DF00043EA0043764549F8043B4FEA204CE5D8B6
:103E0000331B153B23F0030315340433A64238BF9C
:103E100004231D445B441E462C4644450ED308F142
:103E20000301491B21F00301033DA84538BF0021D0
:103E30000B4453F8041D91B117619DE754F8041B1E
:103E4000E646080C1CFA81FC714400EB2C4089B258
:103E500041EA004146F8041B4FEA204CDDE7013FF0
:103E6000E7E700BF2C4B00083D4B00082DE9F74366
:103E70000F46012159EC108B1646FFF7D5FC04467E
:103E800030B90246234B244840F20F3100F0E6FAE5
:103E9000C9F30A55C9F313030DB143F48013019319
:103EA000B8F1000323D068460093FFF784FDDDE9F5
:103EB0000012D0B1C0F1200302FA03F30B43C24059
:103EC00063610192019BA361002B0CBF01220222BE
:103ED0002261A5B1A5F2334505443D60C0F135002E
:103EE0003060204603B0BDE8F0836161EAE701A8D5
:103EF000FFF761FD019B636120300122E8E704EBDD
:103F00008203A0F2324038601869FFF735FDC0EB3C
:103F10004210E5E72C4B00083D4B00089368013B3D
:103F2000002B10B4936008DA9469A34201DB0A29DC
:103F300003D15DF8044B00F0DFB91368581C106022
:103F4000197008465DF8044B7047F8B506460F46F1
:103F50001446D518AC4201D1002007E014F8011B2B
:103F60003A463046FFF7DAFF431CF3D1F8BD0000B4
:103F70002DE9F04F0D469DB014469846064618B1FF
:103F8000036A0BB9FEF7EAFB6B6ED90705D4AB8960
:103F90009A0502D4A86DFEF7EAFCAB891B0701D590
:103FA0002B699BB92946304600F0E4F970B16B6E7D
:103FB000DC0704D54FF0FF301DB0BDE8F08FAB89B2
:103FC0009805F7D4A86DFEF7D3FCF3E70023099317
:103FD00020238DF82930CDF80C803023DFF8AC8118
:103FE0008DF82A304FF0010923469A4613F8012B29
:103FF0000AB1252AF9D1BAEB040B0BD05B46224655
:1040000029463046FFF7A1FF013000F0A780099A4A
:104010005A4409929AF80030002B00F09F80002348
:104020004FF0FF32CDE905230AF1010A049307930B
:104030008DF853301A935446052214F8011B534847
:10404000FCF7CEF8049AD8B9D10644BF20238DF8E6
:104050005330130744BF2B238DF853309AF80030A8
:104060002A2B15D0079A544600204FF00A0C2146FF
:1040700011F8013B303B092B4BD9B0B1079214E04A
:10408000A0EB080309FA03F313430493A246D2E713
:10409000039B191D1B680391002BBBBF5B4242F0C1
:1040A000020207930793B8BF049223782E2B0AD1FC
:1040B00063782A2B32D1039B1A1D1B68039243EAB3
:1040C000E37302340593DFF8D4A02178032250462D
:1040D000FCF786F838B1049BA0EB0A00402282402E
:1040E00013430134049314F8011B29488DF8281058
:1040F0000622FCF775F800283FD0264B1BBB039B1C
:10410000073323F0070308330393099B3B440993C8
:104110006AE70CFB02320C460120A8E700230134B9
:10412000059319464FF00A0C204610F8012B303A3F
:10413000092A03D9002BC6D00591C4E70CFB012145
:1041400004460123F0E703AB00932A46124B04A96F
:104150003046FDF7C1FE0746781CD6D16B6ED907F5
:1041600005D4AB899A0502D4A86DFEF701FCAB8992
:104170005B063FF51FAF09981EE703AB00932A4685
:10418000054B04A93046FEF73FF9E4E7964B0008DB
:10419000A04B0008D91E00084B3F00089C4B0008AC
:1041A000B1F90C202DE9F041160705460C4654D410
:1041B0004B68002B02DC0B6C002B48DDE66A002EFE
:1041C00045D0002312F480522F68216A2B6030D032
:1041D000626DA389590705D56368D21A636B0BB169
:1041E000236CD21A0023E66A216A2846B047431C92
:1041F000A38906D129681D292BD82A4ACA40D60787
:1042000027D500226260D9042269226004D5421CAD
:1042100001D12B6803B96065616B2F60B9B104F1FE
:104220004403994202D02846FFF7FEF90023636356
:104230000DE001232846B0470246501CC9D12B6827
:10424000002BC6D01D2B01D0162B1ED12F600020B5
:1042500022E043F040031BB21BE00F69002FF6D0B1
:1042600093070E6808BF4B690F6018BF0023A6EBC9
:1042700007088B60B8F1000FE9DD216AA66A4346A2
:104280003A462846B047002808DCB4F90C3043F021
:104290004003A3814FF0FF30BDE8F0810744A8EB55
:1042A0000008E7E70100402038B50B6905460C46D9
:1042B00013B90025284638BD18B1036A0BB9FEF7BB
:1042C0004DFAB4F90C30002BF3D0626ED00704D451
:1042D000990502D4A06DFEF74AFB28462146FFF758
:1042E0005FFF636EDA070546E4D4A3899B05E1D43A
:1042F000A06DFEF73DFBDDE7F8B50E46144605461A
:1043000018B1036A0BB9FEF729FAA369A360A38960
:104310001A0701D5236943B92146284600F02AF837
:1043200018B14FF0FF373846F8BD23682269981A54
:104330006369F6B28342374605DC21462846FFF71B
:10434000B3FF0028EDD1A368013BA36023685A1C8A
:1043500022601E706269431C9A4204D0A389DB0765
:10436000E1D50A2EDFD121462846FFF79DFF002820
:10437000D9D0D6E738B5294B054618680C4618B190
:10438000036A0BB9FEF7EAF9B4F90C30190722D425
:10439000DA0607D409222A6043F04003A3814FF0D4
:1043A000FF3033E0580712D5616B41B104F144038B
:1043B000994202D02846FFF737F900236363A389A7
:1043C00023F02403A3810023636023692360A3896E
:1043D00043F00803A38123694BB9A38903F4207335
:1043E000B3F5007F03D02146284600F0C1F8B4F9A8
:1043F0000C3013F001020AD00022A260626952421E
:10440000A261226942B913F08000C5D138BD990775
:1044100058BF6269A260F4E70020F7E714000020AB
:1044200038B5064D0023044608462B60FDF756FCC0
:10443000431C02D12B6803B1236038BD5403002014
:104440000A44914200F1FF3300D1704710B511F8D2
:10445000014B03F8014F9142F9D110BD1FB514462D
:104460001A46094B1B680546D8684CB1074B0091AA
:10447000CDE9013406492B4600F042F800F0D6F8A9
:10448000044B1C46F3E700BF14000020B14B0008AA
:10449000BE4B0008EC4B000870B5A1FB025434B9C8
:1044A0002946FFF735F9064628B9304670BD0C227B
:1044B00002600026F9E72A462146FEF7DAF9F4E71A
:1044C00082B001B901A942B14BB113780B601278E7
:1044D000101E18BF012002B070471046FBE76FF0B6
:1044E0000100F8E70346084641B1FF2A04D98A22B1
:1044F0001A604FF0FF3070470A70012070470000CB
:104500000EB403B5014603AB054853F8042B00680D
:104510000193FFF72DFD02B05DF804EB03B0704787
:104520001400002070B50C46B1F90E10002996B0A9
:1045300015461E460DDAA38913F0800F4FF00001D7
:1045400014BF40234FF48063002031602B6016B00D
:1045500070BD6A4600F048F80028ECDB019901F4D0
:104560007041A1F50053594259414FF48063EBE784
:104570008B89F7B59D0706460C4607D504F147031E
:10458000236023610123636103B0F0BD01AB6A4680
:10459000FFF7C8FF009F054639463046FFF7B8F8D9
:1045A00048B9B4F90C309A05EED423F0030343F074
:1045B0000203A381E2E7A389206043F08003A38183
:1045C000019BC4E904075BB1B4F90E10304600F05A
:1045D0001DF828B1A38923F0030343F00103A3814D
:1045E000A3891D43A581CFE738B5074D00230446B5
:1045F000084611462B60FDF749FB431C02D12B688E
:1046000003B1236038BD00BF5403002038B5064D08
:104610000023044608462B60FDF748FB431C02D1EB
:104620002B6803B1236038BD5403002008B5062071
:1046300000F02CF80120FDF7D9FA1F2938B50546FE
:104640000C4604D9162303604FF0FF3038BDC26B0F
:1046500012B152F821304BB9284600F031F8224609
:1046600001462846BDE8384000F018B8012B0AD0B2
:10467000591C03D1162303600120E7E7002142F80B
:104680002410204698470020E0E70000024B014636
:104690001868FFF7D2BF00BF1400002038B5074DDF
:1046A00000230446084611462B60FDF78FFA431C91
:1046B00002D12B6803B1236038BD00BF5403002032
:1046C000FDF77CBA00F022B808B52DED028BB0EEF4
:1046D000408A00F017F8B4EE488AF1EE10FA0CD6D2
:1046E000DFED078AB4EEE88AF1EE10FA05D5FEF7A1
:1046F00013F988EEA80A21230360BDEC028B08BDE4
:1047000000000000B1EEC00A7047000010EE902AD1
:1047100022F00041B1F1FF4F10B5F0EE407A06D81B
:1047200010EE100A20F00043B3F1FF4F04D977EEEA
:10473000A07AB0EE670A10BDB2F17E5F03D1BDE88A
:10474000104000F083B8941704F0020444EAD074D7
:1047500043B9022C5ED09FED347A032C08BFF0EEF3
:10476000477AE6E741B9DFED317A9FED317A0028EB
:10477000A8BFF0EE477ADCE7B1F1FF4F10D1B3F1FB
:10478000FF4F04F1FF3407D1022C46D8294B03EB2D
:104790008403D3ED007ACCE7022C41D8264BF6E710
:1047A000B3F1FF4FDFD05B1AB3F1F45F4FEAE3518F
:1047B0001ADA002A01DA3C3119DB87EEA00A00F090
:1047C00019F900F043F8F0EE407A012C12D0022CD7
:1047D00017D0002CADD09FED197A77EE877A9FED38
:1047E000187A77EEC77AA4E7DFED117AEDE7DFED0F
:1047F000157AEAE717EE903A03F1004307EE903A94
:1048000097E79FED0E7A77EE877A9FED0D7A77EE38
:10481000677A8EE7DFED0A7A8BE7DFED0B7A88E7C0
:10482000DFED087A85E700BFDB0F49C0DB0FC9BFAA
:10483000DB0FC93F004E0008F44D00082EBDBB330E
:10484000DB0F494000000000DB0F493F38B510EE98
:10485000105A25F00044B4F1A14FF0EE407A10D385
:10486000B4F1FF4F04D970EE007AB0EE670A38BD9C
:10487000DFED4D7A9FED4D7A002DC8BFF0EE477AFF
:10488000F3E74B4B9C4210D8B4F1445F0AD29FED42
:10489000497A30EE077AF7EE006AB4EEE67AF1EE86
:1048A00010FAE2DC4FF0FF3313E000F0A3F8424BC4
:1048B0009C424FD8A3F5D0039C4241D8F0EE007A39
:1048C000BFEE007AA0EE277A002330EE270AC7EE6B
:1048D000007A5A1C27EEA76A9FED387ADFED385A26
:1048E0009FED385A66EE066AE6EE875A9FED367AF5
:1048F000A5EEA67ADFED355AE7EE265A9FED347A1B
:10490000A5EEA67ADFED335AE7EE265A9FED327A0E
:10491000A6EE875A9FED317AA5EE267A9FED305AA2
:10492000A7EE265A9FED2F7AA5EE267A27EE267A55
:10493000A5EE867A27EE877A21D177EEC77A94E7BB
:10494000F7EE007A30EE677A30EE270A0123C7EEE1
:10495000007ABEE7244B9C420BD8F7EE087AB7EEFC
:10496000007AA0EE277A022370EE676AC6EE877A95
:10497000AFE7BFEE007AC7EE007A0323A9E71B4A30
:104980001B4902EB830201EB8303D3ED006A37EE90
:10499000667A002D37EE677AD2ED007A77EEC77A25
:1049A000B8BFF1EE677A60E7DB0FC9BFDB0FC93F25
:1049B000FFFFDF3ECAF24971FFFF973FD769853C91
:1049C00059DA4B3D6BF16EBD356B883D6E2EBA3DAD
:1049D0002549123EABAAAA3E21A215BD95879DBDD1
:1049E000388EE3BDCDCC4CBEFFFF1B401C4E0008F3
:1049F0000C4E000810EE103A23F0004300EE103A7F
:104A000070470000F8B500BFF8BC08BC9E46704770
:0C4A1000F8B500BFF8BC08BC9E4670471B
:104A2000436F6E66696775726163696F6E20646556
:104A30006C207379737469636B2053797374656D3B
:104A400020436C6F636B202D3E20256C750A00009F
:104A500050697463683A20252E32662C20526F6CA0
:104A60006C3A20252E32660A00000000000000008B
:104A7000000000000102030406070809494E460031
:104A8000696E66004E414E006E616E00300030313E
:104A900032333435363738394142434445460030A5
:104AA00031323334353637383961626364656600D4
:104AB000496E66696E697479004E614E00524545D3
:104AC0004E54206D616C6C6F632073756363656514
:104AD000646564002F6275696C642F676E752D7450
:104AE0006F6F6C732D666F722D73746D33325F311F
:104AF000332E332E72656C312E32303234303932EF
:104B0000362D313731352F7372632F6E65776C69AF
:104B1000622F6E65776C69622F6C6962632F7374A4
:104B2000646C69622F64746F612E630042616C6C07
:104B30006F6320737563636565646564002F6275D8
:104B4000696C642F676E752D746F6F6C732D666F53
:104B5000722D73746D33325F31332E332E72656C68
:104B6000312E32303234303932362D313731352F23
:104B70007372632F6E65776C69622F6E65776C69EF
:104B8000622F6C6962632F7374646C69622F6D703D
:104B90007265632E6300232D302B2000686C4C005F
:104BA000656667454647004300504F534958002EFD
:104BB000002C2066756E6374696F6E3A2000617315
:104BC00073657274696F6E20222573222066616995
:104BD0006C65643A2066696C6520222573222C205E
:104BE0006C696E65202564257325730A000000003A
:104BF00005000000190000007D000000000000001A
:104C00000080E03779C34143176E05B5B5B89346C8
:104C1000F5F93FE9034F384D321D30F94877825A94
:104C20003CBF737FDD4F1575000000000000F03FB2
:104C30000000000000002440000000000000594077
:104C40000000000000408F40000000000088C340CA
:104C500000000000006AF8400000000080842E413F
:104C600000000000D01263410000000084D797418B
:104C70000000000065CDCD41000000205FA0024291
:104C8000000000E876483742000000A2941A6D4206
:104C9000000040E59C30A2420000901EC4BCD642F9
:104CA00000003426F56B0C430080E03779C34143A4
:104CB00000A0D8855734764300C84E676DC1AB431A
:104CC000003D9160E458E143408CB5781DAF154438
:104CD00050EFE2D6E41A4B4492D54D06CFF0804413
:104CE000F64AE1C7022DB544B49DD9794378EA4428
:104CF00000202020202020202020282828282820AC
:104D000020202020202020202020202020202020A3
:104D1000208810101010101010101010101010100B
:104D200010040404040404040404041010101010FB
:104D300010104141414141410101010101010101C5
:104D40000101010101010101010101011010101017
:104D50001010424242424242020202020202020297
:104D600002020202020202020202020210101010EB
:104D70002000000000000000000000000000000013
:104D80000000000000000000000000000000000023
:104D90000000000000000000000000000000000013
:104DA0000000000000000000000000000000000003
:104DB00000000000000000000000000000000000F3
:104DC00000000000000000000000000000000000E3
:104DD00000000000000000000000000000000000D3
:104DE00000000000000000000000000000000000C3
:104DF0000000000000000080DB0F4940DB0F49C0CD
:104E0000DB0F49BFE4CB1640E4CB16C06937AC31A9
:104E100068212233B40F14336821A2333863ED3E86
:0C4E2000DA0F493F5E987B3FDA0FC93F74
:084E2C00B4B3FF7F0100000098
:044E3400C5010008AC
:044E3800A1010008CC
:104E3C000024F4006B0000000000000003000000E0
:104E4C0018020020180000200000000018020020AA
:104E5C0080020020E802002000000000000000009A
:104E6C000000000000000000000000000000000036
:104E7C000000000000000000000000000000000026
:104E8C000000000000000000000000000000000016
:104E9C0000000000430000000000000000000000C3
:104EAC0000000000000000000000000000000000F6
:104EBC0000000000430000000000000000000000A3
:104ECC0000000000000000000000000000000000D6
:104EDC000000000043000000000000000000000083
:104EEC0000000000000000000000000000000000B6
:104EFC000000000043000000000000000000000063
:104F0C000000000000000000000000000000000095
:104F1C000000000043000000000000000000000042
:104F2C000000000000000000000000000000000075
:104F3C000000000043000000000000000000000022
:104F4C000000000000000000000000000000000055
:104F5C000000000043000000000000000000000002
:104F6C000000000000000000000000000000000035
:104F7C0000000000E5440008C144000800000000E7
:104F8C00F04C0008AF4B0008EC4B0008EC4B000851
:104F9C00EC4B0008EC4B0008EC4B0008EC4B000809
:104FAC00EC4B0008EC4B0008EC4B0008FFFFFFFF3C
:104FBC00FFFFFFFFFFFFFFFFFFFF0000010041535A
:104FCC004349490000000000000000000000000000
:104FDC000000000000000000000000000000415331
:104FEC0043494900000000000000000000000000E0
:104FFC0000000000000000000000000000000000A5
:0400000508001D4989
:00000001FF
