:020000040800F2
:100000000080012011120008A1110008A9110008A8
:10001000B1110008B9110008C1110008000000006A
:10002000000000000000000000000000C9110008EE
:10003000D711000800000000E5110008F5110008C4
:10004000000000006112000861120008611200083F
:1000500061120008611200086112000861120008B4
:1000600061120008611200086112000861120008A4
:100070006112000861120008611200086112000894
:1000800061120008611200086112000800000000FF
:1000900000000000000000000000000061120008E5
:1000A0006112000861120008611200086112000864
:1000B0006112000861120008611200086112000854
:1000C0006112000861120008611200086112000844
:1000D00061120008611200086112000800000000AF
:1000E000611200086112000861120008000000009F
:1000F0000000000000000000000000006112000885
:10010000000000006112000861120008611200087E
:1001100000000000000000000000000000000000DF
:1001200061120008611200086112000861120008E3
:100130006112000800000000000000000000000044
:100140000000000000000000000000006112000834
:1001500061120008611200086112000861120008B3
:100160006112000861120008000000000000000099
:10017000000000000000000000000000000000007F
:10018000000000000000000000000000000000006F
:0401900061120008F0
:1001940010B5054C237833B9044B13B10448AFF3BD
:1001A40000800123237010BD040000200000000023
:1001B400AC12000808B5034B1BB103490348AFF365
:1001C400008008BD0000000008000020AC120008F8
:1001D40080B400AF064BD3F88830054A43F470036B
:1001E400C2F8883000BFBD465DF8047B704700BF8D
:1001F40000ED00E080B487B000AF00233B61002332
:100204007B610223FB600023BB6002237B60344BD1
:100214009B6803F00C033B613B69082B11D03B69DD
:10022400082B44D83B69002B03D03B69042B04D032
:100234003DE02C4B2C4A1A603DE02A4B2B4A1A60B5
:1002440039E0274B5B689B0D03F00103BB60244B33
:100254005B6803F03F037B60BB68002B0CD0234A30
:100264007B68B2FBF3F31E4A52689209C2F3080298
:1002740002FB03F37B610BE01B4A7B68B2FBF3F3E5
:10028400174A52689209C2F3080202FB03F37B6126
:10029400134B5B681B0C03F0030301335B00FB602F
:1002A4007A69FB68B2FBF3F30E4A136003E00D4B6B
:1002B4000D4A1A6000BF0A4B9B681B0903F00F0329
:1002C4000B4AD35C3B61074B1A683B6922FA03F380
:1002D400044A136000BF1C37BD465DF8047B7047B9
:1002E40000380240000000200024F40000127A00CC
:1002F400C412000880B483B000AF03463960FB71B8
:1003040097F90730002B0ADB3B68DAB20C4997F9FE
:1003140007301201D2B20B4483F800230AE03B6891
:10032400DAB20849FB7903F00F03043B1201D2B29D
:100334000B441A7600BF0C37BD465DF8047B70474A
:1003440000E100E000ED00E080B400AF034B1B6867
:100354001846BD465DF8047B704700BF20000020AE
:1003640080B582B000AF7860124B1B68114A23F04D
:10037400010313600F4A7B68013B53600D4B1B68FC
:100384000C4A43F00403136007214FF0FF30FFF7DA
:10039400B1FF084B1B68074A43F002031360054B87
:1003A4001B68044A43F00103136000BF0837BD46CD
:1003B40080BD00BF10E000E080B584B000AF78607D
:1003C400FFF7C2FF0346FB607B68BB6000BFFFF71B
:1003D400BBFF0246FB68D31ABA689A42F7D800BF3B
:1003E40000BF1037BD4680BD80B483B000AF7860D5
:1003F400084611461A460346FB700B46BB7013466B
:100404007B707B684B4A934206D14B4B1B6B4A4A29
:1004140043F00103136335E07B68484A934206D1F5
:10042400454B1B6B444A43F0020313632AE07B6889
:10043400434A934206D1404B1B6B3F4A43F00403AB
:1004440013631FE07B683F4A934206D13A4B1B6B10
:10045400394A43F00803136314E07B683A4A934231
:1004640006D1354B1B6B344A43F01003136309E088
:100474007B68364A934205D12F4B1B6B2E4A43F0BF
:10048400800313637B681A68FB785B00032101FA1D
:1004940003F3DB431A407B681A607B681A68FB78B5
:1004A4005B00012101FA03F31A437B681A607B683D
:1004B400DA68FB785B00032101FA03F3DB431A409B
:1004C4007B68DA607B68DB68B978FA78520001FAF5
:1004D40002F21A437B68DA607B689A68FB785B00F7
:1004E400032101FA03F3DB431A407B689A607B68BB
:1004F4009B687978FA78520001FA02F21A437B6811
:100504009A607B685A68FB78032101FA03F3DB43A2
:100514001A407B685A607B685B68397CFA7801FA18
:1005240002F21A437B685A6000BF0C37BD465DF87F
:10053400047B70470000024000380240000402407F
:1005440000080240000C024000100240001C02405F
:1005540080B485B000AF78600B46FB707B681A6886
:10056400FB785B0022FA03F303F00303012B0CBFB7
:1005740001230023DBB2FB737B685A69FB780121FA
:1005840001FA03F31340002B14BF01230023DBB251
:10059400BB73FB7B002B12D0BB7B002B08D0FB78FA
:1005A4001033012202FA03F31A467B689A6106E0CB
:1005B400FB78012202FA03F31A467B689A6100BFB2
:1005C4001437BD465DF8047B7047000080B483B0E7
:1005D40000AF7860084611461A460346FB700B4686
:1005E400BB7013467B707B684B4A934206D14B4BDE
:1005F4001B6B4A4A43F00103136335E07B68484AA6
:10060400934206D1454B1B6B444A43F002031363E8
:100614002AE07B68434A934206D1404B1B6B3F4A16
:1006240043F0040313631FE07B683F4A934206D1FF
:100634003A4B1B6B394A43F00803136314E07B689D
:100644003A4A934206D1354B1B6B344A43F01003AC
:10065400136309E07B68364A934205D12F4B1B6B29
:100664002E4A43F0800313637B681A68FB785B00AF
:10067400032101FA03F3DB431A407B681A607B68A9
:100684001A68FB785B00022101FA03F31A437B68C2
:100694001A607B68DA68FB785B00032101FA03F3D4
:1006A400DB431A407B68DA607B68DB68B978FA78E8
:1006B400520001FA02F21A437B68DA607B689A6896
:1006C400FB785B00032101FA03F3DB431A407B68E8
:1006D4009A607B689B687978FA78520001FA02F292
:1006E4001A437B689A607B685A68FB78032101FA95
:1006F40003F3DB431A407B685A607B685B68397C90
:10070400FA7801FA02F21A437B685A6000BF0C3788
:10071400BD465DF8047B704700000240003802408B
:100724000004024000080240000C02400010024095
:10073400001C024090B585B000AF0446084611463F
:100744001A462346FB800346BB800B467B80134638
:100754003B80FA887B8813449BB2013B9CB2BA88E5
:100764003B8813449BB2013B9BB2B988F88822466C
:1007740000F09AFB0023FB601CE0FB685B001A4658
:100784003B6A13441B78FB72FB685B0001333A6AD3
:1007940013441B78BB72BB7A1BB21B021AB2FB7ADE
:1007A4001BB213431BB29BB2184600F0BFF9FB689F
:1007B4000133FB607B883A8802FB03F3FA689A42B0
:1007C400DBDB084B1B88013B9AB2064B5B88013B81
:1007D4009BB20021002000F067FB00BF1437BD4628
:1007E40090BD00BF2400002080B400AF114B1B68F3
:1007F400104A43F4007313600E4B1B680D4A43F414
:10080400806313600B4B1B680A4A43F480731360C4
:10081400094B5B6C084A43F480435364064B1B6CDE
:10082400054A43F08053136400BFBD465DF8047B62
:10083400704700BF003C02400038024080B500AF62
:100844000B4B1B680A4A43F00103136000BF084BBB
:100854001B6803F00203002BF9D0054B9B68044A84
:1008640023F003039360FFF7C5FC00BF80BD00BF06
:100874000038024080B500AF0B4B1B680A4A43F4B2
:10088400A023136000BF084B1B6803F40033002B44
:10089400F9D0054B9B68044A23F003039360FFF7E8
:1008A400A9FC00BF80BD00BF0038024080B582B003
:1008B40000AF0346FB71584B1B68574A23F0807303
:1008C4001360FB79002B30D0012B5BD1FFF7D2FFF3
:1008D400514B5B68504A43F4800353604E4B5B6852
:1008E4004D4A23F03F0353604B4B5B684A4A43F045
:1008F40004035360484B5B68474A23F4FF4323F0E7
:1009040040035360444B5B68434A43F428535360A9
:10091400414B5B68404A23F4403353603E4B5B6871
:100924003D4A43F4803353602DE0FFF787FF3A4B91
:10093400394A5B685360384B5B68374A23F03F039E
:100944005360354B5B68344A43F008035360324BC1
:100954005B68314A23F4FF4323F0400353602E4B7A
:100964005B682D4A43F4285353602B4B5B682A4A37
:1009740023F440335360284B5B68274A43F48033A5
:10098400536000E000BF244B1B68234A43F080738C
:10099400136000BF204B1B6803F00073002BF9D0D9
:1009A4001D4B9B681C4A23F4604393601A4B1A4AFC
:1009B4009B689360184B9B68174A23F4E053936039
:1009C400154B9B68144A43F480539360134B1B6884
:1009D400124A23F007031360104B1B680F4A43F0BD
:1009E400020313600C4B9B680B4A23F003039360D0
:1009F400094B9B68084A43F00203936000BF064B0F
:100A04009B6803F00803002BF9D0FFF7F3FB00BF4A
:100A14000837BD4680BD00BF00380240003C02409C
:100A240080B485B000AF78600B46FB7000BF7B6874
:100A34009B6803F00203002BF9D07B680C33FA782F
:100A44001A7000BF7B689B6803F00103002BF9D088
:100A54007B68DB68FB7300BF7B689B6803F08003E3
:100A6400002BF9D1FB7B18461437BD465DF8047B97
:100A74007047000080B582B000AF0346FB710A4B9B
:100A84004FF480329A61084B4FF400329A61FB793B
:100A940019460648FFF7C4FF034B01229A6100BFC1
:100AA4000837BD4680BD00BF000002400030014051
:100AB40080B582B000AF0346FB71094B4FF480321E
:100AC4009A61074B02229A61FB7919460548FFF7A0
:100AD400A7FF034B01229A6100BF0837BD4680BDC2
:100AE400000002400030014080B582B000AF0346F0
:100AF4000A46FB711346BB80FB791846FFF7BAFF21
:100B0400BB88DBB21846FFF7D3FF00BF0837BD46EA
:100B140080BD000080B500AF034B1B89DBB21846D3
:100B2400FFF7A8FF00BF80BD2400002080B582B07D
:100B340000AF0346FB800E4B4FF480329A610C4B9E
:100B440002229A61FB881B0A9BB2DBB21946094850
:100B5400FFF766FFFB88DBB219460648FFF760FF24
:100B6400034B01229A6100BF0837BD4680BD00BF18
:100B7400000002400030014080B584B000AF03465D
:100B8400FB801B4B1B88013B9AB2194B5B88013BD2
:100B94009BB20021002000F087F9164B4FF48032FD
:100BA4009A61144B02229A610023FB6012E0002335
:100BB400BB6006E0FB881846FFF7B8FFBB6801334B
:100BC400BB600B4B1B881A46BB689342F2D3FB688D
:100BD4000133FB60064B5B881A46FB689342E6D3FD
:100BE400044B01229A6100BF1037BD4680BD00BF8F
:100BF400240000200000024080B582B002AF002330
:100C040000930323002200210A48FFF7EDFB002391
:100C140000930323002201210648FFF7E5FB00238C
:100C240000930323002204210248FFF7DDFB00BFE9
:100C3400BD4680BD0000024080B500AF074B4FF4B5
:100C440080129A616420FFF7B7FB044B10229A616B
:100C54003220FFF7B1FB00BF80BD00BF000002409F
:100C640080B500AFFFF7C8FFFFF7E6FFCF20FFF71F
:100C740001FF0020FFF71CFFD920FFF719FF3020E8
:100C8400FFF716FFED20FFF7F5FE6420FFF710FFD6
:100C94000320FFF70DFF1220FFF70AFF8120FFF763
:100CA40007FFE820FFF7E6FE8520FFF701FF10208D
:100CB400FFF7FEFE7A20FFF7FBFECB20FFF7DAFEFC
:100CC4003920FFF7F5FE2C20FFF7F2FE0020FFF796
:100CD400EFFE3420FFF7ECFE0220FFF7E9FEF720D9
:100CE400FFF7C8FE2020FFF7E3FEEA20FFF7C2FE6D
:100CF4000020FFF7DDFE0020FFF7DAFEC020FFF73B
:100D0400B9FE1B20FFF7D4FEC120FFF7B3FE12206B
:100D1400FFF7CEFEC520FFF7ADFE0820FFF7C8FEA3
:100D24002620FFF7C5FEC720FFF7A4FEB720FFF774
:100D3400BFFE3620FFF79EFE0820FFF7B9FE3A20DB
:100D4400FFF798FE5520FFF7B3FEB120FFF792FEA0
:100D54000020FFF7ADFE1A20FFF7AAFEB620FFF72A
:100D640089FE0A20FFF7A4FEA220FFF7A1FEF220CD
:100D7400FFF780FE0020FFF79BFE2620FFF77AFE98
:100D84000120FFF795FEE020FFF774FE0F20FFF728
:100D94008FFE1D20FFF78CFE1A20FFF789FE0A2024
:100DA400FFF786FE0D20FFF783FE0720FFF780FE86
:100DB4004920FFF77DFE6620FFF77AFE3B20FFF710
:100DC40077FE0720FFF774FE1120FFF771FE012064
:100DD400FFF76EFE0920FFF76BFE0520FFF768FEA4
:100DE4000420FFF765FEE120FFF744FE0020FFF733
:100DF4005FFE1820FFF75CFE1D20FFF759FE02205E
:100E0400FFF756FE0F20FFF753FE0420FFF750FEB6
:100E14003620FFF74DFE1320FFF74AFE4C20FFF764
:100E240047FE0720FFF744FE1320FFF741FE0F2083
:100E3400FFF73EFE2E20FFF73BFE2F20FFF738FE84
:100E44000520FFF735FE2B20FFF714FE0020FFF7E7
:100E54002FFE0020FFF72CFE0120FFF729FE3F2084
:100E6400FFF726FE2A20FFF705FE0020FFF720FEED
:100E74000020FFF71DFE0020FFF71AFEEF20FFF70A
:100E840017FE1120FFF7F6FD7820FFF795FA2920C9
:100E9400FFF7F0FD002000F05BF84FF6FF70FFF75E
:100EA4006BFE00BF80BD000090B583B000AF044668
:100EB400084611461A462346FB800346BB800B4670
:100EC4007B8013463B80214B5B89DBB21846FFF7DE
:100ED400D1FDFB881B0A9BB2DBB21846FFF7E8FD85
:100EE400FB88DBB21846FFF7E3FD7B881B0A9BB245
:100EF400DBB21846FFF7DCFD7B88DBB21846FFF750
:100F0400D7FD124B9B89DBB21846FFF7B3FDBB88B4
:100F14001B0A9BB2DBB21846FFF7CAFDBB88DBB2E3
:100F24001846FFF7C5FD3B881B0A9BB2DBB2184687
:100F3400FFF7BEFD3B88DBB21846FFF7B9FDFFF7AC
:100F4400E9FD00BF0C37BD4690BD00BF2400002062
:100F540080B582B000AF0346FB71264B2A225A812A
:100F6400244B2B229A81234B2C221A81FB79032BAD
:100F74003AD801A252F823F08D0F0008A50F0008FB
:100F8400BD0F0008D50F00081A4BF0221A80194B28
:100F94004FF4A0725A8008213620FFF7A5FD24E003
:100FA400144B4FF4A0721A80124BF0225A8068211D
:100FB4003620FFF799FD18E00E4BF0221A800D4BF6
:100FC4004FF4A0725A80C8213620FFF78DFD0CE043
:100FD400084B4FF4A0721A80064BF0225A80A821C5
:100FE4003620FFF781FD00E000BF00BF0837BD4693
:100FF40080BD00BF2400002080B582B002AFFFF79F
:10100400F3FB0020FFF752FC154B1B68154AA2FBAB
:1010140003239B091846FFF7A3F9134800F076F859
:1010240000230093012300220A211048FFF7DCF972
:10103400FFF716FE0020FFF79FFD0D4B00934FF4C2
:101044009B73F02200210020FFF774FB0A2107485C
:10105400FFF77EFA4FF4FA70FFF7AEF900BFF5E739
:1010640000000020D34D6210003001400000024017
:10107400D412000880B582B002AF224B1B6B214A08
:1010840043F001031363002300930323002205218B
:101094001D48FFF79BFA1C4B1B6A1B4A23F4700381
:1010A4001362194B1B6A184A43F4A003136200230A
:1010B40000930323002206211348FFF787FA124BFB
:1010C4001B6A114A23F0706313620F4B1B6A0E4AAA
:1010D40043F0A0631362002300930323002207213B
:1010E4000948FFF773FA084B1B6A074A23F0704359
:1010F4001362054B1B6A044A43F0A043136200BF0A
:10110400BD4680BD003802400000024080B582B078
:1011140000AF7860204B5B6C1F4A43F480535364E8
:10112400FFF7A8FF7B681B6823F038027B681A600E
:101134007B681B6843F030027B681A607B681B681D
:1011440023F003027B681A607B681B6823F4006247
:101154007B681A607B681B6823F080027B681A60D6
:101164007B681B6843F400727B681A607B681B68A9
:1011740043F480727B681A607B681B6843F0040246
:101184007B681A607B681B6843F040027B681A60C6
:1011940000BF0837BD4680BD0038024080B400AFB0
:1011A40000BFFDE780B400AF00BFFDE780B400AF2F
:1011B40000BFFDE780B400AF00BFFDE780B400AF1F
:1011C40000BFFDE780B400AF00BFBD465DF8047BFF
:1011D400704780B400AF00BFBD465DF8047B704724
:1011E40080B400AF00BFBD465DF8047B70470000CB
:1011F40080B400AF044B1B680133034A136000BF83
:10120400BD465DF8047B7047200000200D488546EC
:10121400FEF7DEFF0C480D490D4A002302E0D458C6
:10122400C4500433C4188C42F9D30A4A0A4C00232C
:1012340001E013600432A242FBD300F011F8FFF77F
:10124400DBFEFEE7008001200000002004000020F7
:10125400FC5902080400002034000020FEE70000CE
:1012640070B50D4D0D4C641BA4100026A64209D187
:101274000B4D0C4C00F018F8641BA4100026A64279
:1012840005D170BD55F8043B98470136EEE755F893
:10129400043B98470136F2E7F4590208F45902086E
:1012A400F4590208F8590208F8B500BFF8BC08BCA4
:1012B4009E467047F8B500BFF8BC08BC9E46704710
:1012C40000000000000000000102030406070809F2
:1012D40053BD53BD53BD53BD53BD53BD53C553C57A
:1012E40053C553C553C553C553C553C553C553C53A
:1012F40053C553C553C553C553C553C553C553C52A
:1013040053C553C553C553C573C573C573C553C5B9
:1013140053C573C574C574C574C574C574C574C523
:1013240074C574C574C574C574C574C574C594C5D1
:1013340094C594C594C594C594C594C594C594C5E1
:1013440094C594C594C594C594C594C594C594C5D1
:1013540094C594CD94CD94CD94CD94CD94CD94CD89
:1013640094CD94CD94CD94CD94CD94CD94CD94CD71
:1013740094CD94CD94CD94CD94CD94CD94CD94CD61
:1013840094CD94CD94CD94CDB4CDB4CDB4CDB4CDD1
:10139400B4CDB5CDB5CDB5CDB5CDB5CDB5CDB5CD3A
:1013A400B5CDB5CDB5CDB5CDB5CDB5CDB5CDB5CD29
:1013B400B5CDB5CDB5CDD5CDD5CDD5CDD5CDD5CD79
:1013C400D5CDD5CDD5CDD5CDD5CDD5CDD5CDD5CD09
:1013D400D5CDD5CDD5CDD5CDD5CDD5CDD5CDD5CDF9
:1013E400D5CDD5CDD5CDB5CDB5CDB5CDD5CDD5CD49
:1013F400D5CDD5CDD5CDD5CDD5CDD5CDD5CDB5CDF9
:10140400B5CDB5CDD5CDB5CDB5CDD5CDD5CDB5CD68
:10141400D5CDB5CDB5CDD5CDD5CDD5CDD5CDD5CDF8
:10142400D5CDD5CDD5CDD5CDD5CDB5CDB5CDD5CDE8
:10143400D5CDD5CDD5CDD5CDD5CDD6CDD6CDD6CD95
:10144400D6CDD6CDD6CDD6CDD6CDD6CDD5CDD5CD82
:10145400D5CDD5CDD5CDD5CDD5CDD6CDD6CDD6CD75
:10146400F6CDF6CDF6CDF6CDF6CDF6CDF6CDF6CD60
:10147400F6CDF6CDF6CDF6CDF6CDF6CDF6CDF6CD50
:10148400F6CDD6CDD6CDD6CDF6CDF6CDF6CDD6CDC0
:10149400D6CDD6CDD6CDD6CDD5CDF6CDF6CDD5CDF2
:1014A400D5CDD5CDD5CDD5CDD5CDD5CDD5CDD5CD28
:1014B40053BD53BD53BD53BD53BD53BD53C553C598
:1014C40053C553C553C553C553C553C553C553C558
:1014D40053C553C553C553C553C553C553C553C548
:1014E40053C553C553C553C573C573C573C574C5B7
:1014F40074C574C574C574C574C574C574C574C520
:1015040074C574C574C574C574C574C574C594C5EF
:1015140094C594C594C594C594C594C594C594C5FF
:1015240094C594C594C594C594C594C594C594C5EF
:1015340094C594CD94CD94CD94CD94CD94CD94CDA7
:1015440094CD94CD94CD94CD94CD94CD94CD94CD8F
:1015540094CD94CD94CD94CD94CD94CD94CD94CD7F
:1015640094CD94CD94CD94CDB4CDB4CDB4CDB4CDEF
:10157400B4CDB5CDB5CDB5CDB5CDB5CDB5CDB5CD58
:10158400B5CDB5CDB5CDB5CDB5CDB5CDB5CDB5CD47
:10159400B5CDB5CDB5CDD5CDD5CDD5CDB5CDD5CDB7
:1015A400D5CDD5CDD5CDD5CDD5CDD5CDD5CDD5CD27
:1015B400D5CDD5CDD5CDD5CDD5CDD5CDD5CDD5CD17
:1015C400D5CDD5CDD5CDB5CDB5CDB5CDD5CDD5CD67
:1015D400D5CDD5CDD5CDD5CDD5CDD5CDD5CDB5CD17
:1015E400B5CDB5CDD5CDB5CDB5CDD5CDD5CDB5CD87
:1015F400D5CDD5CDD5CDD5CDD5CDD5CDD5CDD5CDD7
:10160400D5CDD5CDD5CDD5CDD5CDB5CDB5CDB5CD26
:10161400B5CDB5CDD5CDD5CDD5CDD6CDD6CDD6CDF3
:10162400D6CDD6CDD6CDD6CDD6CDD6CDD5CDD5CDA0
:10163400D5CDD5CDD5CDD5CDD5CDD6CDD6CDD6CD93
:10164400F6CDF6CDF6CDF6CDF6CDF6CDF6CDF6CD7E
:10165400F6CDF6CDF6CDF6CDF6CDF6CDF6CDF6CD6E
:10166400F6CDD6CDD6CDD6CDF6CDF6CDF6CDD6CDDE
:10167400D6CDD6CDD6CDD6CDD5CDF6CDF6CDD5CD10
:10168400D5CDD5CDD5CDD5CDD5CDD5CDD5CDD5CD46
:1016940053BD53BD53BD53BD53BD53BD53C553C5B6
:1016A40053C553C553C553C553C553C553C553C576
:1016B40053C553C553C553C553C553C553C553C566
:1016C40053C553C553C553C574C574C574C574C5D2
:1016D40074C574C573C573C574C574C574C574C540
:1016E40074C574C574C574C574C574C574C594C50E
:1016F40094C594C594C594C594C594C594C594C51E
:1017040094C594C594C594C594C594C594C594C50D
:1017140094C594CD94CD94C594CD94CD94CD94CDCD
:1017240094CD94CD94CD94CD94CD94CD94CD94CDAD
:1017340094CD94CD94CD94CD94CD94CD94CD94CD9D
:1017440094CDB4CDB4CDB4CDB4CDB4CDB5CDB5CDAB
:10175400B5CDB5CDB5CDB5CDB5CDB5CDB5CDB5CD75
:10176400B5CDB5CDB5CDB5CDB5CDB5CDB5CDB5CD65
:10177400B5CDB5CDB5CDB5CDB5CDB5CDB5CDD5CD35
:10178400D5CDD5CDD5CDD5CDD5CDD5CDD5CDD5CD45
:10179400D5CDD5CDD5CDD5CDD5CDD5CDD5CDD5CD35
:1017A400D5CDD5CDD5CDD5CDD5CDD5CDD5CDD5CD25
:1017B400D5CDD5CDD5CDD5CDD5CDD5CDD5CDB5CD35
:1017C400B5CDB5CDB5CDB5CDB5CDB5CDB5CDD5CDE5
:1017D400D5CDD5CDD5CDD5CDD5CDD5CDD5CDD5CDF5
:1017E400D5CDD5CDD5CDD5CDD5CDD5CDB5CDB5CD25
:1017F400B5CDB5CDD5CDD5CDD5CDD5CDD6CDD6CD13
:10180400D6CDD6CDD6CDD6CDD6CDD6CDD6CDD6CDBC
:10181400D6CDD5CDD5CDD5CDD5CDD6CDF6D5F6D560
:10182400F6CDF6CDF6CDF6CDF6CDF6CDF6CDF6CD9C
:10183400F6CDF6CDF6CDD6CDF6CDF6CDF6CDF6CDAC
:10184400F6CDF6CDD6CDD6CDD6CDF6CDF6CDD6CDFC
:10185400D6CDD6CDF6CDF6CDF6CDD5CDD5CDD5CD0F
:10186400D5CDD5CDD5CDD5CDD5CDD5CDD5CDD5CD64
:1018740053BD53BD53BD53BD53BD53BD53C553C5D4
:1018840053C553C553C553C553C553C553C553C594
:1018940053C553C553C553C553C553C553C553C584
:1018A40053C553C553C553C574C574C574C574C5F0
:1018B40074C574C574C574C574C574C574C574C55C
:1018C40074C574C574C574C594C574C574C594C50C
:1018D40094C594C594C594C594C594C594C594C53C
:1018E40094C594C594C594C594C594C594C594C52C
:1018F40094C594C594C594C594CD94CD94CD94CDFC
:1019040094CD94CD94CD94CD94CD94CD94CD94CDCB
:1019140094CD94CD94CD94CD94CD94CDB4CDB4CD7B
:10192400B4CDB4CDB4CDB4CDB5CDB5CDB5CDB5CDA7
:10193400B5CDB5CDB5CDB5CDB5CDB5CDB5CDB5CD93
:10194400B5CDB5CDB5CDB5CDB5CDB5CDB5CDB5CD83
:10195400B5CDB5CDB5CDB5CDD5CDD5CDD5CDB5CD13
:10196400D5CDD5CDD5CDD5CDD5CDD5CDD5CDD5CD63
:10197400D5CDD5CDD5CDD5CDD5CDD5CDD5CDD5CD53
:10198400D5CDD5CDD5CDD5CDD5CDD5CDD5CDD5CD43
:10199400D5CDD5CDD5CDD5CDD5CDD5CDD5CDD5CD33
:1019A400D5CDD5CDB5CDB5CDD5CDD5CDD5CDD5CD63
:1019B400D5CDD5CDD5CDD5CDD5CDD5CDD5CDD5CD13
:1019C400B5CDB5CDB5CDB5CDB5CDB5CDB5CDB5CD03
:1019D400D5CDD5CDD5CDD5CDD5CDD5CDD6CDD6CDF1
:1019E400D6CDD6CDD6CDF6D5F6D5F6D5D6CDD6CD63
:1019F400D6CDD5CDD5CDD6CDD6CDF6D5F6D5F6D555
:101A0400F6CDF6CDF6CDF6CDF6CDF6CDF6CDF6CDBA
:101A1400F6CDF6CDF6CDF6CDF6CDF6CDF6CDF6CDAA
:101A2400F6CDF6CDD6CDD6CDD6CDD6CDD6CDD6CD5A
:101A3400D6CDD6CDD6CDD6CDF6CDF6CDF6CDD5CD2B
:101A4400D5CDD5CDD5CDD5CDD5CDD5CDD5CDD5CD82
:101A540053BD53BD53BD53BD53BD53BD53BD53C5FA
:101A640053C553C553C553C553C553C553C553C5B2
:101A740053C553C553C553C553C553C553C553C5A2
:101A840053C553C553C553C574C574C574C574C50E
:101A940074C574C574C574C574C574C574C574C57A
:101AA40074C574C574C574C594C574C574C594C52A
:101AB40094C594C594C594C594C594C594C594C55A
:101AC40094C594C594C594C594C594C594C594C54A
:101AD40094C594C594C594C594CD94CD94CD94CD1A
:101AE40094CD94CD94CD94CD94CD94CD94CD94CDEA
:101AF40094CD94CD94CD94CD94CD94CDB4CDB4CD9A
:101B0400B4CDB4CDB5CDB5CDB5CDB5CDB5CDB5CDC3
:101B1400B5CDB5CDB5CDB5CDB5CDB5CDB5CDB5CDB1
:101B2400B5CDB5CDB5CDB5CDB5CDB5CDB5CDB5CDA1
:101B3400B5CDB5CDB5CDB5CDD5CDD5CDD5CDB5CD31
:101B4400D5CDD5CDD5CDD5CDD5CDD5CDD5CDD5CD81
:101B5400D5CDD5CDD5CDD5CDD5CDD5CDD5CDD5CD71
:101B6400D5CDD5CDD5CDD5CDD5CDD5CDD5CDD5CD61
:101B7400D5CDD5CDD5CDD5CDD5CDD5CDD5CDD5CD51
:101B8400D5CDD5CDD5CDD5CDD5CDD5CDD5CDD5CD41
:101B9400D5CDD5CDD5CDD5CDD5CDD5CDD5CDD5CD31
:101BA400D5CDB5CDB5CDB5CDB5CDB5CDB5CDD5CDE1
:101BB400D5CDD5CDD5CDD5CDD5CDD5CDD6CDD6CD0F
:101BC400D6CDD6CDD6CDF6D5F6D5F6D5D6CDD6CD81
:101BD400D6CDF6D5F6D5D6CDD6CDF6D5F6D5F6D521
:101BE400F6CDF6CDF6CDF6CDF6CDF6CDF6CDF6CDD9
:101BF400F6CDF6CDF6CDF6CDF6CDF6CDF6CDF6CDC9
:101C0400F6CDF6CDD6CDD6CDD6CDD6CDD6CDD6CD78
:101C1400D6CDD6CDD6CDD6CDF6CDF6CDF6CDD5CD49
:101C2400D5CDD5CDD5CDD5CDD5CDD5CDD5CDD5CDA0
:101C340053BD53BD53BD33BD33BD33BD53BD53C578
:101C440053C553C553C553C553C553C553C553C5D0
:101C540053C553C553C553C553C553C553C574C59F
:101C640074C574C574C574C574C574C574C574C5A8
:101C740074C574C574C574C574C574C574C574C598
:101C840074C574C594C594C594C594C594C594C5C8
:101C940074C594C594C594C594C594C594C594C598
:101CA40094C594C594C594C594C594C594C594C568
:101CB40094CD94CD94CD94CD94CD94CD94CD94CD18
:101CC40094CD94CD94CD94CD94CD94CD94CD94CD08
:101CD40094CD94CD94CD94CD94CD94CDB4CDB5CDB7
:101CE400B5CDB5CDB4CDB4CDB5CDB5CDB5CDB5CDE2
:101CF400B5CDB5CDB5CDB5CDB5CDB5CDB5CDB5CDD0
:101D0400B5CDB5CDB5CDB5CDB5CDB5CDB5CDB5CDBF
:101D1400B5CDB5CDB5CDB5CDB5CDD5CDD5CDD5CD4F
:101D2400D5CDD5CDD5CDD5CDD5CDD5CDD5CDD5CD9F
:101D3400D5CDD5CDD5CDD5CDD5CDD5CDD5CDD5CD8F
:101D4400D5CDD5CDD5CDD5CDD5CDD5CDD5CDD5CD7F
:101D5400D5CDD5CDD5CDD5CDD5CDD5CDD5CDD5CD6F
:101D6400D5CDD5CDD5CDD5CDD5CDD5CDD5CDD5CD5F
:101D7400D5CDD5CDD5CDD5CDD5CDD5CDD5CDD5CD4F
:101D8400B5CDB5CDB5CDB5CDD5CDD5CDD5CDD5CDBF
:101D9400D5CDD5CDD5CDD5CDD5CDD6CDD6CDD6CD2C
:101DA400D6CDD6CDF6D5F6D5F6D5F6D5D6CDD6CD77
:101DB400F6D5F6D5F6D5D6CDD6CDD6CDF6D5F6CD47
:101DC400F6CDF6CDF6CDF6CDF6CDF6CDF6CDF6CDF7
:101DD400F6CDF6CDF6CDF6CDF6CDF6CDF6CDF6CDE7
:101DE400F6CDF6CDF6CDF6CDF6CDF6CDF6CDD6CDF7
:101DF400D6CDD6CDD6CDD6CDD5CDD5CDD5CDD5CDCB
:101E0400D5CDD5CDD5CDD5CDD5CDD5CDD5CDD5CDBE
:101E140053BD53BD53BD53BD33BD33BD33BD53BD9E
:101E240053C553C553C553C553C553C553C553C5EE
:101E340053C553C553C553C553C553C553C574C5BD
:101E440074C574C553C553C574C574C574C574C508
:101E540074C574C574C574C574C574C574C574C5B6
:101E640074C574C594C594C594C594C594C594C5E6
:101E740094C594C594C594C594C594C594C594C596
:101E840094C594C594C594C594C594CD94C594C57E
:101E940094C594C594C594CD94CD94CD94CD94CD4E
:101EA40094CD94CD94CD94CD94CD94CD94CD94CD26
:101EB40094CD94CD94CD94CD94CD94CD94CDB4CDF6
:101EC400B4CDB4CDB5CDB5CDB5CDB5CDB5CDB5CD00
:101ED400B5CDB5CDB5CDB5CDB5CDB5CDB5CDB5CDEE
:101EE400B5CDB5CDB5CDB5CDB5CDB5CDB5CDB5CDDE
:101EF400B5CDB5CDB5CDB5CDB5CDB5CDB5CDB5CDCE
:101F0400B5CDB5CDD5CDD5CDD5CDD5CDD5CDD5CDFD
:101F1400D5CDD5CDD5CDD5CDD5CDD5CDD5CDD5CDAD
:101F2400D5CDD5CDD5CDD5CDD5CDD5CDD5CDD5CD9D
:101F3400D5CDD5CDD5CDD5CDD5CDD5CDD5CDD5CD8D
:101F4400D5CDD5CDD5CDD5CDD5CDD5CDD5CDD5CD7D
:101F5400D5CDD5CDD6CDD6CDD6CDD5CDD5CDD5CD6A
:101F6400D5CDD5CDD5CDD5CDD5CDD5CDD5CDD5CD5D
:101F7400D5CDD5CDD5CDD5CDD5CDD6CDD6CDD6CD4A
:101F8400D6CDD6CDD6CDD6CDD6CDF6D5D6CDD6CD0D
:101F9400D6CDD6CDD6CDD6CDD6CDD6CDD6CDD6CD25
:101FA400F6CDF6CDF6CDF6CDF6CDF6CDF6CDF6CD15
:101FB400F6CDF6CDF6CDF6CDF6CDF6CDF6CDF6CD05
:101FC400F6CDF6CDF6CDF6CDF6CDF6CDF6CDD6CD15
:101FD400D6CDD5CDD6CDD5CDF6CDD5CDD5CDD5CDCA
:101FE400D5CDD5CDD5CDD5CDD5CDD5CDD5CDD5CDDD
:101FF40053BD53BD53BD53BD33BD33BD33BD53BDBD
:1020040053C553C553C553C553C553C553C553C50C
:1020140053C553C553C553C553C553C553C574C5DB
:1020240074C574C553C553C574C574C574C574C526
:1020340074C574C574C574C574C574C574C574C5D4
:1020440074C574C594C594C594C594C594C594C504
:1020540094C594C594C594C594C594C594C594C5B4
:1020640094C594C594C594C594C594CD94C594C59C
:1020740094C594C594C594CD94CD94CD94CD94CD6C
:1020840094CD94CD94CD94CD94CD94CD94CD94CD44
:1020940094CD94CD94CD94CD94CD94CD94CDB4CD14
:1020A400B4CDB4CDB5CDB5CDB5CDB5CDB5CDB5CD1E
:1020B400B5CDB5CDB5CDB5CDB5CDB5CDB5CDB5CD0C
:1020C400B5CDB5CDB5CDB5CDB5CDB5CDB5CDB5CDFC
:1020D400B5CDB5CDB5CDB5CDB5CDB5CDB5CDB5CDEC
:1020E400B5CDB5CDD5CDD5CDD5CDD5CDD5CDD5CD1C
:1020F400D5CDD5CDD5CDD5CDD5CDD5CDD5CDD5CDCC
:10210400D5CDD5CDD5CDD5CDD5CDD5CDD5CDD5CDBB
:10211400D5CDD5CDD5CDD5CDD5CDD5CDD5CDD5CDAB
:10212400D5CDD5CDD5CDD5CDD5CDD5CDD5CDD5CD9B
:10213400D5CDD5CDD5CDD5CDD6CDD5CDD5CDD5CD8A
:10214400D5CDD5CDD5CDD5CDD5CDD5CDD5CDD5CD7B
:10215400D5CDD5CDD5CDD5CDD5CDD6CDD6CDD6CD68
:10216400D6CDD6CDD6CDD6CDD6CDF6D5D6CDD6CD2B
:10217400D6CDD6CDD6CDD6CDD6CDD6CDD6CDD6CD43
:10218400F6CDF6CDF6CDF6CDF6CDF6CDF6CDF6CD33
:10219400F6CDF6CDF6CDF6CDF6CDF6CDF6CDF6CD23
:1021A400F6CDF6CDF6CDF6CDF6CDF6CDF6CDD6CD33
:1021B400D6CDD5CDD5CDD5CDF6CDD5CDD5CDD5CDE9
:1021C400D5CDD5CDD5CDD5CDD5CDD5CDD5CDD5CDFB
:1021D40053BD53BD53BD53BD53BD33BD53BD53C593
:1021E40053C553C553C553C553C553C553C553C52B
:1021F40053C553C553C553C553C553C553C553C51B
:1022040074C553C553C553C574C574C574C574C565
:1022140074C574C574C574C574C574C574C594C5D2
:1022240094C574C594C594C594C594C594C594C502
:1022340094C594C594C594C594C594C594C594C5D2
:1022440094C594C594C594C594CD94C594C594C5BA
:1022540094CD94CD94CD94CD94CD94CD94CD94CD72
:1022640094CD94CD94CD94CD94CD94CD94CD94CD62
:1022740094CD94CD94CD94CD94CD94CD94CDB4CD32
:10228400B4CDB4CDB4CDB4CDB5CDB5CDB5CDB5CD3E
:10229400B5CDB5CDB5CDB5CDB5CDB5CDB5CDB5CD2A
:1022A400B5CDB5CDB5CDB5CDB5CDB5CDB5CDB5CD1A
:1022B400B5CDB5CDB5CDB5CDB5CDB5CDB5CDB5CD0A
:1022C400B5CDD5CDD5CDD5CDD5CDD5CDD5CDD5CD1A
:1022D400D5CDD5CDD5CDD5CDD5CDD5CDD5CDD5CDEA
:1022E400D5CDD5CDD5CDD5CDD5CDD5CDD5CDD5CDDA
:1022F400D5CDD5CDD5CDD5CDD5CDD5CDD5CDD5CDCA
:10230400D5CDD5CDD5CDD5CDD5CDD5CDD5CDD5CDB9
:10231400D5CDD5CDD5CDD5CDD6CDD6CDD6CDD5CDA6
:10232400D5CDD5CDD5CDD5CDD5CDD5CDD5CDD5CD99
:10233400D5CDD5CDD6CDD6CDD6CDD6CDF6D5F6D533
:10234400F6D5F6D5D6CDF6D5F6D5F6D5F6D5F6D559
:10235400F6D5F6D5F6D5F6D5F6D5F6D5D6CDD6CD71
:10236400F6CDF6CDF6CDF6CDF6CDF6CDF6CDF6CD51
:10237400F6CDF6CDF6CDF6CDF6CDF6CDD6CDF6CD61
:10238400F6CDF6CDF6CDF6CDF6CDF6CDF6CDD6CD51
:10239400D5CDD5CDD5CDD5CDD5CDD5CDD5CDD5CD29
:1023A400D5CDD5CDD5CDD5CDD5CDD5CDD5CDD5CD19
:1023B40053BD53BD53BD53BD53BD53BD53BD53C591
:1023C40053C553C553C553C553C553C553C553C549
:1023D40053C553C553C553C553C553C553C574C518
:1023E40074C574C574C574C574C574C574C574C521
:1023F40074C574C574C574C574C574C574C594C5F1
:1024040094C594C594C594C594C594C594C594C500
:1024140094C594C594C594C594C594C594C594C5F0
:1024240094C594C594C594C594C594CD94CD94CDC8
:1024340094CD94CD94CD94CD94CD94CD94CD94CD90
:1024440094CD94CD94CD94CD94CD94CD94CD94CD80
:1024540094CD94CD94CD94CD94CD94CD94CD94CD70
:1024640094CDB4CDB4CDB4CDB5CDB5CDB5CDB5CD7C
:10247400B5CDB5CDB5CDB5CDB5CDB5CDB5CDB5CD48
:10248400B5CDB5CDB5CDB5CDB5CDB5CDB5CDB5CD38
:10249400B5CDB5CDB5CDB5CDB5CDD5CDD5CDB5CDE8
:1024A400B5CDB5CDD5CDD5CDD5CDD5CDD5CDD5CD58
:1024B400D5CDD5CDD5CDD5CDD5CDD5CDD5CDD5CD08
:1024C400D5CDD5CDD5CDD5CDD5CDD5CDD5CDD5CDF8
:1024D400D5CDD5CDD5CDD5CDD5CDD5CDD5CDD5CDE8
:1024E400D5CDD5CDD5CDD5CDD6CDD6CDD6CDD6CDD4
:1024F400D6CDD5CDD5CDD5CDD6CDD6CDD6CDD6CDC3
:10250400D5CDD5CDD5CDD5CDD5CDD5CDD5CDD6CDB6
:10251400D6CDD6CDF6D5D6CDD6CDD6CDF6D5F6D527
:10252400D6CDD6CDF6D5F6D5F6D5F6D5F6D5F6D59F
:10253400D6CDF6D5F6D5D6CDD6CDF6CDF6CDF6CDCF
:10254400F6CDF6CDF6CDF6CDF6CDF6CDF6CDF6CD6F
:10255400F6CDF6CDF6CDF6CDF6CDF6CDF6CDF6CD5F
:10256400F6CDF6CDF6CDF6CDF6CDF6CDF6CDD6CD6F
:10257400D6CDD6CDD6CDD6CDD5CDD5CDD5CDD5CD43
:10258400D5CDD5CDD5CDD5CDD5CDD5CDD5CDD5CD37
:1025940053BD53BD53BD53BD53BD53BD53BD53C5AF
:1025A40053C553C553C553C553C553C553C553C567
:1025B40053C553C553C553C553C553C553C574C536
:1025C40074C574C574C574C574C574C574C574C53F
:1025D40074C574C574C574C574C574C574C574C52F
:1025E40074C594C594C594C594C594C594C594C53F
:1025F40094C594C594C594C594C594C594C594C50F
:1026040094C594C594C594C594C594CD94CD94CDE6
:1026140094CD94CD94CD94CD94CD94CD94CD94CDAE
:1026240094CD94CD94CD94CD94CD94CD94CD94CD9E
:1026340094CD94CD94CD94CD94CD94CD94CD94CD8E
:1026440094CDB4CDB4CDB4CDB5CDB5CDB5CDB5CD9A
:10265400B5CDB5CDB5CDB5CDB5CDB5CDB5CDB5CD66
:10266400B5CDB5CDB5CDB5CDB5CDB5CDB5CDB5CD56
:10267400B5CDB5CDB5CDB5CDB5CDD5CDD5CDB5CD06
:10268400B5CDB5CDD5CDD5CDD5CDD5CDD5CDD5CD76
:10269400D5CDD5CDD5CDD5CDD5CDD5CDD5CDD5CD26
:1026A400D5CDD5CDD5CDD5CDD5CDD5CDD5CDD5CD16
:1026B400D5CDD5CDD5CDD5CDD5CDD5CDD5CDD5CD06
:1026C400D5CDD5CDD5CDD5CDD6CDD6CDD6CDD6CDF2
:1026D400D6CDD5CDD5CDD5CDD6CDD6CDD6CDD6CDE1
:1026E400D6CDD6CDD5CDD5CDD5CDD5CDD5CDD6CDD3
:1026F400F6D5F6D5F6D5D6CDD6CDD6CDF6D5F6D5F6
:10270400D6CDD6CDF6D5F6D5F6D5F6D5F6D5F6D5BD
:10271400D6CDF6D5F6D5D6CDD6CDF6CDF6CDF6CDED
:10272400F6CDF6CDF6CDF6CDF6CDF6CDF6CDF6CD8D
:10273400F6CDF6CDF6CDF6CDF6CDF6CDF6CDF6CD7D
:10274400F6CDF6CDF6CDF6CDF6CDF6CDF6CDF6CD6D
:10275400D6CDD6CDD6CDD6CDD5CDD5CDD5CDD5CD61
:10276400D5CDD5CDD5CDF6CDD5CDD5CDD5CDD5CD34
:1027740053BD53BD53BD53BD53BD53BD53BD53C5CD
:1027840053C553C553C553C553C553C553C553C585
:1027940053C553C553C553C553C553C553C574C554
:1027A40074C574C574C574C574C574C574C574C55D
:1027B40074C574C574C574C574C574C574C574C54D
:1027C40074C594C594C594C594C594C594C594C55D
:1027D40094C594C594C594C594C594C594C594C52D
:1027E40094C594C594C594C594C594CD94CD94CD05
:1027F40094CD94CD94CD94CD94CD94CD94CD94CDCD
:1028040094CD94CD94CD94CD94CD94CD94CD94CDBC
:1028140094CD94CD94CD94CD94CD94CD94CD94CDAC
:1028240094CDB4CDB4CDB4CDB5CDB5CDB5CDB5CDB8
:10283400B5CDB5CDB5CDB5CDB5CDB5CDB5CDB5CD84
:10284400B5CDB5CDB5CDB5CDB5CDB5CDB5CDB5CD74
:10285400B5CDB5CDB5CDB5CDB5CDB5CDB5CDB5CD64
:10286400D5CDD5CDD5CDD5CDD5CDD5CDD5CDD5CD54
:10287400D5CDD5CDD5CDD5CDD5CDD5CDD5CDD5CD44
:10288400D5CDD5CDD5CDD5CDD5CDD5CDD5CDD5CD34
:10289400D5CDD5CDD5CDD5CDD5CDD5CDD5CDD5CD24
:1028A400D5CDD5CDD5CDD5CDD6CDD6CDD6CDD6CD10
:1028B400D6CDD6CDD5CDD5CDD5CDD5CDD5CDD6CD01
:1028C400F6D5F6D5D6CDD6CDD6CDD6CDD6CDD6CD9C
:1028D400D5CDF6D5F6D5D6CDD6CDD6CDD6CDD6CD8D
:1028E400F6D5F6D5F6D5F6D5F6D5F6D5F6D5F6D58C
:1028F400F6D5D6CDD6CDD6CDF6CDF6CDF6CDF6CD14
:10290400F6CDF6CDF6CDF6CDF6CDF6CDF6CDF6CDAB
:10291400F6CDF6CDF6CDF6CDF6CDF6CDF6CDF6CD9B
:10292400F6CDF6CDF6CDF6CDF6CDF6CDF6CDF6CD8B
:10293400F6CDF6CDF6CDF6CDF6CDD5CDD5CDD5CDDE
:10294400D5CDD5CDD5CDD5CDD5CDD5CDD5CDD5CD73
:1029540053BD53BD53BD53BD53BD33BD53BD53C50B
:1029640053C553C553C553C553C553C553C553C5A3
:1029740053C553C553C553C553C553C553C574C572
:1029840074C574C574C574C574C574C574C574C57B
:1029940074C574C574C574C574C574C574C574C56B
:1029A40074C594C594C594C594C594C594C594C57B
:1029B40094C594C594C594C594C594C594C594C54B
:1029C40094CD94CD94CD94CD94CD94CD94C594C50B
:1029D40094CD94CD94CD94CD94CD94CD94CD94CDEB
:1029E40094CD94CD94CD94CD94CD94CD94CD94CDDB
:1029F40094CD94CD94CD94CD94CD94CD94CD94CDCB
:102A040094CDB4CDB5CDB5CDB5CDB5CDB5CDB5CDD4
:102A1400B5CDB5CDB5CDB5CDB5CDB5CDB5CDB5CDA2
:102A2400B5CDB5CDB5CDB5CDB5CDB5CDB5CDB5CD92
:102A3400B5CDB5CDB5CDB5CDB5CDB5CDB5CDD5CD62
:102A4400D5CDD5CDD5CDD5CDD5CDD5CDD5CDD5CD72
:102A5400D5CDD5CDD5CDD5CDD5CDD5CDD5CDD5CD62
:102A6400D5CDD5CDD5CDD5CDD5CDD5CDD5CDD5CD52
:102A7400D5CDD5CDD5CDD5CDD5CDD5CDD5CDD5CD42
:102A8400D5CDD6CDD6CDD6CDD6CDD6CDD5CDD5CD2D
:102A9400D5CDD5CDD5CDD5CDD5CDD6CDD6CDD6CD1F
:102AA400D6CDD6CDF6D5F6D5D6CDD6CDD6CDD6CDBA
:102AB400D6CDD6CDF6D5D6CDD6CDD6CDD6CDD6CDD2
:102AC400F6D5F6D5F6D5D6CDF6D5F6D5F6D5F6D5D2
:102AD400F6D5D6CDD6CDF6D5F6D5F6D5F6D5F6D5EA
:102AE400F6CDD6CDD6CDD6CDD6CDD6CDD6CDF6CD8A
:102AF400F6CDF6CDF6CDF6CDF6CDF6CDF6CDF6CDBA
:102B0400F6CDF6CDF6CDF6CDF6CDF6CDF6CDF6CDA9
:102B1400F6CDF6CDF6CDF6CDF6CDF6CDF6CDF6CD99
:102B2400D5CDD5CDD5CDD5CDD5CDD5CDD5CDD5CD91
:102B340033BD33BD33BD33BD33BD33BD53C553C5C1
:102B440053C553C553C553C553C553C553C553C5C1
:102B540053C553C553C553C553C553C553C574C590
:102B640074C574C574C574C574C574C574C574C599
:102B740074C574C574C574C574C574C574C574C589
:102B840074C594C594C594C594C594C594C594C599
:102B940094C594C594C594C594C594C594C594C569
:102BA40094CD94CD94CD94CD94CD94CD94C594C529
:102BB40094CD94CD94CD94CD94CD94CD94CD94CD09
:102BC40094CD94CD94CD94CD94CD94CD94CD94CDF9
:102BD40094CD94CD94CD94CD94CD94CD94CD94CDE9
:102BE40094CDB4CDB5CDB5CDB5CDB5CDB5CDB5CDF3
:102BF400B5CDB5CDB5CDB5CDB5CDB5CDB5CDB5CDC1
:102C0400B5CDB5CDB5CDB5CDB5CDB5CDB5CDB5CDB0
:102C1400B5CDB5CDB5CDB5CDB5CDB5CDB5CDD5CD80
:102C2400D5CDD5CDD5CDD5CDD5CDD5CDD5CDD5CD90
:102C3400D5CDD5CDD5CDD5CDD5CDD5CDD5CDD5CD80
:102C4400D5CDD5CDD5CDD5CDD5CDD5CDD5CDD5CD70
:102C5400D5CDD5CDD5CDD5CDD5CDD5CDD5CDD5CD60
:102C6400D5CDD6CDD6CDD6CDD6CDD6CDD5CDD5CD4B
:102C7400D5CDD5CDD5CDD5CDD5CDD6CDD6CDD6CD3D
:102C8400D6CDD6CDF6D5F6D5D6CDD6CDD6CDD6CDD8
:102C9400D6CDD6CDF6D5D6CDD6CDD6CDD6CDD6CDF0
:102CA400F6D5F6D5F6D5D6CDF6D5F6D5F6D5F6D5F0
:102CB400F6D5D6CDD6CDF6D5F6D5F6D5F6D5F6D508
:102CC400F6D5D6CDD6CDD6CDD6CDD6CDD6CDD6CDC0
:102CD400D6CDF6CDF6CDF6CDF6CDF6CDF6CDF6CDF8
:102CE400F6CDF6CDF6CDF6CDF6CDF6CDF6CDF6CDC8
:102CF400F6CDF6CDF6CDF6CDF6CDF6CDF6CDF6CDB8
:102D0400D5CDD5CDD5CDD5CDD5CDD5CDD5CDD5CDAF
:102D140033BD33BD33BD33BD33BD33BD33BD33BD2F
:102D240053C553C553C553C553C553C553C553C5DF
:102D340053C553C553C553C553C553C553C553C5CF
:102D440053C574C574C574C574C574C574C574C5D8
:102D540074C574C574C574C574C574C574C594C587
:102D640094C594C594C594C594C594C594C594C597
:102D740094C594C594C594C594C594C594C594C587
:102D840094C594C594CD94CD94CD94CD94CD94CD47
:102D940094CD94CD94CD94CD94CD94CD94CD94CD27
:102DA40094CD94CD94CD94CD94CD94CD94CD94CD17
:102DB40094CD94CD94CD94CD94CD94CD94CDB4CDE7
:102DC400B4CDB4CDB4CDB4CDB5CDB5CDB5CDB5CDF3
:102DD400B5CDB5CDB5CDB5CDB5CDB5CDB5CDB5CDDF
:102DE400B5CDB5CDB5CDB5CDB5CDB5CDB5CDB5CDCF
:102DF400B5CDD5CDB5CDB5CDB5CDB5CDB5CDD5CD7F
:102E0400D5CDD5CDD5CDD5CDD5CDD5CDD5CDD5CDAE
:102E1400D5CDD5CDD5CDD5CDD5CDD5CDD5CDD5CD9E
:102E2400D5CDD5CDD5CDD5CDD5CDD5CDD5CDD5CD8E
:102E3400D5CDD5CDD5CDD5CDD5CDD5CDD5CDD5CD7E
:102E4400D5CDD5CDD5CDD5CDD6CDD6CDD5CDD5CD6C
:102E5400D5CDD5CDD5CDD5CDD5CDD5CDD5CDD5CD5E
:102E6400D6CDD6CDD6CDD6CDD6CDD5CDD5CDD5CD49
:102E7400D5CDD5CDD6CDD6CDD6CDD6CDD6CDD6CD38
:102E8400D6CDD6CDD6CDD6CDD6CDD6CDD6CDD6CD26
:102E9400D6CDD6CDD6CDD6CDD6CDD6CDD6CDD6CD16
:102EA400F6D5D6CDD6CDD6CDD6CDD6CDF6D5F6D58E
:102EB400F6D5F6CDF6CDF6CDF6CDF6CDF6CDF6CDEE
:102EC400F6CDF6CDF6CDF6CDF6CDF6CDF6CDF6CDE6
:102ED400F6CDF6CDF6CDF6CDF6CDF6CDF6CDF6CDD6
:102EE400F6CDF6CDD5CDD5CDD5CDD5CDD5CDD5CD8C
:102EF40033BD33BD33BD33BD33BD33BD33BD33BD4E
:102F040053C553C553C553C553C553C553C553C5FD
:102F140053C553C553C553C553C553C553C553C5ED
:102F240053C574C573C574C574C574C574C574C5F7
:102F340074C574C574C574C574C574C574C594C5A5
:102F440094C594C594C594C594C594C594C594C5B5
:102F540094C594C594C594C594C594C594C594C5A5
:102F640094C594C594CD94CD94CD94CD94CD94CD65
:102F740094CD94CD94CD94CD94CD94CD94CD94CD45
:102F840094CD94CD94CD94CD94CD94CD94CD94CD35
:102F940094CD94CD94CD94CD94CD94CD94CDB4CD05
:102FA400B4CDB4CDB4CDB4CDB5CDB5CDB5CDB5CD11
:102FB400B5CDB5CDB5CDB5CDB5CDB5CDB5CDB5CDFD
:102FC400B5CDB5CDB5CDB5CDB5CDB5CDB5CDB5CDED
:102FD400B5CDD5CDB5CDB5CDB5CDB5CDB5CDD5CD9D
:102FE400D5CDD5CDD5CDD5CDD5CDD5CDD5CDD5CDCD
:102FF400D5CDD5CDD5CDD5CDD5CDD5CDD5CDD5CDBD
:10300400D5CDD5CDD5CDD5CDD5CDD5CDD5CDD5CDAC
:10301400D5CDD5CDD5CDD5CDD5CDD5CDD5CDD5CD9C
:10302400D5CDD5CDD5CDD5CDD6CDD6CDD5CDD5CD8A
:10303400D5CDD5CDD5CDD5CDD5CDD5CDD5CDD5CD7C
:10304400D6CDD6CDD6CDD6CDD6CDD5CDD5CDD5CD67
:10305400D5CDD5CDD6CDD6CDD6CDD6CDD6CDD6CD56
:10306400D6CDD6CDD6CDD6CDD6CDD6CDD6CDD6CD44
:10307400D6CDD6CDD6CDD6CDD6CDD6CDD6CDD6CD34
:10308400F6D5D6CDD6CDD6CDD6CDD6CDF6D5F6D5AC
:10309400F6D5F6CDF6CDF6CDF6CDF6CDF6CDF6CD0C
:1030A400F6CDF6CDF6CDF6CDF6CDF6CDF6CDF6CD04
:1030B400F6CDF6CDF6CDF6CDF6CDF6CDF6CDF6CDF4
:1030C400F6CDF6CDD5CDD5CDD5CDD5CDD5CDD5CDAA
:1030D40033BD33BD33BD33BD33BD33BD53C553C51C
:1030E40053C553C553C553C553C553C553C553C51C
:1030F40053C553C553C553C553C553C553C553C50C
:1031040053C553C553C574C574C574C574C574C556
:1031140074C574C574C574C574C574C574C594C5C3
:1031240094C594C594C594C594C594C594C594C5D3
:1031340094C594C594C594C594C594C594C594C5C3
:1031440094CD94CD94CD94CD94CD94CD94CD94CD73
:1031540094CD94CD94CD94CD94CD94CD94CD94CD63
:1031640094CD94CD94CD94CD94CD94CD94CD94CD53
:1031740094CD94CD94CD94CD94CD94CD94CDB4CD23
:10318400B4CDB4CDB4CDB4CDB5CDB5CDB5CDB5CD2F
:10319400B5CDB5CDB5CDB5CDB5CDB5CDB5CDB5CD1B
:1031A400B5CDB5CDB5CDB5CDB5CDB5CDB5CDB5CD0B
:1031B400B5CDB5CDB5CDB5CDB5CDD5CDD5CDD5CD9B
:1031C400D5CDD5CDD5CDD5CDD5CDD5CDD5CDD5CDEB
:1031D400D5CDD5CDD5CDB5CDD5CDD5CDD5CDD5CDFB
:1031E400D5CDD5CDD5CDD5CDD5CDD5CDD5CDD5CDCB
:1031F400D5CDD5CDD5CDD5CDD5CDD5CDD5CDD5CDBB
:10320400D5CDD5CDD5CDD5CDD5CDD5CDD5CDD5CDAA
:10321400D5CDD5CDD5CDD5CDD5CDD5CDD6CDD6CD98
:10322400D6CDD6CDD6CDD6CDD5CDD5CDD5CDD5CD86
:10323400D5CDD5CDD6CDD6CDD6CDD6CDF6D5F6D524
:10324400D6CDD6CDD6CDD6CDD6CDD6CDD5CDD5CD64
:10325400D5CDD6CDD6CDD6CDD6CDD6CDF6D5F6D503
:10326400F6D5F6D5F6D5F6D5F6D5F6D5F6D5F6D502
:10327400F6D5F6CDF6CDF6CDF6CDF6CDF6CDF6CD2A
:10328400F6CDF6CDF6CDF6CDF6CDF6CDF6CDF6CD22
:10329400F6CDF6CDF6CDF6CDF6CDF6CDF6CDF6CD12
:1032A400F6CDF6CDD5CDD5CDD5CDD5CDD5CDD5CDC8
:1032B40033BD33BD33BD33BD33BD53C553C553C512
:1032C40053C553C553C553C553C553C553C553C53A
:1032D40053C553C553C553C553C553C553C553C52A
:1032E40053C553C553C553C573C573C574C574C598
:1032F40074C574C574C574C574C574C574C594C5E2
:1033040094C594C594C594C594C594C594C594C5F1
:1033140094C594C594C594C594C594C594C594C5E1
:1033240094CD94CD94CD94CD94CD94CD94CD94CD91
:1033340094CD94CD94CD94CD94CD94CD94CD94CD81
:1033440094CD94CD94CD94CD94CD94CD94CD94CD71
:1033540094CD94CD94CD94CD94CD94CD94CDB4CD41
:10336400B4CDB4CDB4CDB4CDB5CDB5CDB5CDB5CD4D
:10337400B5CDB5CDB5CDB5CDB5CDB5CDB5CDB5CD39
:10338400B5CDB5CDB5CDB5CDB5CDB5CDB5CDB5CD29
:10339400B5CDB5CDB5CDB5CDB5CDD5CDD5CDD5CDB9
:1033A400D5CDD5CDD5CDD5CDD5CDD5CDD5CDD5CD09
:1033B400D5CDD5CDD5CDD5CDD5CDD5CDD5CDD5CDF9
:1033C400D5CDD5CDD5CDD5CDD5CDD5CDD5CDD5CDE9
:1033D400D5CDD5CDD5CDB5CDD5CDD5CDD5CDD5CDF9
:1033E400D5CDD5CDD5CDD5CDD5CDD5CDD5CDD5CDC9
:1033F400D5CDD5CDD5CDD5CDD5CDD6CDD6CDD6CDB6
:10340400D6CDD6CDD6CDD6CDD6CDD6CDD6CDD5CDA1
:10341400D6CDD6CDD6CDD6CDD6CDF6D5F6D5F6D518
:10342400F6D5F6D5D6CDD6CDD6CDD6CDD6CDD6CD30
:10343400D6CDD6CDD6CDD6CDD6CDF6D5F6D5F6D5F8
:10344400F6D5F6D5F6D5F6D5F6D5F6D5F6D5F6D520
:10345400F6D5F6CDF6CDF6CDF6CDF6CDF6CDF6CD48
:10346400F6CDF6CDF6CDF6CDF6CDF6CDF6CDF6CD40
:10347400F6CDF6CDF6CDF6CDF6CDF6CDF6CDF6CD30
:10348400F6CDF6CDD5CDD5CDD5CDD5CDD5CDD5CDE6
:1034940033BD33BD33BD33BD33BD53C553C553C530
:1034A40053C553C553C553C553C553C553C553C558
:1034B40053C553C553C553C553C553C553C553C548
:1034C40053C553C553C553C573C573C574C574C5B6
:1034D40074C574C574C574C574C574C574C574C520
:1034E40094C594C594C594C594C594C594C594C510
:1034F40094C594C594C594C594C594C594C594C500
:1035040094CD94CD94CD94CD94CD94CD94CD94CDAF
:1035140094CD94CD94CD94CD94CD94CD94CD94CD9F
:1035240094CD94CD94CD94CD94CD94CD94CD94CD8F
:1035340094CD94CD94CD94CD94CD94CD94CDB4CD5F
:10354400B4CDB4CDB4CDB4CDB5CDB5CDB5CDB5CD6B
:10355400B5CDB5CDB5CDB5CDB5CDB5CDB5CDB5CD57
:10356400B5CDB5CDB5CDB5CDB5CDB5CDB5CDB5CD47
:10357400B5CDB5CDB5CDB5CDB5CDD5CDD5CDD5CDD7
:10358400D5CDD5CDD5CDD5CDD5CDD5CDD5CDD5CD27
:10359400D5CDD5CDD5CDD5CDD5CDD5CDD5CDD5CD17
:1035A400D5CDD5CDD5CDD5CDD5CDD5CDD5CDD5CD07
:1035B400D5CDD5CDD5CDB5CDD5CDD5CDD5CDD5CD17
:1035C400D5CDD5CDD5CDD5CDD5CDD5CDD5CDD5CDE7
:1035D400D5CDD5CDD5CDD5CDD5CDD6CDD6CDD6CDD4
:1035E400D6CDD6CDD6CDD6CDD6CDD6CDD6CDD5CDC0
:1035F400D6CDD6CDD6CDD6CDD6CDF6D5F6D5F6D537
:10360400F6D5F6D5D6CDD6CDD6CDD6CDD6CDD6CD4E
:10361400D6CDD6CDD6CDD6CDD6CDF6D5F6D5F6D516
:10362400F6D5F6D5F6D5F6D5F6D5F6D5F6D5F6D53E
:10363400F6D5F6CDF6CDF6CDF6CDF6CDF6CDF6CD66
:10364400F6CDF6CDF6CDF6CDF6CDF6CDF6CDF6CD5E
:10365400F6CDF6CDF6CDF6CDF6CDF6CDF6CDF6CD4E
:10366400F6CDF6CDD5CDD5CDD5CDD5CDD5CDD5CD04
:1036740033BD33BD33BD33BD33BD33BD33BD33BDC6
:1036840053C553C553C553C553C553C553C553C576
:1036940053C553C553C553C553C553C553C553C566
:1036A40053C553C553C553C574C574C574C574C5D2
:1036B40074C574C574C574C574C574C574C574C53E
:1036C40094C594C594C594C594C594C594C594C52E
:1036D40094C594C594C594C594C594C594C594C51E
:1036E40094CD94CD94CD94CD94CD94CD94CD94CDCE
:1036F40094CD94CD94CD94CD94CD94CD94CD94CDBE
:1037040094CD94CD94CD94CD94CD94CD94CD94CDAD
:1037140094CD94CD94CD94CD94CD94CD94CD94CD9D
:1037240094CD94CD94CD94CD94CD94CD94CDB5CD6C
:10373400B5CDB5CDB5CDB5CDB5CDB5CDB5CDB5CD75
:10374400B5CDB5CDB5CDB5CDB5CDB5CDB5CDB5CD65
:10375400B5CDB5CDB5CDB5CDB5CDD5CDD5CDD5CDF5
:10376400D5CDD5CDD5CDD5CDD5CDD5CDD5CDD5CD45
:10377400D5CDD5CDD5CDD5CDD5CDD5CDD5CDD5CD35
:10378400D5CDD5CDD5CDD5CDD5CDD5CDD5CDD5CD25
:10379400D5CDD5CDD5CDD5CDD5CDD5CDD5CDD5CD15
:1037A400D5CDD5CDD5CDD5CDD5CDD5CDD5CDD5CD05
:1037B400D5CDD5CDD5CDD5CDD5CDD6CDD6CDD6CDF2
:1037C400D6CDD6CDD6CDD6CDD6CDD6CDD6CDD6CDDD
:1037D400D6CDD6CDD6CDF6D5F6D5F6D5F6D5F6D505
:1037E400F6D5F6D5F6D5F6D5F6D5D6CDD6CDD6CDF5
:1037F400D6CDD6CDD6CDD6CDD6CDF6D5F6D5F6D535
:10380400F6D5F6D5F6D5F6D5F6D5F6D5F6CDF6CD6C
:10381400F6CDF6CDF6CDF6CDF6CDF6CDF6CDF6CD8C
:10382400F6CDF6CDF6CDF6CDF6CDF6CDF6CDF6CD7C
:10383400F6CDF6CDF6CDF6CDF6CDF6CDF6CDF6CD6C
:10384400F6CDF6CDD5CDD5CDD5CDD5CDD5CDD5CD22
:1038540033BD33BD33BD33BD33BD33BD53C553C594
:1038640053C553C553C553C553C553C553C553C594
:1038740053C553C553C553C553C553C553C553C584
:1038840053C574C574C574C574C574C574C574C58D
:1038940074C574C574C574C574C574C574C574C55C
:1038A40074C574C574C574C594C594C594C594C5CC
:1038B40094C594C594C594C594C594C594C594C53C
:1038C40094CD94CD94CD94CD94CD94CD94CD94CDEC
:1038D40094CD94CD94CD94CD94CD94CD94CD94CDDC
:1038E40094CD94CD94CD94CD94CD94CD94CD94CDCC
:1038F40094CD94CD94CD94CD94CD94CD94CD94CDBC
:1039040094CD94CD94CD94CD94CD94CD94CD94CDAB
:1039140094CDB5CDB5CDB5CDB5CDB5CDB5CDB5CDB4
:10392400B5CDB5CDB5CDB5CDB5CDB5CDB5CDB5CD83
:10393400B5CDB5CDB5CDD5CDD5CDD5CDD5CDD5CDD3
:10394400D5CDD5CDD5CDD5CDD5CDD5CDD5CDD5CD63
:10395400D5CDD5CDD5CDD5CDD5CDD5CDD5CDD5CD53
:10396400D5CDD5CDD5CDD5CDD5CDD5CDB5CDB5CD83
:10397400D5CDD5CDD5CDD5CDD5CDD5CDD5CDD5CD33
:10398400D5CDD5CDD5CDB5CDD5CDD5CDD5CDD5CD43
:10399400D5CDD5CDD5CDD5CDD6CDD6CDD6CDD6CD0F
:1039A400D6CDD6CDD6CDD6CDD6CDD6CDD6CDD6CDFB
:1039B400D6CDD6CDD6CDF6D5F6D5F6D5F6D5F6D523
:1039C400F6D5F6D5F6D5F6D5F6D5F6D5F6D5F6D59B
:1039D400D6CDD5CDD6CDF6D5F6D5F6D5F6D5F6D504
:1039E400F6D5F6D5F6D5F6D5F6D5F6D5F6CDF6CD8B
:1039F400F6CDF6CDF6CDF6CDF6CDF6CDF6CDF6CDAB
:103A0400F6CDF6CDF6CDF6CDF6CDF6CDF6CDF6CD9A
:103A1400F6CDF6CDF6CDF6CDF6CDF6CDF6CDF6CD8A
:103A2400F6CDF6CDF6CDD5CDD5CDD5CDD5CDD5CD1F
:103A340033BD33BD33BD33BD33BD33BD53C553C5B2
:103A440053C553C553C553C553C553C553C553C5B2
:103A540053C553C553C553C553C553C553C553C5A2
:103A640053C574C574C574C574C574C574C574C5AB
:103A740074C574C574C574C574C574C574C574C57A
:103A840074C574C574C574C594C594C594C594C5EA
:103A940094C594C594C594C594C594C594C594C55A
:103AA40094CD94CD94CD94CD94CD94CD94CD94CD0A
:103AB40094CD94CD94CD94CD94CD94CD94CD94CDFA
:103AC40094CD94CD94CD94CD94CD94CD94CD94CDEA
:103AD40094CD94CD94CD94CD94CD94CD94CD94CDDA
:103AE40094CD94CD94CD94CD94CD94CD94CD94CDCA
:103AF40094CDB5CDB5CDB5CDB5CDB5CDB5CDB5CDD3
:103B0400B5CDB5CDB5CDB5CDB5CDB5CDB5CDB5CDA1
:103B1400B5CDB5CDB5CDD5CDD5CDD5CDD5CDD5CDF1
:103B2400D5CDD5CDD5CDD5CDD5CDD5CDD5CDD5CD81
:103B3400D5CDD5CDD5CDD5CDD5CDD5CDD5CDD5CD71
:103B4400D5CDD5CDD5CDD5CDD5CDD5CDB5CDB5CDA1
:103B5400B5CDD5CDD5CDD5CDD5CDD5CDD5CDD5CD71
:103B6400D5CDD5CDD5CDD5CDD5CDD5CDD5CDD5CD41
:103B7400D5CDD5CDD5CDD5CDD6CDD6CDD6CDD6CD2D
:103B8400D6CDD6CDD6CDD6CDD6CDD6CDD6CDD6CD19
:103B9400D6CDD6CDD6CDF6D5F6D5F6D5F6D5F6D541
:103BA400F6D5F6D5F6D5F6D5F6D5F6D5F6D5F6D5B9
:103BB400D6CDD5CDD6CDF6D5F6D5F6D5F6D5F6D522
:103BC400F6D5F6D5F6D5F6D5F6D5F6D5F6CDF6CDA9
:103BD400F6CDF6CDF6CDF6CDF6CDF6CDF6CDF6CDC9
:103BE400F6CDF6CDF6CDF6CDF6CDF6CDF6CDF6CDB9
:103BF400F6CDF6CDF6CDF6CDF6CDF6CDF6CDF6CDA9
:103C0400F6CDF6CDF6CDD5CDD5CDD5CDD5CDD5CD3D
:103C140033BD33BD33BD33BD33BD53C553C553C5A8
:103C240053C553C553C553C553C553C553C553C5D0
:103C340053C553C553C553C553C553C553C553C5C0
:103C440053C574C574C574C574C574C574C574C5C9
:103C540074C574C574C574C574C574C574C574C598
:103C640074C574C574C574C574C574C574C594C568
:103C740094C594C594CD94CD94CD94CD94CD94CD48
:103C840094CD94CD94CD94CD94CD94CD94CD94CD28
:103C940094CD94CD94CD94CD94CD94CD94CD94CD18
:103CA40094CD94CD94CD94CD94CD94CD94CD94CD08
:103CB40094CD94CD94CD94CD94CD94CD94CD94CDF8
:103CC40094CD94CD94CD94CD94CD94CDB5CDB5CDA6
:103CD400B5CDB5CDB5CDB5CDB5CDB5CDB5CDB5CDD0
:103CE400B5CDB5CDB5CDB5CDB5CDD5CDD5CDD5CD60
:103CF400B5CDB5CDB5CDD5CDD5CDD5CDD5CDD5CD10
:103D0400D5CDD5CDD5CDD5CDD5CDD5CDD5CDD5CD9F
:103D1400D5CDD5CDD5CDD5CDD5CDD5CDD5CDD5CD8F
:103D2400D5CDD5CDD5CDD5CDD5CDD5CDD5CDD5CD7F
:103D3400D5CDD5CDD5CDD5CDD5CDD5CDD5CDD5CD6F
:103D4400D5CDD5CDD5CDD5CDD5CDD5CDD5CDD5CD5F
:103D5400D5CDD5CDD5CDD5CDD5CDD6CDD6CDD6CD4C
:103D6400D6CDD6CDF6D5F6D5F6D5F6D5F6D5F6D547
:103D7400F6D5F6D5F6D5F6D5F6D5F6D5F6D5F6D5E7
:103D8400F6D5F6D5F6D5F6D5F6D5F6D5F6D5F6D5D7
:103D9400F6D5F6D5F6D5F6D5F6D5F6D5F6D5F6D5C7
:103DA400F6D5F6D5F6D5F6D5F6D5F6D5F6CDF6CDC7
:103DB400F6CDF6CDF6CDF6CDF6CDF6CDF6CDF6CDE7
:103DC400F6CDF6CDF6CDF6CDF6CDF6CDF6CDF6CDD7
:103DD400F6CDF6CDF6CDF6CDF6CDF6CDF6CDF6CDC7
:103DE400F6CDF6CDF6CDF6CDD5CDD5CDD5CDD5CD3B
:103DF40033BD33BD33BD33BD33BD33BD33BD33BD3F
:103E040053C553C553C553C553C553C553C553C5EE
:103E140053C553C553C553C553C553C553C553C5DE
:103E240053C574C574C574C574C574C574C574C5E7
:103E340074C574C574C574C574C574C574C574C5B6
:103E440074C574C574C574C574C574C574C574C5A6
:103E540094C594C574C574C574C594CD94CD94CDDE
:103E640094CD94CD94CD94CD94CD94CD94CD94CD46
:103E740094CD94CD94CD94CD94CD94CD94CD94CD36
:103E840094CD94CD94CD94CD94CD94CD94CD94CD26
:103E940094CD94CD94CD94CD94CD94CD94CD94CD16
:103EA40094CD94CD94CD94CD94CD94CDB5CDB5CDC4
:103EB400B5CDB5CDB5CDB5CDB5CDB5CDB5CDB5CDEE
:103EC400B5CD94CDB5CDB5CDB5CDB5CDB5CDD5CDDF
:103ED400B5CDB5CDD5CDD5CDD5CDD5CDD5CDD5CD0E
:103EE400D5CDD5CDD5CDD5CDD5CDD5CDD5CDD5CDBE
:103EF400D5CDD5CDD5CDD5CDD5CDD5CDD5CDD5CDAE
:103F0400D5CDD5CDD5CDD5CDD5CDD5CDD5CDD5CD9D
:103F1400D5CDD5CDD5CDD5CDB5CDD5CDD5CDD5CDAD
:103F2400D5CDD5CDD5CDD5CDD5CDD5CDD5CDD5CD7D
:103F3400D5CDD5CDD6CDD6CDD6CDD6CDD6CDD6CD67
:103F4400D6CDD6CDD6CDD6CDD6CDD6CDD6CDD6CD55
:103F5400F6D5F6D5F6D5F6D5F6D5F6D5F6D5F6D505
:103F6400F6D5F6D5F6D5F6D5F6D5F6D5F6D5F6D5F5
:103F7400F6D5F6D5F6D5F6D5F6D5F6D5F6D5F6D5E5
:103F8400F6D5F6D5F6D5F6D5F6D5F6D5F6CDF6CDE5
:103F9400F6CDF6CDF6CDF6CDF6CDF6CDF6CDF6CD05
:103FA400F6CDF6CDF6CDF6CDF6CDF6CDF6CDF6CDF5
:103FB400F6CDF6CDF6CDF6CDF6CDF6CDF6CDF6CDE5
:103FC400F6CDF6CDF6CDF6CDF6CDD5CDD5CDD5CD38
:103FD40033BD33BD33BD33BD33BD33BD33BD33BD5D
:103FE40053C553C553C553C553C553C553C553C50D
:103FF40053C553C553C553C553C553C553C553C5FD
:1040040053C574C574C574C574C574C574C574C505
:1040140074C574C574C574C574C574C574C574C5D4
:1040240074C574C574C574C574C574C574C574C5C4
:1040340094C594C574C574C574C594CD94CD94CDFC
:1040440094CD94CD94CD94CD94CD94CD94CD94CD64
:1040540094CD94CD94CD94CD94CD94CD94CD94CD54
:1040640094CD94CD94CD94CD94CD94CD94CD94CD44
:1040740094CD94CD94CD94CD94CD94CD94CD94CD34
:1040840094CD94CD94CD94CD94CD94CDB5CDB5CDE2
:10409400B5CDB5CDB5CDB5CDB5CDB5CDB5CDB5CD0C
:1040A400B5CD94CDB5CDB5CDB5CDB5CDB5CDD5CDFD
:1040B400B5CDB5CDD5CDD5CDD5CDD5CDD5CDD5CD2C
:1040C400D5CDD5CDD5CDD5CDD5CDD5CDD5CDD5CDDC
:1040D400D5CDD5CDD5CDD5CDD5CDD5CDD5CDD5CDCC
:1040E400D5CDD5CDD5CDD5CDD5CDD5CDD5CDD5CDBC
:1040F400D5CDD5CDD5CDD5CDB5CDD5CDD5CDD5CDCC
:10410400D5CDD5CDD5CDD5CDD5CDD5CDD5CDD5CD9B
:10411400D5CDD5CDD6CDD6CDD6CDD6CDD6CDD6CD85
:10412400D6CDD6CDD6CDD6CDD6CDD6CDD6CDD6CD73
:10413400F6D5F6D5F6D5F6D5F6D5F6D5F6D5F6D523
:10414400F6D5F6D5F6D5F6D5F6D5F6D5F6D5F6D513
:10415400F6D5F6D5F6D5F6D5F6D5F6D5F6D5F6D503
:10416400F6D5F6D5F6D5F6D5F6D5F6D5F6CDF6CD03
:10417400F6CDF6CDF6CDF6CDF6CDF6CDF6CDF6CD23
:10418400F6CDF6CDF6CDF6CDF6CDF6CDF6CDF6CD13
:10419400F6CDF6CDF6CDF6CDF6CDF6CDF6CDF6CD03
:1041A400F6CDF6CDF6CDF6CDF6CDD5CDD5CDD5CD56
:1041B40033BD33BD33BD33BD33BD33BD33BD33BD7B
:1041C40033BD33BD33BD53C553C553C553C553C5A3
:1041D40053C553C553C553C553C553C553C553C51B
:1041E40053C553C553C574C574C574C574C574C566
:1041F40074C574C574C574C574C574C574C574C5F3
:1042040074C574C574C574C574C574C574C574C5E2
:1042140074C574C574C574C574C574C574C594CDAA
:1042240094CD94CD94CD94CD94CD94CD94CD94CD82
:1042340094CD94CD94CD94CD94CD94CD94CD94CD72
:1042440094CD94CD94CD94CD94CD94CD94CD94CD62
:1042540094CD94CD94CD94CD94CDB5CD94CD94CD31
:1042640094CD94CDB5CDB5CDB5CDB5CDB5CDB5CD7C
:10427400B5CDB5CDB5CDB5CDB5CDB5CDB5CDB5CD2A
:10428400B5CDB5CDB5CDB5CDB5CDB5CDD5CDD5CDDA
:10429400D5CDD5CDD5CDD5CDD5CDD5CDD5CDD5CD0A
:1042A400D5CDD5CDD5CDD5CDD5CDD5CDD5CDD5CDFA
:1042B400D5CDD5CDD5CDD5CDD5CDD5CDD5CDD5CDEA
:1042C400D5CDD5CDD5CDD5CDD5CDD5CDD5CDD5CDDA
:1042D400D5CDD5CDD5CDD5CDD5CDD5CDD5CDD5CDCA
:1042E400D5CDD5CDD5CDD5CDD5CDD5CDD6CDD5CDB9
:1042F400D5CDD5CDD6CDD6CDD5CDD5CDD5CDD6CDA7
:10430400D5CDD6CDD6CDD6CDD6CDD6CDD6CDF6D56A
:10431400F6D5F6D5F6D5F6D5F6D5F6D5F6D5F6D541
:10432400F6D5F6D5D6CDD6CDD6CDF6D5F6D5F6D5A9
:10433400F6D5F6D5F6D5F6D5F6D5F6D5F6D5F6D521
:10434400F6D5F6D5F6D5F6D5F6CDF6CDF6CDF6CD31
:10435400F6CDF6CDF6CDF6CDF6CDF6CDF6CDF6CD41
:10436400F6CDF6CDF6CDF6CDF6CDF6CDF6CDF6CD31
:10437400F6CDF6CDF6CDF6CDF6CDF6CDF6CDF6CD21
:10438400F6CDF6CDF6CDF6CDD5CDD5CDD5CDD5CD95
:1043940033BD33BD33BD33BD33BD33BD33BD33BD99
:1043A40033BD53C553C553C553C553C553C553C571
:1043B40053C553C553C553C553C553C553C553C539
:1043C40053C574C574C574C574C574C574C574C542
:1043D40074C574C574C574C574C574C574C574C511
:1043E40074C574C574C574C574C574C574C574C501
:1043F40074C574C574C574C574C574C574C574C5F1
:1044040094CD94CD94CD94CD94CD94CD94CD94CDA0
:1044140094CD94CD94CD94CD94CD94CD94CD94CD90
:1044240094CD94CD94CD94CD94CD94CD94CD94CD80
:1044340094CD94CD94CD94CD94CD94CD94CD94CD70
:1044440094CD94CDB5CDB5CD94CDB5CDB5CDB5CDBB
:10445400B5CDB5CD94CDB5CDB5CDB5CDB5CDB5CD69
:10446400B5CDB5CDB5CDB5CDB5CDB5CDD5CDD5CDF8
:10447400D5CDD5CDD5CDD5CDD5CDD5CDD5CDD5CD28
:10448400D5CDD5CDD5CDD5CDD5CDD5CDD5CDD5CD18
:10449400D5CDD5CDD5CDD5CDD5CDD5CDD5CDD5CD08
:1044A400D5CDD5CDD5CDD5CDD5CDD5CDD5CDD5CDF8
:1044B400D5CDD5CDD5CDD5CDD5CDD5CDD5CDD5CDE8
:1044C400D5CDD5CDD5CDD5CDD6CDD6CDD6CDD6CDD4
:1044D400D5CDD5CDD6CDD6CDD5CDD6CDD6CDD6CDC3
:1044E400D6CDD6CDD6CDD6CDD6CDD6CDD6CDD6CDB0
:1044F400F6D5F6D5D6CDD6CDD6CDF6D5F6D5F6D5D8
:10450400D6CDD6CDD6CDD6CDD6CDF6D5F6D5F6D517
:10451400F6D5F6D5F6D5F6D5F6D5F6D5F6D5F6D53F
:10452400F6D5F6D5F6D5F6D5F6CDF6CDF6CDF6CD4F
:10453400F6CDF6CDF6CDF6CDF6CDF6CDF6CDF6CD5F
:10454400F6CDF6CDF6CDF6CDF6CDF6CDF6CDF6CD4F
:10455400F6CDF6CDF6CDF6CDF6CDF6CDF6CDF6CD3F
:10456400F6CDF6CDF6CDF6CDF6CDF6CDF6CDD5CD50
:1045740033BD33BD33BD33BD33BD33BD33BD33BDB7
:1045840033BD53C553C553C553C553C553C553C58F
:1045940053C553C553C553C553C553C553C553C557
:1045A40053C574C574C574C574C574C574C574C560
:1045B40074C574C574C574C574C574C574C574C52F
:1045C40074C574C574C574C574C574C574C574C51F
:1045D40074C574C574C574C574C574C574C574C50F
:1045E40094CD94CD94CD94CD94CD94CD94CD94CDBF
:1045F40094CD94CD94CD94CD94CD94CD94CD94CDAF
:1046040094CD94CD94CD94CD94CD94CD94CD94CD9E
:1046140094CD94CD94CD94CD94CD94CD94CD94CD8E
:1046240094CD94CDB5CDB5CDB5CDB5CDB5CDB5CDB8
:10463400B5CDB5CD94CDB5CDB5CDB5CDB5CDB5CD87
:10464400B5CDB5CDB5CDB5CDB5CDB5CDD5CDD5CD16
:10465400D5CDD5CDD5CDD5CDD5CDD5CDD5CDD5CD46
:10466400D5CDD5CDD5CDD5CDD5CDD5CDD5CDD5CD36
:10467400D5CDD5CDD5CDD5CDD5CDD5CDD5CDD5CD26
:10468400D5CDD5CDD5CDD5CDD5CDD5CDD5CDD5CD16
:10469400D5CDD5CDD5CDD5CDD5CDD5CDD5CDD5CD06
:1046A400D5CDD5CDD5CDD5CDD6CDD6CDD6CDD6CDF2
:1046B400D5CDD5CDD6CDD6CDD5CDD6CDD6CDD6CDE1
:1046C400D6CDD6CDD6CDD6CDD6CDD6CDD6CDD6CDCE
:1046D400F6D5F6D5D6CDD6CDD6CDF6D5F6D5F6D5F6
:1046E400D6CDD6CDD6CDD6CDD6CDF6D5F6D5F6D536
:1046F400F6D5F6D5F6D5F6D5F6D5F6D5F6D5F6D55E
:10470400F6D5F6D5F6D5F6D5F6CDF6CDF6CDF6CD6D
:10471400F6CDF6CDF6CDF6CDF6CDF6CDF6CDF6CD7D
:10472400F6CDF6CDF6CDF6CDF6CDF6CDF6CDF6CD6D
:10473400F6CDF6CDF6CDF6CDF6CDF6CDF6CDF6CD5D
:10474400F6CDF6CDF6CDF6CDF6CDF6CDF6CDD5CD6E
:1047540033BD33BD33BD33BD33BD33BD33BD33BDD5
:1047640033BD33BD33BD53C553C553C553C553C5FD
:1047740053C553C553C553C553C553C553C553C575
:1047840053C553C553C574C574C574C574C574C5C0
:1047940074C574C574C574C574C574C574C574C54D
:1047A40074C574C574C574C574C574C574C574C53D
:1047B40074C574C574C574C574C594CD94CD94CDB5
:1047C40094CD94CD94CD94CD94CD94CD94CD94CDDD
:1047D40094CD94CD94CD94CD94CD94CD94CD94CDCD
:1047E40094CD94CD94CD94CD94CD94CD94CD94CDBD
:1047F40094CD94CD94CD94CD94CD94CDB5CD94CD8C
:1048040094CD94CDB5CDB5CDB5CDB5CDB5CDB5CDD6
:10481400B5CDB5CDB5CDB5CDB5CDB5CDB5CDB5CD84
:10482400B5CDB5CDB5CDB5CDB5CDB5CDB5CDD5D54C
:10483400D5CDD5CDD5CDD5CDD5CDD5CDD5CDD5CD64
:10484400D5CDD5CDD5CDD5CDD5CDD5CDD5D5D5D544
:10485400D5CDD5CDD5CDD5CDD5CDD5CDD5CDD5CD44
:10486400D5CDD5CDD5CDD5CDD5CDD5CDD5CDD5CD34
:10487400D5CDD5CDD5CDD5CDD5CDD5CDD5CDD5CD24
:10488400D5CDD5CDD6CDD6CDD6CDD6CDD6CDD5CD0F
:10489400D5CDD5CDD6CDD6CDD6CDD6CDD6CDD6CDFE
:1048A400D6CDD6CDD6CDD6CDD6CDD6CDD6CDD6CDEC
:1048B400D6CDD6CDD6CDD6CDD6CDF6D5F6D5F6D564
:1048C400F6D5F6D5F6D5D6CDD6CDF6D5F6D5F6D5DC
:1048D400F6D5F6D5F6D5F6D5F6D5F6D5F6D5F6D57C
:1048E400F6D5F6D5F6D5F6D5F6D5F6D5F6CDF6CD7C
:1048F400F6CDF6CDF6CDF6CDF6CDF6CDF6CDF6CD9C
:10490400F6CDF6CDF6D5F6D5F6D5F6CDF6CDF6CD73
:10491400F6CDF6CDF6CDF6CDF6CDF6CDF6CDF6CD7B
:10492400F6CDF6CDF6CDF6CDF6CDD5CDD5CDD5CDCE
:1049340033BD33BD33BD33BD33BD33BD33BD33BDF3
:1049440033BD33BD33BD53C553C553C553C553C51B
:1049540053C553C553C553C553C553C553C553C593
:1049640053C553C553C574C574C574C574C574C5DE
:1049740074C574C574C574C574C574C574C574C56B
:1049840074C574C574C574C574C574C574C574C55B
:1049940074C574C574C574C574C594CD94CD94CDD3
:1049A40094CD94CD94CD94CD94CD94CD94CD94CDFB
:1049B40094CD94CD94CD94CD94CD94CD94CD94CDEB
:1049C40094CD94CD94CD94CD94CD94CD94CD94CDDB
:1049D40094CD94CD94CD94CD94CD94CD94CD94CDCB
:1049E40094CD94CD94CD94CDB5CDB5CDB5CDB5CD37
:1049F400B5CDB5CDB5CDB5CDB5CDB5CDB5CDB5CDA3
:104A0400B5CDB5CDB5CDB5CDB5CDB5CDB5CDD5D56A
:104A1400D5CDD5CDD5CDD5CDD5CDD5CDD5CDD5CD82
:104A2400D5CDD5CDD5CDD5CDD5CDD5CDD5D5D5D562
:104A3400D5CDD5CDD5CDD5CDD5CDD5CDD5CDD5CD62
:104A4400D5CDD5CDD5CDD5CDD5CDD5CDD5CDD5CD52
:104A5400D5CDD5CDD5CDD5CDD5CDD5CDD5CDD5CD42
:104A6400D5CDD5CDD6CDD6CDD6CDD6CDD6CDD5CD2D
:104A7400D5CDD5CDD6CDD6CDD6CDD6CDD6CDD6CD1C
:104A8400D6CDD6CDD6CDD6CDD6CDD6CDD6CDD6CD0A
:104A9400D6CDD6CDD6CDD6CDD6CDF6D5F6D5F6D582
:104AA400F6D5F6D5F6D5D6CDD6CDF6D5F6D5F6D5FA
:104AB400F6D5F6D5F6D5F6D5F6D5F6D5F6D5F6D59A
:104AC400F6D5F6D5F6D5F6D5F6D5F6D5F6CDF6CD9A
:104AD400F6CDF6CDF6CDF6CDF6CDF6CDF6CDF6CDBA
:104AE400F6CDF6CDF6D5F6D5F6D5F6CDF6CDF6CD92
:104AF400F6CDF6CDF6CDF6CDF6CDF6CDF6CDF6CD9A
:104B0400F6CDF6CDF6CDF6CDF6CDD5CDD5CDD5CDEC
:104B140033BD33BD33BD33BD33BD33BD33BD33BD11
:104B240053C553C553C553C553C553C553C553C5C1
:104B340053C553C553C553C553C553C574C574C56F
:104B440074C574C574C574C574C574C574C574C599
:104B540074C574C574C574C574C574C574C574C589
:104B640074C574C574C574C574C574C574C574C579
:104B740074C574C594CD94CD94CD94CD94CD94CD79
:104B840094CD94CD94CD94CD94CD94CD94CD94CD19
:104B940094CD94CD94CD94CD94CD94CD94CD94CD09
:104BA40094CD94CD94CD94CD94CD94CD94CD94CDF9
:104BB40094CD94CD94CD94CD94CD94CD94CD94CDE9
:104BC40094CD94CD94CD94CD94CD94CDB5CDB5CD97
:104BD400B5CD94CD94CD94CDB5CDB5CDB5CDB5CD24
:104BE40094CDB5CDB5CDB5CDB5CDB5CDB5CDB5CDD2
:104BF400D5CDD5CDD5CDF6CD16D6F5CDD5CDD5CD16
:104C0400D5CDD5CDD5CDD5CDD5CDD5CDD5D5D5D580
:104C1400D5CDD5CDD5CDD5CDD5CDD5CDD5CDD5CD80
:104C2400D5CDD5CDD5CDD5CDD5CDD5CDD5CDD5CD70
:104C3400D5CDD5CDD5CDD5CDD5CDD5CDD5CDD5CD60
:104C4400D5CDD5CDD5CDD5CDD6CDD6CDD5CDD5CD4E
:104C5400D5CDD5CDD6CDD6CDD6CDD6CDD6CDD5CD3B
:104C6400D5CDD5CDD6CDD6CDD6CDD6CDD6CDD6CD2A
:104C7400D6CDD6CDD6CDD6CDD6CDF6D5F6D5F6D5A0
:104C8400F6D5F6D5D6CDD6CDD6CDF6D5F6D5F6D540
:104C9400F6D5F6D5F6D5F6D5F6D5F6D5F6D5F6D5B8
:104CA400F6D5F6D5F6D5F6D5F6D5F6D5F6CDF6CDB8
:104CB400F6CDF6CDF6CDF6CDF6CDF6CDF6CDF6CDD8
:104CC400F6CDF6CDF6D5F6D5F6D5F6CDF6CDF6CDB0
:104CD400F6CDF6CDF6CDF6CDF6CDF6CDF6CDF6CDB8
:104CE400F6CDF6CDF6CDD5CDD5CDD5CDD5CDD5CD4D
:104CF40033BD33BD33BD33BD33BD33BD53C553C5E0
:104D040053C553C553C553C553C553C553C553C5DF
:104D140053C553C553C553C553C553C553C574C5AE
:104D240074C574C574C574C574C574C574C574C5B7
:104D340074C574C574C574C574C574C574C574C5A7
:104D440094C594C594C594C574C574C574C574C517
:104D540074C574C594CD94CD94CD94CD94CD94CD97
:104D640094CD94CD94CD94CD94CD94CD94CD94CD37
:104D740094CD94CD94CD94CD94CD94CD94CD94CD27
:104D840094CD94CD94CD94CD94CD94CD94CD94CD17
:104D940094CD94CD94CD94CD94CD94CD94CD94CD07
:104DA40094CD94CD94CD94CD94CD94CD94CDB5CDD6
:104DB400B5CD95CD95CD95CDB5CDB5CDB5CDB5CD3F
:104DC40095CD95CDB5CDB5CDB5D5B5CDB5CDD5CDE7
:104DD400F5CDF6D574DD4FD4EEC373CDF6CDD5CD78
:104DE400D5CDD5CDD5D5D5D5D5D5D5D5D5D5D5D57F
:104DF400D5D5D5D5D5D5D5CDD5CDD5CDD5CDD5CD87
:104E0400D5CDD5CDD5CDD5CDD5CDD5CDD5CDD5CD8E
:104E1400D5CDD5CDD5CDD5CDD5CDD5CDD5CDD5CD7E
:104E2400D5CDD5CDD5CDD5CDD5CDD5CDD5CDD5CD6E
:104E3400D5CDD5CDD6CDD6CDD5CDD5CDD5CDD5CD5C
:104E4400D5CDD5CDD5CDD5CDD5CDD6CDD6CDD6CD4B
:104E5400D6CDD6CDD6CDF6D5F6D5F6D5F6D5F6D56E
:104E6400F6D5F6D5D6CDD6CDD6CDF6D5F6D5F6D55E
:104E7400F6D5F6D5F6D5F6D5F6D5F6D5F6D5F6D5D6
:104E8400F6D5F6D5F6D5F6D5F6D5F6D5F6D5F6D5C6
:104E9400F6D5F6CDF6CDF6CDF6CDF6CDF6CDF6CDEE
:104EA400F6CDF6CDF6D5F6D5F6D5F6D5F6D5F6D5B6
:104EB400F6D5F6CDF6CDF6CDF6CDF6CDF6CDF6CDCE
:104EC400F6CDF6CDF6CDF6CDF6CDD5CDD5CDD5CD29
:104ED40033BD33BD33BD33BD33BD33BD53C553C5FE
:104EE40053C553C553C553C553C553C553C553C5FE
:104EF40053C553C553C553C553C553C553C574C5CD
:104F040074C574C574C574C574C574C574C574C5D5
:104F140074C574C574C574C574C574C574C574C5C5
:104F240094C594C594C594C574C574C574C574C535
:104F340074C574C594CD94CD94CD94CD94CD94CDB5
:104F440094CD94CD94CD94CD94CD94CD94CD94CD55
:104F540094CD94CD94CD94CD94CD94CD94CD94CD45
:104F640094CD94CD94CD94CD94CD94CD94CD94CD35
:104F740094CD94CD94CD94CD94CD94CD94CD94CD25
:104F840094CD94CD94CD94CD94CD94CD94CDB5CDF4
:104F9400B5CD95CD95CD95CDB5CDB5CDB5CDB5CD5D
:104FA400B5CDB5D5B5CDB5CDB5D5B5D5F6D5D5D564
:104FB40071D451E4F4FC29E286D12FCC16D6D5CD98
:104FC400D5CDD5CDD5D5D5D5D5D5D5D5D5D5D5D59D
:104FD400D5D5D5D5D5D5D5CDD5CDD5CDD5CDD5CDA5
:104FE400D5CDD5CDD5CDD5CDD5CDD5CDD5CDD5CDAD
:104FF400D5CDD5CDD5CDD5CDD5CDD5CDD5CDD5CD9D
:10500400D5CDD5CDD5CDD5CDD5CDD5CDD5CDD5CD8C
:10501400D5CDD5CDD6CDD6CDD5CDD5CDD5CDD5CD7A
:10502400D5CDD5CDD5CDD5CDD5CDD6CDD6CDD6CD69
:10503400D6CDD6CDD6CDF6D5F6D5F6D5F6D5F6D58C
:10504400F6D5F6D5D6CDD6CDD6CDF6D5F6D5F6D57C
:10505400F6D5F6D5F6D5F6D5F6D5F6D5F6D5F6D5F4
:10506400F6D5F6D5F6D5F6D5F6D5F6D5F6D5F6D5E4
:10507400F6D5F6CDF6CDF6CDF6CDF6CDF6CDF6CD0C
:10508400F6CDF6CDF6D5F6D5F6D5F6D5F6D5F6D5D4
:10509400F6D5F6CDF6CDF6CDF6CDF6CDF6CDF6CDEC
:1050A400F6CDF6CDF6CDF6CDF6CDD5CDD5CDD5CD47
:1050B40033BD33BD33BD33BD33BD33BD53C553C51C
:1050C40053C553C553C553C553C553C553C553C51C
:1050D40053C553C553C553C553C553C553C574C5EB
:1050E40074C574C574C574C574C574C574C574C5F4
:1050F40074C574C574C574C574C574C574C594C5C4
:1051040094C594C594C574C574C574C574C574C573
:1051140094CD94CD94CD94CD94CD94CD94CD94CD83
:1051240094CD94CD94CD94CD94CD94CD94CD94CD73
:1051340094CD94CD94CD94CD94CD94CD94CD94CD63
:1051440094CD94CD94CD94CD94CD94CD94CD94CD53
:1051540094CD94CD94CD94CD94CD94CD94CD94CD43
:1051640094CD94CD94CD94CD94CD94CDB5CDB5CDF1
:10517400B5CDB5CDB5CDB5CDB5D5B5D5B5D5B5D5FB
:10518400B5D5B5D5B5CDB5CDD5CDF6D5F2D4AACA5C
:1051940087D18BE2F4FC0DF386D94CCBF6D5D5D56B
:1051A400D5D5D5D5D5D5D5D5D5D5D5D5D5D5D5D5AB
:1051B400D5D5D5D5D5D5D5CDD5CDD5CDD5CDD5CDC3
:1051C400D5CDD5CDD5CDD5CDD5CDD5CDD5CDD5CDCB
:1051D400D5CDD5CDD5CDD5CDD5CDD5CDD5CDD6CDBA
:1051E400D6CDD5CDD5CDD5CDD5CDD5CDD5CDD5CDAA
:1051F400D5CDD5CDD6CDD6CDD6CDD6CDD6CDD6CD95
:10520400D6CDD6CDD5CDD5CDD5CDD6CDD6CDD6CD85
:10521400F6D5F6D5F6D5F6D5F6D5F6D5F6D5F6D532
:10522400F6D5F6D5F6D5F6D5F6D5F6D5F6D5F6D522
:10523400F6D5F6D5F6D5F6D5F6D5F6D5F6D5F6D512
:10524400F6D5F6D5F6D5F6D5F6D5F6D5F6D5F6D502
:10525400F6D5F6CDF6CDF6CDF6CDF6CDF6CDF6CD2A
:10526400F6CDF6CDF6D5F6D5F6D5F6D5D6CDF6D51A
:10527400F6D5F6CDF6CDF6CDF6CDF6CDF6CDF6CD0A
:10528400F6CDF6CDF6CDF6CDF6CDD5CDD5CDD5CD65
:1052940053BD53BD33BD53BD53BD53BD53BD53BDAA
:1052A40053BD53BD53BD53C553C553C553C553C552
:1052B40053C553C553C553C553C553C553C553C52A
:1052C40053C574C574C574C574C574C574C574C533
:1052D40074C574C574C574C574C574C574C574C502
:1052E40074C594C594C594C594C594C594C574C532
:1052F40074C574C574C594CD94CD94CD94CD94CD1A
:1053040094CD94CD94CD94CD94CD94CD94CD94CD91
:1053140094CD94CD94CD94CD94CD94CD94CD94CD81
:1053240094CD94CD94CD94CD94CD94CD94CD94CD71
:1053340094CD94CD94CD94CD94CD94CD94CD94CD61
:1053440094CD94CD94CD94CD94CD94CDB5CDB5CD0F
:10535400B5CDB5CDB5CDB5CDB5D5B5D5B5D5B5D519
:10536400B5D5B5D5B5D5F6D5D5D5AEC3A6B985C110
:10537400C6C98ADA93F4F0F3A7E16AD294D5F5CDDD
:10538400D5D5D5CDD5D5D5D5D5D5D5D5D5D5D5D5D1
:10539400D5D5D5D5D5D5D5CDD5CDD5CDD5CDD5CDE1
:1053A400D5CDD5CDD5CDD5CDD5CDD5CDD5CDD5CDE9
:1053B400D5CDD5CDD5CDD5CDD5CDD5CDD5CDD5D5D1
:1053C400D5D5D5CDD5CDD5CDD5CDD5CDD5CDD5CDC1
:1053D400D5CDD5CDD5CDD5CDD5CDD5CDD5CDD6CDB8
:1053E400D6CDD6CDD5CDD5CDD6CDD6CDD6CDD6CDA3
:1053F400D6CDD6CDF6D5F6D5F6D5F6D5F6D5F6D5A1
:10540400F6D5D6CDD6CDD6CDD6CDF6D5F6D5F6D5E0
:10541400F6D5F6D5F6D5F6D5F6D5F6D5F6D5F6D530
:10542400F6D5F6D5F6D5F6D5F6D5F6D5F6D5F6D520
:10543400F6D5F6D5F6D5F6D5F6CDF6CDF6CDF6D528
:10544400F6D5F6D5F6D5F6D5F6D5F6D5F6D5F6D500
:10545400F6D5F6D5F6D5F6CDF6CDF6CDF6CDF6CD18
:10546400F6CDF6CDF6CDF6CDF6CDD5CDD5CDD5CD83
:1054740053BD53BD33BD53BD53BD53BD53BD53BDC8
:1054840053BD53BD53BD53C553C553C553C553C570
:1054940053C553C553C553C553C553C553C553C548
:1054A40053C574C574C574C574C574C574C574C551
:1054B40074C574C574C574C574C574C574C574C520
:1054C40074C594C594C594C594C594C594C574C550
:1054D40074C574C574C594CD94CD94CD94CD94CD38
:1054E40094CD94CD94CD94CD94CD94CD94CD94CDB0
:1054F40094CD94CD94CD94CD94CD94CD94CD94CDA0
:1055040094CD94CD94CD94CD94CD94CD94CD94CD8F
:1055140094CD94CD94CD94CD94CD94CD94CD94CD7F
:1055240094CD94CD94CD94CD94CD94CDB5CDB5CD2D
:10553400B5CDB5CDB5CDB5CDB5D5B5D5B5D5B5D537
:10554400B5D5B5CDF6D573D58ABA04B1A6C1A6C969
:1055540045C908D2CFEBB3FC09EAE8D1F2D416D698
:10556400D5CDD5CDD5D5D5D5D5D5D5D5D5D5D5D5F7
:10557400D5D5D5D5D5D5D5CDD5CDD5CDD5CDD5CDFF
:10558400D5CDD5CDD5CDD5CDD5CDD5CDD5CDD5CD07
:10559400D5CDD5CDD5CDD5CDD5CDD5CDD5CDD5D5EF
:1055A400D5D5D5CDD5CDD5CDD5CDD5CDD5CDD5CDDF
:1055B400D5CDD5CDD5CDD5CDD5CDD5CDD5CDD6CDD6
:1055C400D6CDD6CDD5CDD5CDD6CDD6CDD6CDD6CDC1
:1055D400D6CDD6CDF6D5F6D5F6D5F6D5F6D5F6D5BF
:1055E400F6D5D5CDB5CDD6CDD6CDF6D5F6D5F6D521
:1055F400F6D5F6D5F6D5F6D5F6D5F6D5F6D5F6D54F
:10560400F6D5F6D5F6D5F6D5F6D5F6D5F6D5F6D53E
:10561400F6D5F6D5F6D5F6D5F6CDF6CDF6CDF6D546
:10562400F6D5F6D5F6D5F6D5F6D5F6D5F6D5F6D51E
:10563400F6D5F6D5F6D5F6CDF6CDF6CDF6CDF6CD36
:10564400F6CDF6CDF6CDF6CDF6CDD5CDD5CDD5CDA1
:1056540033BD33BD33BD53BD53BD53BD53BD53BD26
:1056640053BD53BD53BD53C553C553C553C553C58E
:1056740053C553C553C553C553C553C553C553C566
:1056840074C574C574C574C574C574C574C574C54E
:1056940074C574C574C574C574C574C574C574C53E
:1056A40074C594C594C594C594C594C594C574C56E
:1056B40074C574C594CD94CD94CD94CD94CD94CD2E
:1056C40094CD94CD94CD94CD94CD94CD94CD94CDCE
:1056D40094CD94CD94CD94CD94CD94CD94CD94CDBE
:1056E40094CD94CD94CD94CD94CD94CD94CD94CDAE
:1056F40094CD94CD94CD94CD94CD94CD94CD94CD9E
:1057040094CD94CD94CD94CDB5CDB5CDB5CDB5CD09
:10571400B5CDB5CDB5CDB5CDB5D5B5D5B5D5B5CD5D
:10572400D5D516D6F2D4A7B1A3B004B966C165C95C
:1057340086C9C7D16BE2B3FCCBEAA7D90FCC16D686
:10574400D5CDD5D5D5D5D5D5D5D5D5D5D5D5D5D50D
:10575400D5D5D5D5D5D5D5CDD5CDD5CDD5CDD5CD1D
:10576400D5CDD5CDD5CDD5CDD5CDD5CDD5CDD5CD25
:10577400D5CDD5CDD5CDD5CDD5CDD5CDD5CDD5D50D
:10578400D5D5D5CDD5CDD5CDD5CDD5CDD5CDD5CDFD
:10579400D5CDD5CDD5CDD5CDD5CDD5CDD5CDD6CDF4
:1057A400D6CDD6CDD6CDD6CDD6CDF6D5F6D5F6D565
:1057B400F6D5F6D5F6D5F6D5F6D5F6D5F6D5F6D58D
:1057C400F6D5D6CDD5CDD6CDD5CDD6CDF6D5F6D547
:1057D400F6D5F6D5F6D5F6D5F6D5F6D5F6D5F6D56D
:1057E400F6D5F6D5F6D5F6D5F6D5F6D5F6D5F6D55D
:1057F400F6D5F6D5F6D5F6D5F6CDF6CDF6CDF6D565
:10580400F6D5F6D5F6D5F6D5F6D5D6CDD6CDD6CDB4
:10581400D6CDF6D5F6D5F6D5F6CDF6CDF6CDF6CD74
:10582400F6CDF6CDF6CDF6CDF6CDD5CDD5CDD5CDBF
:1058340033BD33BD33BD53BD53BD53BD33BD33BD84
:1058440053BD53BD53BD53BD53C553C553C553C5B4
:1058540053C553C553C553C553C553C553C573C564
:1058640073C574C574C574C574C574C574C574C56D
:1058740074C574C574C574C574C574C574C574C55C
:1058840074C574C574C574C574C574C574C574C54C
:1058940074C574C574C574C574C594CD94CD94CDC4
:1058A40094CD94CD94CD94CD94CD94CD94CD94CDEC
:1058B40094CD94CD94CD94CD94CD94CD94CD94CDDC
:1058C40094CD94CD94CD94CD94CD94CD94CD94CDCC
:1058D40094CD94CD94CD94CD94CD94CD94CD94CDBC
:1058E40094CD94CDB5CDB5CDB5CDB5CDB5CDB5CDE6
:1058F400B5CDB5CDB5CDB5CDB5D5B5D5B5D594D595
:1059040033D5EECB45B183B0E4B004B925B965C154
:10591400C6C986D1C8D9F1F36EF3A7D92BCBF5D577
:10592400F5CDD5D5D5D5D5D5D5D5D5D5D5CDD5CD1B
:10593400D5D5D5D5D5D5D5CDD5CDD5CDD5CDD5CD3B
:10594400D5CDD5CDD5CDD5CDD5CDD5CDD5CDD5CD43
:10595400D5CDD5CDD6CDD5CDD5CDD5CDD5CDD5CD32
:10596400D5CDD5CDD5CDD5CDD5CDD5CDD5CDD5CD23
:10597400D5CDD5CDD5CDD5CDD5CDD5CDD5CDD6CD12
:10598400D5CDD5CDD6CDD6CDD6CDD6CDD6CDF6D5D5
:10599400F6D5F6D5F6D5F6D5F6D5F6D5F6D5F6D5AB
:1059A400F6D5F6D5F6D5D5CD74C5D5CDF6D5F6D57F
:1059B400F6D5F6D5F6D5F6D5F6D5F6D5F6D5F6D58B
:1059C400F6D5F6D5F6D5F6D5F6D5F6D5F6D5F6D57B
:1059D400F6D5F6D5F6D5F6D5F6D5F6D5F6D5F6D56B
:1059E400F6D5F6D5D6CDD6CDD6CDF6D5F6D5F6D5D3
:1059F400F6D5F6D5D6CDD6CDF6CDF6CDF6CDF6CDBB
:105A0400F6CDF6CDF6CDF6CDD5CDD5CDD5CDD5CDFE
:105A140033BD33BD33BD53BD53BD53BD33BD33BDA2
:105A240053BD53BD53BD53BD53C553C553C553C5D2
:105A340053C553C553C553C553C553C553C573C582
:105A440073C553C553C574C574C574C574C574C5CD
:105A540074C574C574C574C574C574C574C574C57A
:105A640074C574C574C574C574C574C574C574C56A
:105A740074C574C574C574C574C594CD94CD94CDE2
:105A840094CD94CD94CD94CD94CD94CD94CD94CD0A
:105A940094CD94CD94CD94CD94CD94CD94CD94CDFA
:105AA40094CD94CD94CD94CD94CD94CD94CD94CDEA
:105AB40094CD94CD94CD94CDB5CD94CD94CD94CDB9
:105AC40094CD94CDB5CDB5CDB5CDB5CDB5CDB5CD04
