:020000040800F2
:100000000080012071190008951800089D1800084B
:10001000A5180008AD180008B51800080000000079
:10002000000000000000000000000000BD180008F3
:10003000CB18000800000000D9180008E9180008D3
:1000400000000000C1190008C1190008C11900080A
:10005000C1190008C1190008C1190008C119000818
:10006000C1190008C1190008C1190008C119000808
:10007000C1190008C1190008C1190008C1190008F8
:10008000C1190008C1190008C119000800000000CA
:10009000000000000000000000000000C11900087E
:1000A000C1190008C1190008C1190008C1190008C8
:1000B000C1190008C1190008C1190008C1190008B8
:1000C000C1190008C1190008C1190008C1190008A8
:1000D000C1190008C1190008C1190008000000007A
:1000E000C1190008C1190008C1190008000000006A
:1000F000000000000000000000000000C11900081E
:1001000000000000C1190008C1190008C119000849
:1001100000000000000000000000000000000000DF
:10012000C1190008C1190008C1190008C119000847
:10013000C1190008000000000000000000000000DD
:10014000000000000000000000000000C1190008CD
:10015000C1190008C1190008C1190008C119000817
:10016000C1190008C11900080000000000000000CB
:10017000000000000000000000000000000000007F
:10018000000000000000000000000000000000006F
:04019000C119000889
:1001A00010B5054C237833B9044B13B10448AFF3B1
:1001B00000800123237010BD6400002000000000B7
:1001C000F422000808B5034B1BB103490348AFF301
:1001D000008008BD0000000068000020F422000834
:1001E00001F0FF01102A2BDB10F0070F08D010F8E8
:1001F000013B013A8B422DD010F0070F42B3F6D1EC
:10020000F0B441EA012141EA014122F007047FF004
:1002100000070023F0E80256083C85EA010586EA5B
:10022000010685FA47F5A3FA87F586FA47F6A5FA97
:1002300087F68EB9EED1F0BC01F0FF0102F00702A3
:1002400032B110F8013B013A83EA010313B1F8D14E
:100250000020704701387047002D06BF354603382F
:10026000073815F0010F07D1013015F4807F02BF68
:10027000013015F4C03F0130F0BC0138704700BFB9
:1002800053B94AB9002908BF00281CBF4FF0FF31FD
:100290004FF0FF3000F088B9ADF1080C6DE904CEE5
:1002A00000F006F8DDF804E0DDE9022304B0704751
:1002B0002DE9F047089D8E4604468846002B4AD11A
:1002C0008A42174662D9B2FA82F64EB1C6F12003CD
:1002D00001FA06F820FA03F3B74043EA0808B440ED
:1002E0004FEA174E1FFA87FCB8FBFEF1230C0EFBFA
:1002F000118843EA084301FB0CF29A4209D9FB1822
:1003000001F1FF3080F0EA809A4240F2E780023942
:100310003B449A1AA3B2B2FBFEF00EFB102243EA52
:10032000024300FB0CFC9C4509D9FB1800F1FF328D
:1003300080F0D6809C4540F2D3803B44023840EAAE
:100340000140A3EB0C0300211DB1F3400022C5E9DD
:100350000032BDE8F0878B4205D90DB1C5E9000137
:1003600000210846F5E7B3FA83F1002946D1734529
:1003700002D3824200F20581841A6EEB030201204F
:100380009046002DE5D0C5E90048E2E7002A00F0DC
:100390009080B2FA82F6002E40F0A4808A1A030CF4
:1003A0004FEA174E80B2BCB20121B2FBFEFC0EFB3D
:1003B0001C2243EA024304FB0CF29A4207D9FB18C1
:1003C0000CF1FF3802D29A4200F2E080C4469B1A38
:1003D000B3FBFEF20EFB123340EA034302FB04F4CC
:1003E0009C4207D9FB1802F1FF3002D29C4200F276
:1003F000CA8002461B1B42EA0C40A5E7C1F1200659
:100400008B4022FA06F71F430EFA01F420FA06F396
:100410002EFA06FE4FEA1749234300FA01F81FFAA5
:1004200087FCBEFBF9F01C0C09FB10EE44EA0E44FD
:1004300000FB0CFEA64502FA01F209D93C1900F1B5
:10044000FF3A80F09C80A64540F2998002383C44F7
:10045000A4EB0E041FFA83FEB4FBF9F309FB13446B
:100460004EEA044403FB0CFCA44508D93C1903F1F3
:10047000FF3E80F08280A4457FD9023B3C4443EAA2
:100480000040A4EB0C04A0FB02EC64457346E1467B
:1004900062D35FD05DB1B8EB030264EB090404FAE8
:1004A00006F622FA01F31E43CC40C5E900640021A0
:1004B0004FE7B1FBF2FC010C41EA0E4180B240EA89
:1004C00001423B4638463C46B846BE462026B1FB74
:1004D000F7F1A2EB080241EA0C4166E7014618E792
:1004E00010462CE7C6F120022EFA02F3B740B140C5
:1004F00020FA02F24FEA174E0A43B3FBFEF8BCB2F1
:100500000EFB1833110C41EA034108FB04F9B0401B
:1005100089454FEA104380B23ED9791808F1FF3C73
:1005200001D289451FD8A1EB0901B1FBFEF909FBF6
:1005300004F80EFB191192B242EA0142424529D257
:10054000BA1809F1FF31C4D24245C2D2A9F1020161
:100550003A44BEE7F0459DD2BEEB02036CEB070CBC
:100560000138E14696E7A7EB09094944A8F1020CD6
:10057000B1FBFEF909FB04F8DBE773467FE7504661
:1005800066E70846FDE63B44023A33E7ACF1020C6D
:100590003B441CE749469CE7A1EB0901C446B1FB7B
:1005A000FEF909FB04F8C4E7704700BF80B400AF50
:1005B000064BD3F88830054A43F47003C2F88830FC
:1005C00000BFBD465DF8047B704700BF00ED00E052
:1005D00080B487B000AF00233B6100237B6102231E
:1005E000FB600023BB6002237B60344B9B6803F0FD
:1005F0000C033B613B69082B11D03B69082B44D8A5
:100600003B69002B03D03B69042B04D03DE02C4B0D
:100610002C4A1A603DE02A4B2B4A1A6039E0274BDE
:100620005B689B0D03F00103BB60244B5B6803F028
:100630003F037B60BB68002B0CD0234A7B68B2FB76
:10064000F3F31E4A52689209C2F3080202FB03F355
:100650007B610BE01B4A7B68B2FBF3F3174A5268DD
:100660009209C2F3080202FB03F37B61134B5B6840
:100670001B0C03F0030301335B00FB607A69FB682A
:10068000B2FBF3F30E4A136003E00D4B0D4A1A6000
:1006900000BF0A4B9B681B0903F00F030B4AD35C96
:1006A0003B61074B1A683B6922FA03F3044A136063
:1006B00000BF1C37BD465DF8047B70470038024020
:1006C000000000200024F40000127A001C2300081F
:1006D00080B483B000AF03463960FB7197F90730EF
:1006E000002B0ADB3B68DAB20C4997F9073012019C
:1006F000D2B20B4483F800230AE03B68DAB208491F
:10070000FB7903F00F03043B1201D2B20B441A76BB
:1007100000BF0C37BD465DF8047B704700E100E088
:1007200000ED00E080B400AF034B1B681846BD46E7
:100730005DF8047B704700BF8000002080B582B068
:1007400000AF7860124B1B68114A23F0010313605D
:100750000F4A7B68013B53600D4B1B680C4A43F00A
:100760000403136007214FF0FF30FFF7B1FF084B80
:100770001B68074A43F002031360054B1B68044AD9
:1007800043F00103136000BF0837BD4680BD00BFC2
:1007900010E000E080B584B000AF7860FFF7C2FFE2
:1007A0000346FB607B68BB6000BFFFF7BBFF0246F0
:1007B000FB68D31ABA689A42F7D800BF00BF103757
:1007C000BD4680BD80B483B000AF78600846114656
:1007D0001A460346FB700B46BB7013467B707B6862
:1007E0004B4A934206D14B4B1B6B4A4A43F00103E1
:1007F000136335E07B68484A934206D1454B1B6B37
:10080000444A43F0020313632AE07B68434A93425D
:1008100006D1404B1B6B3F4A43F0040313631FE0B8
:100820007B683F4A934206D13A4B1B6B394A43F0EF
:100830000803136314E07B683A4A934206D1354BB0
:100840001B6B344A43F01003136309E07B68364A9C
:10085000934205D12F4B1B6B2E4A43F08003136349
:100860007B681A68FB785B00032101FA03F3DB4322
:100870001A407B681A607B681A68FB785B0001216C
:1008800001FA03F31A437B681A607B68DA68FB7825
:100890005B00032101FA03F3DB431A407B68DA6053
:1008A0007B68DB68B978FA78520001FA02F21A43E1
:1008B0007B68DA607B689A68FB785B00032101FA49
:1008C00003F3DB431A407B689A607B689B68797806
:1008D000FA78520001FA02F21A437B689A607B6848
:1008E0005A68FB78032101FA03F3DB431A407B6863
:1008F0005A607B685B68397CFA7801FA02F21A4325
:100900007B685A6000BF0C37BD465DF8047B7047BA
:10091000000002400038024000040240000802408B
:10092000000C024000100240001C024080B485B060
:1009300000AF78600B46FB707B681A68FB785B0041
:1009400022FA03F303F00303012B0CBF012300235E
:10095000DBB2FB737B685A69FB78012101FA03F370
:100960001340002B14BF01230023DBB2BB73FB7BBE
:10097000002B12D0BB7B002B08D0FB781033012258
:1009800002FA03F31A467B689A6106E0FB780122BB
:1009900002FA03F31A467B689A6100BF1437BD461A
:1009A0005DF8047B7047000080B483B000AF7860CE
:1009B000084611461A460346FB700B46BB701346A9
:1009C0007B707B684B4A934206D14B4B1B6B4A4A68
:1009D00043F00103136335E07B68484A934206D134
:1009E000454B1B6B444A43F0020313632AE07B68C8
:1009F000434A934206D1404B1B6B3F4A43F00403EA
:100A000013631FE07B683F4A934206D13A4B1B6B4E
:100A1000394A43F00803136314E07B683A4A93426F
:100A200006D1354B1B6B344A43F01003136309E0C6
:100A30007B68364A934205D12F4B1B6B2E4A43F0FD
:100A4000800313637B681A68FB785B00032101FA5B
:100A500003F3DB431A407B681A607B681A68FB78F3
:100A60005B00022101FA03F31A437B681A607B687A
:100A7000DA68FB785B00032101FA03F3DB431A40D9
:100A80007B68DA607B68DB68B978FA78520001FA33
:100A900002F21A437B68DA607B689A68FB785B0035
:100AA000032101FA03F3DB431A407B689A607B68F9
:100AB0009B687978FA78520001FA02F21A437B684F
:100AC0009A607B685A68FB78032101FA03F3DB43E1
:100AD0001A407B685A607B685B68397CFA7801FA57
:100AE00002F21A437B685A6000BF0C37BD465DF8BE
:100AF000047B7047000002400038024000040240BE
:100B000000080240000C024000100240001C02409D
:100B100080B400AF114B1B68104A43F4007313609C
:100B20000E4B1B680D4A43F4806313600B4B1B682C
:100B30000A4A43F480731360094B5B6C084A43F420
:100B400080435364064B1B6C054A43F08053136487
:100B500000BFBD465DF8047B704700BF003C02400B
:100B60000038024080B500AF0B4B1B680A4A43F0C7
:100B70000103136000BF084B1B6803F00203002B46
:100B8000F9D0054B9B68044A23F003039360FFF7F9
:100B90001FFD00BF80BD00BF0038024080B500AF20
:100BA0000B4B1B680A4A43F4A023136000BF084B99
:100BB0001B6803F40033002BF9D0054B9B68044AF3
:100BC00023F003039360FFF703FD00BF80BD00BF68
:100BD0000038024080B582B000AF0346FB71584B2D
:100BE0001B68574A23F080731360FB79002B30D0C9
:100BF000012B5BD1FFF7D2FF514B5B68504A43F4A6
:100C0000800353604E4B5B684D4A23F03F035360B3
:100C10004B4B5B684A4A43F004035360484B5B68A4
:100C2000474A23F4FF4323F040035360444B5B687F
:100C3000434A43F428535360414B5B68404A23F4D2
:100C4000403353603E4B5B683D4A43F4803353600E
:100C50002DE0FFF787FF3A4B394A5B685360384B0A
:100C60005B68374A23F03F035360354B5B68344A77
:100C700043F008035360324B5B68314A23F4FF436F
:100C800023F0400353602E4B5B682D4A43F42853F6
:100C900053602B4B5B682A4A23F440335360284B44
:100CA0005B68274A43F48033536000E000BF244B65
:100CB0001B68234A43F08073136000BF204B1B68FE
:100CC00003F00073002BF9D01D4B9B681C4A23F4E2
:100CD000604393601A4B1A4A9B689360184B9B6859
:100CE000174A23F4E0539360154B9B68144A43F46E
:100CF00080539360134B1B68124A23F00703136061
:100D0000104B1B680F4A43F0020313600C4B9B68A7
:100D10000B4A23F003039360094B9B68084A43F096
:100D20000203936000BF064B9B6803F00803002B8F
:100D3000F9D0FFF74DFC00BF0837BD4680BD00BFAE
:100D400000380240003C024080B400AF1D4B1B6BDA
:100D50001C4A43F0010313631B4B1B681A4A23F41C
:100D600070131360184B1B68174A43F42013136069
:100D7000154B9B68144A23F470139360124B9B68C5
:100D8000114A43F4701393600F4BDB680E4A23F44F
:100D90007013D3600C4BDB680B4A43F4A013D36091
:100DA000094B5B6A084A23F47F635362064B5B6A14
:100DB000054A43F4EE63536200BFBD465DF8047B11
:100DC000704700BF003802400000024080B400AF0E
:100DD000264B1B6B254A43F001031363234B1B6B0C
:100DE000224A43F001031363214B1B6823F03003B5
:100DF0001F4A43F0200313601D4B1B6823F0C00300
:100E00001B4A43F080031360194B1B6A23F4706381
:100E1000174A43F4E0631362154B1B6A23F47043D3
:100E2000134A43F4E0431362114B9B68104A43F0AA
:100E3000300393600E4B9B680D4A43F0C0039360F0
:100E40000B4BDB6823F03003094A43F01003D360F7
:100E5000074BDB6823F0C003054A43F04003D3602F
:100E600000BFBD465DF8047B704700BF00380240FC
:100E70000000024080B400AF074B1B68074A92682D
:100E8000920A02F0070206498A5CD3401846BD4622
:100E90005DF8047B704700BF00000020003802406E
:100EA0002C23000880B400AF074B1B68074A9268E8
:100EB000520B02F0070206498A5CD3401846BD4631
:100EC0005DF8047B704700BF00000020003802403E
:100ED0002C2300082DE9B04FC0B000AFC7F8F400D4
:100EE000D7F8F4305B68C7F8F830D7F8F4301A68F0
:100EF000A14B9A420CD1A14B5B6CA04A43F010036A
:100F00005364FFF721FFFFF7CDFFC7F8FC0011E0A6
:100F1000D7F8F4301A689A4B9A420BD1974B1B6C56
:100F2000964A43F400331364FFF750FFFFF7A2FF24
:100F3000C7F8FC00D7F8F4301B7A002B09D0D7F89B
:100F4000F4301B68D968D7F8F4301A6841F480533C
:100F5000D360D7F8F4305B7A002B00F01581D7F816
:100F6000F4301B68D968D7F8F4301A6841F40043AC
:100F7000D360D7F8FC300022C7F8E830C7F8EC207F
:100F8000D7E93A4522462B469118B9655B41FB6586
:100F9000D7E91623214612EB0108294643EB010944
:100FA0004FF000024FF000034FEAC90343EA5873C1
:100FB0004FEAC80290469946234618EB0303C7F848
:100FC000E0302B4649EB0303C7F8E430D7F8F8309C
:100FD0000022C7F8D830C7F8DC20D7E936120B4614
:100FE000DB183B65134642EB03037B65D7E914230B
:100FF000D7E93801FFF744F902460B46614BA3FBE2
:1010000002235B091C01D7F8FC300022C7F8D0305E
:10101000C7F8D420D7E9348942464B469118B964C1
:101020005B41FB64D7E91223414612EB010A4946B2
:1010300043EB010B4FF000024FF000034FEACB03EC
:1010400043EA5A734FEACA0292469B4643461AEB5A
:101050000303C7F8C8304B464BEB0303C7F8CC304B
:10106000D7F8F8300022C7F8C030C7F8C420D7E955
:1010700030120B46DB183B64134642EB03037B64E0
:10108000D7E91023D7E93201FFF7FAF802460B46F9
:1010900011463C4BA3FB01235B09642202FB03F3D3
:1010A000CB1ADB0003F13202364BA3FB02235B09B0
:1010B0005B0003F4F8731C44D7F8FC300022C7F837
:1010C000B830C7F8BC20D7E92E8942464B46911864
:1010D000B9635B41FB63D7E90E234146511839637D
:1010E00049464B417B634FF000024FF00003D7E9C4
:1010F0000CAB5946CB00514643EA51735146CA00E6
:1011000010461946034642469B18C7F8B0304B4676
:101110000A4642EB0303C7F8B430D7F8F830002290
:10112000C7F8A830C7F8AC20D7E92A120B46DB185D
:10113000BB62134642EB0303FB62D7E90A23D7E9FC
:101140002C01FFF79DF802460B460E4BA3FB021342
:101150005B09642101FB03F3D31ADB003233094A34
:10116000A2FB03235B0903F00702D7F8F4301B68E6
:1011700022449A600FE100BF001001400038024095
:10118000004400401F85EB51D7F8F4301B68D96844
:10119000D7F8F4301A6821F40043D360D7F8FC3054
:1011A0000022C7F8A030C7F8A420D7E92889424612
:1011B0004B46911839625B417B62D7E9082341466F
:1011C0005418494643EB01054FF000024FF000036D
:1011D000EB0043EA5473E20014461D464346E3180D
:1011E000C7F898304B4645EB0303C7F89C30D7F857
:1011F000F8300022C7F89030C7F894204FF0000272
:101200004FF00003D7E9244529468B00214643EAE5
:10121000917321468A00D7E92601FFF731F802468B
:101220000B468E4BA3FB02235B091C01D7F8FC3055
:101230000022C7F88830C7F88C20D7E922894246B7
:101240004B469118B9615B41FB61D7E906234146E2
:101250005118396149464B417B614FF000024FF014
:101260000003D7E904AB5946CB00514643EA51731A
:101270005146CA0010461946034642469B18C7F815
:1012800080304B460A4642EB0303C7F88430D7F858
:10129000F8300022BB67FA674FF000024FF00003FE
:1012A000D7E91E8949468B00414643EA917341467E
:1012B0008A00D7E92001FEF7E3FF02460B461146FC
:1012C000664BA3FB01235B09642202FB03F3CB1AE9
:1012D0001B013233614AA2FB03235B0903F0F003D5
:1012E0001C44D7F8FC3000223B677A67D7E91C8999
:1012F00042464B469118B9605B41FB60D7E9022337
:1013000041465118396049464B417B604FF000021D
:101310004FF00003D7E900AB5946CB00514643EAF2
:1013200051735146CA0010461946034642469B185F
:10133000BB664B460A4642EB0303FB66D7F8F83020
:1013400000223B667A664FF000024FF00003D7E9B7
:10135000188949468B00414643EA917341468A0009
:10136000D7E91A01FEF78CFF02460B463B4BA3FB65
:1013700002135B09642101FB03F3D31A1B0132330F
:10138000364AA2FB03235B0903F00F02D7F8F430BF
:101390001B6822449A60D7F8F4309B7A002B0AD15C
:1013A000D7F8F4301B681A69D7F8F4301B6822F4B8
:1013B00040521A6119E0D7F8F4309B7A012B0AD118
:1013C000D7F8F4301B681A69D7F8F4301B6842F478
:1013D00080521A6109E0D7F8F4301B681A69D7F80F
:1013E000F4301B6842F400521A61D7F8F430DB7A0B
:1013F000002B18D0D7F8F4301B681A69D7F8F430EE
:101400001B6842F480621A61D7F8F4301B7B002B12
:1014100009D0D7F8F4301B68DA68D7F8F4301B68C5
:1014200042F40072DA60D7F8F4301B68DA68D7F853
:10143000F4301B6842F00C02DA60D7F8F4301B6815
:10144000DA68D7F8F4301B6842F40052DA6000BF63
:1014500007F58077BD46BDE8B08F00BF1F85EB5113
:1014600080B487B000AFF860B9607A600023FB7584
:101470002DE000BFFB681B6803F08003002BF9D050
:10148000FB68DB6803F48053002B15D0BB683B611D
:101490003B691B88C3F30802FB685A60FB68DB6882
:1014A00003F48063002B03D1BB680233BB600BE005
:1014B000BB680133BB6007E0BB681B781A46FB685A
:1014C0005A60BB680133BB60FB7D0133FB75FB7D5C
:1014D0007A689A42CDD800BFFB681B6803F04003CE
:1014E000002BF9D000BF1C37BD465DF8047B704768
:1014F00080B582B002AFFFF70BFB0020FFF76AFB5D
:101500002C4B1B682C4AA2FB03239B091846FFF7B0
:1015100015F92A4800F026F9002300930123002240
:101520000A212748FFF74EF92648FFF7D3FC00F0C1
:1015300057F800F06BF8244B5B8807EE903AF8EE12
:10154000677AB5EE007A67EE877A204BC3ED007AB2
:101550001E4BD3ED007AFCEEE77A17EE903A9BB281
:1015600019461A4BD3ED007AFCEEE77A17EE903A63
:101570009BB203F0030213469B0013449A001344EA
:101580000A461349134800F01DFA0346DAB2124B1B
:101590001A70114B1B781A460E491048FFF760FF6E
:1015A0000A210748FFF7C2F940F2EE20FFF7F2F8F0
:1015B00000BFBEE700000020D34D621000300140A4
:1015C0000000024004000020F400002088000020F9
:1015D0000C230008900000208C00002000440040F4
:1015E00080B582B002AF00230093032300220921BB
:1015F0000448FFF7E7F8044B01221A6000BFBD461C
:1016000080BD00BF00000240A402404280B582B00D
:1016100000AF00237B60294B00221A600222284978
:10162000284800F0E7F8254B01221A60244B1B786C
:101630001B02234A527813437B607B68DB0BDBB2CF
:1016400003F00103DAB2204B1A707B68DB089BB20F
:10165000C3F30B039AB21C4B5A807B689B08DBB226
:1016600003F00103DAB2184B1A717B685B08DBB236
:1016700003F00103DAB2144B5A717B68DBB203F05A
:101680000103DAB2104B9A710F4B1B78002B01D07B
:1016900000230FE00C4B1B79002B01D0012309E044
:1016A000094B1B79002B01D0022303E0FA20FFF73E
:1016B00071F8002318460837BD4680BDA402404299
:1016C0008400002000300140F400002080B582B08A
:1016D00002AF224B1B6B214A43F00103136300232B
:1016E00000930323002205211D48FFF75DF91C4BE1
:1016F0001B6A1B4A23F470031362194B1B6A184AB6
:1017000043F4A00313620023009303230022062165
:101710001348FFF749F9124B1B6A114A23F0706313
:1017200013620F4B1B6A0E4A43F0A063136200233F
:1017300000930323002207210948FFF735F9084BDE
:101740001B6A074A23F070431362054B1B6A044A65
:1017500043F0A043136200BFBD4680BD0038024085
:101760000000024080B582B000AF7860204B5B6C17
:101770001F4A43F480535364FFF7A8FF7B681B683C
:1017800023F038027B681A607B681B6843F03802DC
:101790007B681A607B681B6823F003027B681A6011
:1017A0007B681B6823F400627B681A607B681B6897
:1017B00023F080027B681A607B681B6843F4007228
:1017C0007B681A607B681B6843F480727B681A60D0
:1017D0007B681B6843F004027B681A607B681B68A7
:1017E00043F040027B681A6000BF0837BD4680BDE9
:1017F0000038024080B485B000AFF860B9607A600C
:1018000038E000BFFB689B6803F00203002BF9D0AF
:10181000FB681B6803F40063002B16D0FB684FF6CF
:10182000FF72DA6000BFFB689B6803F00103002BC6
:10183000F9D0FB68DB689AB2BB681A807B68023B10
:101840007B60BB680133BB6014E0FB68FF22DA6099
:1018500000BFFB689B6803F00103002BF9D0FB6815
:10186000DB68DAB2BB681A70BB680133BB607B68A7
:10187000013B7B607B68002BC3D100BFFB689B688A
:1018800003F08003002BF9D100BF1437BD465DF88B
:10189000047B704780B400AF00BFFDE780B400AFA9
:1018A00000BFFDE780B400AF00BFFDE780B400AF2C
:1018B00000BFFDE780B400AF00BFFDE780B400AF1C
:1018C00000BFBD465DF8047B704780B400AF00BF29
:1018D000BD465DF8047B704780B400AF00BFBD46D5
:1018E0005DF8047B7047000080B400AF044B1B68B8
:1018F0000133034A136000BFBD465DF8047B7047A7
:101900008000002080B586B000AF7860144A154B87
:10191000D31A7B617B693B61134B1B68002B02D19F
:10192000114B124A1A60104B1A687B6813443A69CB
:101930009A4207D200F068F803460C221A604FF072
:10194000FF3309E0084B1B68FB60074B1A687B6894
:101950001344054A1360FB6818461837BD4680BD1E
:101960000080012000040000FC000020480200204C
:101970000D488546FEF71AFE0C480D490D4A002316
:1019800002E0D458C4500433C4188C42F9D30A4A34
:101990000A4C002301E013600432A242FBD300F0A2
:1019A00039F8FFF7A5FDFEE70080012000000020C8
:1019B0006400002078230008640000204802002012
:1019C000FEE700000EB410B59DB01FAB029006906C
:1019D0006FF000410A48079104910A4953F8042B1B
:1019E0000591002402A9006801931B9400F08CF972
:1019F000029B1C701DB0BDE8104003B0704700BFD3
:101A0000140000200802FFFF014B1868704700BF58
:101A10001400002070B50D4D0D4C641BA410002661
:101A2000A64209D10B4D0C4C00F064FC641BA410C1
:101A30000026A64205D170BD55F8043B98470136F3
:101A4000EEE755F8043B98470136F2E770230008AB
:101A50007023000870230008742300087047704743
:101A600038B50546002941D051F8043C0C1F002B25
:101A7000B8BFE41800F0E0F81D4A136833B963609A
:101A800014602846BDE8384000F0DCB8A34208D90D
:101A9000206821188B4201BF19685B680918216012
:101AA000EDE71A465B680BB1A342FAD911685018EA
:101AB000A0420BD120680144501883421160E0D14C
:101AC00018685B68536008441060DAE702D90C2399
:101AD0002B60D6E7206821188B4204BF19685B6829
:101AE000636004BF091821605460CAE738BD00BFB5
:101AF0004402002070B50F4E0C463168054611B9FE
:101B000000F0A4FB30602146284600F09FFB431CF8
:101B100003D14FF0FF34204670BDC41C24F00304F1
:101B2000A042F8D0211A284600F090FB0130F2D1F3
:101B3000EFE700BF400200202DE9F843CD1C25F05F
:101B4000030508350C2D38BF0C25002D064601DB9A
:101B5000A94204D90C2333600020BDE8F883DFF8E4
:101B6000D48000F069F8D8F800301C4644BB294600
:101B70003046FFF7BFFF431C044658D1D8F8004059
:101B80002746002F43D1002C4BD0236839463046DE
:101B900004EB030900F05AFB814542D121686D1A1C
:101BA00029463046FFF7A6FF01303AD023682B4480
:101BB0002360D8F800305A6862BBC8F800700FE0A4
:101BC0002268521B20D40B2A17D96119A342256021
:101BD00018BF5960636808BFC8F8001062514B60B5
:101BE000304600F02FF804F10B00231D20F0070011
:101BF000C21A1CBF1B1AA350AFE76268A3420CBFF6
:101C0000C8F800205A60EBE723466468AEE73C461C
:101C10007F68B6E71A465B68A342FBD10023536096
:101C2000DEE70C233360304600F00CF894E70560E3
:101C3000D6E700BF440200200148FFF70FBF00BFF6
:101C40003C0200200148FFF70ABF00BF3C02002011
:101C50002DE9F0478E681F46BE420B6882460C464F
:101C600090462DD8B1F90C2012F4906F26D06569FA
:101C7000096905EB4505A3EB010905EBD5757B1C4F
:101C80004B446D109D4238BF1D46530527D529464C
:101C9000FFF752FF064660B321694A4600F0E6FAB4
:101CA000A38923F4906343F08003A38126616561D7
:101CB0004E44A5EB09052660A5603E46BE4200D90C
:101CC0003E4620683246414600F0A6FAA3689B1BB8
:101CD000A3602368334423600020BDE8F0872A46D0
:101CE00000F0D2FA06460028E0D121695046FFF7FD
:101CF000B7FE0C23CAF80030A38943F04003A38148
:101D00004FF0FF30E9E700002DE9F04F98468B894E
:101D10001B069DB007460D46144610D50B6973B9D6
:101D20004021FFF709FF2860286130B90C233B6090
:101D30004FF0FF301DB0BDE8F08F40236B610023F2
:101D4000099320238DF82930CDF80C803023DFF85B
:101D50009C818DF82A304FF0010923469A4613F8EA
:101D6000012B0AB1252AF9D1BAEB040B0BD05B4643
:101D7000224629463846FFF76BFF013000F0A78066
:101D8000099A5A4409929AF80030002B00F09F807B
:101D900000234FF0FF32CDE905230AF1010A049335
:101DA00007938DF853301A935446052214F8011BFB
:101DB0004E48FEF715FA049AD8B9D00644BF20233E
:101DC0008DF85330110744BF2B238DF853309AF808
:101DD00000302A2B15D0079A544600204FF00A0CE9
:101DE000214611F8013B303B092B4BD9B0B107928A
:101DF00014E0A0EB080309FA03F313430493A2468B
:101E0000D2E7039B191D1B680391002BBBBF5B42EC
:101E100042F0020207930793B8BF049223782E2B57
:101E20000AD163782A2B32D1039B1A1D1B680392B7
:101E300043EAE37302340593DFF8C0A0217803225C
:101E40005046FEF7CDF938B1049BA0EB0A004022C2
:101E5000824013430134049314F8011B24488DF885
:101E600028100622FEF7BCF9002836D0214B1BBBF8
:101E7000039B073323F0070308330393099B334481
:101E800009936AE70CFB02320C460120A8E7002305
:101E90000134059319464FF00A0C204610F8012B27
:101EA000303A092A03D9002BC6D00591C4E70CFBB0
:101EB000012104460123F0E703AB00932A460E4BB1
:101EC00004A93846AFF30080421C0646D6D1AB8940
:101ED0005B063FF52DAF09982CE703AB00932A462C
:101EE000054B04A9384600F079F8EDE734230008E3
:101EF0003E23000800000000511C00083A2300089F
:101F00002DE9F047164698468A680B69DDF820905F
:101F10009342B8BF1346336091F8432007460C46FE
:101F20000AB1013333602368990642BF3368023334
:101F30003360256815F0060506D104F1190AE36837
:101F400032689B1AAB4226DC94F843302268003B8F
:101F500018BF012392062BD404F1430241463846B0
:101F6000C84701301ED02368226903F00603042B02
:101F700002BFE5683368ED1AA3680CBF25EAE57572
:101F800000259342C4BF9B1AED1800261A34B542AF
:101F90001AD1002008E00123524641463846C8477E
:101FA000013003D14FF0FF30BDE8F0870135C6E7BF
:101FB000E1185A1C302081F84300224494F845105F
:101FC00082F843100233C7E70123224641463846D0
:101FD000C8470130E6D00136D9E700002DE9FF47B8
:101FE0000F7E0C9E782F914680460C469A4601F152
:101FF000430207D8622F0AD8002F00F0D180582F53
:1020000000F0B88004F1420684F842703AE0A7F18B
:102010006303152BF6D801A151F823F075200008B1
:102020008920000805200008052000080520000878
:102030000520000889200008052000080520000868
:10204000052000080520000887210008B3200008AB
:10205000412100080520000805200008A9210008EA
:1020600005200008B320000805200008052000080E
:102070004921000833681A1D1B68326004F14206CA
:1020800084F8423001239CE033682068191D3160D8
:10209000060601D51D6803E04506FBD5B3F90050DF
:1020A000002D03DA2D236D4284F8433058480A236B
:1020B00011E021683368080653F8045B02D449062E
:1020C00048BFADB26F2F5248336014BF0A230823B4
:1020D000002184F843106668A660002E05DB2168A5
:1020E0002E4321F0040121604BD01646B5FBF3F1DD
:1020F00003FB1157C75D06F8017D2F46BB420D4615
:10210000F4D9082B0BD12368DF0708D52369616850
:102110009942DEBF302306F8013C06F1FF36921BE0
:102120002261CDF800A04B4603AA21464046FFF7A6
:10213000E7FE01304AD14FF0FF3004B0BDE8F08730
:10214000236843F0200323603248782784F84570E1
:10215000236831681F0651F8045B02D45F0648BF4C
:10216000ADB23160D90744BF43F0200323601DB1F5
:102170001023ADE72648E9E7236823F02003236016
:10218000F6E71646BDE7336825686169181D3060BB
:102190002E061B6801D5196002E06806FBD5198080
:1021A000002323611646BCE733681A1D32601E689F
:1021B000626800213046FEF713F808B1801B6060AA
:1021C00063682361002384F84330AAE72369324619
:1021D00049464046D0470130ADD023689B0713D411
:1021E000E068039B9842B8BF1846A6E70123324631
:1021F00049464046D04701309DD00135E3680399F8
:102200005B1AAB42F2DCEBE7002504F11906F5E7B7
:102210004523000856230008884210B501EB02044C
:1022200002D98442234607D8431EA14208D011F8A0
:10223000012B03F8012FF8E7024401468A4200D13E
:1022400010BD13F8014D02F8014DF7E738B5064D02
:102250000023044608462B60FFF754FB431C02D1C1
:102260002B6803B1236038BD380200200A44914234
:1022700000F1FF3300D1704710B511F8014B03F89E
:10228000014F9142F9D110BD2DE9F04107461446A6
:102290000D4621B9BDE8F0411146FFF74DBC2AB902
:1022A000FFF7DEFB25462846BDE8F08100F01AF86E
:1022B0008442064602D8B4EB500FF4D82146384683
:1022C000FFF73AFC804608B94546ECE7B44222469F
:1022D000294628BF3246FFF7C9FF29463846FFF78F
:1022E000BFFBF1E751F8043C181F002BBCBF0B5893
:1022F000C0187047F8B500BFF8BC08BC9E467047D0
:0C230000F8B500BFF8BC08BC9E46704752
:10230C0054656D70203D2025752E25750D0A000035
:10231C000000000000000000010203040607080989
:10232C000000000001020304232D302B2000686CF8
:10233C004C006566674546470030313233343536DC
:10234C003738394142434445460030313233343515
:0C235C0036373839616263646566000042
:0823680078DEFF7F0100000098
:04237000C50100089B
:04237400A1010008BB
:102378000024F4000044004000C2010000000000F6
:1023880000010000180000200000000000010020EB
:1023980068010020D00100200000000000000000BB
:1023A8000000000000000000000000000000000025
:1023B8000000000000000000000000000000000015
:1023C8000000000000000000000000000000000005
:0423D8000000000001
:040000050800197165
:00000001FF
