:020000040800F2
:1000000000800120151C0008511A0008591A000828
:10001000611A0008691A0008711A0008000000003F
:10002000000000000000000000000000F1280008AF
:10003000791A000800000000712B0008D92B000875
:1000400000000000651C0008651C0008651C000815
:10005000651C0008651C0008651C0008651C00087C
:10006000651C0008651C0008651C0008651C00086C
:10007000651C0008651C0008651C0008651C00085C
:10008000651C0008651C0008651C000800000000D5
:10009000000000000000000000000000651C0008D7
:1000A000651C0008651C0008651C0008651C00082C
:1000B000651C0008651C0008651C0008651C00081C
:1000C000651C0008651C0008651C0008651C00080C
:1000D000651C0008651C0008651C00080000000085
:1000E000651C0008651C0008651C00080000000075
:1000F000000000000000000000000000651C000877
:1001000000000000651C0008651C0008651C000854
:1001100000000000000000000000000000000000DF
:10012000651C0008651C0008651C0008651C0008AB
:10013000651C000800000000000000000000000036
:10014000000000000000000000000000651C000826
:10015000651C0008651C0008651C0008651C00087B
:10016000651C0008651C000800000000000000007D
:10017000000000000000000000000000000000007F
:10018000000000000000000000000000000000006F
:04019000651C0008E2
:1001A00010B5054C237833B9044B13B10448AFF3B1
:1001B00000800123237010BDE0010020000000003A
:1001C000C459000808B5034B1BB103490348AFF3FA
:1001D000008008BD00000000E4010020C4590008B0
:1001E00001F0FF01102A2BDB10F0070F08D010F8E8
:1001F000013B013A8B422DD010F0070F42B3F6D1EC
:10020000F0B441EA012141EA014122F007047FF004
:1002100000070023F0E80256083C85EA010586EA5B
:10022000010685FA47F5A3FA87F586FA47F6A5FA97
:1002300087F68EB9EED1F0BC01F0FF0102F00702A3
:1002400032B110F8013B013A83EA010313B1F8D14E
:100250000020704701387047002D06BF354603382F
:10026000073815F0010F07D1013015F4807F02BF68
:10027000013015F4C03F0130F0BC0138704700BFB9
:10028000034613F8012B002AFBD1181A01387047D6
:1002900081F0004102E000BF83F0004330B54FEA37
:1002A00041044FEA430594EA050F08BF90EA020FA4
:1002B0001FBF54EA000C55EA020C7FEA645C7FEA37
:1002C000655C00F0E2804FEA5454D4EB5555B8BF5A
:1002D0006D420CDD2C4480EA020281EA030382EACB
:1002E000000083EA010180EA020281EA0303362D5D
:1002F00088BF30BD11F0004F4FEA01314FF4801C30
:100300004CEA113102D0404261EB410113F0004F41
:100310004FEA03334CEA133302D0524263EB4303F8
:1003200094EA050F00F0A780A4F10104D5F1200E96
:100330000DDB02FA0EFC22FA05F2801841F10001F1
:1003400003FA0EF2801843FA05F359410EE0A5F1C5
:1003500020050EF1200E012A03FA0EFC28BF4CF0F6
:10036000020C43FA05F3C01851EBE37101F00045AC
:1003700007D54FF0000EDCF1000C7EEB00006EEBB9
:100380000101B1F5801F1BD3B1F5001F0CD3490843
:100390005FEA30004FEA3C0C04F101044FEA44529A
:1003A00012F5800F80F09A80BCF1004F08BF5FEA21
:1003B000500C50F1000041EB045141EA050130BD01
:1003C0005FEA4C0C404141EB0101013C28BFB1F513
:1003D000801FE9D291F0000F04BF01460020B1FA5E
:1003E00081F308BF2033A3F10B03B3F120020CDA31
:1003F0000C3208DD02F1140CC2F10C0201FA0CF00F
:1004000021FA02F10CE002F11402D8BFC2F1200C73
:1004100001FA02F120FA0CFCDCBF41EA0C01904029
:10042000E41AA2BF01EB0451294330BD6FEA040472
:100430001F3C1CDA0C340EDC04F11404C4F120025D
:1004400020FA04F001FA02F340EA030021FA04F36F
:1004500045EA030130BDC4F10C04C4F1200220FAC6
:1004600002F001FA04F340EA0300294630BD21FA04
:1004700004F0294630BD94F0000F83F4801306BFCA
:1004800081F480110134013D4EE77FEA645C18BFBE
:100490007FEA655C29D094EA050F08BF90EA020F55
:1004A00005D054EA000C04BF1946104630BD91EA4D
:1004B000030F1EBF0021002030BD5FEA545C05D150
:1004C0004000494128BF41F0004130BD14F580048F
:1004D0003CBF01F5801130BD01F0004545F0FE4103
:1004E00041F470014FF0000030BD7FEA645C1ABF38
:1004F000194610467FEA655C1CBF0B46024650EA6F
:10050000013406BF52EA033591EA030F41F400219A
:1005100030BD00BF90F0000F04BF0021704730B520
:100520004FF4806404F132044FF000054FF00001F5
:1005300050E700BF90F0000F04BF0021704730B5B6
:100540004FF4806404F1320410F0004548BF40428B
:100550004FF000013EE700BF42004FEAE2014FEAE0
:1005600031014FEA02701FBF12F07F4393F07F4FBB
:1005700081F06051704732F07F4208BF704793F0BE
:100580007F4F04BF41F40021704730B54FF46074D1
:1005900001F0004521F000411CE700BF50EA0102D4
:1005A00008BF704730B54FF000050AE050EA01027D
:1005B00008BF704730B511F0004502D5404261EBED
:1005C00041014FF4806404F132045FEA915C3FF42E
:1005D000D8AE4FF003025FEADC0C18BF03325FEACB
:1005E000DC0C18BF033202EBDC02C2F1200300FA7C
:1005F00003FC20FA02F001FA03FE40EA0E0021FAA1
:1006000002F11444BDE600BF70B54FF0FF0C4CF48E
:10061000E06C1CEA11541DBF1CEA135594EA0C0F40
:1006200095EA0C0F00F0DEF82C4481EA030621EA7B
:100630004C5123EA4C5350EA013518BF52EA0335B6
:1006400041F4801143F4801338D0A0FB02CE4FF068
:100650000005E1FB02E506F00042E0FB03E54FF098
:100660000006E1FB03569CF0000F18BF4EF0010E90
:10067000A4F1FF04B6F5007F64F5407404D25FEA8C
:100680004E0E6D4146EB060642EAC62141EA55513F
:100690004FEAC52040EA5E504FEACE2EB4F1FD0C81
:1006A00088BFBCF5E06F1ED8BEF1004F08BF5FEAFF
:1006B000500E50F1000041EB045170BD06F00046B1
:1006C00046EA010140EA020081EA0301B4EB5C045E
:1006D000C2BFD4EB0C0541EA045170BD41F4801156
:1006E0004FF0000E013C00F3AB8014F1360FDEBF7B
:1006F000002001F0004170BDC4F10004203C35DA57
:100700000C341BDC04F11404C4F1200500FA05F3D9
:1007100020FA04F001FA05F240EA020001F000427A
:1007200021F0004110EBD37021FA04F642EB0601F0
:100730005EEA430E08BF20EAD37070BDC4F10C041A
:10074000C4F1200500FA04F320FA05F001FA04F2DE
:1007500040EA020001F0004110EBD37041F10001CA
:100760005EEA430E08BF20EAD37070BDC4F12005D5
:1007700000FA05F24EEA020E20FA04F301FA05F23D
:1007800043EA020321FA04F001F0004121FA04F2E5
:1007900020EA020000EBD3705EEA430E08BF20EAB5
:1007A000D37070BD94F0000F0FD101F000464000EF
:1007B00041EB010111F4801F08BF013CF7D041EA71
:1007C000060195F0000F18BF704703F00046520075
:1007D00043EB030313F4801F08BF013DF7D043EA46
:1007E0000603704794EA0C0F0CEA135518BF95EAFC
:1007F0000C0F0CD050EA410618BF52EA4306D1D183
:1008000081EA030101F000414FF0000070BD50EAA1
:10081000410606BF1046194652EA430619D094EA2B
:100820000C0F02D150EA013613D195EA0C0F05D115
:1008300052EA03361CBF104619460AD181EA030169
:1008400001F0004141F0FE4141F470014FF0000021
:1008500070BD41F0FE4141F4780170BD70B54FF0BC
:10086000FF0C4CF4E06C1CEA11541DBF1CEA13553C
:1008700094EA0C0F95EA0C0F00F0A7F8A4EB05041E
:1008800081EA030E52EA03354FEA013100F0888015
:100890004FEA03334FF0805545EA131343EA1263DE
:1008A0004FEA022245EA111545EA10654FEA002693
:1008B0000EF000419D4208BF964244F1FD0404F54C
:1008C000407402D25B084FEA3202B61A65EB0305A8
:1008D0005B084FEA32024FF480104FF4002CB6EB65
:1008E000020E75EB030E22BFB61A754640EA0C00E5
:1008F0005B084FEA3202B6EB020E75EB030E22BF25
:10090000B61A754640EA5C005B084FEA3202B6EB65
:10091000020E75EB030E22BFB61A754640EA9C0024
:100920005B084FEA3202B6EB020E75EB030E22BFF4
:10093000B61A754640EADC0055EA060E18D04FEAB2
:10094000051545EA16754FEA06164FEAC30343EA52
:1009500052734FEAC2025FEA1C1CC0D111F4801F1F
:100960000BD141EA00014FF000004FF0004CB6E718
:1009700011F4801F04BF01430020B4F1FD0C88BFB7
:10098000BCF5E06F3FF6AFAEB5EB030C04BFB6EBC2
:10099000020C5FEA500C50F1000041EB045170BDB5
:1009A0000EF0004E4EEA113114EB5C04C2BFD4EBE2
:1009B0000C0541EA045170BD41F480114FF0000E66
:1009C000013C90E645EA060E8DE60CEA135594EAE2
:1009D0000C0F08BF95EA0C0F3FF43BAF94EA0C0FE5
:1009E0000AD150EA01347FF434AF95EA0C0F7FF45A
:1009F00025AF104619462CE795EA0C0F06D152EAAE
:100A000003353FF4FDAE1046194622E750EA410691
:100A100018BF52EA43067FF4C5AE50EA41047FF4A2
:100A20000DAF52EA43057FF4EBAE12E74FF0FF3C07
:100A300006E000BF4FF0010C02E000BF4FF0010CD8
:100A40004DF804CD4FEA410C7FEA6C5C4FEA430C51
:100A500018BF7FEA6C5C1BD001B050EA410C0CBFA0
:100A600052EA430C91EA030F02BF90EA020F002002
:100A7000704710F1000F91EA030F58BF994208BF69
:100A800090422CBFD8176FEAE37040F00100704726
:100A90004FEA410C7FEA6C5C02D150EA013C07D17D
:100AA0004FEA430C7FEA6C5CD6D152EA033CD3D0C8
:100AB0005DF8040B704700BF8446104662468C46C2
:100AC0001946634600E000BF01B5FFF7B7FF0028F5
:100AD00048BF10F1000F01BD4DF808EDFFF7F4FF1E
:100AE0000CBF012000205DF808FB00BF4DF808EDA9
:100AF000FFF7EAFF34BF012000205DF808FB00BFCC
:100B00004DF808EDFFF7E0FF94BF012000205DF8ED
:100B100008FB00BF4DF808EDFFF7CEFF94BF0120A2
:100B200000205DF808FB00BF4DF808EDFFF7C4FF9B
:100B300034BF012000205DF808FB00BF4FEA410CE4
:100B40007FEA6C5C02D150EA013C0AD14FEA430CC7
:100B50007FEA6C5C02D152EA033C02D14FF0000004
:100B600070474FF0010070474FEA410212F5001242
:100B700015D211D56FF47873B3EB625212D94FEAE4
:100B8000C12343F0004343EA505311F0004F23FACE
:100B900002F018BF404270474FF00000704750EA23
:100BA000013005D111F0004008BF6FF000407047E0
:100BB0004FF00000704700BF53B94AB9002908BF81
:100BC00000281CBF4FF0FF314FF0FF3000F088B914
:100BD000ADF1080C6DE904CE00F006F8DDF804E094
:100BE000DDE9022304B070472DE9F047089D0F4668
:100BF00004468C46002B48D18A42164661D9B2FA87
:100C000082F34BB1C3F1200201FA03FC20FA02F295
:100C10009E4042EA0C0C9C404FEA164EB7B2BCFB19
:100C2000FEF1220C0EFB11CC42EA0C4201FB07F054
:100C3000904209D9B21801F1FF3C80F0EE80904259
:100C400040F2EB8002393244121AA4B2B2FBFEF039
:100C50000EFB102244EA024400FB07F7A74209D921
:100C6000341900F1FF3280F0DA80A74240F2D780D9
:100C70003444023840EA0140E41B00211DB1DC404D
:100C80000023C5E90043BDE8F0878B4206D90DB1CA
:100C9000C5E9000100210846BDE8F087B3FA83F1F9
:100CA000002948D1BB4202D3824200F20781841A54
:100CB00067EB030201209446002DE4D0C5E9004C07
:100CC000E1E7002A00F09280B2FA82F3002B40F0B4
:100CD000A8808A1A4FEA164E1FFA86FC0121200CC2
:100CE000B2FBFEF70EFB172240EA02420CFB07F0B4
:100CF000904207D9B21807F1FF3802D2904200F2B1
:100D0000E2804746121AA4B2B2FBFEF00EFB10229C
:100D100044EA02440CFB00FCA44507D9341900F155
:100D2000FF3202D2A44500F2CB801046A4EB0C04A3
:100D300040EA0740A2E7C1F120068B4022FA06FCF8
:100D40004CEA030C07FA01F420FA06F3F7404FEAE5
:100D50001C49234300FA01F81FFA8CFEB7FBF9F097
:100D60001C0C09FB107744EA074400FB0EF7A7426E
:100D700002FA01F20AD91CEB040400F1FF3A80F0F8
:100D80009B80A74240F2988002386444E41B9FB2E3
:100D9000B4FBF9F309FB134447EA044403FB0EFEDA
:100DA000A64509D91CEB040403F1FF3780F08280CB
:100DB000A6457FD9023B644443EA0040A4EB0E04FD
:100DC000A0FB02E7BC427346B94663D360D05DB175
:100DD000B8EB030264EB090404FA06F622FA01F305
:100DE0001E43CC40C5E9006400214CE76208480876
:100DF00042EAC1710B0C43EA00438AB242EA034261
:100E0000B3FBF6F1E407B4463746B6461F23B0FB02
:100E1000F6F0D21B41EA004161E7614614E7104653
:100E200028E7C3F1200120FA01F29E4027FA01F1E0
:100E30009F403A434FEA164E1FFA86FCB1FBFEF77D
:100E40000EFB1710110C41EA004107FB0CF8884516
:100E500004FA03F43AD9711807F1FF3001D288453A
:100E60001FD8A1EB0801B1FBFEF808FB0CF70EFB45
:100E7000181192B242EA0142BA422FD2B21808F1D6
:100E8000FF31C6D2BA42C4D2A8F102013244C0E74F
:100E9000F0459CD2BEEB020367EB0C070138B94664
:100EA00095E7A6EB08084144B81EB1FBFEF808FB25
:100EB0000CF7DCE73B467FE7504667E70846FBE672
:100EC0003444023832E7023F32441BE7A1EB080109
:100ED0003846B1FBFEF808FB0CF7C8E7414698E737
:100EE000704700BF80B400AF064BD3F88830054A86
:100EF00043F47003C2F8883000BFBD465DF8047B40
:100F0000704700BF00ED00E080B483B000AF7860B0
:100F1000084611461A460346FB700B46BB70134643
:100F20007B707B684B4A934206D14B4B1B6B4A4A02
:100F300043F00103136335E07B68484A934206D1CE
:100F4000454B1B6B444A43F0020313632AE07B6862
:100F5000434A934206D1404B1B6B3F4A43F0040384
:100F600013631FE07B683F4A934206D13A4B1B6BE9
:100F7000394A43F00803136314E07B683A4A93420A
:100F800006D1354B1B6B344A43F01003136309E061
:100F90007B68364A934205D12F4B1B6B2E4A43F098
:100FA000800313637B681A68FB785B00032101FAF6
:100FB00003F3DB431A407B681A607B681A68FB788E
:100FC0005B00012101FA03F31A437B681A607B6816
:100FD000DA68FB785B00032101FA03F3DB431A4074
:100FE0007B68DA607B68DB68B978FA78520001FACE
:100FF00002F21A437B68DA607B689A68FB785B00D0
:10100000032101FA03F3DB431A407B689A607B6893
:101010009B687978FA78520001FA02F21A437B68E9
:101020009A607B685A68FB78032101FA03F3DB437B
:101030001A407B685A607B685B68397CFA7801FAF1
:1010400002F21A437B685A6000BF0C37BD465DF858
:10105000047B704700000240003802400004024058
:1010600000080240000C024000100240001C024038
:1010700080B485B000AF78600B46FB701346BB7040
:101080007B681A68FB785B0022FA03F303F0030322
:10109000012B0CBF01230023DBB2FB73FB7B002B76
:1010A00016D0BB78002B09D07B689B69FA780121A8
:1010B00001FA02F21A437B689A6109E07B689B6936
:1010C000FA781032012101FA02F21A437B689A6120
:1010D00000BF1437BD465DF8047B704780B485B00F
:1010E00000AF78600B46FB707B681A68FB785B008A
:1010F00022FA03F303F00303012B0CBF01230023A7
:10110000DBB2FB737B685A69FB78012101FA03F3B8
:101110001340002B14BF01230023DBB2BB73FB7B06
:10112000002B12D0BB7B002B08D0FB7810330122A0
:1011300002FA03F31A467B689A6106E0FB78012203
:1011400002FA03F31A467B689A6100BF1437BD4662
:101150005DF8047B7047000080B400AF1D4B1B6B33
:101160001C4A43F0010313631B4B1B681A4A23F408
:1011700070131360184B1B68174A43F42013136055
:10118000154B9B68144A23F470139360124B9B68B1
:10119000114A43F4701393600F4BDB680E4A23F43B
:1011A0007013D3600C4BDB680B4A43F4A013D3607D
:1011B000094B5B6A084A23F47F635362064B5B6A00
:1011C000054A43F4EE63536200BFBD465DF8047BFD
:1011D000704700BF003802400000024080B400AFFA
:1011E000264B1B6B254A43F001031363234B1B6BF8
:1011F000224A43F001031363214B1B6823F03003A1
:101200001F4A43F0200313601D4B1B6823F0C003EB
:101210001B4A43F080031360194B1B6A23F470636D
:10122000174A43F4E0631362154B1B6A23F47043BF
:10123000134A43F4E0431362114B9B68104A43F096
:10124000300393600E4B9B680D4A43F0C0039360DC
:101250000B4BDB6823F03003094A43F01003D360E3
:10126000074BDB6823F0C003054A43F04003D3601B
:1012700000BFBD465DF8047B704700BF00380240E8
:101280000000024080B400AF074B1B68074A926819
:10129000920A02F0070206498A5CD3401846BD460E
:1012A0005DF8047B704700BF00000020003802405A
:1012B000345A000880B400AF074B1B68074A926895
:1012C000520B02F0070206498A5CD3401846BD461D
:1012D0005DF8047B704700BF00000020003802402A
:1012E000345A00082DE9B04FC0B000AFC7F8F40081
:1012F000D7F8F4305B68C7F8F830D7F8F4301A68DC
:10130000A14B9A420CD1A14B5B6CA04A43F0100355
:101310005364FFF721FFFFF7CDFFC7F8FC0011E092
:10132000D7F8F4301A689A4B9A420BD1974B1B6C42
:10133000964A43F400331364FFF750FFFFF7A2FF10
:10134000C7F8FC00D7F8F4301B7A002B09D0D7F887
:10135000F4301B68D968D7F8F4301A6841F4805328
:10136000D360D7F8F4305B7A002B00F01581D7F802
:10137000F4301B68D968D7F8F4301A6841F4004398
:10138000D360D7F8FC300022C7F8E830C7F8EC206B
:10139000D7E93A4522462B469118B9655B41FB6572
:1013A000D7E91623214612EB0108294643EB010930
:1013B0004FF000024FF000034FEAC90343EA5873AD
:1013C0004FEAC80290469946234618EB0303C7F834
:1013D000E0302B4649EB0303C7F8E430D7F8F83088
:1013E0000022C7F8D830C7F8DC20D7E936120B4600
:1013F000DB183B65134642EB03037B65D7E91423F7
:10140000D7E93801FFF7D8FB02460B46614BA3FB37
:1014100002235B091C01D7F8FC300022C7F8D0304A
:10142000C7F8D420D7E9348942464B469118B964AD
:101430005B41FB64D7E91223414612EB010A49469E
:1014400043EB010B4FF000024FF000034FEACB03D8
:1014500043EA5A734FEACA0292469B4643461AEB46
:101460000303C7F8C8304B464BEB0303C7F8CC3037
:10147000D7F8F8300022C7F8C030C7F8C420D7E941
:1014800030120B46DB183B64134642EB03037B64CC
:10149000D7E91023D7E93201FFF78EFB02460B464E
:1014A00011463C4BA3FB01235B09642202FB03F3BF
:1014B000CB1ADB0003F13202364BA3FB02235B099C
:1014C0005B0003F4F8731C44D7F8FC300022C7F823
:1014D000B830C7F8BC20D7E92E8942464B46911850
:1014E000B9635B41FB63D7E90E2341465118396369
:1014F00049464B417B634FF000024FF00003D7E9B0
:101500000CAB5946CB00514643EA51735146CA00D1
:1015100010461946034642469B18C7F8B0304B4662
:101520000A4642EB0303C7F8B430D7F8F83000227C
:10153000C7F8A830C7F8AC20D7E92A120B46DB1849
:10154000BB62134642EB0303FB62D7E90A23D7E9E8
:101550002C01FFF731FB02460B460E4BA3FB021397
:101560005B09642101FB03F3D31ADB003233094A20
:10157000A2FB03235B0903F00702D7F8F4301B68D2
:1015800022449A600FE100BF001001400038024081
:10159000004400401F85EB51D7F8F4301B68D96830
:1015A000D7F8F4301A6821F40043D360D7F8FC3040
:1015B0000022C7F8A030C7F8A420D7E928894246FE
:1015C0004B46911839625B417B62D7E9082341465B
:1015D0005418494643EB01054FF000024FF0000359
:1015E000EB0043EA5473E20014461D464346E318F9
:1015F000C7F898304B4645EB0303C7F89C30D7F843
:10160000F8300022C7F89030C7F894204FF000025D
:101610004FF00003D7E9244529468B00214643EAD1
:10162000917321468A00D7E92601FFF7C5FA0246E1
:101630000B468E4BA3FB02235B091C01D7F8FC3041
:101640000022C7F88830C7F88C20D7E922894246A3
:101650004B469118B9615B41FB61D7E906234146CE
:101660005118396149464B417B614FF000024FF000
:101670000003D7E904AB5946CB00514643EA517306
:101680005146CA0010461946034642469B18C7F801
:1016900080304B460A4642EB0303C7F88430D7F844
:1016A000F8300022BB67FA674FF000024FF00003EA
:1016B000D7E91E8949468B00414643EA917341466A
:1016C0008A00D7E92001FFF777FA02460B46114658
:1016D000664BA3FB01235B09642202FB03F3CB1AD5
:1016E0001B013233614AA2FB03235B0903F0F003C1
:1016F0001C44D7F8FC3000223B677A67D7E91C8985
:1017000042464B469118B9605B41FB60D7E9022322
:1017100041465118396049464B417B604FF0000209
:101720004FF00003D7E900AB5946CB00514643EADE
:1017300051735146CA0010461946034642469B184B
:10174000BB664B460A4642EB0303FB66D7F8F8300C
:1017500000223B667A664FF000024FF00003D7E9A3
:10176000188949468B00414643EA917341468A00F5
:10177000D7E91A01FFF720FA02460B463B4BA3FBC1
:1017800002135B09642101FB03F3D31A1B013233FB
:10179000364AA2FB03235B0903F00F02D7F8F430AB
:1017A0001B6822449A60D7F8F4309B7A002B0AD148
:1017B000D7F8F4301B681A69D7F8F4301B6822F4A4
:1017C00040521A6119E0D7F8F4309B7A012B0AD104
:1017D000D7F8F4301B681A69D7F8F4301B6842F464
:1017E00080521A6109E0D7F8F4301B681A69D7F8FB
:1017F000F4301B6842F400521A61D7F8F430DB7AF7
:10180000002B18D0D7F8F4301B681A69D7F8F430D9
:101810001B6842F480621A61D7F8F4301B7B002BFE
:1018200009D0D7F8F4301B68DA68D7F8F4301B68B1
:1018300042F40072DA60D7F8F4301B68DA68D7F83F
:10184000F4301B6842F00C02DA60D7F8F4301B6801
:10185000DA68D7F8F4301B6842F40052DA6000BF4F
:1018600007F58077BD46BDE8B08F00BF1F85EB51FF
:1018700080B584B002AF00237B602B48FFF732FDB8
:1018800001F02CFB38603968284802F00FF9284B2A
:1018900001930223009300234FF4807225492648C8
:1018A00000F095FA78607B68012B01D000BFFDE75E
:1018B00001F014FB386039681C4802F0F7F81F4B40
:1018C00001930223009300234FF480721C491D48AA
:1018D00000F07DFA78607B68012B01D000BFFDE746
:1018E00001F0FCFA38603968104802F0DFF8164B56
:1018F00001930223009300234FF48072134914488C
:1019000000F065FA78607B68012B01D000BFFDE72D
:1019100001F0E4FA38603968044802F0C7F800F0D2
:101920005BFC00BFFDE700BF04000020E059000899
:10193000FC0100200C5A0008551900080002002084
:10194000145A0008B519000804020020205A0008A3
:10195000ED19000880B586B002AF78600123FB73F3
:10196000002300930023002205211048FFF7CCFA42
:10197000012205210D48FFF77BFB4FF4FA7000F0C0
:10198000F5FB002205210948FFF772FB4FF4FA70BE
:1019900000F0ECFBFB7B012BEAD1054B1B681846E2
:1019A00000F054FB0023FB73E2E700BF000002409D
:1019B0000402002080B584B002AF78600023009359
:1019C0000023002206210848FFF79EFA0122062183
:1019D0000548FFF74DFB40F2DC5000F0C7FB00204C
:1019E00000F034FB00BFF1E70000024080B584B096
:1019F00002AF7860002300930023002207210648ED
:101A0000FFF782FA07210448FFF768FBC82000F0BF
:101A1000ADFB00BFF6E700BF0000024080B485B018
:101A200000AF78607B68FB7300BF084B1B6803F056
:101A30008003002BF9D0054AFB7B53607B68184676
:101A40001437BD465DF8047B704700BF004400407A
:101A500080B400AF00BFFDE780B400AF00BFFDE77A
:101A600080B400AF00BFFDE780B400AF00BFFDE76A
:101A700080B400AF00BFFDE780B400AF00BFBD463B
:101A80005DF8047B704780B400AF01231846BD4663
:101A90005DF8047B704780B582B000AF7860396034
:101AA00002F0ACF8034616221A604FF0FF331846D6
:101AB0000837BD4680BD80B582B000AF78604FF07A
:101AC000FF317868FFF7E7FF00BFFDE780B586B01C
:101AD00000AFF860B9607A6000237B610AE0AFF381
:101AE00000800146BB685A1CBA60CAB21A707B6992
:101AF00001337B617A697B689A42F0DB7B68184628
:101B00001837BD4680BD80B586B000AFF860B960BB
:101B10007A6000237B6109E0BB685A1CBA601B78BD
:101B20001846FFF77BFF7B6901337B617A697B682D
:101B30009A42F1DB7B6818461837BD4680BD80B4F9
:101B400083B000AF78604FF0FF3318460C37BD46C6
:101B50005DF8047B704780B483B000AF7860396073
:101B60003B684FF400525A60002318460C37BD46BC
:101B70005DF8047B704780B483B000AF78600123C8
:101B800018460C37BD465DF8047B704780B485B0BD
:101B900000AFF860B9607A60002318461437BD467C
:101BA0005DF8047B7047000080B586B000AF7860B8
:101BB000144A154BD31A7B617B693B61134B1B683D
:101BC000002B02D1114B124A1A60104B1A687B6825
:101BD00013443A699A4207D202F010F803460C22E5
:101BE0001A604FF0FF3309E0084B1B68FB60074B9E
:101BF0001A687B681344054A1360FB681846183757
:101C0000BD4680BD008001200004000008020020C5
:101C1000888400200D488546FFF764F90C480D497B
:101C20000D4A002302E0D458C4500433C4188C4237
:101C3000F9D30A4A0A4C002301E013600432A2429D
:101C4000FBD301F0E1FFFFF713FEFEE70080012068
:101C500000000020E0010020C45D0008E001002039
:101C600084840020FEE780B483B000AF78607B6896
:101C700003F108027B685A607B684FF0FF329A607C
:101C80007B6803F108027B68DA607B6803F1080275
:101C90007B681A617B6800221A6000BF0C37BD4662
:101CA0005DF8047B704780B483B000AF78607B68D8
:101CB00000221A6100BF0C37BD465DF8047B7047F7
:101CC00080B485B000AF786039607B685B68FB608A
:101CD0003B68FA685A60FB689A683B689A60FB68E0
:101CE0009B683A685A60FB683A689A603B687A6811
:101CF0001A617B681B685A1C7B681A6000BF143726
:101D0000BD465DF8047B704780B485B000AF786055
:101D100039603B681B68BB60BB68B3F1FF3F03D110
:101D20007B681B69FB600CE07B680833FB6002E0AA
:101D3000FB685B68FB60FB685B681B68BA689A427B
:101D4000F6D2FB685A683B685A603B685B683A6841
:101D50009A603B68FA689A60FB683A685A603B6828
:101D60007A681A617B681B685A1C7B681A6000BF1E
:101D70001437BD465DF8047B704780B485B000AF72
:101D800078607B681B69FB607B685B687A68926837
:101D90009A607B689B687A6852685A60FB685B68E7
:101DA0007A689A4203D17B689A68FB685A607B68BC
:101DB00000221A61FB681B685A1EFB681A60FB68E8
:101DC0001B6818461437BD465DF8047B704780B524
:101DD0008CB004AFF860B9603B601346FB80FB88B1
:101DE0009B00184600F048FF78617B69002B0ED0FD
:101DF000582000F041FFF861FB69002B03D0FB691C
:101E00007A691A6305E0786901F004F801E00023BB
:101E1000FB61FB69002B13D0FA8800230393FB6955
:101E20000293FB6A0193BB6A00933B68B968F86848
:101E300000F00EF8F86900F09BF80123BB6102E0A6
:101E40004FF0FF33BB61BB6918462037BD4680BDEC
:101E500080B588B000AFF860B9607A603B603B6BDA
:101E6000186B7B689B001A46A52101F075FE3B6B41
:101E70001A6B7B6803F18043013B9B001344BB61F9
:101E8000BB6923F00703BB61BB6903F00703002BA9
:101E90000BD04FF0500383F31188BFF36F8FBFF364
:101EA0004F8F7B6100BF00BFFDE7BB68002B1FD0D9
:101EB0000023FB6112E0BA68FB69134419783A6B9E
:101EC000FB69134434330A461A70BA68FB69134439
:101ED0001B78002B06D0FB690133FB61FB69092BE2
:101EE000E9D900E000BF3B6B002283F83D2003E00E
:101EF0003B6B002283F83420BB6A042B01D90423F6
:101F0000BB623B6BBA6ADA623B6BBA6A9A643B6B40
:101F10000022DA643B6B04331846FFF7C4FE3B6BC8
:101F200018331846FFF7BFFE3B6B3A6B1A61BB6A6A
:101F3000C3F105023B6B9A613B6B3A6B5A623B6B98
:101F400000221A653B6B002283F854203A68F96836
:101F5000B86900F067FC02463B6B1A60FB6A002B15
:101F600002D0FB6A3A6B1A6000BF2037BD4680BDC5
:101F700080B582B000AF786000F098FD2C4B1B68F4
:101F800001332B4A13602B4B1B68002B09D1294AC4
:101F90007B681360264B1B68012B10D100F03EFBC1
:101FA0000DE0254B1B68002B09D1224B1B68DA6A18
:101FB0007B68DB6A9A4202D81E4A7B6813601F4B1B
:101FC0001B6801331D4A13601C4B1A687B681A6436
:101FD0007B68DB6A01229A40194B1B681343184A3D
:101FE00013607B68DA6A13469B0013449B00154A12
:101FF0001A447B68043319461046FFF761FE00F06F
:1020000087FD0D4B1B68002B0ED00A4B1B68DA6A4C
:102010007B68DB6A9A4207D20B4B4FF080521A6002
:10202000BFF34F8FBFF36F8F00BF0837BD4680BD32
:10203000E40200200C020020F00200200003002037
:10204000EC0200201002002004ED00E080B584B016
:1020500000AF786000F02AFD7B68002B02D1394B7D
:102060001B6800E07B68FB60FB6804331846FFF7E1
:1020700084FE0346002B15D1FB68DA6A3249134609
:102080009B0013449B000B441B68002B0AD1FB6888
:10209000DB6A012202FA03F3DA432C4B1B6813407C
:1020A0002A4A1360FB689B6A002B04D0FB68183334
:1020B0001846FFF762FE264B1B680133244A136063
:1020C000204B1B68FA689A420BD1FB68043319460F
:1020D0002048FFF7F5FD204B1B6801331E4A1360B3
:1020E00009E01E4B1B68013B1C4A1360F86800F0B6
:1020F00003FB00F011FB00F00BFD194B1B68002BDC
:102100001CD0104B1B68FA689A4217D1154B1B68FC
:10211000002B0BD04FF0500383F31188BFF36F8F68
:10212000BFF34F8FBB6000BF00BFFDE70E4B4FF00A
:1021300080521A60BFF34F8FBFF36F8F00BF10370D
:10214000BD4680BD0C02002010020020EC020020E1
:1021500000030020B8020020CC020020E40200208E
:10216000F00200200C03002004ED00E080B584B0F4
:1021700000AF78600023FB607B68002B18D0144B05
:102180001B68002B0BD04FF0500383F31188BFF373
:102190006F8FBFF34F8FBB6000BF00BFFDE700F044
:1021A00063F80021786800F0D7FA00F06BF8F86067
:1021B000FB68002B07D1074B4FF080521A60BFF32A
:1021C0004F8FBFF36F8F00BF1037BD4680BD00BF7C
:1021D0000C03002004ED00E080B586B002AF1C4B7C
:1021E000019300230093002382221A491A48FFF723
:1021F000EEFDF860FB68012B16D14FF0500383F31E
:102200001188BFF36F8FBFF34F8FBB6000BF134BBD
:102210004FF0FF321A60124B01221A60114B00225C
:102220001A6000F08DFB0FE0FB68B3F1FF3F0BD1AC
:102230004FF0500383F31188BFF36F8FBFF34F8FBD
:102240007B6000BF00BFFDE700BF1037BD4680BD0B
:10225000080300202C5A0008ED2500080403002084
:10226000F0020020E802002080B400AF044B1B689D
:102270000133034A136000BFBD465DF8047B70471D
:102280000C03002080B584B000AF0023FB60002366
:10229000BB60424B1B68002B0BD14FF0500383F304
:1022A0001188BFF36F8FBFF34F8F3B6000BF00BF3C
:1022B000FDE700F0FBFB394B1B68013B374A13601D
:1022C000364B1B68002B61D1354B1B68002B5DD052
:1022D0002EE0344BDB68DB68FB60FB681833184684
:1022E000FFF74BFDFB6804331846FFF746FDFB681C
:1022F000DB6A01229A402C4B1B6813432A4A136065
:10230000FB68DA6A13469B0013449B00274A1A4471
:10231000FB68043319461046FFF7D2FCFB68DA6A03
:10232000234B1B68DB6A9A4202D3224B01221A60BC
:102330001C4B1B68002BCCD1FB68002B01D000F09C
:10234000EBF91D4B1B687B607B68002B10D000F005
:1023500037F80346002B02D0164B01221A607B6827
:10236000013B7B607B68002BF1D1134B00221A608C
:10237000104B1B68002B09D00123BB600F4B4FF0A3
:1023800080521A60BFF34F8FBFF36F8F00F0C0FB16
:10239000BB6818461037BD4680BD00BF0C03002047
:1023A000E4020020A4020020EC0200201002002021
:1023B0000C020020F8020020F402002004ED00E0EE
:1023C00080B586B000AF00237B614F4B1B68002BAC
:1023D00040F08F804D4B1B6801333B614B4A3B699A
:1023E00013603B69002B21D1494B1B681B68002BF4
:1023F0000BD04FF0500383F31188BFF36F8FBFF3FF
:102400004F8F3B6000BF00BFFDE7414B1B68FB6087
:10241000404B1B683E4A13603E4AFB6813603E4BCC
:102420001B6801333C4A136000F076F93B4B1B6894
:102430003A699A4248D3364B1B681B68002B04D17B
:10244000364B4FF0FF321A603EE0314B1B68DB68C1
:10245000DB68BB60BB685B687B603A697B689A42FB
:1024600003D22E4A7B6813602EE0BB680433184603
:10247000FFF783FCBB689B6A002B04D0BB68183352
:102480001846FFF77AFCBB68DB6A01229A40244BAE
:102490001B681343224A1360BB68DA6A13469B0029
:1024A00013449B001F4A1A44BB6804331946104664
:1024B000FFF706FCBB68DA6A1B4B1B68DB6A9A42B3
:1024C000B9D301237B61B6E7174B1B68DA6A15495C
:1024D00013469B0013449B000B441B68012B01D93E
:1024E00001237B61114B1B68002B07D001237B610B
:1024F00004E00F4B1B6801330D4A13607B691846DB
:102500001837BD4680BD00BF0C030020E802002044
:102510009C020020A0020020FC02002004030020F6
:10252000EC020020100200200C020020F802002023
:10253000F402002080B487B000AF274B1B68002B4B
:1025400003D0264B01221A6040E0244B00221A607F
:10255000234B1B68FB60FB68B3FA83F3FB72FB7AC7
:10256000C3F11F037B611F497A6913469B00134423
:102570009B000B441B68002B0BD14FF0500383F3DF
:102580001188BFF36F8FBFF34F8F7B6000BF00BF19
:10259000FDE77A6913469B0013449B00114A1344DC
:1025A0003B613B695B685A683B695A603B695A68A2
:1025B0003B6908339A4204D13B695B685A683B69BE
:1025C0005A603B695B68DB68074A136000BF1C37D1
:1025D000BD465DF8047B70470C030020F802002024
:1025E000EC020020100200200C02002080B582B016
:1025F00000AF786000F052F8064B1B68012BF9D948
:10260000054B4FF080521A60BFF34F8FBFF36F8FAF
:10261000F0E700BF1002002004ED00E080B582B0BA
:1026200000AF00237B600CE07A6813469B001344E4
:102630009B00124A13441846FFF715FB7B680133D1
:102640007B607B68042BEFD90D48FFF70CFB0D482E
:10265000FFF709FB0C48FFF706FB0C48FFF703FBED
:102660000B48FFF700FB0B4B054A1A600A4B054A63
:102670001A6000BF0837BD4680BD00BF10020020B1
:102680007402002088020020A4020020B80200206A
:10269000D00200209C020020A002002080B582B061
:1026A00000AF19E000F002FA104BDB68DB687B60DA
:1026B0007B6804331846FFF760FB0D4B1B68013B3A
:1026C0000B4A13600B4B1B68013B0A4A136000F076
:1026D0001FFA786800F010F8064B1B68002BE1D158
:1026E00000BF00BF0837BD4680BD00BFB802002054
:1026F000E4020020CC02002080B582B000AF7860F8
:102700007B681B6B184600F085FB786800F082FB45
:1027100000BF0837BD4680BD80B483B000AF0C4B0E
:102720001B681B68002B04D10A4B4FF0FF321A6064
:1027300008E0074B1B68DB68DB687B607B685B68D5
:10274000044A136000BF0C37BD465DF8047B704738
:102750009C0200200403002080B584B000AF7860A4
:102760003960294B1B68FB60284B1B6804331846F3
:10277000FFF703FB0346002B0BD1244B1B68DB6ADE
:10278000012202FA03F3DA43214B1B681340204A6B
:1027900013607B68B3F1FF3F0AD13B68002B07D081
:1027A0001A4B1B68043319461A48FFF789FA26E0CA
:1027B000FA687B681344BB60144B1B68BA685A60A4
:1027C000BA68FB689A4209D2134B1A680F4B1B6810
:1027D000043319461046FFF797FA10E00F4B1A68BA
:1027E0000A4B1B68043319461046FFF78DFA0C4B51
:1027F0001B68BA689A4202D2094ABB68136000BFDC
:102800001037BD4680BD00BFE80200200C0200204A
:10281000EC020020D0020020A00200209C02002038
:102820000403002080B485B000AFF860B9607A601E
:10283000FB68043BFB60FB684FF080721A60FB682A
:10284000043BFB60BB6823F00102FB681A60FB6875
:10285000043BFB600C4AFB681A60FB68143BFB609E
:102860007A68FB681A60FB68043BFB60FB686FF0EA
:1028700002021A60FB68203BFB60FB6818461437B5
:10288000BD465DF8047B70478D28000880B485B094
:1028900000AF00237B60134B1B68B3F1FF3F0BD0ED
:1028A0004FF0500383F31188BFF36F8FBFF34F8F47
:1028B000FB6000BF00BFFDE74FF0500383F31188BA
:1028C000BFF36F8FBFF34F8FBB6000BF00BF7B684C
:1028D000002BFCD000BF00BF1437BD465DF8047B61
:1028E000704700BF1400002000000000000000003E
:1028F000074B19680868B0E8F04F80F30988BFF308
:102900006F8F4FF0000080F311887047AFF30080A5
:102910000C02002000BF00BF08480068006880F378
:1029200008884FF0000080F3148862B661B6BFF3E8
:102930004F8FBFF36F8F00DF00BF00BF08ED00E0D7
:1029400080B588B000AF504B1B68504A93420BD102
:102950004FF0500383F31188BFF36F8FBFF34F8F96
:102960007B6100BF00BFFDE7474B1B68484A9342AD
:102970000BD14FF0500383F31188BFF36F8FBFF378
:102980004F8FBB6100BF00BFFDE7424BFB61FB699E
:102990001B78DBB2BB60FB69FF221A70FB691B78F6
:1029A000DBB2FB71FB79DBB203F05003DAB23A4BD6
:1029B0001A703A4B07221A6009E0384B1B68013B3A
:1029C000364A1360FB79DBB25B00DBB2FB71FB794B
:1029D000DBB203F08003802BEFD0304B1B68C3F1D8
:1029E0000703042B0BD04FF0500383F31188BFF380
:1029F0006F8FBFF34F8F3B6100BF00BFFDE7274BD9
:102A00001B68C3F10703042B0BD04FF0500383F373
:102A10001188BFF36F8FBFF34F8FFB6000BF00BF04
:102A2000FDE71E4B1B681B021C4A13601B4B1B68F7
:102A300003F4E063194A1360BB68DAB2FB691A70E9
:102A4000174B1B68164A43F470031360144B1B6842
:102A5000134A43F07043136000F0E0F8114B00227A
:102A60001A6000F0FFF8104B1B680F4A43F0404318
:102A70001360FFF751FFFFF75DFDFFF707FF00232E
:102A800018462037BD4680BD00ED00E071C20F4101
:102A900070C20F4100E400E0100300201403002086
:102AA00020ED00E01400002034EF00E080B483B09B
:102AB00000AF4FF0500383F31188BFF36F8FBFF364
:102AC0004F8F7B6000BF104B1B6801330E4A1360B1
:102AD0000D4B1B68012B10D10C4B1B68DBB2002B7C
:102AE0000BD04FF0500383F31188BFF36F8FBFF308
:102AF0004F8F3B6000BF00BFFDE700BF0C37BD46F6
:102B00005DF8047B704700BF1400002004ED00E076
:102B100080B483B000AF124B1B68002B0BD14FF079
:102B2000500383F31188BFF36F8FBFF34F8F7B6028
:102B300000BF00BFFDE70A4B1B68013B084A13605A
:102B4000074B1B68002B05D100233B603B6883F3D8
:102B5000118800BF00BF0C37BD465DF8047B70478D
:102B60001400002000000000000000000000000031
:102B7000EFF30980BFF36F8F154B1A681EF0100F2B
:102B800008BF20ED108A20E9F04F106009B44FF023
:102B9000500080F31188BFF34F8FBFF36F8FFFF7A3
:102BA000C9FC4FF0000080F3118809BC196808685F
:102BB000B0E8F04F1EF0100F08BFB0EC108A80F3A1
:102BC0000988BFF36F8F7047AFF30080AFF30080C9
:102BD0000C02002000BF00BF80B582B000AF4FF0F4
:102BE000500383F31188BFF36F8FBFF34F8F7B6068
:102BF00000BFFFF7E5FB0346002B03D0064B4FF069
:102C000080521A6000233B603B6883F3118800BF49
:102C100000BF0837BD4680BD04ED00E080B400AFC2
:102C20000B4B00221A600B4B00221A600A4B1B68E8
:102C30000A4AA2FB03239B09094A013B1360044B88
:102C400007221A6000BFBD465DF8047B704700BFD5
:102C500010E000E018E000E000000020D34D62101A
:102C600014E000E0DFF80C00016841F4700101603D
:102C7000704700BF88ED00E080B58AB000AF786093
:102C80000023FB61FFF7F0FA5C4B1B68002B01D1BE
:102C900000F030F95A4B1A687B681340002B40F063
:102CA00095807B68002B1ED008227B6813447B60D4
:102CB0007B6803F00703002B15D07B6823F0070324
:102CC00008337B607B6803F00703002B0BD04FF0C9
:102CD000500383F31188BFF36F8FBFF34F8F7B6176
:102CE00000BF00BFFDE77B68002B6FD0454B1B6822
:102CF0007A689A426AD8444B3B62434B1B687B62BA
:102D000004E07B6A3B627B6A1B687B627B6A5B6870
:102D10007A689A4203D97B6A1B68002BF1D1374B42
:102D20001B687A6A9A4251D03B6A1B680822134496
:102D3000FB617B6A1A683B6A1A607B6A5A687B6827
:102D4000D21A08235B009A4220D97A6A7B6813441E
:102D5000BB61BB6903F00703002B0BD04FF050039E
:102D600083F31188BFF36F8FBFF34F8F3B6100BFB9
:102D700000BFFDE77B6A5A687B68D21ABB695A605C
:102D80007B6A7A685A60B86900F016F91D4B1A68B8
:102D90007B6A5B68D31A1B4A13601A4B1A681B4B79
:102DA0001B689A4203D2174B1B68184A13607B6A50
:102DB0005A68134B1B681A437B6A5A607B6A00226D
:102DC0001A60134B1B680133114A1360FFF75AFA5C
:102DD000FB6903F00703002B0BD04FF0500383F384
:102DE0001188BFF36F8FBFF34F8FFB6000BF00BF31
:102DF000FDE7FB6918462837BD4680BD20830020CB
:102E0000348300202483002018830020288300209E
:102E10002C83002080B586B000AF78607B687B6132
:102E20007B68002B4FD008235B427A6913447B6197
:102E30007B693B613B695A68254B1B681340002B3B
:102E40000BD14FF0500383F31188BFF36F8FBFF3A3
:102E50004F8FFB6000BF00BFFDE73B691B68002B85
:102E60000BD04FF0500383F31188BFF36F8FBFF384
:102E70004F8FBB6000BF00BFFDE73B695A68144B32
:102E80001B681340002B1ED03B691B68002B1AD116
:102E90003B695A680E4B1B68DB431A403B695A601A
:102EA000FFF7E2F93B695A680A4B1B681344094A69
:102EB0001360386900F080F8074B1B680133064A3D
:102EC0001360FFF7DFF900BF1837BD4680BD00BFB4
:102ED00034830020248300203083002080B400AF9E
:102EE000034B1B681846BD465DF8047B704700BF66
:102EF0002483002080B485B000AF4FF40043BB6052
:102F0000274BFB60FB6803F00703002B0CD0FB682A
:102F10000733FB60FB6823F00703FB60BA68FB68BC
:102F2000D31A1F4A1344BB60FB687B601D4A7B6851
:102F300013601C4B00225A607B68BA681344FB6024
:102F40000822FB689B1AFB60FB6823F00703FB6009
:102F5000FB68154A1360144B1B6800225A60124B21
:102F60001B6800221A607B683B603B68FA68D21AD3
:102F70003B685A600C4B1A683B681A603B685B6898
:102F80000A4A13603B685B68094A1360094B4FF0BB
:102F900000421A6000BF1437BD465DF8047B7047DD
:102FA000180300201883002020830020288300209D
:102FB000248300203483002080B485B000AF786083
:102FC000284BFB6002E0FB681B68FB60FB681B682A
:102FD0007A689A42F7D8FB68BB60FB685B68BA689E
:102FE00013447A689A4208D1FB685A687B685B6828
:102FF0001A44FB685A60FB687B607B68BB607B6837
:103000005B68BA681A44FB681B689A4218D1FB686F
:103010001A68154B1B689A420DD07B685A68FB688A
:103020001B685B681A447B685A60FB681B681A68F7
:103030007B681A6008E00C4B1A687B681A6003E032
:10304000FB681A687B681A60FA687B689A4202D04B
:10305000FB687A681A6000BF1437BD465DF8047BD0
:10306000704700BF18830020208300202DE9FF4710
:1030700057EC106B002F0C4619463B46BBBF07F1BF
:1030800000431F4600232D230B700D9BDDF830A05D
:10309000914623F02008BCBF32461646B8F1460FD1
:1030A00005D0B8F1450F00D10134022100E0032121
:1030B00003AB019302AB009347EC106B53462246DF
:1030C00000F062FEB8F1470F054619D119F0010F63
:1030D0000ED000EB04090022002330463946FDF7EC
:1030E000FBFC08B1CDF80C903022039B4B451ED35E
:1030F000039B0E9A5B1B2846136004B0BDE8F08763
:10310000B8F1460F00EB0409E5D10378302B0AD162
:103110000022002330463946FDF7DEFC18B9C4F121
:103120000104CAF80040DAF800309944D3E7591C8A
:1031300003911A70D9E7F7B50029BABF49422D2388
:103140002B2309290270437029DD0DF10704254660
:103150000A272246B1FBF7F607FB1613303302F8B5
:10316000013C0B46632B04F1FF343146F1DC303176
:10317000931E04F8011C411C1C46AB420AD30DF1FE
:1031800009039B1AA54238BF0023821C1344181A56
:1031900003B0F0BD13F8016B01F8016FEDE73023C8
:1031A00030318370C170031DF1E700002DE9F04F4D
:1031B0008DB00C46DDF8588016461F46054600F0D7
:1031C000D3FC036806931846FDF75AF800230A93C8
:1031D000D8F8003094F818A0D4F800B0079007335E
:1031E00023F00703B3EC027B8DED047BC8F80030BD
:1031F000DDE9048323F0004984ED127B9C4B4FF002
:10320000FF3240464946FDF799FC70BB984B4FF0A2
:10321000FF3240464946FDF773FC30BBDDE904014F
:1032200000220023FDF762FC10B12D2384F8433007
:10323000904A914BBAF1470F8CBF904698460323B2
:1032400023612BF0040323604FF0000900973346FD
:103250000BAA2146284600F0D1F9013040F08C80BD
:103260004FF0FF300DB0BDE8F08FDDE904231046CC
:103270001946FDF763FC40B1059B804A002BBCBF9B
:103280002D2384F843307E4BD4E763685A1C0AF040
:10329000DF093BD1062363604BF480620023226088
:1032A00003930AABCDE901A309AB009361689DEDDF
:1032B000040B0DF123032846FFF7D8FEB9F1470FA1
:1032C0000999804629D1C81C02DB63688B4241DA28
:1032D000AAF1020A5FFA8AFA0139524604F1500053
:1032E0000991FFF728FF0A9A1318012A81462361E2
:1032F00002DC2268D20701D5013323619DF8233017
:10330000002BA3D02D2384F843309FE7B9F1470F5A
:10331000C2D1002BC0D10123BDE7BAF1650FDBD9C3
:10332000BAF1660F18D1002963680BDD216113B96A
:103330002268D00702D501330B442361A1654FF009
:103340000009DBE713B92268D20701D50233F4E79D
:103350000123F2E74FF0670A0A9B8B4205DC2368E2
:103360002161D807EAD54B1CE7E70029D4BFC1F19A
:10337000020201221344E0E723685A0507D42369B7
:10338000424631462846B84701302BD168E7BAF1AA
:10339000650F40F2DD80D4E9120100220023FDF721
:1033A0009BFB002833D0374A012331462846B847D3
:1033B00001303FF455AFDDE90938434502DB2368AE
:1033C000D8070FD5DDE9062331462846B847013036
:1033D0003FF446AF4FF0000908F1FF3804F11A0A34
:1033E000C84509DC23689B0700F10381E0680B9B5B
:1033F0009842B8BF184635E7012352463146284661
:10340000B84701303FF42CAF09F10109E8E7099B07
:10341000002B39DC1B4A012331462846B8470130CE
:103420003FF41EAFDDE9093959EA030302D12368ED
:10343000D907D7D5DDE9062331462846B8470130FC
:103440003FF40EAF4FF0000A04F11A0B099B5B42E8
:10345000534501DC4B4693E701235A463146284643
:10346000B84701303FF4FCAE0AF1010AEEE700BFB5
:10347000FFFFEF7F405A00083C5A0008485A0008F6
:10348000445A00084C5A0008A36DDDF828A05345A3
:10349000A8BF5346002B994636DC4FF0000B29EAB3
:1034A000E97904F11A02A36D0493A3EB09035B45C8
:1034B00031DC099B9A453ADC2368DA0737D4099B4B
:1034C000AAEB0309049BAAEB03039945A8BF9946FD
:1034D000B9F1000F33DC4FF0000829EAE97904F173
:1034E0001A0B099BAAEB0303A3EB090343457FF7E0
:1034F00079AF01235A4631462846B84701303FF498
:10350000AFAE08F10108ECE7424631462846B8471D
:103510000130C2D1A4E60123314628460492B847BF
:1035200001303FF49DAE049A0BF1010BBBE7DDE9DE
:10353000062331462846B8470130C0D190E6049AA8
:103540004B46424431462846B8470130C3D187E64E
:10355000DDF828A0BAF1010F01DCDB0736D5012325
:10356000424631462846B84701303FF479AEDDE99E
:10357000062331462846B84701303FF471AED4E9FE
:103580001201002200230AF1FF3AFDF7A5FAC0B9A3
:10359000534608F1010231462846B84701300CD1A4
:1035A0005EE601235A4631462846B84701303FF4CB
:1035B00057AE08F10108D045F3DB4B4604F1500249
:1035C000DFE64FF0000804F11A0BF4E7012342464E
:1035D000E1E701234A4631462846B84701303FF427
:1035E0003FAE08F10108E3680B995B1A4345F0DC34
:1035F000FCE64FF0000804F11909F4E72DE9F04763
:10360000164698468A680B69DDF820909342B8BF49
:103610001346336091F8432007460C460AB1013344
:1036200033602368990642BF3368023333602568EC
:1036300015F0060506D104F1190AE36832689B1AF1
:10364000AB4226DC94F843302268003B18BF0123CC
:1036500092062BD404F1430241463846C847013054
:103660001ED02368226903F00603042B02BFE5681D
:103670003368ED1AA3680CBF25EAE575002593426F
:10368000C4BF9B1AED1800261A34B5421AD1002087
:1036900008E00123524641463846C847013003D16D
:1036A0004FF0FF30BDE8F0870135C6E7E1185A1C3E
:1036B000302081F84300224494F8451082F84310EA
:1036C0000233C7E70123224641463846C847013046
:1036D000E6D00136D9E700002DE9F0430D7E85B034
:1036E000782D90460C9E07460C46994601F1430200
:1036F00007D8622D0AD8002D00F0D780582D00F091
:10370000BC8004F1420684F842503BE0A5F163031B
:10371000152BF6D801A151F823F000BF753700082A
:10372000893700080337000803370008033700080B
:1037300003370008893700080337000803370008FB
:10374000033700080337000891380008B337000832
:10375000433800080337000803370008B33800086F
:1037600003370008B33700080337000803370008A1
:103770004B38000833681A1D1B68326004F142069A
:1037800084F842300123A1E033682068191D3160BC
:10379000060601D51D6803E04506FBD5B3F90050C8
:1037A000002D03DA2D236D4284F843305B480A2351
:1037B00011E021683368080653F8045B02D4490617
:1037C00048BFADB23360237E54486F2B5CD10823D1
:1037D000002184F843106668A660002E05DB21688E
:1037E0002E4321F00401216050D01646B5FBF3F1C1
:1037F00003FB115C10F80CC006F801CDAC46634524
:103800000D46F3D9082B0BD12368DB0708D52369B4
:1038100061689942DEBF302306F8013C06F1FF36AD
:10382000921B2261CDF80090434603AA21463846F8
:10383000FFF7E4FE01304ED14FF0FF3005B0BDE898
:10384000F083236843F0200323603548782584F80B
:1038500045502368316813F0800F51F8045B03D1A1
:1038600013F0400F18BFADB23160D90744BF43F029
:10387000200323601DB11023AAE72848E7E7236847
:1038800023F020032360F6E70A23A1E71646B9E7F1
:10389000336825686169181D30602E061B6801D5E4
:1038A000196002E06806FBD51980002323611646E3
:1038B000B8E733681A1D32601E686268002130461E
:1038C000FCF78EFC08B1801B6060636823610023F5
:1038D00084F84330A6E72369324641463846C84754
:1038E0000130A9D023689B0713D4E068039B98425A
:1038F000B8BF1846A2E70123324641463846C847BA
:10390000013099D00135E36803995B1AAB42F2DCD0
:10391000EBE7002504F11906F5E700BF4E5A000851
:103920005F5A0008002310B50446C0E90033C0E91F
:103930000433836081814366C28183611946082212
:103940005C3000F009F90D4B63620D4BA3620D4B27
:10395000E3620D4B23630D4B24629C4206D003F1BE
:103960006802944202D0D0339C4205D104F1580041
:10397000BDE8104000F06CB910BD00BFD13A00089E
:10398000F33A00082B3B0008513B00083883002025
:10399000024A0349034800F06BB800BF180000203A
:1039A000D15500082800002041680C4B994210B501
:1039B000044601D001F00CFEA168094B994202D0E7
:1039C000204601F005FEE168064B994204D02046EE
:1039D000BDE8104001F0FCBD10BD00BF38830020E1
:1039E000A0830020088400200C4B0D4A0D4810B520
:1039F00004211A600022FFF795FF0A4B01221C46A2
:103A0000092103F16800FFF78DFF04F1D0000222C5
:103A1000BDE810401221FFF785BF00BF7084002071
:103A20009139000838830020014800F012B900BF26
:103A300079840020014800F00DB900BF798400208E
:103A400010B50446FFF7F0FF236A1BB1BDE8104034
:103A5000FFF7F0BF044B2362044B1B68002BF5D12A
:103A6000FFF7C2FFF2E700BFA93900087084002009
:103A70002DE9F8430746884614460026D4E9019507
:103A8000B9F1010905D52468002CF7D13046BDE80D
:103A9000F883AB89012B07D9B5F90E30013303D078
:103AA00029463846C04706436835E9E70FB407B5ED
:103AB000064904AB086853F8042B8168019301F0B0
:103AC000F1FB03B05DF804EB04B070472400002064
:103AD00010B50C46B1F90E1000F06CF80028ABBF21
:103AE000636DA3891B1823F48053ACBF6365A38166
:103AF00010BD2DE9F0411F468B89DB0505460C46BC
:103B0000164605D5B1F90E100223002200F040F848
:103B1000A389B4F90E1023F48053A38132463B46A7
:103B20002846BDE8F04100F057B810B50C46B1F991
:103B30000E1000F02DF8B4F90C30421C0BBF23F42A
:103B4000805343F48053A381A38118BF606510BDE7
:103B5000B1F90E1000F00CB802440346934200D1B4
:103B6000704703F8011BF9E7004870476401002023
:103B700038B5064D0023044608462B60FDF7DFFFED
:103B8000431C02D12B6803B1236038BD748400202C
:103B900038B5074D04460846114600222A601A46E9
:103BA000FDF7F4FF431C02D12B6803B1236038BD3D
:103BB0007484002038B5074D04460846114600229B
:103BC0002A601A46FDF782FF431C02D12B6803B11D
:103BD000236038BD7484002038B5074D044608467C
:103BE000114600222A601A46FDF78DFF431C02D1C0
:103BF0002B6803B1236038BD74840020014B186822
:103C0000704700BF2400002070B50D4B0D4D5B1BAD
:103C10009C100026A64209D101F0D4FE0A4D0B4BA0
:103C20005B1B9C100026A64205D170BD55F8043BD5
:103C300098470136EEE755F8043B98470136F2E71E
:103C4000BC5D0008BC5D0008BC5D0008C05D0008EC
:103C50007047704770470A44914200F1FF3300D12A
:103C6000704710B511F8014B03F8014F9142F9D19B
:103C700010BD2DE9F74F03690C69A34207467EDBAF
:103C8000013C01F11408A30000F11405009305EBB9
:103C90008403019358F8243055F8242001339A42C4
:103CA00008EB8409B2FBF3F62ED34FF0000AC446AA
:103CB000AE46D3465CF8043B98B206FB00A0020C6B
:103CC0001B0C06FB0323DEF8002080B292B2121A0E
:103CD0005A44DEF800004FEA134A9BB2C3EB22437A
:103CE00003EB104392B242EA0342E1454EF8042B43
:103CF0004FEA234BDED2009BEB582BB9019B043BD0
:103D00009D421A462FD33C61384601F095F90028B0
:103D100025DB2946002058F8042BD1F800C01FFAF3
:103D200082FE1FFA8CF3A3EB0E030344120CC2EBCA
:103D3000234202EB1C429BB243EA0243C14541F8D5
:103D4000043B4FEA2240E6D255F8242005EB8403D9
:103D500022B9043B9D421A460BD33C6101363046E2
:103D600003B0BDE8F08F1268043B002ACBD1013CC0
:103D7000C6E71268043B002AEFD1013CEAE70020C5
:103D8000EEE70000000000002DE9F04F99B08DED46
:103D90000E0B0C92C269229C0A9157EC106B814663
:103DA000139382B9102000F015FE0246C9F81C00DA
:103DB00020B9AB4BEF21AB4801F0D4FC0023C0E9A4
:103DC00001330360C360116859B152684A6001232E
:103DD00093408B60484600F0F1FED9F81C30002279
:103DE0001A60B7F10008B5BF0123002323602360E8
:103DF0009D4BBCBF28F00048CDF83C8033EA080357
:103E00001AD1139AC8F3130842F20F7358EA06083E
:103E1000136000F06885239B53B9944B21E0944BC9
:103E200000930833239A1360009819B0BDE8F08F0F
:103E30008E4B00930333F5E79DED0E7B002251EC92
:103E4000170B00238DED067BFCF746FE824650B132
:103E5000139A01231360239B13B1239A854B13609C
:103E6000854B0093E0E79DED060B16AA17A948467F
:103E700001F096F95FEA1854169D019079D0079BDE
:103E8000CDF850A0C3F31303DDE9060143F07F53DF
:103E900043F44013A4F2FF3419460022774BFCF799
:103EA000FBF969A3D3E90023FCF7AEFB68A3D3E9D0
:103EB0000023FCF7F3F9064620460F46FCF73AFBD1
:103EC00065A3D3E90023FCF79FFB02460B4630466F
:103ED0003946FCF7E3F906460F46FCF745FE00229B
:103EE0008046002330463946FCF700FE48B1404684
:103EF000FCF720FB32463B46FCF7EEFD08B908F123
:103F0000FF38B8F1160F51D85D4B03EBC803D3E966
:103F10000023DDE90601FCF7E9FD002848D008F19F
:103F2000FF38002312932D1B6B1E089343BF002301
:103F3000C5F1010708930027B8F1000F3ADB089B91
:103F4000CDF8348043440893002309930A9B092B3E
:103F500062D8052BC4BF043B0A930A9BA3F102035A
:103F6000CCBF00240124032B62D8DFE803F05153B7
:103F7000362B179C2C4404F23243202BC1BFC3F1D3
:103F8000400308FA03F804F2124326FA03F3D6BFFB
:103F9000C3F1200348EA030006FA03F0FCF7BAFA7B
:103FA0000122A1F1F873013C149275E70123B9E7EE
:103FB0001290B8E7C8F1000309930023A7EB0807A4
:103FC0000D93C3E701230B930C9B434405930133EB
:103FD000012B0493B8BF012306E001230B930C9B34
:103FE000002B28DDCDE90433D9F81C000021042280
:103FF00002F114059D4223D94160484600F0A0FD1E
:104000000090002840D11F4B024640F2AF11D2E68B
:104010000023E3E70023D6E701240023CDE90A3497
:104020004FF0FF33CDE90433002212230C92DBE77B
:1040300001230B93F4E70123CDE904331A46F5E796
:1040400001315200D4E700BF61436F63A787D23FBD
:10405000B3C8608B288AC63FFB799F501344D33F77
:104060007D5A0008945A00080000F07F795A000831
:10407000705A00084D5A00084C5A00080000F83FDA
:10408000E85B0008EC5A0008D9F81C30009A1A6066
:10409000049B0E2B00F2A180002C00F09E80B8F152
:1040A000000F36DD9E4B08F00F0203EBC20318F43D
:1040B000807FD3E900AB4FEA281516D0994BDDE994
:1040C0000601D3E90823FCF7C9FBCDE9020105F09D
:1040D0000F050324934E75B9DDE9020152465B4694
:1040E000FCF7BCFB82468B462DE09DED067B02244F
:1040F0008DED027BEEE7E90708D550465946D6E933
:104100000023FCF781FA013482468B466D10083695
:10411000E1E700F0AD80C8F10005814B814E05F06C
:104120000F0203EBC203D3E90023DDE90601FCF72C
:104130006BFA2D1182468B4600230224002D40F09D
:104140008C80002BCED1129B002B00F09580764BFB
:10415000002250465946FCF7C9FC002800F08C802C
:10416000049B002B00F08880059B002B35DD08F1B7
:10417000FF330293504659466C4B0022FCF744FA39
:10418000059E82468B4601342046FCF7D3F9524601
:104190005B46FCF739FA664B0022FCF77FF80446D1
:1041A000A1F15075CDE91045002E69D1614B002277
:1041B00050465946FCF770F822462B4682468B46FD
:1041C000FCF7B2FC002840F09482224605F100433F
:1041D00050465946FCF78AFC20BB179B002BC0F2C7
:1041E0006081B8F10E0F00F35C814D4B03EBC80307
:1041F000D3E900AB0C9B002B80F2EE80049B002BDC
:1042000000F3EA800ED14B4B002250465946FCF792
:10421000FBF902460B46DDE90601FCF771FC0028BC
:1042200000F06A8200252C460C9B009EDB43029323
:10423000274600242946484600F0C0FC002F00F025
:10424000C1802CB1BC4203D02146484600F0B6FCE8
:104250003946484600F0B2FCB4E0EA0705D5D6E995
:104260000023FCF7D1F9013401236D10083665E70E
:10427000DDE906AB022466E7049ECDF8088083E7FB
:10428000274B03EBC60353E902010B9B002B55D0D0
:1042900002460B4600202849FCF7E0FADDE910232E
:1042A000FBF7FAFF009BCDE910019D191E46594608
:1042B0005046FCF759FC0446FCF73CF902460B4615
:1042C00050465946FBF7E8FF3034DDE9102306F885
:1042D000014B82468B46FCF709FC002872D15246FE
:1042E0005B4611490020FBF7D7FFDDE91023FCF7FF
:1042F000FDFB002840F0B680AE423FF46EAFDDE932
:1043000010010A4B0022FCF77FF9084BCDE91001A0
:10431000002250465946FCF777F982468B46C6E79D
:10432000E85B0008C05B00080000F03F000024408C
:1043300000001C40000014400000E03FDDE91023B5
:10434000FCF762F9009B009DCDE910013344159301
:1043500059465046FCF708FC0446FCF7EBF83034AD
:104360000B46024659465046FBF796FF05F8014BAF
:10437000159B9D4282468B4627D1009B0022DDE99A
:1043800010011E44B34BFBF789FF02460B46504613
:104390005946FCF7C9FB002864D1DDE91023AD497B
:1043A0000020FBF779FF02460B4650465946FCF7C2
:1043B0009DFB00283FF411AF334616F8012D302A3B
:1043C000FAD01E46DDF808803AE0A34B0022FCF745
:1043D0001BF982468B46BBE7009E52465B46DDE9F1
:1043E0000601FCF73BFAFCF7BFFB0746FCF7A2F817
:1043F00052465B46FCF708F902460B46DDE906012A
:10440000FBF74AFF07F1300C009C06F801CBA6EB46
:10441000040C049C644502460B4633D1FBF73EFF77
:1044200052465B4604460D46FCF77EFBC0B9524639
:104430005B4620462946FCF74FFB08B1FB070FD42B
:104440000199484600F0BAFB0023139A337008F133
:1044500001031360239B002B3FF4E6AC1E60E3E4F2
:10446000CDF8088033461E4613F8012D392A06D1AF
:10447000009A9A42F7D1029A013202923022013216
:104480001A709FE7744B0022FCF7BEF802460B46F9
:10449000CDE9062300220023FCF71EFB00289CD058
:1044A000CEE70B9A002A00F0E3800A9A012A00F373
:1044B000C280149A002A00F0BA8003F23343099DA7
:1044C0003E46089A01211A4448461F44089200F0CB
:1044D00029FC044656B1089B002B07DDB342089A1D
:1044E000A8BF3346FF1AF61AD31A0893099B0BB3D9
:1044F0000B9B002B00F0C380002D00F0BD802146F7
:104500002A46484600F0CEFC019A01460446484639
:1045100000F01EFC01998246484600F04FFB099BC3
:104520005B1B099300F0AE80099A5146484600F0A3
:10453000B9FC01900121484600F0F4FB0D9B0546B3
:10454000002B00F0D7811A460146484600F0AAFC2D
:104550000A9B012B054600F39D800E9B002B40F02B
:1045600094800F9BC3F31303002B40F08E800F9BAE
:1045700023F000431B0D1B05002B00F08980089BD6
:104580000133013708934FF0010A0D9B002B00F017
:10459000B7812B6905EB8303186900F077FBC0F145
:1045A0002000089B184410F01F007ED0C0F12003AB
:1045B000042B72DD089BC0F11C0003440744064431
:1045C0000893002F05DD01993A46484600F0C6FCE5
:1045D0000190089B002B05DD29461A46484600F04D
:1045E000BDFC0546129B002B61D00198294600F0C6
:1045F00023FD00285BDA08F1FF33029301990023C1
:104600000A22484600F0FCFA0B9B0190002B00F0B8
:104610007981002321460A22484600F0F1FA059BE1
:10462000002B044672DC0A9B022B49DC6EE0169BD1
:10463000C3F1360343E7049B5D1E099BAB420DDBD0
:104640005D1B049B002BBFF63BAF049BFE1A0023AF
:1046500037E700BF0000E03F00002440099B0D9AAF
:104660000995EB1A1A440D92049B3E46002528E753
:10467000099D0B9C3E462DE7DDF804A054E7099AFE
:10468000019953E7CDF804A054E74FF0000A7CE706
:104690009A467AE74FF0000A7BE792D0089A1C33DB
:1046A0001A441F441E4408928BE70346F6E7049B16
:1046B000CDF80880002B23DC05930A9B022B21DD1B
:1046C000059B002B7FF4B0AD29460522484600F03B
:1046D00097FA01460546019800F0AEFC00287FF7E6
:1046E000A3AD009E312306F8013B029B01330293E8
:1046F0009EE535462C46F4E7049DCDF80880F9E7A1
:10470000049B05930B9B002B00F00081002E05DD20
:1047100021463246484600F021FC0446BAF1000F1B
:104720005AD06168484600F00BFA064628B9824B19
:10473000024640F2EF21FFF73EBB226902329200AF
:1047400004F10C010C30FFF786FA0122314648468D
:1047500000F004FC0746009B009A03F1010B059B47
:10476000134406930E9B03F0010308930BF1FF33F0
:10477000294601980493FFF77CFA2146059000F141
:10478000300A019800F058FC3A46804629464846CF
:1047900000F06EFCC268064602BB0146019800F0BC
:1047A0004BFC024631464846099200F007FADDE923
:1047B000092342EA0301089B19435E4610D1BAF16E
:1047C000390F2BD0B8F1000F02DD059B03F1310A40
:1047D000049B83F800A02DE52746BCE70122E1E712
:1047E000B8F1000F06DB0A9B48EA0308089B58EA69
:1047F000030820D1002AEBDD01990122484600F090
:10480000ADFB2946019000F017FC002803DCDFD146
:104810001AF0010FDCD0BAF1390FD6D1049A39233E
:10482000137033461E46013B16F8012C392A52D02C
:1048300001321A70FEE4002A07DDBAF1390FEDD01B
:10484000049A0AF101031370F4E4069B0BF801AC1F
:104850005B452AD0019900230A22484600F0D0F98E
:10486000BC4201904FF000034FF00A022146484637
:1048700006D100F0C5F9044607460BF1010B75E7B8
:1048800000F0BEF93946044600230A22484600F0EB
:10489000B7F90746F1E7059B5E1E002B009BD8BFCA
:1048A00000265A1C27461644002401990122484636
:1048B00000F054FB2946019000F0BEFB0028B0DC5C
:1048C00002D11AF0010FACD133461E4613F8012D68
:1048D000302AFAD0AEE4009A9A42A3D1029B013367
:1048E00002933123AFE7239B002B7FF498AA134B4D
:1048F000FFF7B7BA0A9B012B7FF72FAEDDF834A084
:1049000001204EE6059B002B7FF7D7AE009E019855
:104910002946FFF7AEF900F1300A009B06F801AB1B
:10492000F21A059B9342B6DD019900230A224846FC
:1049300000F066F90190EAE7EC5A0008705A0008A6
:1049400038B50546002941D051F8043C0C1F002B16
:10495000B8BFE41800F0E8F81D4A136833B9636083
:1049600014602846BDE8384000F0E4B8A34208D9F6
:10497000206821188B4201BF19685B680918216003
:10498000EDE71A465B680BB1A342FAD911685018DB
:10499000A0420BD120680144501883421160E0D13D
:1049A00018685B68536008441060DAE702D90C238A
:1049B0002B60D6E7206821188B4204BF19685B681A
:1049C000636004BF091821605460CAE738BD00BFA6
:1049D00080840020024B0146186800F025B800BF13
:1049E0002400002070B50F4E0C463168054611B901
:1049F00000F0A8FE30602146284600F0A3FE431CCC
:104A000003D14FF0FF34204670BDC41C24F00304D2
:104A1000A042F8D0211A284600F094FE0130F2D1CD
:104A2000EFE700BF7C8400202DE9F843CD1C25F082
:104A3000030508350C2D38BF0C25002D064601DB7B
:104A4000A94204D90C2333600020BDE8F883DFF8C5
:104A5000D48000F069F8D8F800301C4644BB2946E1
:104A60003046FFF7BFFF431C044658D1D8F800403A
:104A70002746002F43D1002C4BD0236839463046BF
:104A800004EB030900F05EFE814542D121686D1AF6
:104A900029463046FFF7A6FF01303AD023682B4461
:104AA0002360D8F800305A6862BBC8F800700FE085
:104AB0002268521B20D40B2A17D96119A342256002
:104AC00018BF5960636808BFC8F8001062514B6096
:104AD000304600F02FF804F10B00231D20F00700F2
:104AE000C21A1CBF1B1AA350AFE76268A3420CBFD7
:104AF000C8F800205A60EBE723466468AEE73C46FE
:104B00007F68B6E71A465B68A342FBD10023536077
:104B1000DEE70C233360304600F00CF894E70560C4
:104B2000D6E700BF808400200148FFF792B800BF9D
:104B3000788400200148FFF78DB800BF78840020FA
:104B400070B5C46905460E4684B91020FFF742FFD0
:104B50000446E86128B90246164B17486B2100F05D
:104B600001FE0023C0E901330360C360E36853B969
:104B700021220421284600F013FEEB69E060DB6887
:104B80000BB9002070BD53F8260030B1026843F81D
:104B900026200023C0E90333F4E7012101FA06F4DB
:104BA000621D9200284600F0FBFD0028E9D0C0E914
:104BB0000164EEE77D5A0008FD5A000870B5C66929
:104BC00005460C4676B91020FFF704FF0246E8615F
:104BD00020B9094B09488F2100F0C4FDC0E90166E6
:104BE0000660C6603CB1EB696268DB6853F822106E
:104BF000216043F8224070BD7D5A0008FD5A00082C
:104C00002DE9F0410D6907460C461E4601F1140CD2
:104C10000020DCF8003099B202FB01611E0C0B0C85
:104C200002FB063389B2013001EB034185424CF8A7
:104C3000041B4FEA1346ECDC0EB3A368AB4219DC4D
:104C4000616838460131FFF77BFF804628B902468C
:104C50000C4B0D48BA2100F085FD2269023204F1A7
:104C60000C0192000C30FEF7F6FF21463846FFF7A4
:104C7000A5FF444604EB850301355E6125612046AE
:104C8000BDE8F081EC5A0008FD5A0008B0F5803FFD
:104C9000034636BF030400201020B3F1807F3CBFE1
:104CA0001B020830B3F1805F3CBF1B010430B3F13D
:104CB000804F3CBF9B000230002B05DB13F0804F80
:104CC00000F1010008BF202070470368024613F07E
:104CD00007000BD0D90721D4980749BF5B089B0870
:104CE000012013605CBF13600220704799B209B9BC
:104CF0001B0C1020D9B209B908301B0A190704BFD0
:104D00001B090430990704BF9B080230D90703D45C
:104D10005B0800F1010003D013607047002070476A
:104D20002020704710B50C460121FFF709FF02460D
:104D300028B9054B054840F2451100F013FD012349
:104D40004461036110BD00BFEC5A0008FD5A000821
:104D50002DE9F04FD1F81090D2F810A0D14585B0D0
:104D60008846144604DB53460C46CA46904699468C
:104D7000A36861680AEB0906B342B8BF0131FFF7C7
:104D8000DFFE30B90246454B45484FF4B17100F0A3
:104D9000E9FC00F1140505EB86072B460022BB4217
:104DA0001FD304F1140C08F114010CEB8A0301EB7E
:104DB000890202921A1B153A22F0030215349C4212
:104DC00088BF00220192029A03918A420CD8002ED9
:104DD00003DD57F8043D002B5DD0066105B0BDE84A
:104DE000F08F43F8042BDAE7B1F800A0BAF1000F16
:104DF00024D0E046A9464FF0000E58F8042BD9F80D
:104E000000401FFA82FBA4B20AFB0B444FEA124B8C
:104E1000D9F8002074444FEA124E0AFB0BE202EB71
:104E20001442A4B244EA0244434549F8044B4FEA11
:104E3000124EE2D8019AAA18C2F804E0039AB2F816
:104E400002800431B8F1000F23D02A68E64691466B
:104E5000AA464FF0000BBEF8004008FB04B404EB78
:104E6000194492B242EA04424AF8042B5EF8042B39
:104E7000DAF800904FEA124B1FFA89F208FB0B2276
:104E800002EB144273454FEA124BE4D8019C2C19F3
:104E90006260043597E7013E99E700BFEC5A0008CD
:104EA000FD5A00082DE9F843174612F00302804628
:104EB0000D4607D0264C013A002354F82220FFF774
:104EC0009FFE0546BF103FD0D8F81C4094B9102073
:104ED000FFF780FD0446C8F81C0030B902461D4BA0
:104EE0001D4840F2B31100F03DFC0023C0E901333E
:104EF0000360C360A66846B940F271214046FFF7DF
:104F000011FF0023A060064603602C464FF0000905
:104F100007F001037F1053B1294632464046FFF7A0
:104F200017FF214605464046FFF748FE67B1306847
:104F300038B9324631464046FFF70AFF3060C0F8C4
:104F4000009006462C46E3E72846BDE8F88300BFFC
:104F5000B05B00087D5A0008FD5A00082DE9F84FA3
:104F60000C464968236903EB6218A3680746154697
:104F70004FEA621A08F101094B450BDB3846FFF78F
:104F8000DFFD064648B90246294B2A484FF4EF7127
:104F900000F0E8FB01315B00EEE7002300F1140CA8
:104FA00000F110021946534535DB22692AEAEA7AF4
:104FB0000CEB8A0C04F1140315F01F0E614603EB91
:104FC00082022CD0CEF1200A002518688B4600FA08
:104FD0000EF02843CBF8000053F8045B9A4201F12D
:104FE000040125FA0AF5F0D8131B153B23F003033F
:104FF00004F115018A4238BF00239C44CCF80450C8
:1050000005B9C1463846C6F810902146FFF7D6FDCF
:105010003046BDE8F88F42F8041F0133C3E753F868
:10502000045B0D609A4201F10401F8D8E9E700BF82
:10503000EC5A0008FD5A00080A6903460069801A04
:1050400030B50ED11433143103EB820401EB82012D
:1050500054F8045D51F8042D954203D005D24FF069
:10506000FF3030BDA342F3D3FBE70120F9E7000096
:105070002DE9F74F8A460646114650461446FFF77B
:10508000DBFF051E12D129463046FFF759FD0246C7
:1050900028B9414B40F23721404800F063FB01231F
:1050A000C0E90435104603B0BDE8F08FBCBF5346DD
:1050B000A2463046DAF80410BABF1C460125002586
:1050C000FFF73EFD024618B9334B40F24521E3E7B6
:1050D000DAF810702669C5600AF1140904F1140E9B
:1050E00000F114050AF1100309EB87080EEB8606A0
:1050F0000193AB464FF0000C019B5EF8040B53F894
:1051000004AF01931FFA8AF3194683B2CB1A000C3D
:105110006344C0EB1A4000EB23409BB243EA0043D8
:1051200076454BF8043B4FEA204CE5D8331B153B42
:10513000153423F00303A64238BF0023E8184B447C
:105140001C1D04302646A5EB0905464506EB050E59
:105150000ED308F10301091B21F003010133984527
:1051600038BF0021014451F8043D9BB1176199E714
:1051700056F8041BE2464FEA11491CFA81FC5144DF
:1051800009EB2C4989B241EA09414FEA294CCEF892
:105190000010DAE7013FE6E7EC5A0008FD5A000884
:1051A0002DE9F7430F46012159EC108B1646FFF706
:1051B000C7FC044630B90246234B244840F20F3165
:1051C00000F0D0FAC9F30A55C9F313030DB143F443
:1051D00080130193B8F1000323D068460093FFF7D2
:1051E00074FD0099D8B1019AC0F1200302FA03F3CB
:1051F0000B43C24063610192019BA361002B0CBF72
:10520000012202222261A5B1A5F2334505443D6089
:10521000C0F135003060204603B0BDE8F083616125
:10522000EAE701A8FFF751FD019B636120300122ED
:10523000E8E704EB8203A0F2324038601869FFF718
:1052400025FDC0EB4210E5E7EC5A0008FD5A0008C6
:105250009368013B002B10B4936008DA9469A34271
:1052600001DB0A2903D15DF8044B00F0D9B91368BA
:10527000581C1060197008465DF8044B7047F8B56B
:1052800006460F461446D518AC4201D1002007E06F
:1052900014F8011B3A463046FFF7DAFF431CF3D1FE
:1052A000F8BD00002DE9F0470D469CB014461F469E
:1052B000064618B1036A0BB9FEF7C2FB6B6ED9073D
:1052C00005D4AB899A0502D4A86DFEF7C2FCAB8960
:1052D0001B0701D52B699BB92946304600F0DEF942
:1052E00070B16B6EDC0704D54FF0FF301CB0BDE829
:1052F000F087AB899805F7D4A86DFEF7ABFCF3E710
:105300000023099320238DF82930039730236A4F17
:105310008DF82A304FF001082346994613F8012BE7
:105320000AB1252AF9D1B9EB040A0BD0534622461B
:1053300029463046FFF7A3FF013000F0A480099A08
:105340005244099299F80030002B00F09C80002311
:105350004FF0FF32CDE9052309F1010904930793CA
:105360008DF853301A934C46534814F8011B05220C
:10537000FAF736FF049BD0B9D90644BF20228DF836
:1053800053201A0744BF2B228DF8532099F8002090
:105390002A2A13D0079A4C4600204FF00A0C2146C7
:1053A00011F8013B303B092B49D968B913E0C01B08
:1053B00008FA00F018430490A146D4E7039A111D9F
:1053C00012680391002A01DB079204E0524243F085
:1053D00002030792049323782E2B0AD163782A2B99
:1053E00032D1039B1A1D1B68039243EAE373023414
:1053F0000593DFF8D490217803224846FAF7F0FEAF
:1054000038B1049BA0EB09004022824013430134D1
:10541000049314F8011B29488DF828100622FAF786
:10542000DFFE00283ED0264818BB039B073323F03D
:10543000070308330393099B034409936CE70CFBB0
:1054400002320C460120AAE70023013405931946D5
:105450004FF00A0C204610F8012B303A092A03D9E4
:10546000002BC6D00591C4E70CFB012104460123A3
:10547000F0E703AB00932A46124B04A93046FDF730
:1054800095FE431CD7D16B6ED90705D4AB899A051D
:1054900002D4A86DFEF7DEFBAB895B063FF524AFB7
:1054A000099823E703AB00932A46064B04A930462C
:1054B000FEF712F9E5E700BF565B0008605B0008E5
:1054C000AD3100087F5200085C5B0008B1F90C2088
:1054D0002DE9F041160705460C4651D44B68002BC8
:1054E00002DC0B6C002B49DDE66A002E46D000235F
:1054F00012F480522F682B6031D0626DA389590756
:1055000005D56368D21A636B0BB1236CD21A0023E2
:10551000E66A216A2846B047421CB4F90C3006D12D
:1055200029681D2946D8294ACA40D60742D50022F3
:105530006260D9042269226004D5421C01D12B6823
:1055400003B96065616B2F60C1B104F144039942F6
:1055500002D02846FFF7F4F9002363630EE0216AC6
:1055600001232846B0470246501CC7D12B68002BA8
:10557000C4D01D2B01D0162B1AD12F6000201EE0A5
:105580000F69002FFAD093070E6808BF4B690F60B0
:1055900018BF0023A6EB07088B60B8F1000FEDDD04
:1055A000216AA66A43463A462846B047002808DCE6
:1055B000B4F90C3043F04003A3814FF0FF30BDE855
:1055C000F0810744A8EB0008E7E700BF0100402096
:1055D00038B50B6905460C4613B90025284638BD79
:1055E00018B1036A0BB9FEF72BFAB4F90C30002B93
:1055F000F3D0626ED00704D4990502D4A06DFEF7F3
:1056000028FB28462146FFF761FF636EDA0705464F
:10561000E4D4A3899B05E1D4A06DFEF71BFBDDE775
:10562000F8B50E461446054618B1036A0BB9FEF7E5
:1056300007FAA369A360A3891A0701D5236943B9AF
:105640002146284600F02AF818B14FF0FF373846B7
:10565000F8BD23682269981A6369F6B28342374617
:1056600005DC21462846FFF7B3FF0028EDD1A368EB
:10567000013BA36023685A1C22601E706269431CB0
:105680009A4204D0A389DB07E1D50A2EDFD1214657
:105690002846FFF79DFF0028D9D0D6E738B5284B1C
:1056A000054618680C4618B1036A0BB9FEF7C8F92D
:1056B000B4F90C301A0721D4D80607D409222A607D
:1056C00043F04003A3814FF0FF3030E0590712D57B
:1056D000616B41B104F14403994202D02846FFF7BF
:1056E0002FF9002363630022B4F90C306260226951
:1056F000226023F0240343F00803A38122693AB90E
:105700009A0501D5180603D52146284600F0B2F8BF
:10571000B4F90C3013F001020AD00022A2606269D1
:105720005242A261226942B913F08000C8D138BD4B
:10573000990758BF6269A260F4E70020F7E700BF4D
:105740002400002038B5064D0023044608462B608F
:10575000FCF72AFA431C02D12B6803B1236038BD41
:10576000748400201FB514461A46094B1B68054671
:10577000D8684CB1074B0091CDE9013406492B465E
:1057800000F042F800F0D2F8044B1C46F3E700BFEB
:1057900024000020715B00087E5B0008AC5B000801
:1057A00070B5A1FB025434B92946FFF73DF906460E
:1057B00028B9304670BD0C2202600026F9E72A465F
:1057C0002146FEF7C9F9F4E782B001B901A942B157
:1057D0004BB113780B601278101E18BF012002B075
:1057E00070471046FBE76FF00100F8E703460846F4
:1057F00041B1FF2A04D98A221A604FF0FF30704766
:105800000A700120704700000EB403B5014603ABD7
:10581000054853F8042B00680193FFF743FD02B0DD
:105820005DF804EB03B070472400002070B50C460F
:10583000B1F90E10002996B015461E460ADAA18964
:1058400011F0800113D14FF48062002031602A6092
:1058500016B070BD6A4600F047F80028EFDB0199EA
:1058600001F47041A1F5005359425941EBE7002181
:105870004022EAE78B8973B59E0705460C4607D59B
:1058800004F14703236023610123636102B070BD0B
:1058900001AB6A46FFF7CAFF009E28463146FFF774
:1058A000C3F8B4F90C3038B99A05EFD423F00303E8
:1058B00043F00203A381E3E743F08003A381019B4C
:1058C0002060C4E90406002BE0D0B4F90E1028468D
:1058D00000F01CF80028D9D0A38923F0030343F07B
:1058E0000103A381D2E7000038B5074D0023044629
:1058F000084611462B60FCF72EF9431C02D12B6899
:1059000003B1236038BD00BF7484002038B5064D54
:105910000023044608462B60FCF72DF9431C02D1F6
:105920002B6803B1236038BD7484002008B50620BD
:1059300000F02CF80120FCF7BEF81F2938B5054609
:105940000C4604D9162303604FF0FF3038BDC26BFC
:1059500012B152F821304BB9284600F031F82246F6
:1059600001462846BDE8384000F018B8012B0AD09F
:10597000591C03D1162303600120E7E7002142F8F8
:105980002410204698470020E0E70000024B014623
:105990001868FFF7D2BF00BF2400002038B5074DBC
:1059A00000230446084611462B60FCF774F8431C9C
:1059B00002D12B6803B1236038BD00BF748400207E
:1059C000FCF761B8F8B500BFF8BC08BC9E4670474C
:0C59D000F8B500BFF8BC08BC9E4670474C
:1059E00052414D206C6962726520616E746573204E
:1059F00064652063726561722074617265613A202A
:105A000025752062797465730D0A00007265645F04
:105A10004C656400677265656E5F4C6564000000EC
:105A2000626C75655F4C65640000000049444C453C
:105A3000000000000000000001020304494E46007F
:105A4000696E66004E414E006E616E00300030316E
:105A500032333435363738394142434445460030D5
:105A60003132333435363738396162636465660004
:105A7000496E66696E697479004E614E0052454503
:105A80004E54206D616C6C6F632073756363656544
:105A9000646564002F6275696C642F676E752D7480
:105AA0006F6F6C732D666F722D73746D33325F314F
:105AB000342E332E72656C312E3230323531303225
:105AC000372D303730302F7372632F6E65776C69E6
:105AD000622F6E65776C69622F6C6962632F7374D5
